:020000040800F2
:1000000000000220A5020008AD020008B1020008AD
:10001000B5020008B9020008BD0200080000000097
:10002000000000000000000000000000C102000805
:10003000C502000800000000C9020008F5440008DD
:10004000D9020008D9020008D9020008D902000824
:10005000D9020008D9020008D9020008D902000814
:10006000D9020008D9020008D9020008D902000804
:10007000D9020008D9020008D9020008D9020008F4
:10008000D9020008D9020008D9020008D9020008E4
:10009000D9020008D9020008D9020008C9430008A3
:1000A000D9020008D9020008D90200087D410008E1
:1000B000D50200087546000861440008D90200080E
:1000C000D9020008D9020008D9020008D9020008A4
:1000D000D9020008D9020008D9020008D902000894
:1000E000D9020008D9020008D9020008D902000884
:1000F000D9020008D9020008D9020008D902000874
:10010000D9020008D9020008D9020008D902000863
:10011000D9020008D9020008D9020008D902000853
:10012000D9020008D9020008D9020008D902000843
:10013000D9020008D9020008D9020008D902000833
:10014000D9020008D9020008D90200088D3400083D
:10015000D9020008D9020008D9020008D902000813
:10016000D9020008D9020008D9020008D902000803
:10017000D9020008D9020008D902000800000000D6
:10018000D9020008D902000800B53548354B364D74
:10019000364C374A2A60984283B0226007D2C24365
:1001A000134423F003020432002106F06AF82B689E
:1001B00003B1FEE72368002BFBD12E482E4B2F4DB9
:1001C0002F4C2B4A2A609842226007D2C243134424
:1001D00023F0030204322B4906F04AF82A682A4B1E
:1001E0009A4200D0FEE7226823689A42FAD1274E4D
:1001F000274D761B05F062F9B610684601A903F099
:100200004BF9002E07DD043D0024013455F8043F6E
:100210009847B442F9D11F4E1F4D761BB610002EE1
:1002200007DD043D0024013455F8043F9847B442EB
:10023000F9D11A4D1A4C9DE8030005F089FA641BA8
:10024000A410002C0646C8BF05EB840505DD013C63
:1002500055F8043D9847002CF9D1304603F0F4F8E6
:10026000F80100207CB30120F801002078B30120C0
:10027000BABADECA00000020F4010020000000200D
:10028000F00100207C70000878563412DC0200086F
:10029000DC020008E4020008DC020008E4020008B6
:1002A000E402000808B5FFF76FFF00BFFEE700BFDC
:1002B000FEE700BFFEE700BFFEE700BFFEE700BFAE
:1002C000FEE700BFFEE700BFFEE700BFFEE700BF9E
:0C02D000FEE700BFFEE700BFFEE700BF36
:0802DC00F1350008F54B0008A4
:1002E400704700BF08B50C4B1A6842F400721A60DC
:1002F4001A6842F480621A601A6842F480721A60C2
:100304004FF47A5000F07CF8032000F023F8FFF754
:10031400E7FF002008BD00BF003C0240024B1A6802
:1003240001321A60704700BFFC010020014B1868BD
:10033400704700BFFC01002082B0054A019011689B
:10034400019B194413689942FCD802B0704700BF5E
:10035400FC010020074AD1684FF6FF030B4043F02D
:10036400BF6300F0070043F4003343EA0023D36083
:10037400704700BF00ED00E0194B30B4DC68C4F3F3
:100384000224C4F10703251D042B28BF0423062DD2
:1003940019D9033C0125A540013D2A40012505FA50
:1003A40003F3013B194001FA04F4002844EA02046F
:1003B4000CDB00F1604000F561402401E4B280F8F8
:1003C400004330BC704700221446E7E7054B00F0B9
:1003D4000F0024010344E4B21C7630BC704700BF14
:1003E40000ED00E0FCEC00E000F01F0201214009F8
:1003F400024B01FA02F243F82020704700E100E0CA
:100404000138B0F1807F10B40DD2094B094C58600B
:10041400F02084F823000022072110469A60196016
:100424005DF8044B704701205DF8044B704700BF32
:1004340010E000E000ED00E04209603200F01F002F
:100444000121034B01FA00F043F82200704700BF7A
:1004540000E100E02DE9F00F0023DFF8B0920F680F
:10046400A94D03E00133102B00F0E68001229A40ED
:1004740002EA07049442F5D14A6822F01008B8F160
:10048400020F00F082805E004FF0030CD0F800A051
:100494000CFA06FC6FEA0C0C0CEA0A0AC0F800A07D
:1004A400D0F800A002F0030B0BFA06FB08F1FF38AA
:1004B4004BEA0A0AB8F1010FC0F800A040F29B8091
:1004C400D0F80CA0D1F808800CEA0A0CC0F80CC0D3
:1004D400D0F80CC008FA06F646EA0C06C660D60048
:1004E400C0D5D9F844C023F0030606F1804606F5CA
:1004F4009C364CF4804CC9F844C003F0030CD6F885
:1005040008A04FEA8C0C4FF00F0808FA0CF82AEAFE
:100514000808DFF8FCA1C6F808805045D6F8088022
:1005240000F08D800AF5806A504500F0C480DFF841
:10053400E4A1504500F0C480DFF8DCA1504500F090
:10054400C480DFF8D8A1504500F0C480DFF8D0A102
:10055400504500F0C980DFF8CCA1504500F0C980B7
:10056400DFF8C4A1504500F0BA80DFF8C0A15045BF
:1005740000F0C480DFF8B8A150450CBF4FF0090A61
:100584004FF00A0A0AFA0CFC5BE0DE0800EB860670
:1005940003F0070CD6F820A0D1F810B04FEA8C0C69
:1005A4004FF00F0808FA0CF82AEA0808C6F8208069
:1005B400D6F82080D6F820A00BFA0CFC4AEA0808EA
:1005C40048EA0C0CC6F820C05E004FF0030CD0F8CB
:1005D40000800CFA06FC6FEA0C0C0CEA0808C0F860
:1005E4000080D0F800A002F0030808FA06F848EAF0
:1005F4000A08C0F80080D0F808A0D1F80C800CEAF2
:100604000A0AC0F808A0D0F808A008FA06F848EAD0
:100614000A08C0F80880D0F8048028EA0408C0F862
:100624000480D0F804A0C2F3001808FA03F848EADA
:100634000A08C0F8048043E7BDE8F00F70474FF0A4
:10064400000C4CEA080CC6F808C0D5F800C0E64314
:1006540006EA0C0CC5F800C0D5F804C012F4803FBB
:1006640006EA0C0CC5F804C005D0D5F800C044EA6D
:100674000C0CC5F800C012F4003F05D0D5F804C036
:1006840044EA0C0CC5F804C0D5F808C006EA0C0C02
:10069400C5F808C0D5F80CC006EA0C06EE60D60210
:1006A40002D5AE682643AE6092027FF5DBAEEA68FF
:1006B4001443EC60D6E64FF0010A0AFA0CFCC0E7DA
:1006C4004FF0020A0AFA0CFCBBE74FF0030A0AFADD
:1006D4000CFCB6E74FF0040A0AFA0CFCB1E74FF041
:1006E400070A0AFA0CFCACE74FF0050A0AFA0CFCFC
:1006F400A7E74FF0060A0AFA0CFCA2E74FF0080A33
:100704000AFA0CFC9DE700BF003C0140003802409F
:100714000000024000080240000C024000100240A9
:100724000014024000180240001C02400020024055
:1007340000240240036919420CBF002001207047C5
:100744000AB9418370470183704700BF4369594028
:100754004161704770B50C460546FFF7E7FD061981
:1007640001342A6805D193699B07FCD4002070BD2D
:100774002A689369DB4313F00204F7D1FFF7D6FD2F
:100784008642F5D8012385F8344085F835300320B6
:1007940070BD00BF2DE9F04706460068089F8A46F1
:1007A400016841F48071016090469946FFF7BEFDEF
:1007B400791C356800EB070439D16C69E207FCD574
:1007C4000AF0FE032B61FFF7B1FD7A1C316800EBE0
:1007D400070403D038E04B69580539D448698407C5
:1007E400F9D54B698B69FFF7A1FD7B1C326800EBDF
:1007F40007044BD153691B06FCD5B9F1010F0BD08B
:100804004FEA18231361FFF791FDC41901373268C9
:1008140040D153691806FCD55FFA88F313610020B0
:10082400BDE8F087FFF782FD84423FD935686B69E4
:10083400DB07F7D5C4E74B6913F4806508D1FFF7EC
:1008440075FD84423BD931684B699A07F3D5C8E7F3
:100854000B6843F400730B604C69042024F4806437
:10086400012300224C6186F8360086F8342086F88D
:10087400353096F83630042B14BF03200120BDE830
:10088400F087FFF753FD844210D9326853691D067F
:10089400F7D5B2E753691906BED4FFF747FD844282
:1008A40004D9326853691906F7D5B5E70122002344
:1008B40086F8352086F834300320BDE8F08701231C
:1008C40086F8345086F83530D3E700BF2DE9F84F69
:1008D400064600680A9F8A46016841F48061016007
:1008E400016841F48071016090469946FFF71EFD4E
:1008F400791C356800EB070464D16C69E207FCD508
:100904005FFA8AFA0AF0FE032B61FFF70FFDC5199F
:10091400781C346803D062E06369590563D4606964
:100924008007F9D56369A369FFF700FD791C326874
:1009340000EB070474D153691B06FCD5B9F1010F10
:100944000BD04FEA18231361FFF7F0FCC419781C8D
:10095400326877D153691906FCD55FFA88F31361BD
:10096400FFF7E4FC7D1C326800EB070461D1536996
:100974001806FCD5136843F480731360FFF7D6FCA4
:100984007A1C336800EB070465D15A69D207FCD599
:100994004AF001021A61FFF7C9FCC4190137336830
:1009A40003D07EE05A69540569D45A69D24312F0DF
:1009B4000202F7D11046BDE8F88FFFF7B7FC844276
:1009C4004DD935686B69DB07F7D599E7636913F48B
:1009D400806B08D1FFF7AAFC85424AD93468636961
:1009E4009A07F3D59EE7236843F400732360606994
:1009F400042120F4806001230022606186F836100F
:100A040086F8342086F8353096F83630042B2DD00D
:100A14000320BDE8F88FFFF789FC84421FD93268B0
:100A240053691D06F7D589E7FFF780FC844216D980
:100A3400326853691906F7D59CE7FFF777FC8442BF
:100A44000DD9326853691B06F7D586E7FFF76EFCAC
:100A5400844204D933685A69D507F7D598E7012247
:100A6400002386F8352086F83430D1E70120BDE82C
:100A7400F88F012386F834B086F83530C4E71A6855
:100A840042F400721A605C69042024F48064012238
:100A940000215C6186F8360086F8341086F835202B
:100AA400B2E75A69D24312F0020283D05A6912F4AF
:100AB4008065E4D1FFF73AFC844201D93368F0E75A
:100AC400012386F8345086F835309DE7704700BF1F
:100AD400F8B50446002866D090F83530002B4FD086
:100AE4002368324D022284F835201A6822F001026C
:100AF4001A6001F053FB2E4962682368A1FB006170
:100B0400890CAA42596025D85200B0FBF2F0C0F318
:100B14000B020131032A19628CBF84464FF0040C86
:100B2400206AE769E6682169A2696569C3F81CC09F
:100B3400384331432A4318609960DA601868002208
:100B440040F001000121186084F83620104684F832
:100B54003510F8BD4FF49677164EA56807FB01F1E2
:100B6400A6FB017189090131196265B902EB4202E0
:100B7400B0FBF2F0C0F30B0292B94FF0010CCFE7D7
:100B8400FFF7A4FFACE702EB820202EB8202B0FBA8
:100B9400F2F0C0F30B02002AEFD040F4404CBFE760
:100BA40040F4004CBCE70120F8BD00BFA086010062
:100BB40083DE1B43D34D62102DE9F04190F835508C
:100BC40082B0EDB2012D0446BDF8246003D00220AA
:100BD40002B0BDE8F081089FFFB1F6B10768BF69B4
:100BE40017F00208F3D190F834C0BCF1010FEED035
:100BF4004FF0320E0A9F80F83450009780F835E0A9
:100C040080F83680FFF7C6FD48B194F8363084F892
:100C14003480042B01D00320DAE72846D8E7FFF715
:100C240085FB0A990A9D2268013105442FD1536935
:100C34001B06FCD5089F3B7813615369711E5B0743
:100C440089B231D4013708970E46002EE7D1FFF759
:100C54006DFB0A9B0A9D22680133054420D1536928
:100C64001806FCD513680A9943F4007313602046F0
:100C7400FFF770FD0028CED1012384F8340084F8F6
:100C84003530A5E7FFF752FB854217D9226853692F
:100C94001F06F7D5CEE7FFF749FB85420ED9226838
:100CA40053691906F7D5DDE70029D0D0089D023E27
:100CB4006B7813610235B6B20895C6E701220023AA
:100CC40084F8352084F83430032081E72DE9F0419D
:100CD40090F8356082B0F6B2012E0546BDF8247056
:100CE40004D00224204602B0BDE8F081089CFCB187
:100CF400F7B10468A46914F00208F2D190F8344002
:100D0400012CEED00A9C80F834604FF0420E00941F
:100D140080F835E080F83680FFF7D8FD044648B106
:100D240095F8363085F83480042B01D00324D9E7B4
:100D34003446D7E7012F2B6800F0CF80022F00F054
:100D4400D7805A699B69032F60D8012F00F0A680D1
:100D5400022F7CD0FFF7EAFA0A9B0A9E2A68013325
:100D640006443AD153695807FCD5136823F48063C9
:100D740013601369089A1370FFF7D8FA0A9B0A9E46
:100D84002A680133064431D153695B07FCD51368E3
:100D940043F4007313601369089A53702B681B693A
:100DA40093702B681A6822F400621A60FFF7BEFA87
:100DB4000A9A0A9E2B680132064421D19A69910746
:100DC400FCD40122002385F8352085F8343089E7E6
:100DD400FFF7ACFA864279D92A6853695907F7D5DF
:100DE400C3E7FFF7A3FA864270D92A6853695F07FD
:100DF400F7D5CCE7FFF79AFA864240F284802B6855
:100E04009B69DB4313F00207F4D0DAE7FFF78EFAAD
:100E14000A9B0A9E2A680133064414D153695E066C
:100E2400FCD51369089A13702B685A6952072DD49C
:100E3400089B013F0133BFB2089384E7FFF776FABA
:100E4400864243D92A6853695806F7D5E9E7FFF77C
:100E54006DFA0A9B0A9E2A680133064412D153692B
:100E64005B07FCD5136843F4007313601369089A95
:100E740013702B681B69537093E7FFF757FA864288
:100E840024D92A6853695F07F7D5EBE7089A1B69E9
:100E94005370023F0232BFB2089254E7FFF746FA9A
:100EA4000A9B0A9E2A68013306440BD153695806EB
:100EB400FCD51369089A137073E7FFF737FA864273
:100EC40004D92A6853695906F7D5F2E701220023A9
:100ED40085F8352085F8343028E71A6822F48062D2
:100EE4001A605A699A691A6842F400721A602AE709
:100EF4001A6822F480621A601A6842F400621A6066
:100F04005A699B691FE7012385F8347085F83530E9
:100F14000324E7E62DE9F04190F8355082B0EDB2B4
:100F2400012D0446BDF8246003D0022002B0BDE8C0
:100F3400F081089F2FB326B30768BF6917F0020832
:100F4400F3D190F834C0BCF1010FEED04FF0420C55
:100F54004FF0230E089F80F835C080F83450476264
:100F64000685CDF800E080F836804685FFF7AEFCB4
:100F740048B194F8363084F83480042B01D003202F
:100F8400D4E72846D2E7638D9BB2012B12D0638D40
:100F94009BB2022B23681A6818D042F480621A604C
:100FA4005A699A695A68002142F4E06284F834105C
:100FB4005A60BBE723681A6822F480621A605A698F
:100FC4009A691A6842F400721A60EBE722F48062AC
:100FD4001A601A6842F400621A605A699A69E1E771
:100FE4002DE9F04F04468BB0002800F0FA814FF051
:100FF4000208064680F8798304F080FD206801F039
:1010040089FD56F8107B0FCE6D460FC596E80F008C
:1010140085E80F00251D95E80E000995384601F076
:1010240015FD2068002101F07DFD00254FF0010E23
:101034004FF0030B4FF0040A4FF005094FF008037B
:1010440084F831E084F84DE084F84CE084F869E0F9
:1010540084F885E084F8A1E084F8BDE084F8688031
:1010640084F8305084F83350A563E563656484F8EC
:101074004F506565A565256684F86B5025676567DF
:10108400E56784F88750C4F88C50C4F89050C4F8CD
:10109400985084F8A350C4F8A850C4F8AC50C4F8CD
:1010A400B45084F8BF5084F884B084F8A0A084F8C5
:1010B400BC90C4F8C45084F810314FF0090384F88C
:1010C4002C314FF00A030620072184F848314FF0F1
:1010D4000B0384F8D9E084F8F5E084F811E184F88E
:1010E4002DE184F849E184F865E184F8D80084F8B6
:1010F400F410C4F8C850C4F8D05084F8DB50C4F8D5
:10110400E050C4F8E450C4F8EC5084F8F750C4F844
:10111400FC50C4F80051C4F8085184F81351C4F8C1
:101124001851C4F81C51C4F8245184F82F51C4F840
:101134003451C4F83851C4F8405184F84B51C4F8C0
:101144005051C4F85451C4F85C5184F86431276890
:1011540084F881E14FF00E0C0C220D2384F8B8C101
:1011640084F89DE184F8B9E184F8802184F89C3105
:1011740084F86751C4F86C51C4F87051C4F87851BC
:1011840084F88351C4F88851C4F88C51C4F894513C
:1011940084F89F51C4F8A451C4F8A851C4F8B051BC
:1011A40084F8BB51C4F8C051C4F8C451C4F8CC513C
:1011B40084F8D55184F8D451E58684F8D751C4F81D
:1011C400DC51C4F8E051C4F8E851C7F8045184F87C
:1011D400F0E184F8F151A4F852E084F8F351C4F832
:1011E400F851C4F8FC51C4F80452C7F8085184F803
:1011F4000D5284F80C82A4F86E8084F80F52C4F85F
:101204001452C4F81852C4F82052C7F80C5184F888
:10121400295284F828B2A4F88AB084F82B52C4F86E
:101224003052C4F83452C4F83C52C7F8105184F810
:10123400455284F844A2A4F8A6A084F84752C4F8FE
:101244004C52C4F85052C4F85852C7F8145184F898
:10125400615284F86092A4F8C29084F86352C4F88E
:101264006852C4F86C52C4F87452C7F8185184F820
:101274007C02A4F8DE0084F87D5284F87F52C4F81E
:101284008452C4F88852C4F89052C7F81C5184F8A8
:101294009812A4F8FA104FF0080184F8995284F8CF
:1012A4009B52C4F8A052C4F8A452C4F8AC52C7F874
:1012B400205184F8B4124FF00801A4F816114FF02D
:1012C400090184F8B55284F8B752C4F8BC52C4F882
:1012D400C052C4F8C852C7F8245184F8D0124FF051
:1012E4000901A4F832114FF00A0184F8D15284F8AC
:1012F400D352C4F8D852C4F8DC52C4F8E452C7F844
:10130400285184F8EC124FF00A01A4F84E114FF062
:101314000B0184F8ED5284F8EF52C4F8F452C4F887
:10132400F852C4F80053C7F82C5184F808134FF04E
:101334000B01A4F86A1184F8095384F80B53C4F818
:101344001053C4F81453C4F81C5304F1100EC7F816
:10135400305184F82423A4F8862184F8255384F892
:101364002753C4F82C53C4F83053C4F83853C7F87F
:10137400345184F84033A4F8A23184F8415384F8FA
:101384004353C4F84853C4F84C53C4F85453C7F8EF
:10139400385184F85D5384F85CC384F85F53BEE825
:1013A4000F00EE46A4F8BEC1C4F86453C4F86853F1
:1013B400C4F87053C7F83C51AEE80F0096E80F002C
:1013C4008EE80F00099E384696E80E0001F0C4FB33
:1013D40084F87953206801F0B5FF28460BB0BDE8C6
:1013E400F08F01200BB0BDE8F08F00BF90F8783388
:1013F400012B10B5044601D1022010BD012380F851
:101404007833006801F092FF206801F07BFB002034
:1014140084F8780310BD00BF2DE9F04F076887B04A
:101424000446384601F0CCFF10B107B0BDE8F08F98
:10143400206801F093FF0028F7D0206801F08EFFA8
:1014440010F0020F20681EBF436943F0020343619A
:1014540001F084FF010300F134814FF0000820689B
:1014640001F07CFF10F4802F206840F0CE8001F062
:1014740075FF0028C0F21782206801F06FFF010594
:101484004ED4206801F06AFFC3047FD4206801F0C1
:1014940065FF10F4005F20685AD101F05FFF10F07F
:1014A400100F206817D0836923F0100383613D6A0D
:1014B40005F00F03C3EBC303C5F3434204EB8303FB
:1014C400022A03F5EA7600F0DA81062A33D083692A
:1014D40043F01003836101F041FF070700F14181EC
:1014E400206801F03BFFC60200F12581206801F06D
:1014F40035FF850200F12A81206801F02FFF4000AA
:1015040000F1D680206801F029FF41078DD52368BA
:101514005D686A0700F198815A6815435D6084E745
:10152400D7F80838DA0700F194812068436943F456
:1015340000634361A6E7384604F55F71082201F0B1
:1015440093FEB3692068C5F30A152B44B361BEE763
:1015540001F03AFF2068C36823F47053C36001F0BC
:10156400C7FB2368002840F08181DA68E0604FF40B
:10157400007142F410526161DA60204604F098FB75
:101584002068436943F40053436186E707F5006626
:101594007368206823F001037360002101F096FB57
:1015A40065685DB107F510630022FF210132AA428C
:1015B4009960C3F8081203F12003F7D14FF0FF3309
:1015C400B361F269A36A42F00112F261002B00F0E8
:1015D4004481D6F8843043F00B03C6F88430736C2E
:1015E40043F00B037364D7F800382068217C23F49C
:1015F400FE63C7F8003804F55F7201F001FF20684C
:10160400436943F48053436141E701F0B3FE8346E9
:10161400002800F087814FF00008206803972546D2
:1016240007F5106AC14609E05FEA5B0B09F101099D
:1016340005F11C050AF1200A00F09C801BF0010F43
:10164400F2D05FFA89F7394601F0A6FEC3070646D1
:1016540016D5012303FA09F1039B03F50062C9437C
:101664002369516301229342CAF8082000F03881AB
:101674003946204604F00EFB2169012900F022813D
:10168400300744BF0823CAF80830F10644BF1023CA
:10169400CAF80830720644BF4023CAF80830B307BA
:1016A40044BF0222CAF80820300666D42068BBE78B
:1016B400204604F01DFB2068436943F080434361E6
:1016C40021E7206801F04EFE054600283FF4C5AE30
:1016D40007F53066A3464FF0000808E06D0808F1EE
:1016E400010806F120060BF11C0B3FF4B8AEEA0723
:1016F400F4D55FFA88FA5146206801F043FE10F0F1
:10170400010F81460DD0236901229342B26000F09B
:10171400FB805146204604F0B3FA2169012900F008
:10172400E48019F0080F40F0898019F0100F1CBFF5
:101734001022B260D2E720465FFA88F104F0D4FAAE
:101744002068436943F480134361D0E620465FFA7E
:1017540088F104F0C5FA2068436943F40013436137
:10176400CBE6204604F0A0FA2068436943F008035E
:101774004361B6E6C846039F79E62368696CD5F8E9
:1017840048C0AA6B049303F5106808EB4918CCEB26
:101794000103934234BF1E461646D8F818E0F01CE5
:1017A40048BFB01D1FFA8EFEBEEBA00F40F2BD80F5
:1017B400614540F2BA80002900F0B780E96BCDF8AA
:1017C40014901646A94625464446DDF8108006E0E6
:1017D400D9F844209A421ED9D9F83860D31AB342B2
:1017E40038BF1E462B7C00933A46B3B2404601F004
:1017F40027FDD9F83C10D9F8483031443344C9F8AE
:101804003C10C9F84830A069F21C80B248BFB21D30
:10181400B0EBA20FDCD82C464D462068DDF81490BE
:10182400002E3FF701AF049A02F50061012202FA8B
:1018340009F34A6B22EA03034B63F5E6204604F0FE
:1018440019FA0823B36070E7204604F055FA2368B8
:1018540062E6204604F03CFA67E6736943F00B0342
:101864007361336943F00B033361BCE6DA68032028
:1018740042F4A0524021E0606161DA607DE647F6FF
:10188400F0732B40002B3FF422AE1D092A46384644
:10189400F16801F0E9FCF268B36920682A442B443A
:1018A400F260B36113E6D7F8042822F0010220465F
:1018B400C7F8042804F010FA2068436943F0004391
:1018C4004361DAE5B9F1000F7FF4DAAE636C002B03
:1018D4007FF4D6AE206804F55F7201F091FDCFE687
:1018E400EA6BAB6B1344EB63C2E6B8F1000F7FF411
:1018F40018AFD4F8E831002B7FF413AF206804F557
:101904005F7201F07DFD0CE73169DBF8DC31DBF857
:10191400E021C1F31201591A1344CBF8EC11CBF8AE
:10192400E031F6E680462068A1E5049878E700BF38
:1019340090F87833012B10B5044601D1022010BD74
:10194400012380F87833006801F0E0FC002084F87B
:10195400780310BD70B50546080620D4C1EBC1005C
:1019640005EB800000F5EA74002680F8D411A2602B
:10197400E3706670022B04BF0023237195F878335B
:10198400012B01D1022070BD0123214685F8783353
:10199400286801F0CBF9002085F8780370BD01F0C8
:1019A4007F01C1EBC100800030302C18012629547E
:1019B400A260E370E1806670DCE700BFCAB2130680
:1019C40010B5044619D4C1EBC10300EB830303F53E
:1019D400EA73D2095A70197094F87823012A01D154
:1019E400022010BD0122194684F87823206801F0F2
:1019F400E5F9002084F8780310BD01F07F01C1EB04
:101A0400C10300EB83033033E3E700BF70B501F09B
:101A14007F050446C5EBC50004EB800000F5EA71C0
:101A240000264E70CA604B618E6180F8D4512369E0
:101A3400012B08BF0A6194F87823012A11D00122EE
:101A440084F878232068DAB22DB101F0F9F9002086
:101A540084F8780370BD01F035FB002084F8780326
:101A640070BD022070BD00BF01F07F01C1EBC10158
:101A740000EB8100B0F8EC01704700BFF8B501F04D
:101A84007F05C5EBC5018900044601F1300021182A
:101A9400012600274E70CA604B618F61255423696B
:101AA400B34208BF0A6194F87823012A11D00122B5
:101AB40084F878232068DAB22DB101F0C1F900204E
:101AC40084F87803F8BD01F0FDFA002084F8780367
:101AD400F8BD0220F8BD00BFCAB238B513060446EB
:101AE4001CD4C1EBC10300EB830303F5EA730D4679
:101AF400D20901215A701D70997094F878238A4292
:101B040001D1022038BD84F878132068194601F009
:101B1400BFFB5DB1002084F8780338BD01F07F0578
:101B2400C5EBC50300EB83033033E1E72068217C78
:101B340004F55F7201F064FCECE700BFCAB238B58B
:101B4400130604461BD4C1EBC10300EB830303F566
:101B5400EA73D20900255A7019709D7094F878239D
:101B6400012A01D1022038BD0122194684F87823C4
:101B7400206801F0ADFB84F87853284638BD01F0A5
:101B84007F01C1EBC10300EB83033033E1E700BF06
:101B940030B405686B6AD1B1A86A013903EB10400F
:101BA4000CD000242346403405EB840401336468DC
:101BB400DBB28B4200EB14401C46F4DB403105EBF6
:101BC400810540EA02406860002030BC704743EA67
:101BD4000243AB62002030BC704700BF03680020A2
:101BE4005962704703682DE9F041DE07054635D593
:101BF400B34A916801F00C01042900F0E88091686F
:101C040001F00C01082900F0DE80AE4BAC4E00223E
:101C14001A70FEF78BFB00F59C54083404E0FEF7C1
:101C240085FB844240F2C08033689903F7D4A54B06
:101C34002A791A706B68012B00F05081FEF776FB4D
:101C440000F59C5408349E4E04E0FEF76FFB84427A
:101C540040F2AA8033689B03F7D42B689F072FD5E3
:101C6400974A916811F00C0F00F0A580916801F07B
:101C74000C01082900F09B80EB68002B00F0C38066
:101C8400914B8F4C01221A60FEF750FB00F1640661
:101C940004E0FEF74BFB864240F286802368884AC4
:101CA4009807F6D51168F82090FAA0F0B0FA80F001
:101CB4002B69C0B221F0F80183400B4313602B68F9
:101CC4001A0720D4590734D4AB69CBB17C4CA26831
:101CD40002F00C02082A00F08380022B7B4B4FF0A9
:101CE40000021A6000F0A080FEF720FB00F16405FA
:101CF40003E0FEF71BFB854256D923689B01F8D409
:101D04000020BDE8F0816B69002B6CD0704B6C4CEB
:101D140001221A60FEF70AFB00F1640603E0FEF7F5
:101D240005FB864240D9636F9F07F8D52B68590796
:101D3400CAD5634B674C1A6C42F080521A6423680C
:101D440043F480732360FEF7F1FA00F1640603E0C4
:101D5400FEF7ECFA864227D92368DA05F8D55E4BFC
:101D6400574E00221A70FEF7E1FA00F59C5408342D
:101D740003E0FEF7DBFA844216D9336F9B07F8D4ED
:101D8400554B2A7A1A70AB68012B00F0B780FEF726
:101D9400CDFA4B4E00F59C540834336F980793D515
:101DA400FEF7C4FA8442F8D80320BDE8F0815268F3
:101DB40056023FF561AF424A1268940780D5EA683B
:101DC400012A0DD17CE7526854027FF51EAF3C4ACC
:101DD400126890037FF542AF6A68012A3FF43EAF70
:101DE4000120BDE8F0813A4A354C1360FEF79EFAB3
:101DF40000F1640603E0FEF799FA8642D4D9636FD2
:101E04009807F8D492E7304A2D4C1360FEF78EFA07
:101E140000F1640603E0FEF789FA8642C4D9236818
:101E24009907F8D42B684BE7FEF780FA00F16407B2
:101E340003E0FEF77BFA8742B6D92368204E990166
:101E4400F7D447F6C07494FAA4F4B4FA84F44FF4C3
:101E5400403191FAA1F1B1FA81F14FF0706292FA36
:101E6400A2F2B2FA82F2D5F82080EF69D5F828C040
:101E7400D5F824E0E86A154B4FEA5C05E4B248EA79
:101E840007070EFA04F4C9B247F00057013D3C437A
:101E9400D2B205FA01F100FA02F221431143012200
:101EA40071601A60FEF742FA00F1640404E0FEF780
:101EB4003DFA84427FF678AF33689A01F7D51FE77D
:101EC40000380240023802400000474260004742A6
:101ED400800E47420070004070380240FEF726FA38
:101EE40000F59C5408340D4E04E0FEF71FFA8442BA
:101EF4007FF65AAF33689A03F7D5AEE6FEF716FAC3
:101F0400064E00F59C540834336F9F073FF5DCAE52
:101F1400FEF70CFA8442F7D846E700BF00380240C7
:101F2400294B9A6802F00C02042A10B44AD0082AF9
:101F340014D02648244BF0229B6892FAA2F2B2FAFB
:101F440082F203F0F003D2B223FA02F22049214BC9
:101F54008A5C5DF8044BD040186070475868596833
:101F640000F03F044FF4800292FAA2F2B2FA82F235
:101F740001F48001D2B231FA02F2596847F6C07214
:101F840092FAA2F2B2FA82F247F6C07314BF124870
:101F94000E48D2B20B40D3400B4AB0FBF4F000FB26
:101FA40003F052684FF4403393FAA3F3B3FA83F384
:101FB40002F44032DBB222FA03F301335B00B0FBDC
:101FC400F3F0B7E70448B5E7003802400024F40012
:101FD400B06B00080C00002000127A00F8B56A4BC0
:101FE4001A6802F00F028A420C46054608D2CAB2A9
:101FF4001A701B6803F00F038B4264D00120F8BDF4
:102004000368DB0724D54368604A012B126800F09B
:102014009580022B00F09A809007EFD55B4FBA6849
:1020240022F003021343BB60FEF780F96B6800F5EE
:102034009C56012B06F1080670D0022B04D177E0E0
:10204400FEF774F986427DD9BB6813F00C0FF7D103
:102054004D4BE2B21A701B6803F00F03A342CDD1BB
:102064002B68990706D5494AA968906820F0F000C2
:10207400014391605A0706D5444AE968906820F400
:10208400E050014391601B0707D5404B29699A68CA
:1020940022F4604242EAC1029A60FFF741FF3C4BDE
:1020A400A3FB00239B09013BB3F1807F4CD2394A47
:1020B40039485360F02480F82340002307219360BB
:1020C40018461160F8BD0368DC07CAD543682F4A77
:1020D400012B126855D0022B50D092078ED52B4E6F
:1020E400B26822F003021343B360FEF71FF96B6872
:1020F40000F59C54012B04F108042FD0022B04D1C9
:1021040036E0FEF713F984421CD9B36813F00C0FC0
:10211400F7D1A5E7FEF70AF9864213D9BB6803F0A5
:102124000C03042BF6D193E7FEF700F9864209D994
:10213400BB6803F00C03082BF6D189E797033FF53E
:102144006DAF5BE70320F8BD0020F8BD96013FF5B5
:1021540065AF53E7FEF7EAF88442F3D9B36803F0B6
:102164000C03042BF6D17BE7FEF7E0F88442E9D9AF
:10217400B36803F00C03082BF6D171E79101AED4D8
:102184003CE79003ABD439E7003C024000380240FE
:10219400D34D621010E000E000ED00E0314B9A688E
:1021A40002F00C02042A10B459D0082A23D02E4B72
:1021B4002C49F0248A6894FAA4F4B4FA84F402F062
:1021C400F002E4B222FA04F4284A2948145DE340F8
:1021D400036088684FF4E05191FAA1F1B1FA81F1FA
:1021E40000F4E050C9B220FA01F15DF8044B505CF0
:1021F40023FA00F070475A68596802F03F004FF420
:10220400800292FAA2F2B2FA82F201F48001D2B20E
:1022140031FA02F25C6847F6C07292FAA2F2B2FA9C
:1022240082F247F6C07114BF124B0F4BD2B2214059
:10223400D140B3FBF0F303FB01F30A494FF44032FE
:10224400496892FAA2F2B2FA82F201F44031D2B2AF
:1022540021FA02F201325200B3FBF2F3A8E7054B74
:10226400A6E700BF003802400024F400B06B000869
:102274000C00002000127A00704700BF38B50446F5
:10228400002865D090F83930002B4ED023683149AE
:10229400022284F839208B421A6849D0B3F1804F66
:1022A4002DD0A1F57C418B4229D001F580618B4270
:1022B40025D001F580618B4221D001F578418B4214
:1022C4001DD001F570518B421DD001F580618B4208
:1022D40019D001F580618B4215D0A1F598318B425C
:1022E40011D001F580618B420DD001F580618B42E4
:1022F40009D0E06861681A60D86299620FE0A16849
:1023040022F070020A432169E568606822F4407291
:102314001143114A19609342DD62986215D001227B
:102324005A61002084F8392038BDFFF7A5FFADE7D6
:10233400A068216922F07002104320F44070014328
:102344001960E268DA6262689A6262691A63E6E7AF
:10235400012038BD00000140000401400368DA6830
:1023640042F00102DA601A6842F001021A600020A9
:10237400704700BF704700BF38B50446002865D0D9
:1023840090F83930002B4ED023683149022284F86A
:1023940039208B421A6849D0B3F1804F2DD0A1F572
:1023A4007C418B4229D001F580618B4225D001F517
:1023B40080618B4221D001F578418B421DD001F51B
:1023C40070518B421DD001F580618B4219D001F50B
:1023D40080618B4215D0A1F598318B4211D001F563
:1023E40080618B420DD001F580618B4209D0E06899
:1023F40061681A60D86299620FE0A16822F07002E5
:102404000A432169E568606822F440721143114A65
:1024140019609342DD62986215D001225A6100204E
:1024240084F8392038BDFFF7A5FFADE7A06821691E
:1024340022F07002104320F4407001431960E268F6
:10244400DA6262689A6262691A63E6E7012038BD5B
:1024540000000140000401400368104A186A10B4E7
:10246400012404FA01F120EA01001862186A934277
:1024740041EA000119620BD002F58062934207D051
:102484001A685DF8044B42F0010200201A6070479C
:102494005A6C42F400425A64F2E700BF0000014063
:1024A40090F83830012BF0B446D00124022380F890
:1024B400384080F839300C2A35D8DFE802F0073488
:1024C40034346D3434349A343434400003688F68BF
:1024D4001A6A0E68764D22F001021A621C6A5A6862
:1024E400D3F818C024F002042CF0730CAB4244EA75
:1024F40007044CEA060600F0CE8005F58065AB4281
:1025040000F0C9804D685A609E615D631C629C69DD
:102514000A6944F008019961996921F004019961FB
:1025240099690A439A610023012280F8392080F8CE
:102534003830F0BC184670470220F0BC704703687E
:10254400D1F808C01A6A0F68594E22F480521A62F0
:102554001D6A5A68DC6925F4005524F4E644B34244
:1025640045EA0C3544EA07246FD006F58066B34289
:102574006BD04E685A60DC611E641D62DA690969B9
:1025840042F40062DA61DA6922F48062DA61DA69BB
:1025940042EA0122DA61C6E703688F681A6A0E68A4
:1025A400434D22F010021A621C6A5A68D3F818C00C
:1025B40024F020042CF4E64CAB4244EA07144CEA21
:1025C400062658D005F58065AB4254D04D685A6054
:1025D4009E619D631C629A69096942F400629A6172
:1025E4009A6922F480629A619A6942EA01229A61A4
:1025F40099E703688F681A6A0E682D4D22F4807279
:102604001A621C6A5A68D3F81CC024F400742CF0B3
:10261400730CAB4244EA07244CEA06061BD005F5CA
:102624008065AB4217D04D685A60DE61DD631C6281
:10263400DC690A6944F00801D961D96921F004010F
:10264400D961D9690A43DA616DE74E6922F480429F
:1026540042EA86128DE7CF688D6924F4006444EA67
:1026640007244F6922F4405242EA071224F480649A
:1026740042EA0512D7E7CF688D6924F0800444EA62
:1026840007144F6922F4406242EA870224F04004AE
:1026940042EA85029AE7CF684D6924F008043C4376
:1026A4008F6922F440723D4324F004042A4329E74D
:1026B4000000014090F83830012B70B43FD0022262
:1026C400036880F839209A680C6822F47F4222F06B
:1026D40077020125402C80F838509A6074D018D9BC
:1026E400702C61D02ED9B4F5805F58D0B4F5005F5A
:1026F4001CD19C684A688D68C96824F47F442A43C5
:10270400224342EA01229A609A6842F480429A6023
:102714000CE0102C33D039D9202C6DD0302C05D1BD
:102724009A6822F0700242F037029A600023012274
:1027340080F8392080F8383070BC18467047022081
:1027440070BC7047502C5ED0602CEFD11A6A4C6874
:10275400CD6822F010021A6299691A6A21F4704154
:1027640022F0A00242EA041241EA053199611A6298
:102774009A6822F0700242F067029A60D6E79A687B
:1027840022F0700242F017029A60CFE7002CCDD1FC
:102794009A6822F0700242F007029A60C6E79A68CB
:1027A40022F007029A60C1E79C684A688D68C9688C
:1027B40024F47F442A43224342EA01229A609A681D
:1027C40042F077029A60B1E71A6A1E6A4D68CC68D3
:1027D40026F001011962996922F00A0221F0F00140
:1027E4002A4341EA041199611A629A6822F070023C
:1027F40042F047029A6099E79A6822F0700242F028
:1028040027029A6092E71A6A1E6A4D68CC6826F01D
:1028140001011962996922F00A0221F0F0012A43A8
:1028240041EA041199611A629A6822F0700242F036
:1028340057029A607AE700BF704700BF704700BF35
:10284400704700BF704700BF704700BF03681A6934
:10285400910710B5044602D5DA68920765D41A695F
:10286400500702D5DA6851074BD41A69120702D50A
:10287400DA68100732D41A69D20602D5DA68D006AB
:1028840018D41A69D10702D5DA68D20771D41A6943
:10289400100602D5DA68110674D41A69520602D5F4
:1028A400DA6850065CD41A69910602D5DA68920691
:1028B4004DD410BD1A6922F010021A619B690822D6
:1028C40013F4407F2276204668D1FFF7B7FF2046F5
:1028D400FFF7B8FF002223682276D2E71A6922F0B4
:1028E40008021A619B6904229907227620465BD16B
:1028F400FFF7A4FF2046FFF7A5FF002223682276F6
:10290400B9E71A6922F004021A619B69022213F4DE
:10291400407F2276204644D1FFF790FF2046FFF700
:1029240091FF0022236822769FE71A6922F00202AF
:102934001A619B6901229B0702762CD1FFF77EFF67
:102944002046FFF77FFF00222368227687E71A6973
:1029540022F0200220461A61BDE8104000F072B84F
:102964001A6922F040021A612046FFF76DFF2368BE
:1029740099E71A6922F001021A612046FFF75CFF09
:10298400236884E71A6922F080021A61204600F065
:102994005BF8236881E7FFF753FFD4E7FFF750FFA5
:1029A40098E7FFF74DFFBCE7FFF74AFFA5E700BF35
:1029B40090F83830012B024610B44FF0020018D0C2
:1029C400136882F839005C6824F0700403C95C6001
:1029D4005C6820435860986820F08000986098688C
:1029E4000124084300219860084682F8394082F89F
:1029F40038105DF8044B704790F83820012AF0B481
:102A040003461BD091E820108F68CE680C69486992
:102A14008A6919684CEA05053D4335432543054356
:102A2400154302200124002283F839004D64104626
:102A340083F8394083F83820F0BC70470220F0BC9A
:102A4400704700BF704700BF704700BF84B030B408
:102A5400089D03AC012D84E80E0027D0C268284BE2
:102A640042F04002C26001E0013B0DD00269002A3D
:102A7400FADA0269224B42F00102026101E0013BF1
:102A840002D00269D207FAD44FF480338363069BE1
:102A9400012B07D1836843F00C038360836843F000
:102AA4002003836030BC002004B07047836B0D9A10
:102AB40023F480338363C36823F4840323F0400343
:102AC400C360C368012A23F44013C36012D00C4BC3
:102AD40001E0013BDBD00269002AFADA0269084B03
:102AE40042F00102026101E0013BD0D00269D1074A
:102AF400FAD4CCE7C36843F48013C360E7E700BFAC
:102B0400400D0300034600209A6842F001029A60D7
:102B1400704700BF034600209A6822F001029A60C1
:102B2400704700BF08B5C368012923F0C043C360E0
:102B340009D019B9C36843F08043C3603220FDF75C
:102B4400FBFB002008BDC36843F00053C360322080
:102B5400FDF7F2FB002008BD84B02DE9F00708ACB6
:102B640084E80E00836BDDF840A0DDF82CC043F44C
:102B740000238363BAF1000F03D1836B43F4001382
:102B840083630023C0F8003E0D9BD0F80028C0F8F2
:102B94000028012B00F5006400F08480D0F8003890
:102BA40043F00303C0F800384FF408730361444B47
:102BB40001E0013B02D002699506FAD410230361B7
:102BC4003F4B01E0013B02D00269D206FAD4002255
:102BD4004FF0FF3322616261A361E26141B31546A4
:102BE40000F510634FF09049FF261F680132002F53
:102BF400B4BFC3F800901D608A421D619E6003F15A
:102C04002003F2D10022164600F530634FF09049BC
:102C14004FF0FF081F680132002FB4BFC3F80090C3
:102C24001E608A421E61C3F8088003F12003F1D1BB
:102C34002369BCF1010F23F48073236123D00022A4
:102C44006FF0804382614361BCF1000F03D183695B
:102C540043F01003836181691A4B0E9A0B4383611D
:102C64001AB1836943F008038361BAF1010F05D1F6
:102C7400836943F0804343F004038361BDE8F007B4
:102C8400002004B07047104B2363236B43F480335C
:102C940043F00303236300226FF08043216B8261BE
:102CA4004361D8E70A9B23B9D0F80038C0F800384C
:102CB4007AE7D0F8003843F00103C0F8003873E72E
:102CC400400D030000383C8000018000490141F0C0
:102CD40020010161054A01E0013A05D0036913F0BE
:102CE4002003F9D11846704703207047400D0300B4
:102CF400D0F8083813F0060300F5006013D0836899
:102D040003F00603022B0CD0836803F00603062BA2
:102D140007D0836803F00603042B0CBF02200020B5
:102D24007047032070471846704700BF70B44B7853
:102D3400012B21D00A78D0F81C484FF4803505FACD
:102D440002F22243C0F81C280A784FF4306303EBE4
:102D540042131A5812040CD41A588C68C97842F0D9
:102D6400805242F40042C4F30A04224342EA8142FC
:102D74001A50002070BC70470C78A340D0F81C484F
:102D84009BB22343C0F81C380A784FF4106303EB5A
:102D940042131C582404ECD41E588D68CC7846F099
:102DA4008051C5F30A0541F40041294341EA8441B5
:102DB40041EA82521A5070BC002070474B78012BB4
:102DC40030B41DD00C78D0F83C58012202FA04F437
:102DD40025EA0444C0F83C480D78D0F81C48AA40C1
:102DE40024EA0242C0F81C280A784FF4306303EB4B
:102DF400421330BC1A5822F400421A500020704783
:102E04000C78D0F83C5803FA04F4A4B225EA04047C
:102E1400C0F83C480D78D0F81C48AB409BB224EA7B
:102E24000303C0F81C380A784FF4106303EB421311
:102E340030BC1A5822F400421A500020704700BFD8
:102E44002DE9F0034B78012B77D00E784F692024BD
:102E54004FF4306314FB063606443569ED0CED047B
:102E640035610E7814FB06360644356925F0FF55A6
:102E740025F4C015356197B38D6891F800C0904E64
:102E84002F4414FB0C3C013FB7FBF5F78444BFB25D
:102E9400DCF810804FEAC74909EA060646EA080644
:102EA400CCF810600E7814FB0633034405FB07F5D9
:102EB4001C69C5F312052543012A1D6123D0CB7873
:102EC400012B29D00A784FF4306303EB4213C25824
:102ED40042F00442C2500020BDE8F00370470D7870
:102EE4008E6814FB05350544C6F312062F693E436C
:102EF4002E610D7814FB05330344012A1C6944F444
:102F040000241C61DBD10A78CB6800EB4212C2F8C2
:102F1400143BCB78012BD5D1D0F808380A7813F4B8
:102F2400807F4FF4306303EB4213C2580CBF42F06E
:102F3400005242F08052C250C4E74C69002C71D058
:102F440091F80080D1F808C05D4E20254FF410633D
:102F540015FB0838804404EB0C09D8F81070FF0CFA
:102F6400FF04C8F8107091F8008015FB08388044FD
:102F740009F1FF39D8F8107027F0FF5727F4C0176C
:102F8400C8F810700F7815FB07370744B9FBFCFC31
:102F9400D7F810804FEACC4C0CEA060646EA08063D
:102FA4003E610E7815FB06360644C4F3120C3769ED
:102FB4004CEA07073761CE78012E70D0012A5DD024
:102FC400CB78012B4CD05CB10D78D0F83468012754
:102FD40007FA05F53543C0F83458CB78012B3FD0B8
:102FE4000D784FF4106303EB4513C55845F00445C1
:102FF400C550CB78012B7FF46EAFCB680978002ADB
:103004007FF469AFA4B20334A4103FF464AF00EBBF
:10301400013000F58050013253F8041B01609442E2
:10302400F9D158E70F784FF41063202515FB0737C3
:1030340007443E6926F0FF5626F4C0163E610E781A
:1030440015FB06360644376947F4002737610E78C6
:1030540015FB063505442B69DB0CDB042B61ADE75E
:10306400D0F80838DB0510D40D784FF4106303EB67
:103074004513C55845F00055C550B1E70D780B69A7
:1030840000EB4515C5F81439A7E70D784FF4106324
:1030940003EB4513C55845F08055C550A0E70E789D
:1030A40015FB06360644376927F0C04737610E78AA
:1030B40015FB063303441D6945F000551D617DE78A
:1030C4000000F81F4B78012BF0B43CD00E784F6908
:1030D40020244FF4306514FB065606443369DB0C98
:1030E400DB0433610B788E6814FB035404442369B6
:1030F40023F0FF5323F4C013236117BB0D7820245E
:103104004FF4306314FB05350544C6F312062F69EA
:1031140047F400272F610D7814FB05350544012A77
:103124002F6946EA07062E615DD00A784FF43063B2
:1031340003EB4213F0BCC25842F00442C2500020D8
:1031440070474E61DAE74B69002B53D091F800C009
:103154008C684FF41067202616FB0C7C8444A34231
:10316400DCF810504FEAD5454FEAC545CCF810506D
:103174000D7816FB0576064498BF1C46356925F084
:10318400FF5525F4C01535610E7888BF4C614FF4A6
:103194001065202313FB06560644C4F31204376952
:1031A40047F4002737610E7813FB065303441D6967
:1031B4002C431C61012A3BD04B6943B10A78D0F8F7
:1031C4003448012505FA02F22243C0F834280A786B
:1031D4004FF4106303EB4213F0BCC25842F00442B4
:1031E400C250002070470D78CA6814FB05330344AD
:1031F4005A619AE70E784FF41063202414FB0636C4
:103204000644356925F0FF5525F4C01535610D7860
:1032140014FB053505442E6946F400262E610D780D
:1032240014FB053404442369DB0CDB042361C1E78C
:103234000A780B6900EB4212C2F81439C7E700BFE1
:1032440030B49DF8084064B903339B1009D000F5ED
:10325400805000EB0232013451F8045B1560A34244
:10326400F9D1002030BC7047033270B495100BD0F4
:1032740000F580560A4600230133346842F8044BB3
:103284009D42F9D101EB8501084670BC704700BF2F
:103294004B78012B0B7870B40CBF4FF410644FF4CF
:1032A4003064202515FB03431A181E58002E07DB33
:1032B4001A5822F080421A500A7815FB024202443E
:1032C400136843F400130020136070BC704700BF00
:1032D4004B78012B0B7830B40CBF4FF410624FF4D1
:1032E4003062202414FB03231D5825F400151D50BF
:1032F400CB78023B012B06D80B7814FB032213581E
:1033040043F080531350002030BC7047D0F800289D
:1033140022F4FE62C0F80028D0F80028090101F464
:10332400FE631343C0F800380020704708B500F569
:1033340000635A6822F0020203205A60FCF7FCFF83
:10334400002008BD08B500F500635A6842F0020287
:1033540003205A60FCF7F0FF002008BD4369806930
:1033640018407047D0F8183800F50060C06918405C
:10337400000C7047D0F81828D0F81C3802EA030073
:1033840080B2704700F5306303EB411100F5006033
:103394008B68406918407047D0F8102810B4D0F8F2
:1033A400344800EB411000F5106324FA01F0C00129
:1033B400C0B29B685DF8044B10431840704700BFCF
:1033C400406900F001007047D0F8002922F4FF6240
:1033D40022F0070200F50063C0F800299A6802F0A1
:1033E4000602042A05D1D0F8002942F00302C0F8ED
:1033F40000295A6842F480725A600020704700BF66
:1034040010B40024C0F8104BD0F8104B44F400243E
:10341400C0F8104BD0F8104B44F01804C0F8104B0F
:10342400D0F8104B012944F0C044C0F8104B05D12A
:103434004FF08021C0F8142BC0F8001B00205DF869
:10344400044B7047FEE700BF08B50C4B1A680146F1
:1034540082B11046CA1C22F00302094902448A427E
:1034640001D81A6008BD02F0EBFE0C2303604FF094
:10347400FF3008BD03481860ECE700BF00020020DD
:1034840000FC01207CB301200148FDF7C5BF00BF4B
:10349400C8AE01200122024B02600B60704700BFDE
:1034A40004000020104A114BD2F8881041F4700136
:1034B40010B4C2F8881019680D4C002041F00101C5
:1034C40019609860196821F0847121F480311960C1
:1034D4005C601C684FF0006124F480241C60D86098
:1034E4005DF8044B9160704700ED00E00038024045
:1034F40010300024037933B98268012101715362C9
:1035040013680B43136070478368196A41F2111200
:103514000A4042B9196A40F244420A401AB91A6888
:1035240022F001021A6000220271586A704700BF3B
:1035340083685A6A0260002110465962704700BFCE
:10354400F0B5274BADF5C33D9942A9B006463DD829
:10355400002941D0234D002328AF6C46A5FB03026C
:10356400D20802EB8202A3EB42023032E25401336E
:103574008B42F3D11C4D62182B794FF0530E45202A
:1035840007F8A0EC02F8010C33B9AA6801205362D1
:103594002871136803431360684600F099FDAB6813
:1035A400196A41F211120A4042B9196A40F24442BE
:1035B4000A401AB91A6822F001021A60586A0023F4
:1035C4002B7130600DF5C33D29B0F0BD0020306093
:1035D4000DF5C33D29B0F0BD28AF6C46CAE700BF66
:1035E4009F860100CDCCCCCC0802002030B51C4C09
:1035F4001C4B1D4AA36000232360156C1B482371D8
:1036040045F0080515641A490268A361A1FB02028A
:10361400D20C013A83B06FF0010192B204F10800B8
:1036240061612361E361E260FEF728FEB8B9A36833
:10363400196A41F211120A4042B9196A40F244422D
:103644000A401AB91A6822F001021A600023694676
:10365400084800930193FFF7ABF903B030BDFEE7D0
:1036640008020020000C0040003802400C0000203A
:1036740083DE1B431002002008B580B1D0F8143259
:1036840013B10023C0F8143209B1C0F81012012399
:10369400027080F8FC3102F033FB002008BD0220E8
:1036A40008BD00BF19B1C0F81412002070470220F1
:1036B400704700BF08B502F053FB002008BD00BFEF
:1036C40008B5D0F8143213B11B68984708B102202A
:1036D40008BD08BD08B5D0F814325B6898470020CF
:1036E40008BD00BF38B5044600F50275284600F051
:1036F400C9FA94F80812B4F80E32C4F8F831012269
:1037040001F01F039342C4F8F42115D00ED3022B09
:1037140006D0204601F0800102F03CFB002038BDB9
:103724002046294600F054FA002038BD2046294698
:1037340000F0E0F8002038BD2046294600F02AFABF
:10374400002038BD10B51346044629B9D0F8F42139
:10375400032A0CD0002010BDD0F814329B69002B32
:10376400F8D090F8FC21032AF4D19847F2E7D0F876
:103774000C11D0F8102191420CD8D0F814321B69E6
:103784001BB190F8FC21032A0FD0204600F0E2FA86
:10379400002010BD891A914238BF0A4692B2C0F87F
:1037A4000C11194600F0CEFAD4E79847EDE700BFB4
:1037B40070B51346044649B9D0F8F421022A15D04D
:1037C40094F80032012B0CD0002070BDD0F81432D4
:1037D4005B69002BF8D090F8FC21032AF4D19847B8
:1037E400F2E7002384F80032002070BDC269056A44
:1037F400AA421DD88369B3FBF5F605FB16365EB9FC
:103804009D4209D8D0F8F821934205D2324600F0FF
:1038140081FAC4F8F861D3E7D4F81432DB681BB139
:1038240094F8FC21032A0AD0204600F09FFAC7E747
:10383400521BC261194692B200F06CFAC0E72046EE
:103844009847F1E738B50021044640231D460A464F
:1038540002F08EFA2B460022C4F810512046802133
:1038640002F086FAD4F818322562012284F8FC2189
:103874002BB1D4F8143221795B6820469847002094
:1038840038BD00BF01740020704700BF90F8FC21D0
:1038940080F8FD21042380F8FC310020704700BF2C
:1038A4000346002093F8FD2183F8FC21704700BFF4
:1038B40008B590F8FC21032A01D0002008BDD0F8F7
:1038C4001432DB69002BF8D09847002008BD00BFF4
:1038D40000207047002070470020704708B5012180
:1038E400D0F8142280F8FC11526801799047002026
:1038F40008BD00BF30B54B7883B00D460446092B94
:103904000CD8DFE803F0364A0B5B0B05690B7F1616
:10391400AB881BB9EB88002B00F081808021204606
:1039240002F038FA2046002102F034FA002003B0F5
:1039340030BDA978964D01292970EFD890F8FC3153
:10394400022B00F08A80032BE8D1002900F01681B5
:103954004168012909D0C9B2FFF7BCFE297861602A
:103964002046FFF7ADFE0228D8D0204600F0F2F939
:10397400DCE790F8FC310122023B93424FF0030153
:10398400CCD8D0F80432C26003B1C160204604F13F
:103994000C01022200F0B0F9C8E790F8FC31023BB8
:1039A400012BBBD86B88012BC0D1D0F81432002274
:1039B4009B68C0F8042229469847D6E76B88012BF8
:1039C400B4D1D0F81422C0F8043229469368984739
:1039D400204600F0BFF9A9E76A88130A013B062BC9
:1039E4009CD801A151F823F0CD3A0008EF3A000821
:1039F400DD3A00082139000821390008B73A0008E7
:103A0400793A0008EA88012A88D190F8FC31022B1F
:103A14001CD0032B82D1011D00F06EF986E790F8CB
:103A2400FC31AD78032B05F07F053FF477AF80F8C8
:103A3400FE51294602F0D2F9204600F08BF9002D00
:103A440000F08F80022384F8FC316FE701460023E5
:103A540041F8083F00F050F968E7002985D00121BA
:103A64000323416080F8FC31FFF72AFE02287FF42B
:103A74007CAF53E7037C002B7FF450AFD0F81432B3
:103A840068461B6B9847072301464370BDF8003016
:103A9400002B3FF44BAFEA88002A3FF447AF9A4229
:103AA40038BF13461A462046ADF8003000F024F91A
:103AB4003CE7037C002B7FF431AFD0F81432684626
:103AC4005B6B98470146E1E7D0F81032007C1B6835
:103AD400694698470146D9E7D2B2052A3FF61EAF98
:103AE400DFE802F0271F170F372F037C002B3CD190
:103AF400D0F8143268469B6A984702230146437003
:103B0400C4E7D0F81032007C1B6969469847014627
:103B1400BCE7D0F81032007CDB6869469847014660
:103B2400B4E7D0F81032007C9B6869469847014698
:103B3400ACE7D0F81032007C5B68694698470146D0
:103B4400A4E7D0F81032007C9B6969469847014687
:103B54009CE7D0F81032007C5B69694698470146BF
:103B640094E7012384F8FC31E0E6D0F81432684687
:103B7400DB6A984702230146437087E702234160CA
:103B840080F8FC31FFF7A6FD204600F0E3F8CDE60F
:103B94004C02002038B590F8FC31032B04460D4646
:103BA40002D10B79012B08D9802102F0F3F82046C9
:103BB400002102F0EFF8002038BDD0F814329B68E1
:103BC4009847EB88002BF6D1204600F0C3F8F2E7C3
:103BD40038B54B788A88012B0C460546D1B223D0E0
:103BE40018D3032B14D190F8FC31022B16D0032BDD
:103BF4003FD163881BB94A0601D002F0CBF8D5F84F
:103C0400143221469B6828469847284600F0A2F8BB
:103C1400002038BD90F8FC31022B13D14A06F7D0AE
:103C240002F0B8F8002038BD90F8FC31022BF5D032
:103C3400032B1ED16388002BEAD14B06E5D002F09A
:103C4400B1F8DCE7032B14D101F07F0400EB04147A
:103C540013064CBF143404F5827402F0ABF8003040
:103C640018BF0120206021462846022200F044F8B3
:103C7400CEE7802102F08EF82846002102F08AF86F
:103C8400D0E700BF0B7803704B784370CA788B7809
:103C940003EB022343804A790B7903EB02238380ED
:103CA400CA798B7903EB0223C380704730B4F0B137
:103CB4000378F3B10446002314F8015F0133DBB247
:103CC400002DF9D15B000233DCB2032513800C70A4
:103CD4004D7002785AB1022300255C1CE4B2CA5428
:103CE4000D5510F8012F0233DBB2002AF5D130BC98
:103CF400704702242346E8E738B5134602250A46EE
:103D04008361C361C0F8F451002102F06FF8002010
:103D140038BD00BF08B513460A46002102F066F814
:103D2400002008BD38B5134603250A46C0F80831FB
:103D3400C0F80C31C0F8F451002102F05FF8002003
:103D440038BD00BF08B513460A46002102F056F8F4
:103D5400002008BD08B500210423C0F8F4310A4648
:103D64000B4602F043F8002008BD00BF08B500214F
:103D74000523C0F8F4310A460B4602F03FF8002050
:103D840008BD00BFD0F818321BB10020C3F81402DC
:103D940070470220704700BFD0F81C3210B5D0F82D
:103DA40018425BB194F80002FF2807D09B6894F88E
:103DB400012221469847FF2384F80032002010BDD9
:103DC40043230380004870471000002043230380EE
:103DD40000487047DC0000204323038000487047FC
:103DE400980000200A230380004870478C000020BC
:103DF40038B50446D0F8185202F008F8D4F818324E
:103E0400C5F80C024BB1D4F81C32D5F80402DB68B7
:103E140005F503719847002038BD022038BD00BF66
:103E240070B50B78D0F8186203F06002202A0C46B3
:103E340005460DD1C98869B11B0613D4637886F889
:103E44000032E38886F80132E2883146FFF76AFFE0
:103E5400002070BDD0F81C3260789B680A469847F1
:103E6400002070BDD0F81C3260789B680A46314649
:103E7400984728463146E288FFF73EFF002070BD90
:103E840010B58121044601F07DFF0121204601F097
:103E940079FF2046822101F075FFD4F8183253B11E
:103EA400D4F81C325B689847D4F8180202F0D6F9AB
:103EB4000023C4F81832002010BD00BFF8B5037CFD
:103EC40004468121022263BB4FF4007301F050FFCA
:103ED4002046012102224FF4007301F049FF8221A0
:103EE40003220823204601F043FF4FF4077002F039
:103EF400ADF90546C4F8180218B3D4F81C321B688F
:103F04009847277CD5F804220026C5F81462204679
:103F1400C5F81862012177B1402301F06FFF3046E4
:103F2400F8BD402301F024FF204601210222402352
:103F340001F01EFFD3E74FF4007301F05FFF384632
:103F4400F8BD0120F8BD00BF19B1C0F81C12002053
:103F540070470220704700BFD0F818320020C3F821
:103F64000812C3F810227047D0F818320020C3F8A2
:103F740004127047D0F8183210B583B1D3F8144244
:103F84000CB1012010BD0122C3F814228121D3F801
:103F94000822B3F8103201F029FF204610BD022098
:103FA40010BD00BFD0F8183210B57BB1047CD3F833
:103FB4000422012124B1402301F020FF002010BD80
:103FC4004FF4007301F01AFF204610BD022010BD0B
:103FD40000207047054B0A68C3F804220020012220
:103FE40083F80822C3F80002704700BF5002002083
:103FF40008B504490448FFF7B7FF044B01221A70BF
:10400400002008BD5002002094AC0120C4AE012061
:104014002028F0B414D021280FD1154B1A680A7047
:104024001A68120A4A705A888A70DA78CA701A7939
:104034000A715A794A719B798B710020F0BC7047E0
:104044008F784E780D78CC7891F804C048798A79C5
:10405400074B390441EA0621294341EA04615871B6
:1040640083F804C09A7100201960F0BC704700BF47
:104074003001002038B5144C94F90832D3B1D4F887
:104084000022D4F80452AD1AA942B8BF0D46002D3F
:104094000EDDA1182A4602F0E9F8D4F80032D4F86B
:1040A40004222B449342C4F8003205DA284638BD72
:1040B400002038BD184638BD0023044884F808326F
:1040C400FFF770FF284638BD5002002094AC012051
:1040D400B1F5007F2DE9F0470D46804625DD4B1EE6
:1040E40023F4FF7323F00103DFF8889003F5007ACB
:1040F4000024D9F818722E1BB6F5007FA8BF4FF420
:10410400007608EB040147B3D7F81432002BFBD137
:104114001848B2B2FFF720FF1648FFF72BFFE0B9AB
:10412400D7F81432002BFBD118E0124BD3F8184205
:10413400E4B1D4F81432002BFBD141460D48AAB2A5
:10414400FFF70AFF0B48FFF715FF78B9D4F81432CC
:10415400002BFBD12846BDE8F08726B904F500748E
:104164005445C6D1F6E72046BDE8F0870020BDE8F7
:10417400F08700BF94AC012008B51B20FCF75CF964
:104184000248BDE80840FEF761BB00BF60040020A0
:1041940038B5044600220068A188FCF7D1FA6323ED
:1041A40000BF013B13F0FF03FAD12069A18A012269
:1041B400FCF7C6FA632300BF013B13F0FF03FAD1F7
:1041C4000825A069A18B0022FCF7BAFA206AA18C09
:1041D4000022FCF7B5FA632300BF013B13F0FF0391
:1041E400FAD1206AA18C0122FCF7AAFA632300BF4A
:1041F400013B13F0FF03FAD16B1E13F0FF05E0D16E
:104204002068A1880122BDE83840FCF799BA00BFB4
:10421400F8B505460C460068A9880022FCF790FA18
:10422400632300BF013B13F0FF03FAD12869A98A75
:104234000122FCF785FA632300BF013B13F0FF035F
:10424400FAD1082724F07F0606F0FF02A869A98B9B
:104254002EB30122FCF774FA6400286AA98C0022A8
:10426400FCF76EFAE4B2632300BF013B13F0FF03D3
:10427400FAD1286AA98C0122FCF762FA632300BFF1
:10428400013B13F0FF03FAD17B1E13F0FF07D9D1D2
:104294002868A9880122BDE8F840FCF751BAFCF768
:1042A4004FFAD9E738B505464FF4FC74013C28466B
:1042B400A4B2FFF76DFF002CF8D138BDF8B5054660
:1042C4000C4616460068A9880022FCF739FA6323D5
:1042D40000BF013B13F0FF03FAD1002E3BD132465D
:1042E4002869A98AFCF72CFA632300BF013B13F069
:1042F400FF03FAD1082724F07F0606F0FF02A8691D
:10430400A98B2EB30122FCF71BFA6400286AA98C3E
:104314000022FCF715FAE4B2632300BF013B13F05B
:10432400FF03FAD1286AA98C0122FCF709FA632356
:1043340000BF013B13F0FF03FAD17B1E13F0FF070C
:10434400D9D12868A9880122BDE8F840FCF7F8B95A
:10435400FCF7F6F9D9E72869A98A0122FCF7F0F9F4
:10436400C2E700BF2DE9F04114460F46002243F096
:10437400400104EB44040646FFF7A0FF610061F02E
:104384007F0101F0FE0130460022FFF797FF3B78E2
:104394009BB1DFF82C80203BDDB205EB450508EB33
:1043A40045050024295D30460134FFF731FF062C12
:1043B400F8D117F8013F002BEDD1BDE8F08100BF23
:1043C400C06B0008214B5A6992060CD52021204A63
:1043D400596113691F4998062CD41F4B01204FF4CF
:1043E4007A7208701A60194B5A6912060CD580212A
:1043F400174A596113691749180616D4164B012038
:104404004FF47A7248705A60104B5A69D2050BD532
:104414004FF480710E4A596113690E49DB050ED5BC
:104424000D4A00238B70936070470B4A00234B7036
:104434005360E9E7084A00230B701360D3E7064B87
:1044440001204FF47A7288709A607047003C0140F2
:1044540000040240E4040020D8040020214B1B681F
:10446400DA68D20700D470471F4A116859B111683D
:10447400013911601168B1F5167F2BD0116811B99B
:104484001A49032008705068174958B14868013820
:1044940048604868B0F5167F18D0496811B91349C7
:1044A400032048709168104A59B1916801399160AC
:1044B4009168B1F5167F11D0926812B90B4A0321A5
:1044C40091701A6922F001021A61704707490220AB
:1044D4004870E7E7054902200870D4E7034A02213F
:1044E4009170EEE79C040020D8040020E40400202E
:1044F400074B1A6812B11A68013A1A60054B1A88F8
:1045040092B21AB11A88013A92B21A80FBF706BF26
:10451400E80400205C04002030B40022064D074C5F
:104524000749056044608160C26002614261826142
:10453400C261026230BC70476F12833AA69B443B4F
:104544009A99993E2DE9F04790F8A130DBB2012BFE
:1045540008BF80F8A53004461C3000F06FFD2046EB
:1045640000F082FF04F1400000F018FE04F5D3339C
:10457400B3F82821B3F82A1192B2914266D9B3F85C
:104584002821B4F81CA0B4F81E90B4F82080B4F824
:1045940000C06788A688B4F84050B4F84200B4F864
:1045A400441092B202EBC20204EB4202A2F848A108
:1045B400B3F8282192B202EBC20204EB4202A2F841
:1045C4004A91B3F8282192B202EBC20204EB4202F0
:1045D400A2F84C81B3F8282192B202EBC20204EB98
:1045E4004202A2F84EC1B3F8282192B202EBC202F1
:1045F40004EB4202A2F85071B3F8282192B202EB04
:10460400C20204EB4202A2F85261B3F8282192B22A
:1046140002EBC20204EB4202A2F85451B3F828217F
:1046240092B202EBC20204EB4202A2F85601B3F8C2
:10463400282192B202EBC20204EB4202A2F8581102
:10464400B3F82821013292B2A3F82821074B1A8823
:10465400013292B20121C82A1A8084F8A11003D130
:10466400002284F8A2101A80BDE8F08790AC0120E3
:104674002DE9F04F564E06F5D33583B0D5F82C31DD
:10468400DB68DB0702D403B0BDE8F08F96F8A130F5
:104694004F4CDBB2012B04F11C0008BF86F8A53097
:1046A40000F0CCFC204600F0DFFE04F1400000F0F6
:1046B40075FDB5F82821B5F82A1192B2914204F596
:1046C400D33317D8434B42481A88013292B201219E
:1046D400C82A1A8086F8A11003D1002280F8A210FB
:1046E4001A80D5F82C311A6922F001021A6103B03C
:1046F400BDE8F08FB3F82821B4F81CB0B4F81EA0BC
:10470400B4F82090B4F80080B4F802C0A788B4F8D4
:104714004000B4F84210009192B202EBC20204EBE2
:104724004202B4F84410A2F848B1B3F82821019128
:1047340092B202EBC20204EB42020099A2F84AA12F
:10474400B3F8282192B202EBC20204EB4202A2F8AF
:104754004C91B3F8282192B202EBC20204EB42025C
:10476400A2F84E81B3F8282192B202EBC20204EB04
:104774004202A2F850C1B3F8282192B202EBC2025D
:1047840004EB4202A2F85271B3F8282192B202EB70
:10479400C20204EB4202A2F85401B3F8282192B2F7
:1047A40002EBC20204EB4202A2F85611B3F828212C
:1047B40092B202EBC20204EB4204019AA4F858211B
:1047C400B3F82821013292B2A3F828217AE700BF76
:1047D4002805002090AC012030B590F8A53085B0B4
:1047E4000025012B0446029537D090F8A430012B04
:1047F40002D0284605B030BD90F8A330012BF8D183
:1048040090F8A130012BF4D11648FEF791FE04ABC9
:10481400042143F8080D1846FFF75AFC062104F159
:104824001C00FFF755FC06212046FFF751FC06212A
:1048340004F14000FFF74CFCD4E9120101F0C6FB7F
:1048440004AB022123F8100D6846FFF741FC84F8FD
:10485400A15084F8A4501220CCE780F8A550284633
:1048640005B030BD0802002000F5D33041F270736A
:10487400994228BF19460022A0F82A11A0F828213D
:10488400704700BF2DE9F04700F5D33741F211120C
:10489400D7F82C31196A0A4096B005462AB9196A24
:1048A40040F244420A40002A51D0B7F82A21002A93
:1048B40041D005F5D33606F59576002404EBC40300
:1048C4005B0003F5A473E918EA5A4B88B1F804A015
:1048D400B1F80690B1F80880B1F80AC0B1F80CE05C
:1048E400C889098A0FFA8CFC0FFA8EFE00B209B24D
:1048F4000FFA8AFA0FFA89F90FFA88F81BB212B282
:10490400CDF80CC0CDF810E005900691CDF800A0CC
:104914001149CDF80490CDF8088009A801F060FD94
:1049240081B209A8FFF7D4FB01343388A4B2A342AF
:10493400C4D8D7F82C310022A7F828211968A7F881
:104944002A2141F001021A6016B0BDE8F0871A6806
:1049540022F001021A60A8E7E86D00081C3001216A
:10496400642200F093B900BF38B5D0220025A623F5
:104974000446027580F834308583C583058440304D
:1049840000F052FC04F1680000F070FBEE2384F8A0
:10499400A03004F1A800FFF7BFFD04F1DC00FFF72D
:1049A400BBFD0A4B84F8A150002284F8A35084F87C
:1049B400A45084F8A550C4E94A23C4E94C23C4E9AB
:1049C4004E23C4E95023204638BD00BF0080664012
:1049D4002DE9F0437C4B7D4A7D49196087B0116B0A
:1049E4007C4C5C6006AD41F002014FF0400911635C
:1049F40045F8149D002610224FF0120C4FF0040EBF
:104A040002244FF48048294607467348DA609A61C5
:104A1400CDF808C0CDF814E0C3F810809E605E6144
:104A2400DE611E6204944FF400780396FBF712FDD6
:104A340029466948CDF80480FBF70CFD112329466B
:104A4400654802930494CDF804900396FBF702FDA5
:104A540029466148049402960396CDF80480FBF736
:104A6400F9FC5D485D4C4FF40071FBF763FE0128CF
:104A74000FD059484021FBF769FE012323602368C6
:104A8400002BFCD154484FF40071FBF753FE01286E
:104A9400EFD151484FF40071FBF74CFE01280FD0C1
:104AA4004D484021FBF752FE012323602368002B6D
:104AB400FCD149484FF40071FBF73CFE0128EFD1CB
:104AC40012214FF0000E0422402302264248029194
:104AD4002946CDF80CE0059201930496FBF7BAFC45
:104AE4004FF4007329463C480193FBF7B3FC374B62
:104AF40035481A6C42F400121A641A6A42F400121D
:104B04001A621A6A22F400121A62FBF7E1FF8DF8A6
:104B1400040026602568002DFCD1314B0122384663
:104B24001A7000F0E5FB07F11C0000F067F807F1CC
:104B3400400000F08FFB07F1680000F0B5FA234B4A
:104B440028481C6C284A294944F002041C64036860
:104B5400A2FB03039B0B07F5D334013B63229BB2F7
:104B640004F59676C4F83821C4F83C51C4F834519D
:104B7400C4F84051C4F82C11C4F830313046FDF764
:104B84007DFB024600B1FEE71D200421FBF7F4FB88
:104B94001D20FBF729FC3046FDF7E0FB90B9D4F863
:104BA4002C31196A41F211120A4042B9196A40F2D1
:104BB40044420A401AB91A6822F001021A6007B086
:104BC400BDE8F083FEE700BFEC040020003802409B
:104BD40000540040801A060000040240E80400204B
:104BE400240500200C0000205917B7D10004004010
:104BF4000148FFF7B9BE00BF2805002070B5214C5D
:104C040086B0237800228DF810203BB901238DF85B
:104C1400153001238DF8153006B070BD04AB0125A5
:104C24004FF4C8768DE8280031222B4602961648A8
:104C3400A621FBF7C1FF23788DF8150008228DF813
:104C44001620002BE5D00DF116038DE868002D2207
:104C54002B460D48A621FBF7AFFF23788DF81500EE
:104C64001D228DF81720002BD6D00DF117020092CB
:104C7400019502962B46A6212C220348FBF79CFFA4
:104C840006B070BD24050020EC0400202DE9F04F8F
:104C94002DED048BB9B00026054617921A961B9683
:104CA4001C9624962596269627962896299651B9D9
:104CB40016211F220E23C1800281438139B0BDEC2D
:104CC400048BBDE8F08FDFF800E20B96BEE80F001E
:104CD4002BAF0FC7BEE80F000FC7DEF800303B70E4
:104CE40000260027CDE90C672BA84FF47A774FF6FE
:104CF4001846202109971496FFF7EAF90B9F11979C
:104D040010970A97DDE90C67CDE91267CDE90E67C4
:104D1400099F149EDFF8B481684C1597BA4616961D
:104D2400B3460A9E179F731C9BB20A931BB2BB42E5
:104D340000F3D0800B260DF16009062798F80030A7
:104D4400002B40F0AE80012323602368002BFCD1AC
:104D5400B5F800E06988BDF86420AB88BDF860C090
:104D6400BDF862001344E6440144721E1FFA8EFE2D
:104D740089B29BB212F0FF06A5F800E06980AB800F
:104D8400DCD14F480EB280FB06720FFA8EFE1BB2C6
:104D9400F617C6EBA20280FB0E7180FB03704FEA8C
:104DA400EE7EDDE90E67CEEBA10101FB01FE16EB01
:104DB4000E0647EBEE77CDE90E67DDE9126702FBDD
:104DC40002FC16EB0C0647EBEC77CDE912678FB2C9
:104DD4000697DB17DDE90C67C3EBA00303FB03F0C5
:104DE400361847EBE077CDE90C679FB20597159F1E
:104DF400169E0FFA87FC099F0FFA86F9149E3FB29C
:104E040009970FFA86FEDDE90E67CDE92467DDE92F
:104E14001267CDE92667DDE90C67CDE92867109FA5
:104E2400069E0F441097119F174411970B9F31B2A0
:104E340090B2059E0FFA8BFB0FFA8AFA1F4459456C
:104E4400A8BF8B465145B8BF8A46099B0B9701B250
:104E540032B24945A8BF8946109E069F1A966145FD
:104E6400A8BF61467245A8BF964689B29A42A8BFB8
:104E74001A46119E2F801FFA89F91B961FFA8EFE7F
:104E84000B9F159192B205991C971FFA8BFB1FFA81
:104E94008AFA6880CDF85890A980CDF850E009923C
:104EA4003FE74FF4C8730293CDF800900197A62111
:104EB400322201230348FBF709FF44E7E8040020FA
:104EC40067666666EC040020246E00082405002052
:104ED4000000C8421A9D1FED027A06EE905A7C1E0D
:104EE400B8EEE69A07EE904ADDED176AF8EEE77A37
:104EF400B8EE668ADDE92401C7EE278A642401F04E
:104F04005DF904FB05F589EE087A07EE905AF8EE90
:104F1400E77A06EE900AC7EE887A1B9DDDE9260142
:104F2400B1EE499AE9EE076AFDEEE77A26EEA87A31
:104F340006EE905ABCEEC77AB8EEE69A17EE107AEF
:104F4400CDED077A01F03AF989EE087A04FB05F50C
:104F540007EE905AF8EEE77A06EE900AC7EE887AE2
:104F64001C9DDDE9280104FB05F4B1EE499AE9EE44
:104F7400076AFDEEE77A26EEA87A06EE905ABCEEB2
:104F8400C77AB8EEE69A17EE106ACDED087A01F00A
:104F940015F9C9EE087A079A089B019702962449E5
:104FA400244D06EE904AB8EEE67AB1EE499A87EEC1
:104FB400088A07EE100AA9EE277A2BA8BDEEC88A44
:104FC40067EE288A8DED008AFCEEE88ACDED038A2F
:104FD40001F006FAC1B22BA8FFF77AF8099C169ED5
:104FE400149F20B2159C0FFA8BF132B23BB28DE8BC
:104FF4000F000FFA8AF223B22BA80F4901F0F0F93F
:10500400C1B22BA8FFF764F80FCD2BAC0FC495E801
:105014000F0007C424F8023B1B0C2BA81E2123708D
:10502400FFF756F839B0BDEC048BBDE8F08F00BF34
:10503400486E0008786E0008646E000800B5094BDD
:105044001B7885B053B106224FF4C8738DE80D0068
:10505400A621054832220123FBF738FE05B05DF88E
:1050640004FB00BF24050020EC0400200D4A026369
:1050740010B400220021EE240470C2728281C28125
:10508400028242828282C282028342838283C283F8
:105094000284426280F82820C16241635DF8044BB7
:1050A400704700BF00005C432DE9F04F394B017895
:1050B4001B788FB0044653B108A816224FF4C87366
:1050C4008DE80D003448AA220123FBF7FFFD9DF86B
:1050D4002B309DF822909DF824C09DF826600593FE
:1050E4009DF823809DF82C309DF825709DF827505D
:1050F40006939DF82D309DF820B007939DF821A0CC
:105104009DF828009DF82A209DF8291008EB09280D
:1051140007EB0C279DF82E90CDF8109005EB062593
:10512400DDF81C902782A583059F069D9DF831C05C
:10513400A4F80E800AEB0B2A07EB022309EB0528DF
:105144009DF82FB0A4F80CA001EB00219DF830A02D
:105154009DF832609DF833009DF834709DF8352039
:10516400DDF81090E1830BEB092B0CEB0A2C00EB20
:10517400062002EB072201252384A4F81280A4F858
:1051840014B0A4F816C020836283E5720FB0BDE8A2
:10519400F08F00BF24050020EC04002070B5204DE2
:1051A40090F820102B7886B0044663BB94F827301F
:1051B400012B16D094F8216094F8221094F825500D
:1051C40094F8262094F8230094F8243041EA062128
:1051D40042EA052243EA002321806280A38006B0CC
:1051E40070BD2A788DF8103094F82010002AE1D090
:1051F40004A84FF4C8728DE80900029209480222FB
:10520400FBF7DAFCD6E7213006224FF4C8738DE8A9
:105214000D00032201230348FBF758FDC6E700BF36
:1052240024050020EC04002070B4002400253C2652
:105234000022002380F8206004824482848280F863
:10524400214080F827408561C561C0E9022370BC14
:10525400704700BFF0B5234E90F82010337889B022
:10526400742204468DF8102033B91F4B8361002348
:1052740084F8273009B0F0BD04AB01254FF4C8779A
:105284008DE8280000222B4602971848FBF794FC6F
:10529400154A3378A26120228DF81F2094F820103B
:1052A400002BE4D00DF11F038DE8A8002A462B46FD
:1052B4000E48FBF781FC337894F827208DF81820EA
:1052C40094F82010002BD2D006AA2B460092019508
:1052D400029702220548FBF76FFC002384F827306D
:1052E40009B0F0BD240500201F856B3FEC040020AD
:1052F4002DE9F0475A4C90F81490237890B0054665
:10530400002B5AD00DF140080EAF48F8107D01264D
:10531400334649461622CDF80080019651484FF491
:10532400C87AFBF7F7FDCDF8008001963346CDF837
:1053340008A04C4849461622FBF7C8FC00285DD15A
:10534400237895F81490002B37D00DF140080126EE
:1053540048F80C7D334649463E220196CDF800803C
:1053640040484FF4C87AFBF7D5FDCDF8008001968C
:105374003346CDF808A03B4849463E22FBF7A6FC3D
:10538400F0B92E7D2378C3B1012508AA2B460E92CD
:10539400314616220097019532484FF4C878FBF73E
:1053A400B9FD019500972B46CDF808802D4831466C
:1053B4001622FBF78BFC002839D110B0BDE8F0872A
:1053C4009DF838302278DFF8988023F0070343F003
:1053D40001038DF838308DF81830002AEDD006AA74
:1053E400334601960092CDF808A049461D483E2256
:1053F400FBF7E2FB2E7D98F80030C4E79DF83830C7
:10540400227823F0180343F018038DF838308DF810
:105414001030002AD1D004AA00920196CDF808A039
:105424004946334616220F48FBF7C6FB88E79DF82A
:105434002030227803F0F8038DF820308DF82830DE
:10544400002ABAD00AAA00920195CDF80880314604
:105454002B4616220348FBF7AFFB10B0BDE8F087DC
:1054640024050020EC04002070B5114B017D1B784D
:1054740084B0044653B1153006224FF4C8738DE846
:105484000D000C481D220123FBF720FC667DA17D45
:10549400E57D227E607EA37E41EA062142EA052262
:1054A40043EA002321806280A38004B070BD00BF62
:1054B40024050020EC04002070B592B0FDF7F2FF43
:1054C4001B4BD3F8882042F47002C3F88820FAF703
:1054D40009FF184A184B116C41F0805111641A6885
:1054E40042F440421A60022401234FF4A8710722B7
:1054F4004FF48006082506A8069307930D960E958B
:105504000F9111920C9410940F26FCF76BFB00255D
:105514004FF4A0524FF4805301A805210294019640
:10552400039504920593FCF759FD12B070BD00BFBA
:1055340000ED00E000380240007000404C4A4D4B42
:10554400116BF0B505464FF0800C4FF0400E41F062
:1055540001074FF480704FF40071474EA5F814C052
:10556400A5F81CE02E622B60AB602B61AB61A980B7
:10557400A881A884176387B0106B404C06AE40F036
:105584000400106346F8141D022218463146002315
:105594000127049203930297FAF75CFFAB89A8688A
:1055A40001933146FAF756FFAB8A286901933146D5
:1055B400FAF750FFAB8BA86901933146FAF74AFF1B
:1055C400AB8C286A01933146FAF744FF27602268BE
:1055D4002A4E002AFBD1A868A989FBF7B1F8012358
:1055E40033602668254F002EFBD1A868A9890122C3
:1055F400FBF7A6F832462868A988FBF7A1F801232F
:105604003B6023681D4E002BFBD12868A98801222A
:10561400FBF796F8012333602668002EFCD1284658
:1056240032462121FEF74AFE28463246C021FEF7C3
:1056340045FE284632460621FEF740FE28463246FD
:105644001421FEF73BFE324628462021FEF736FEA3
:105654002846FEF727FE284632460C21FEF72EFE8A
:105664002868A9883246FBF76BF8284607B0F0BDD6
:10567400003802400008024000000240E804002014
:1056840070B52D4C236B9AB043F010034FF40071A6
:10569400054623630322012328480791022607A90C
:1056A40009930B930A920896FAF7D4FE606C244986
:1056B400244B254A40F00100606409682A60A3FB7A
:1056C4000121490B0139002389B263226960EA6030
:1056D4002B61AB606B612846FCF74EFE044600B1BB
:1056E400FEE71AA94FF4805341F85C3D2846FCF7C5
:1056F400E1FF284601A901940294FDF759F94FF4FA
:10570400005328460CA911930C940D940E940F94F5
:1057140010941294FDF770F928464FF4FA7360253B
:10572400224613A91594179413951493FCF7B8FE05
:1057340000B1FEE71AB070BD00380240001002400C
:105744000C0000205917B7D1000001402DE9F04F9B
:10575400954DDFF8A082A9B0FAF7C4FD2A6C934BEB
:1057640042F080522A641A6842F440421A600226C7
:105774004FF4800108224FF4A87301271BA84FF0AF
:10578400070922912392249300241B971C972196A6
:105794002596CDF89890FCF725FA4FF480534FF0F6
:1057A4000F0E4FF4A05205210EA81293CDF838E045
:1057B40011920F961094FCF711FC22467C497D4807
:1057C400FDF75AFF7C497B48FDF76CFF7B4979481C
:1057D400FEF7BAFB7748FDF76DFF794AD8F8003039
:1057E400A2FB03139A09013AB2F1807F80F07C8115
:1057F400744B75495A60F02281F8232004A89C60F8
:10580400C3F80090FFF79AFE6B6C704E70493461D8
:1058140043F480436B64D8F800002B6C6D4AB46089
:10582400A1FB00E1890B43F0040301392B6489B225
:1058340009233046F360716032607461FCF71EFD29
:10584400214605221E20FAF797FD1E20FAF7CCFD0B
:105854003046FCF783FD2B6B5F4A6048604E43F093
:1058640002032B631BA920231C921B931D94FAF79C
:10587400F1FD802359481B931BA9FAF7EBFD4FF464
:1058840080731BA955481B93FAF7E4FD0620FAF729
:1058940061FD214604221720FAF76EFD1720FAF75E
:1058A400A3FD3046FFF794F806F5D3331BA8D3F8CD
:1058B4002C311A683A431A60FEF72EFE494886F8DE
:1058C400A37086F8A4400E940F941094119412942B
:1058D4001394149415941694179418941994ADF879
:1058E4006840FDF707FE4048FFF7CAFE21463E48E0
:1058F400FCF7B2FD00B1FEE7DFF8FC803B4CDFF8BB
:10590400E8A008F10207B14625786378A3780EA8C9
:105914000A21EDB2FEF7AEFB40B39DF83830433BAD
:10592400142B1BD8DFE813F0D8001A00A4001A00C7
:1059340098001A006A001A001A001A001A001A00C5
:105944001A001A001A003C00CE00AD001A001A001A
:105954001500DAF8003040F22D325A6300230E931A
:105964000F931093ADF844308DF8463096F8A2307A
:105974001B48012B04BF002389F8A230FEF72CFF3B
:10598400B8F800303A889BB29A4240F2A980032DBD
:10599400BAD10022134604A81549FEF7E3FCB3E785
:1059A400012386F8A430D9E7003802400070004093
:1059B4003801002094AC0120540000202001002074
:1059C400D34D621010E000E000ED00E09C040020E4
:1059D4005917B7D1000800400000311000040240FC
:1059E400280500200802002060040020E4040020B0
:1059F400BC6E00080C00002050AC01203B48FDF7B1
:105A040079FD3B48FEF79EFD3848FDF791FD0246BF
:105A140037480292FEF796FD3448FDF789FD834628
:105A24003348FEF78FFD3148FDF782FD03463048C9
:105A34000393FEF787FD2D48FDF766FD039B009356
:105A44000190029A2B495B460EA800F0C9FC01465E
:105A54000EA8FEF73DFB81E701283FF47FAF0DF16F
:105A6400390000F0E9FB81B22148FEF7FDFE75E73D
:105A740000231E4886F8A33086F8A430FDF744FDC1
:105A84006CE701283FF46AAF0DF1390000F0D4FB54
:105A940001461648FDF754FD174902460EA800F0CA
:105AA4009FFC01460EA8FEF713FB002311931293EB
:105AB4001393149315931693179318931993ADF89E
:105AC40068304BE701220023084886F8A32086F8B3
