:020000040800F2
:1000000000000220A5020008AD020008B1020008AD
:10001000B5020008B9020008BD0200080000000097
:10002000000000000000000000000000C102000805
:10003000C502000800000000C90200088947000846
:10004000D9020008D9020008D9020008D902000824
:10005000D9020008D9020008D9020008D902000814
:10006000D9020008D9020008D9020008D902000804
:10007000D9020008D9020008D9020008D9020008F4
:10008000D9020008D9020008D9020008D9020008E4
:10009000D9020008D9020008D90200085D4600080C
:1000A000D9020008D9020008D9020008D9020008C4
:1000B000D502000845520008F54600080D51000819
:1000C000D9020008D9020008D9020008D9020008A4
:1000D000D902000851450008D9020008D9020008D9
:1000E000D9020008D9020008D9020008D902000884
:1000F000D9020008D9020008D9020008D902000874
:10010000D9020008D9020008D9020008D902000863
:10011000D9020008D9020008D9020008D902000853
:10012000D9020008D9020008D9020008D902000843
:10013000D9020008D9020008D9020008D902000833
:10014000D9020008D9020008D902000801350008C8
:10015000D9020008D9020008D9020008D902000813
:10016000D9020008D9020008D9020008D902000803
:10017000D9020008D9020008D902000800000000D6
:10018000D9020008D902000800B53548354B364D74
:10019000364C374A2A60984283B0226007D2C24365
:1001A000134423F003020432002108F08EFC2B6874
:1001B00003B1FEE72368002BFBD12E482E4B2F4DB9
:1001C0002F4C2B4A2A609842226007D2C243134424
:1001D00023F0030204322B4908F06EFC2A682A4BF4
:1001E0009A4200D0FEE7226823689A42FAD1274E4D
:1001F000274D761B06F0D8F9B610684601A903F022
:1002000085F9002E07DD043D0024013455F8043F34
:100210009847B442F9D11F4E1F4D761BB610002EE1
:1002200007DD043D0024013455F8043F9847B442EB
:10023000F9D11A4D1A4C9DE8030006F099FA641B97
:10024000A410002C0646C8BF05EB840505DD013C63
:1002500055F8043D9847002CF9D1304603F02EF9AB
:1002600010020020F8B4012010020020F4B4012094
:10027000BABADECA000000200C02002000000020F4
:1002800008020020C8A1000878563412DC020008D9
:10029000DC020008E8020008DC020008E8020008AE
:1002A000E802000808B5FFF76FFF00BFFEE700BFD8
:1002B000FEE700BFFEE700BFFEE700BFFEE700BFAE
:1002C000FEE700BFFEE700BFFEE700BFFEE700BF9E
:0C02D000FEE700BFFEE700BFFEE700BF36
:0C02DC0065360008F1410008815C000854
:1002E800704700BF08B50C4B1A6842F400721A60D8
:1002F8001A6842F480621A601A6842F480721A60BE
:100308004FF47A5000F07CF8052000F023F8FFF74E
:10031800E7FF002008BD00BF003C0240024B1A68FE
:1003280001321A60704700BF14020020014B1868A0
:10033800704700BF1402002082B0054A019011687E
:10034800019B194413689942FCD802B0704700BF5A
:1003580014020020074AD1684FF6FF030B4043F010
:10036800BF6300F0070043F4003343EA0023D3607F
:10037800704700BF00ED00E0194B30B4DC68C4F3EF
:100388000224C4F10703251D042B28BF0423062DCE
:1003980019D9033C0125A540013D2A40012505FA4C
:1003A80003F3013B194001FA04F4002844EA02046B
:1003B8000CDB00F1604000F561402401E4B280F8F4
:1003C800004330BC704700221446E7E7054B00F0B5
:1003D8000F0024010344E4B21C7630BC704700BF10
:1003E80000ED00E0FCEC00E000F01F0201214009F4
:1003F800024B01FA02F243F82020704700E100E0C6
:100408000138B0F1807F10B40DD2094B094C586007
:10041800F02084F823000022072110469A60196012
:100428005DF8044B704701205DF8044B704700BF2E
:1004380010E000E000ED00E04209603200F01F002B
:100448000121034B01FA00F043F82200704700BF76
:1004580000E100E02DE9F00F0023DFF8B0920F680B
:10046800A94D03E00133102B00F0E68001229A40E9
:1004780002EA07049442F5D14A6822F01008B8F15C
:10048800020F00F082805E004FF0030CD0F800A04D
:100498000CFA06FC6FEA0C0C0CEA0A0AC0F800A079
:1004A800D0F800A002F0030B0BFA06FB08F1FF38A6
:1004B8004BEA0A0AB8F1010FC0F800A040F29B808D
:1004C800D0F80CA0D1F808800CEA0A0CC0F80CC0CF
:1004D800D0F80CC008FA06F646EA0C06C660D60044
:1004E800C0D5D9F844C023F0030606F1804606F5C6
:1004F8009C364CF4804CC9F844C003F0030CD6F881
:1005080008A04FEA8C0C4FF00F0808FA0CF82AEAFA
:100518000808DFF8FCA1C6F808805045D6F808801E
:1005280000F08D800AF5806A504500F0C480DFF83D
:10053800E4A1504500F0C480DFF8DCA1504500F08C
:10054800C480DFF8D8A1504500F0C480DFF8D0A1FE
:10055800504500F0C980DFF8CCA1504500F0C980B3
:10056800DFF8C4A1504500F0BA80DFF8C0A15045BB
:1005780000F0C480DFF8B8A150450CBF4FF0090A5D
:100588004FF00A0A0AFA0CFC5BE0DE0800EB86066C
:1005980003F0070CD6F820A0D1F810B04FEA8C0C65
:1005A8004FF00F0808FA0CF82AEA0808C6F8208065
:1005B800D6F82080D6F820A00BFA0CFC4AEA0808E6
:1005C80048EA0C0CC6F820C05E004FF0030CD0F8C7
:1005D80000800CFA06FC6FEA0C0C0CEA0808C0F85C
:1005E8000080D0F800A002F0030808FA06F848EAEC
:1005F8000A08C0F80080D0F808A0D1F80C800CEAEE
:100608000A0AC0F808A0D0F808A008FA06F848EACC
:100618000A08C0F80880D0F8048028EA0408C0F85E
:100628000480D0F804A0C2F3001808FA03F848EAD6
:100638000A08C0F8048043E7BDE8F00F70474FF0A0
:10064800000C4CEA080CC6F808C0D5F800C0E64310
:1006580006EA0C0CC5F800C0D5F804C012F4803FB7
:1006680006EA0C0CC5F804C005D0D5F800C044EA69
:100678000C0CC5F800C012F4003F05D0D5F804C032
:1006880044EA0C0CC5F804C0D5F808C006EA0C0CFE
:10069800C5F808C0D5F80CC006EA0C06EE60D6020C
:1006A80002D5AE682643AE6092027FF5DBAEEA68FB
:1006B8001443EC60D6E64FF0010A0AFA0CFCC0E7D6
:1006C8004FF0020A0AFA0CFCBBE74FF0030A0AFAD9
:1006D8000CFCB6E74FF0040A0AFA0CFCB1E74FF03D
:1006E800070A0AFA0CFCACE74FF0050A0AFA0CFCF8
:1006F800A7E74FF0060A0AFA0CFCA2E74FF0080A2F
:100708000AFA0CFC9DE700BF003C0140003802409B
:100718000000024000080240000C024000100240A5
:100728000014024000180240001C02400020024051
:1007380000240240036919420CBF002001207047C1
:100748000AB9418370470183704700BF4369594024
:100758004161704770B50C460546FFF7E7FD06197D
:1007680001342A6805D193699B07FCD4002070BD29
:100778002A689369DB4313F00204F7D1FFF7D6FD2B
:100788008642F5D8012385F8344085F835300320B2
:1007980070BD00BF2DE9F04706460068089F8A46ED
:1007A800016841F48071016090469946FFF7BEFDEB
:1007B800791C356800EB070439D16C69E207FCD570
:1007C8000AF0FE032B61FFF7B1FD7A1C316800EBDC
:1007D800070403D038E04B69580539D448698407C1
:1007E800F9D54B698B69FFF7A1FD7B1C326800EBDB
:1007F80007044BD153691B06FCD5B9F1010F0BD087
:100808004FEA18231361FFF791FDC41901373268C5
:1008180040D153691806FCD55FFA88F313610020AC
:10082800BDE8F087FFF782FD84423FD935686B69E0
:10083800DB07F7D5C4E74B6913F4806508D1FFF7E8
:1008480075FD84423BD931684B699A07F3D5C8E7EF
:100858000B6843F400730B604C69042024F4806433
:10086800012300224C6186F8360086F8342086F889
:10087800353096F83630042B14BF03200120BDE82C
:10088800F087FFF753FD844210D9326853691D067B
:10089800F7D5B2E753691906BED4FFF747FD84427E
:1008A80004D9326853691906F7D5B5E70122002340
:1008B80086F8352086F834300320BDE8F087012318
:1008C80086F8345086F83530D3E700BF2DE9F84F65
:1008D800064600680A9F8A46016841F48061016003
:1008E800016841F48071016090469946FFF71EFD4A
:1008F800791C356800EB070464D16C69E207FCD504
:100908005FFA8AFA0AF0FE032B61FFF70FFDC5199B
:10091800781C346803D062E06369590563D4606960
:100928008007F9D56369A369FFF700FD791C326870
:1009380000EB070474D153691B06FCD5B9F1010F0C
:100948000BD04FEA18231361FFF7F0FCC419781C89
:10095800326877D153691906FCD55FFA88F31361B9
:10096800FFF7E4FC7D1C326800EB070461D1536992
:100978001806FCD5136843F480731360FFF7D6FCA0
:100988007A1C336800EB070465D15A69D207FCD595
:100998004AF001021A61FFF7C9FCC419013733682C
:1009A80003D07EE05A69540569D45A69D24312F0DB
:1009B8000202F7D11046BDE8F88FFFF7B7FC844272
:1009C8004DD935686B69DB07F7D599E7636913F487
:1009D800806B08D1FFF7AAFC85424AD9346863695D
:1009E8009A07F3D59EE7236843F400732360606990
:1009F800042120F4806001230022606186F836100B
:100A080086F8342086F8353096F83630042B2DD009
:100A18000320BDE8F88FFFF789FC84421FD93268AC
:100A280053691D06F7D589E7FFF780FC844216D97C
:100A3800326853691906F7D59CE7FFF777FC8442BB
:100A48000DD9326853691B06F7D586E7FFF76EFCA8
:100A5800844204D933685A69D507F7D598E7012243
:100A6800002386F8352086F83430D1E70120BDE828
:100A7800F88F012386F834B086F83530C4E71A6851
:100A880042F400721A605C69042024F48064012234
:100A980000215C6186F8360086F8341086F8352027
:100AA800B2E75A69D24312F0020283D05A6912F4AB
:100AB8008065E4D1FFF73AFC844201D93368F0E756
:100AC800012386F8345086F835309DE7704700BF1B
:100AD800F8B50446002866D090F83530002B4FD082
:100AE8002368324D022284F835201A6822F0010268
:100AF8001A6001F0C1FC2E4962682368A1FB0061FD
:100B0800890CAA42596025D85200B0FBF2F0C0F314
:100B18000B020131032A19628CBF84464FF0040C82
:100B2800206AE769E6682169A2696569C3F81CC09B
:100B3800384331432A4318609960DA601868002204
:100B480040F001000121186084F83620104684F82E
:100B58003510F8BD4FF49677164EA56807FB01F1DE
:100B6800A6FB017189090131196265B902EB4202DC
:100B7800B0FBF2F0C0F30B0292B94FF0010CCFE7D3
:100B8800FFF7A4FFACE702EB820202EB8202B0FBA4
:100B9800F2F0C0F30B02002AEFD040F4404CBFE75C
:100BA80040F4004CBCE70120F8BD00BFA08601005E
:100BB80083DE1B43D34D62102DE9F04190F8355088
:100BC80082B0EDB2012D0446BDF8246003D00220A6
:100BD80002B0BDE8F081089FFFB1F6B10768BF69B0
:100BE80017F00208F3D190F834C0BCF1010FEED031
:100BF8004FF0320E0A9F80F83450009780F835E0A5
:100C080080F83680FFF7C6FD48B194F8363084F88E
:100C18003480042B01D00320DAE72846D8E7FFF711
:100C280085FB0A990A9D2268013105442FD1536931
:100C38001B06FCD5089F3B7813615369711E5B073F
:100C480089B231D4013708970E46002EE7D1FFF755
:100C58006DFB0A9B0A9D22680133054420D1536924
:100C68001806FCD513680A9943F4007313602046EC
:100C7800FFF770FD0028CED1012384F8340084F8F2
:100C88003530A5E7FFF752FB854217D9226853692B
:100C98001F06F7D5CEE7FFF749FB85420ED9226834
:100CA80053691906F7D5DDE70029D0D0089D023E23
:100CB8006B7813610235B6B20895C6E701220023A6
:100CC80084F8352084F83430032081E72DE9F04199
:100CD80090F8356082B0F6B2012E0546BDF8247052
:100CE80004D00224204602B0BDE8F081089CFCB183
:100CF800F7B10468A46914F00208F2D190F83440FE
:100D0800012CEED00A9C80F834604FF0420E00941B
:100D180080F835E080F83680FFF7D8FD044648B102
:100D280095F8363085F83480042B01D00324D9E7B0
:100D38003446D7E7012F2B6800F0CF80022F00F050
:100D4800D7805A699B69032F60D8012F00F0A680CD
:100D5800022F7CD0FFF7EAFA0A9B0A9E2A68013321
:100D680006443AD153695807FCD5136823F48063C5
:100D780013601369089A1370FFF7D8FA0A9B0A9E42
:100D88002A680133064431D153695B07FCD51368DF
:100D980043F4007313601369089A53702B681B6936
:100DA80093702B681A6822F400621A60FFF7BEFA83
:100DB8000A9A0A9E2B680132064421D19A69910742
:100DC800FCD40122002385F8352085F8343089E7E2
:100DD800FFF7ACFA864279D92A6853695907F7D5DB
:100DE800C3E7FFF7A3FA864270D92A6853695F07F9
:100DF800F7D5CCE7FFF79AFA864240F284802B6851
:100E08009B69DB4313F00207F4D0DAE7FFF78EFAA9
:100E18000A9B0A9E2A680133064414D153695E0668
:100E2800FCD51369089A13702B685A6952072DD498
:100E3800089B013F0133BFB2089384E7FFF776FAB6
:100E4800864243D92A6853695806F7D5E9E7FFF778
:100E58006DFA0A9B0A9E2A680133064412D1536927
:100E68005B07FCD5136843F4007313601369089A91
:100E780013702B681B69537093E7FFF757FA864284
:100E880024D92A6853695F07F7D5EBE7089A1B69E5
:100E98005370023F0232BFB2089254E7FFF746FA96
:100EA8000A9B0A9E2A68013306440BD153695806E7
:100EB800FCD51369089A137073E7FFF737FA86426F
:100EC80004D92A6853695906F7D5F2E701220023A5
:100ED80085F8352085F8343028E71A6822F48062CE
:100EE8001A605A699A691A6842F400721A602AE705
:100EF8001A6822F480621A601A6842F400621A6062
:100F08005A699B691FE7012385F8347085F83530E5
:100F18000324E7E6704700BF704700BF704700BF73
:100F280003689A6912F0010270B5044627D09A69DD
:100F3800510764D55A69586859695D681206C1F342
:100F4800800140F1A780460540F1A480002900F007
:100F58001881A80540F1A18094F83420012A00F0F6
:100F68009C80628D012192B284F83410002A00F02E
:100F78002881626A5118616212781A6163E05969BE
:100F88005E685D6998698907C6F3402605F0100513
:100F980000F0040028D415B1002E40F08C805A6966
:100FA800002858D0586859695D681606C1F3800151
:100FB8007CD540057AD500297AD194F83420012AC5
:100FC8006BD0628D012192B284F8341042B1626A0A
:100FD8005118616212781A61638D013B9BB2638577
:100FE800002384F8343070BD002ED8D094F8341023
:100FF800012952D059699B6984F8342070BD596918
:1010080058685A695D684906C2F3800246D54605A4
:1010180044D5002A7BD0A8053FD594F83420012A6E
:101028003BD0628D92B20121032A84F8341000F07B
:10103800ED80628D92B2022A00F00081626A1B691B
:10104800511C61621370628D013A92B2002362856D
:1010580084F8343070BD586859695D685606C1F324
:1010680080011ED540051CD5E9B994F83420012A21
:1010780013D0628D012192B284F83410002AAFD0C7
:10108800626A1B69511861621370638D013B9BB2E0
:101098006385A5E700297FF45CAF70BD002ABAD14B
:1010A80070BD0029F9D0AA05F7D5DEE70029F4D0EC
:1010B800AA05F2D581E794F83420012AEDD05A68C0
:1010C80084F8346022F4E0625A605A691A6842F07F
:1010D80001021A601A6822F480621A60FFF726F982
:1010E80000F1230603E0FFF721F9864263D923685C
:1010F8009B69DB4313F00205F5D00122002384F835
:10110800352084F834302046FFF704FFC5E794F80B
:1011180034100129C1D0618D89B20120032984F8D6
:10112800340079D802390129596840F28180626A0D
:1011380021F4E06159601B69511C61621370638D71
:10114800013B9BB26385FFF7F1F800F1230603E04A
:10115800FFF7ECF886422ED923689B69DB4313F02E
:101168000205F5D094F83530422B00F09D8001221D
:10117800002384F8352084F83430204603F0D0FF6B
:1011880070BD94F83420012A87D0626A0121501872
:10119800606284F8341012781A61628D013A92B252
:1011A8006285628D92B2002A7FF41AAF5A6822F4DF
:1011B80080625A6014E7012384F8345084F835308B
:1011C80070BD5A6822F4E0625A601A6842F40072EC
:1011D8001A60FFF7ABF800F1230603E0FFF7A6F863
:1011E8008642E8D923689B69DB4313F00205F5D0F2
:1011F80094F83530322B4DD00122002384F8352065
:1012080084F83430204603F089FF70BD1968626A9B
:1012180021F48061196012E7616A1B69081860622D
:101228000B70638D84F83420013B9BB2638570BDDD
:1012380021F48061596084F8342070BD1968626AAD
:1012480041F4007119601B69511C61621370618D52
:10125800636A2268013989B261851269591C616221
:101268001A70628D2368013A92B262855A6822F434
:1012780040725A60FFF75AF800F1230603E0FFF7BF
:1012880055F8864297D923689B69DB4313F002051A
:10129800F5D067E70122002384F8352084F834303C
:1012A8002046FFF739FE70BD0122002384F835205F
:1012B80084F834302046FFF731FE70BD2DE9F04F39
:1012C80004468BB0002800F0FA814FF00208064669
:1012D80080F8798305F008FC206801F053FC56F883
:1012E800107B0FCE6D460FC596E80F0085E80F00FE
:1012F800251D95E80E000995384601F0DFFB2068AA
:10130800002101F047FC00254FF0010E4FF0030BC0
:101318004FF0040A4FF005094FF0080384F831E054
:1013280084F84DE084F84CE084F869E084F885E0BE
:1013380084F8A1E084F8BDE084F8688084F830502F
:1013480084F83350A563E563656484F84F50656598
:10135800A565256684F86B5025676567E56784F899
:101368008750C4F88C50C4F89050C4F8985084F84A
:10137800A350C4F8A850C4F8AC50C4F8B45084F8CA
:10138800BF5084F884B084F8A0A084F8BC90C4F856
:10139800C45084F810314FF0090384F82C314FF011
:1013A8000A030620072184F848314FF00B0384F81C
:1013B800D9E084F8F5E084F811E184F82DE184F8A7
:1013C80049E184F865E184F8D80084F8F410C4F899
:1013D800C850C4F8D05084F8DB50C4F8E050C4F8C2
:1013E800E450C4F8EC5084F8F750C4F8FC50C4F842
:1013F8000051C4F8085184F81351C4F81851C4F8BE
:101408001C51C4F8245184F82F51C4F83451C4F83D
:101418003851C4F8405184F84B51C4F85051C4F8BD
:101428005451C4F85C5184F86431276884F881E128
:101438004FF00E0C0C220D2384F8B8C184F89DE1FE
:1014480084F8B9E184F8802184F89C3184F86751E4
:10145800C4F86C51C4F87051C4F8785184F88351B9
:10146800C4F88851C4F88C51C4F8945184F89F5139
:10147800C4F8A451C4F8A851C4F8B05184F8BB51B9
:10148800C4F8C051C4F8C451C4F8CC5184F8D5513B
:1014980084F8D451E58684F8D751C4F8DC51C4F8EF
:1014A800E051C4F8E851C7F8045184F8F0E184F831
:1014B800F151A4F852E084F8F351C4F8F851C4F893
:1014C800FC51C4F80452C7F8085184F80D5284F846
:1014D8000C82A4F86E8084F80F52C4F81452C4F831
:1014E8001852C4F82052C7F80C5184F8295284F8CD
:1014F80028B2A4F88AB084F82B52C4F83052C4F841
:101508003452C4F83C52C7F8105184F8455284F854
:1015180044A2A4F8A6A084F84752C4F84C52C4F8D0
:101528005052C4F85852C7F8145184F8615284F8DC
:101538006092A4F8C29084F86352C4F86852C4F860
:101548006C52C4F87452C7F8185184F87C02A4F895
:10155800DE0084F87D5284F87F52C4F88452C4F8BF
:101568008852C4F89052C7F81C5184F89812A4F80D
:10157800FA104FF0080184F8995284F89B52C4F885
:10158800A052C4F8A452C4F8AC52C7F8205184F849
:10159800B4124FF00801A4F816114FF0090184F8AD
:1015A800B55284F8B752C4F8BC52C4F8C052C4F853
:1015B800C852C7F8245184F8D0124FF00901A4F892
:1015C80032114FF00A0184F8D15284F8D352C4F88A
:1015D800D852C4F8DC52C4F8E452C7F8285184F849
:1015E800EC124FF00A01A4F84E114FF00B0184F8E9
:1015F800ED5284F8EF52C4F8F452C4F8F852C4F823
:101608000053C7F82C5184F808134FF00B01A4F8C5
:101618006A1184F8095384F80B53C4F81053C4F8BA
:101628001453C4F81C5304F1100EC7F8305184F851
:101638002423A4F8862184F8255384F82753C4F872
:101648002C53C4F83053C4F83853C7F8345184F8CD
:101658004033A4F8A23184F8415384F84353C4F8C2
:101668004853C4F84C53C4F85453C7F8385184F855
:101678005D5384F85CC384F85F53BEE80F00EE4600
:10168800A4F8BEC1C4F86453C4F86853C4F87053CE
:10169800C7F83C51AEE80F0096E80F008EE80F003F
:1016A800099E384696E80E0001F08EFA84F87953C0
:1016B800206801F07FFE28460BB0BDE8F08F0120BE
:1016C8000BB0BDE8F08F00BF90F87833012B10B550
:1016D800044601D1022010BD012380F87833006848
:1016E80001F05CFE206801F045FA002084F87803D8
:1016F80010BD00BF2DE9F04F076887B00446384693
:1017080001F096FE10B107B0BDE8F08F206801F037
:101718005DFE0028F7D0206801F058FE10F0020F97
:1017280020681EBF436943F00203436101F04EFE87
:10173800010300F134814FF00008206801F046FEF3
:1017480010F4802F206840F0CE8001F03FFE002882
:10175800C0F21782206801F039FE01054ED42068D6
:1017680001F034FEC3047FD4206801F02FFE10F48A
:10177800005F20685AD101F029FE10F0100F206890
:1017880017D0836923F0100383613D6A05F00F03C6
:10179800C3EBC303C5F3434204EB8303022A03F5F7
:1017A800EA7600F0DA81062A33D0836943F0100321
:1017B800836101F00BFE070700F14181206801F009
:1017C80005FEC60200F12581206801F0FFFD8502B3
:1017D80000F12A81206801F0F9FD400000F1D6806F
:1017E800206801F0F3FD41078DD523685D686A071D
:1017F80000F198815A6815435D6084E7D7F8083886
:10180800DA0700F194812068436943F40063436177
:10181800A6E7384604F55F71082201F05DFDB3695B
:101828002068C5F30A152B44B361BEE701F004FE36
:101838002068C36823F47053C36001F091FA2368E9
:10184800002840F08181DA68E0604FF4007142F4CA
:1018580010526161DA60204605F022FA2068436977
:1018680043F40053436186E707F500667368206810
:1018780023F001037360002101F060FA65685DB12F
:1018880007F510630022FF210132AA429960C3F8CC
:10189800081203F12003F7D14FF0FF33B361F26967
:1018A800A36A42F00112F261002B00F04481D6F8DD
:1018B800843043F00B03C6F88430736C43F00B0399
:1018C8007364D7F800382068217C23F4FE63C7F8D6
:1018D800003804F55F7201F0CBFD2068436943F4DA
:1018E8008053436141E701F07DFD8346002800F005
:1018F80087814FF0000820680397254607F5106A8E
:10190800C14609E05FEA5B0B09F1010905F11C0515
:101918000AF1200A00F09C801BF0010FF2D05FFA58
:1019280089F7394601F070FDC307064616D501232D
:1019380003FA09F1039B03F50062C9432369516364
:1019480001229342CAF8082000F03881394620461F
:1019580005F098F92169012900F02281300744BF78
:101968000823CAF80830F10644BF1023CAF8083023
:10197800720644BF4023CAF80830B30744BF0222A6
:10198800CAF80820300666D42068BBE7204605F070
:10199800A7F92068436943F08043436121E7206841
:1019A80001F018FD054600283FF4C5AE07F530667E
:1019B800A3464FF0000808E06D0808F1010806F199
:1019C80020060BF11C0B3FF4B8AEEA07F4D55FFA1A
:1019D80088FA5146206801F00DFD10F0010F81468C
:1019E8000DD0236901229342B26000F0FB8051467A
:1019F800204605F03DF92169012900F0E48019F03D
:101A0800080F40F0898019F0100F1CBF1022B26037
:101A1800D2E720465FFA88F105F05EF9206843694D
:101A280043F480134361D0E620465FFA88F105F05D
:101A38004FF92068436943F400134361CBE620461D
:101A480005F02AF92068436943F008034361B6E6C4
:101A5800C846039F79E62368696CD5F848C0AA6B25
:101A6800049303F5106808EB4918CCEB0103934283
:101A780034BF1E461646D8F818E0F01C48BFB01D03
:101A88001FFA8EFEBEEBA00F40F2BD80614540F20A
:101A9800BA80002900F0B780E96BCDF8149016469B
:101AA800A94625464446DDF8108006E0D9F84420CA
:101AB8009A421ED9D9F83860D31AB34238BF1E46A5
:101AC8002B7C00933A46B3B2404601F0F1FBD9F8BB
:101AD8003C10D9F8483031443344C9F83C10C9F8AF
:101AE8004830A069F21C80B248BFB21DB0EBA20F0B
:101AF800DCD82C464D462068DDF81490002E3FF7C0
:101B080001AF049A02F50061012202FA09F34A6B57
:101B180022EA03034B63F5E6204605F0A3F8082301
:101B2800B36070E7204605F0DFF8236862E62046D8
:101B380005F0C6F867E6736943F00B037361336910
:101B480043F00B033361BCE6DA68032042F4A05289
:101B58004021E0606161DA607DE647F6F0732B4072
:101B6800002B3FF422AE1D092A463846F16801F0E1
:101B7800B3FBF268B36920682A442B44F260B3616E
:101B880013E6D7F8042822F001022046C7F80428F3
:101B980005F09AF82068436943F000434361DAE5A9
:101BA800B9F1000F7FF4DAAE636C002B7FF4D6AE88
:101BB800206804F55F7201F05BFCCFE6EA6BAB6B63
:101BC8001344EB63C2E6B8F1000F7FF418AFD4F802
:101BD800E831002B7FF413AF206804F55F7201F041
:101BE80047FC0CE73169DBF8DC31DBF8E021C1F3B5
:101BF8001201591A1344CBF8EC11CBF8E031F6E690
:101C080080462068A1E5049878E700BF90F878330B
:101C1800012B10B5044601D1022010BD012380F824
:101C28007833006801F0AAFB002084F8780310BD1F
:101C380070B50546080620D4C1EBC10005EB80004D
:101C480000F5EA74002680F8D411A260E37066708B
:101C5800022B04BF0023237195F87833012B01D19F
:101C6800022070BD0123214685F87833286801F0E9
:101C780095F8002085F8780370BD01F07F01C1EB6D
:101C8800C100800030302C1801262954A260E3706E
:101C9800E1806670DCE700BFCAB2130610B50446DF
:101CA80019D4C1EBC10300EB830303F5EA73D2092E
:101CB8005A70197094F87823012A01D1022010BDB6
:101CC8000122194684F87823206801F0AFF8002033
:101CD80084F8780310BD01F07F01C1EBC10300EB6C
:101CE80083033033E3E700BF70B501F07F05044696
:101CF800C5EBC50004EB800000F5EA7100264E70C4
:101D0800CA604B618E6180F8D4512369012B08BFEA
:101D18000A6194F87823012A11D0012284F87823E3
:101D28002068DAB22DB101F0C3F8002084F87803F6
:101D380070BD01F0FFF9002084F8780370BD02201F
:101D480070BD00BF01F07F01C1EBC10100EB810054
:101D5800B0F8EC01704700BFF8B501F07F05C5EB9E
:101D6800C5018900044601F1300021180126002729
:101D78004E70CA604B618F6125542369B34208BF16
:101D88000A6194F87823012A11D0012284F8782373
:101D98002068DAB22DB101F08BF8002084F87803BE
:101DA800F8BD01F0C7F9002084F87803F8BD0220D7
:101DB800F8BD00BFCAB238B5130604461CD4C1EB3F
:101DC800C10300EB830303F5EA730D46D209012131
:101DD8005A701D70997094F878238A4201D10220B4
:101DE80038BD84F878132068194601F089FA5DB186
:101DF800002084F8780338BD01F07F05C5EBC503E2
:101E080000EB83033033E1E72068217C04F55F723F
:101E180001F02EFBECE700BFCAB238B51306044642
:101E28001BD4C1EBC10300EB830303F5EA73D209AA
:101E380000255A7019709D7094F87823012A01D1F1
:101E4800022038BD0122194684F87823206801F061
:101E580077FA84F87853284638BD01F07F01C1EB42
:101E6800C10300EB83033033E1E700BF30B40568FA
:101E78006B6AD1B1A86A013903EB10400CD0002479
:101E88002346403405EB840401336468DBB28B429B
:101E980000EB14401C46F4DB403105EB810540EAB9
:101EA80002406860002030BC704743EA0243AB62DE
:101EB800002030BC704700BF03680020596270479B
:101EC80003682DE9F041DE07054635D5B34A916828
:101ED80001F00C01042900F0E880916801F00C0180
:101EE800082900F0DE80AE4BAC4E00221A70FEF7D7
:101EF8001DFA00F59C54083404E0FEF717FA8442F2
:101F080040F2C08033689903F7D4A54B2A791A7038
:101F18006B68012B00F05081FEF708FA00F59C541D
:101F280008349E4E04E0FEF701FA844240F2AA808B
:101F380033689B03F7D42B689F072FD5974A91687E
:101F480011F00C0F00F0A580916801F00C01082930
:101F580000F09B80EB68002B00F0C380914B8F4C06
:101F680001221A60FEF7E2F900F1640604E0FEF7C8
:101F7800DDF9864240F286802368884A9807F6D5BC
:101F88001168F82090FAA0F0B0FA80F02B69C0B27E
:101F980021F0F80183400B4313602B681A0720D403
:101FA800590734D4AB69CBB17C4CA26802F00C025F
:101FB800082A00F08380022B7B4B4FF000021A6046
:101FC80000F0A080FEF7B2F900F1640503E0FEF727
:101FD800ADF9854256D923689B01F8D40020BDE8A5
:101FE800F0816B69002B6CD0704B6C4C01221A602D
:101FF800FEF79CF900F1640603E0FEF797F98642C4
:1020080040D9636F9F07F8D52B685907CAD5634B2A
:10201800674C1A6C42F080521A64236843F4807348
:102028002360FEF783F900F1640603E0FEF77EF90A
:10203800864227D92368DA05F8D55E4B574E002229
:102048001A70FEF773F900F59C54083403E0FEF7A4
:102058006DF9844216D9336F9B07F8D4554B2A7A09
:102068001A70AB68012B00F0B780FEF75FF94B4E92
:1020780000F59C540834336F980793D5FEF756F94A
:102088008442F8D80320BDE8F081526856023FF533
:1020980061AF424A1268940780D5EA68012A0DD1D7
:1020A8007CE7526854027FF51EAF3C4A12689003E1
:1020B8007FF542AF6A68012A3FF43EAF0120BDE8D0
:1020C800F0813A4A354C1360FEF730F900F16406A6
:1020D80003E0FEF72BF98642D4D9636F9807F8D44A
:1020E80092E7304A2D4C1360FEF720F900F16406A0
:1020F80003E0FEF71BF98642C4D923689907F8D490
:102108002B684BE7FEF712F900F1640703E0FEF7CE
:102118000DF98742B6D92368204E9901F7D447F6BE
:10212800C07494FAA4F4B4FA84F44FF4403191FAE8
:10213800A1F1B1FA81F14FF0706292FAA2F2B2FA0B
:1021480082F2D5F82080EF69D5F828C0D5F824E0C8
:10215800E86A154B4FEA5C05E4B248EA07070EFA4D
:1021680004F4C9B247F00057013D3C43D2B205FA26
:1021780001F100FA02F221431143012271601A6051
:10218800FEF7D4F800F1640404E0FEF7CFF88442C7
:102198007FF678AF33689A01F7D51FE70038024019
:1021A800023802400000474260004742800E474222
:1021B8000070004070380240FEF7B8F800F59C54F3
:1021C80008340D4E04E0FEF7B1F884427FF65AAFAA
:1021D80033689A03F7D5AEE6FEF7A8F8064E00F581
:1021E8009C540834336F9F073FF5DCAEFEF79EF82A
:1021F8008442F7D846E700BF00380240294B9A6866
:1022080002F00C02042A10B44AD0082A14D0264836
:10221800244BF0229B6892FAA2F2B2FA82F203F0FF
:10222800F003D2B223FA02F22049214B8A5C5DF80E
:10223800044BD040186070475868596800F03F0454
:102248004FF4800292FAA2F2B2FA82F201F480010B
:10225800D2B231FA02F2596847F6C07292FAA2F283
:10226800B2FA82F247F6C07314BF12480E48D2B2CF
:102278000B40D3400B4AB0FBF4F000FB03F052686C
:102288004FF4403393FAA3F3B3FA83F302F44032E2
:10229800DBB222FA03F301335B00B0FBF3F0B7E7DC
:1022A8000448B5E7003802400024F40014940008FC
:1022B8000C00002000127A00F8B56A4B1A6802F088
:1022C8000F028A420C46054608D2CAB21A701B6829
:1022D80003F00F038B4264D00120F8BD0368DB07CD
:1022E80024D54368604A012B126800F09580022BC0
:1022F80000F09A809007EFD55B4FBA6822F003028E
:102308001343BB60FEF712F86B6800F59C56012B6F
:1023180006F1080670D0022B04D177E0FEF706F824
:1023280086427DD9BB6813F00C0FF7D14D4BE2B252
:102338001A701B6803F00F03A342CDD12B689907CD
:1023480006D5494AA968906820F0F00001439160D9
:102358005A0706D5444AE968906820F4E0500143DA
:1023680091601B0707D5404B29699A6822F460429F
:1023780042EAC1029A60FFF741FF3C4BA3FB0023EE
:102388009B09013BB3F1807F4CD2394A39485360ED
:10239800F02480F823400023072193601846116039
:1023A800F8BD0368DC07CAD543682F4A012B1268B9
:1023B80055D0022B50D092078ED52B4EB26822F002
:1023C80003021343B360FDF7B1FF6B6800F59C543B
:1023D800012B04F108042FD0022B04D136E0FDF7BD
:1023E800A5FF84421CD9B36813F00C0FF7D1A5E7F9
:1023F800FDF79CFF864213D9BB6803F00C03042B3E
:10240800F6D193E7FDF792FF864209D9BB6803F03E
:102418000C03082BF6D189E797033FF56DAF5BE70F
:102428000320F8BD0020F8BD96013FF565AF53E7DE
:10243800FDF77CFF8442F3D9B36803F00C03042B47
:10244800F6D17BE7FDF772FF8442E9D9B36803F060
:102458000C03082BF6D171E79101AED43CE7900349
:10246800ABD439E7003C024000380240D34D62103B
:1024780010E000E000ED00E0314B9A6802F00C0239
:10248800042A10B459D0082A23D02E4B2C49F02402
:102498008A6894FAA4F4B4FA84F402F0F002E4B27C
:1024A80022FA04F4284A2948145DE3400360886846
:1024B8004FF4E05191FAA1F1B1FA81F100F4E05042
:1024C800C9B220FA01F15DF8044B505C23FA00F020
:1024D80070475A68596802F03F004FF4800292FA38
:1024E800A2F2B2FA82F201F48001D2B231FA02F217
:1024F8005C6847F6C07292FAA2F2B2FA82F247F624
:10250800C07114BF124B0F4BD2B22140D140B3FB64
:10251800F0F303FB01F30A494FF44032496892FA99
:10252800A2F2B2FA82F201F44031D2B221FA02F2F6
:1025380001325200B3FBF2F3A8E7054BA6E700BF50
:10254800003802400024F400149400080C00002015
:1025580000127A00314B9A6802F00C02042A10B477
:1025680059D0082A23D02E4B2C49F0248A6894FA93
:10257800A4F4B4FA84F402F0F002E4B222FA04F407
:10258800284A2948145DE340036088684FF4604195
:1025980091FAA1F1B1FA81F100F46040C9B220FAD0
:1025A80001F15DF8044B505C23FA00F070475A685B
:1025B800596802F03F004FF4800292FAA2F2B2FA90
:1025C80082F201F48001D2B231FA02F25C6847F675
:1025D800C07292FAA2F2B2FA82F247F6C07114BF40
:1025E800124B0F4BD2B22140D140B3FBF0F303FBA7
:1025F80001F30A494FF44032496892FAA2F2B2FA5A
:1026080082F201F44031D2B221FA02F201325200D0
:10261800B3FBF2F3A8E7054BA6E700BF003802407A
:102628000024F400149400080C00002000127A0022
:10263800704700BF38B50446002865D090F8393097
:10264800002B4ED023683149022284F839208B426E
:102658001A6849D0B3F1804F2DD0A1F57C418B4247
:1026680029D001F580618B4225D001F580618B422C
:1026780021D001F578418B421DD001F570518B4274
:102688001DD001F580618B4219D001F580618B4224
:1026980015D0A1F598318B4211D001F580618B429C
:1026A8000DD001F580618B4209D0E06861681A603D
:1026B800D86299620FE0A16822F070020A4321698A
:1026C800E568606822F440721143114A1960934228
:1026D800DD62986215D001225A61002084F8392001
:1026E80038BDFFF7A5FFADE7A068216922F07002A9
:1026F800104320F4407001431960E268DA626268AE
:102708009A6262691A63E6E7012038BD0000014059
:10271800000401400368DA6842F00102DA601A68CE
:1027280042F001021A600020704700BF90F838306C
:10273800012B024610B44FF0020018D0136882F83B
:1027480039005C6824F0700403C95C605C6820434D
:102758005860986820F080009860986801240843C1
:1027680000219860084682F8394082F838105DF8F0
:10277800044B70472DE9F0410446002800F0F4802E
:1027880090F83930002B78D02568E2696669A1692C
:10279800022384F83930D5F80CE004F108002EF44F
:1027A800005E89C8C5F80CE0D5F810E02EF4405E4C
:1027B8004EEA03032B61EB68384323F41643304396
:1027C80023F00C0310430343EB606B6923F440735D
:1027D8000B43B2F5004F6B61654B51D09D427FD0E2
:1027E80003F580639D427BD0FFF746FE6368614E28
:1027F80000EB80009B0000EB8000B0FBF3F7FFF7D5
:102808003BFE636800EB80009B0000EB8000B0FBA0
:10281800F3F8FFF731FE636800EB800000EB8000FF
:102828009B00B0FBF3F3A6FB0727A6FB03237F0956
:102838005B0964203F0100FB13884FEA081808F180
:102848003208A6FB0836C6F3431623683743AF6041
:102858001A6922F490421A615A6922F02A025A61CE
:10286800D868002240F400500121D86084F83A204A
:10287800104684F83910BDE8F08101F039FE83E78D
:102888009D424FD003F580639D424BD0FFF7F4FD86
:102898006368384E00EB80005B0000EB8000B0FB03
:1028A800F3F7FFF7E9FD636800EB80005B0000EBDE
:1028B8008000B0FBF3F8FFF7DFFDA6FB072763688E
:1028C8007F0900EB80003F0100EB80005B00B0FB5C
:1028D800F3F3A6FB03235B09642202FB1388ACE72E
:1028E800FFF738FE6368234E00EB80009B0000EB87
:1028F8008000B0FBF3F7FFF72DFE636800EB800064
:102908009B0000EB8000B0FBF3F8FFF723FEA6FB6B
:10291800072763687F0900EB80003F0100EB800018
:102928009B00D4E7FFF716FE6368124E00EB8000A9
:102938005B0000EB8000B0FBF3F7FFF70BFE63686A
:1029480000EB80005B0000EB8000B0FBF3F8FFF7C2
:1029580001FEA6FB072763687F0900EB80003F01A3
:1029680000EB80005B00B2E70120BDE8F08100BF0A
:10297800001001401F85EB512DE9F0410E4690F8FB
:102988003910C9B2012905461F4604D0222902D0B0
:102998000220BDE8F081002E6ED0002A6CD095F898
:1029A8003830012BF4D0002385F83A3095F83930C7
:1029B800AA84222B4FF001010CBF3223122385F881
:1029C800381085F83930AB68013AB3F5805FEA848E
:1029D80036D0FDF7ABFC7A1C2C6800EB070822D137
:1029E80022681306FCD5337863600136EA8C002A26
:1029F800E9D1FDF79BFCC41901372A681CD113687B
:102A08005906FCD595F83930322B52D0012385F878
:102A18003930002085F83800BDE8F081FDF786FCE4
:102A280080452CD92C6823681806F7D5DBE7FDF715
:102A38007DFC844223D92A6813685B06F7D5E1E751
:102A4800FDF774FC7B1C2C6800EB070810D122688A
:102A58001006FCD532882B69C2F308026260002B8D
:102A6800C3D10236C2E7FDF761FC804507D92C685F
:102A780023681906F7D5EDE70120BDE8F0812B683A
:102A8800DA6822F08002DA60DA6822F02002DA607E
:102A9800DA6822F48072DA605869012120F00100B6
:102AA80000225861032085F8391085F83820BDE8E0
:102AB800F081222385F83930ABE700BF84B030B409
:102AC800089D03AC012D84E80E0027D0C268284B6E
:102AD80042F04002C26001E0013B0DD00269002AC9
:102AE800FADA0269224B42F00102026101E0013B7D
:102AF80002D00269D207FAD44FF480338363069B6D
:102B0800012B07D1836843F00C038360836843F08B
:102B18002003836030BC002004B07047836B0D9A9B
:102B280023F480338363C36823F4840323F04003CE
:102B3800C360C368012A23F44013C36012D00C4B4E
:102B480001E0013BDBD00269002AFADA0269084B8E
:102B580042F00102026101E0013BD0D00269D107D5
:102B6800FAD4CCE7C36843F48013C360E7E700BF37
:102B7800400D0300034600209A6842F001029A6063
:102B8800704700BF034600209A6822F001029A604D
:102B9800704700BF08B5C368012923F0C043C3606C
:102BA80009D019B9C36843F08043C3603220FDF7E8
:102BB800C3FB002008BDC36843F00053C360322044
:102BC800FDF7BAFB002008BD84B02DE9F00708AC7A
:102BD80084E80E00836BDDF840A0DDF82CC043F4D8
:102BE80000238363BAF1000F03D1836B43F400130E
:102BF80083630023C0F8003E0D9BD0F80028C0F87E
:102C08000028012B00F5006400F08480D0F800381B
:102C180043F00303C0F800384FF408730361444BD2
:102C280001E0013B02D002699506FAD41023036142
:102C38003F4B01E0013B02D00269D206FAD40022E0
:102C48004FF0FF3322616261A361E26141B315462F
:102C580000F510634FF09049FF261F680132002FDE
:102C6800B4BFC3F800901D608A421D619E6003F1E5
:102C78002003F2D10022164600F530634FF0904948
:102C88004FF0FF081F680132002FB4BFC3F800904F
:102C98001E608A421E61C3F8088003F12003F1D147
:102CA8002369BCF1010F23F48073236123D0002230
:102CB8006FF0804382614361BCF1000F03D18369E7
:102CC80043F01003836181691A4B0E9A0B438361A9
:102CD8001AB1836943F008038361BAF1010F05D182
:102CE800836943F0804343F004038361BDE8F00740
:102CF800002004B07047104B2363236B43F48033E8
:102D080043F00303236300226FF08043216B826149
:102D18004361D8E70A9B23B9D0F80038C0F80038D7
:102D28007AE7D0F8003843F00103C0F8003873E7B9
:102D3800400D030000383C8000018000490141F04B
:102D480020010161054A01E0013A05D0036913F049
:102D58002003F9D11846704703207047400D03003F
:102D6800D0F8083813F0060300F5006013D0836824
:102D780003F00603022B0CD0836803F00603062B2E
:102D880007D0836803F00603042B0CBF0220002041
:102D98007047032070471846704700BF70B44B78DF
:102DA800012B21D00A78D0F81C484FF4803505FA59
:102DB80002F22243C0F81C280A784FF4306303EB70
:102DC80042131A5812040CD41A588C68C97842F065
:102DD800805242F40042C4F30A04224342EA814288
:102DE8001A50002070BC70470C78A340D0F81C48DB
:102DF8009BB22343C0F81C380A784FF4106303EBE6
:102E080042131C582404ECD41E588D68CC7846F024
:102E18008051C5F30A0541F40041294341EA844140
:102E280041EA82521A5070BC002070474B78012B3F
:102E380030B41DD00C78D0F83C58012202FA04F4C2
:102E480025EA0444C0F83C480D78D0F81C48AA404C
:102E580024EA0242C0F81C280A784FF4306303EBD6
:102E6800421330BC1A5822F400421A50002070470E
:102E78000C78D0F83C5803FA04F4A4B225EA040408
:102E8800C0F83C480D78D0F81C48AB409BB224EA07
:102E98000303C0F81C380A784FF4106303EB42139D
:102EA80030BC1A5822F400421A500020704700BF64
:102EB8002DE9F0034B78012B77D00E784F69202449
:102EC8004FF4306314FB063606443569ED0CED0407
:102ED80035610E7814FB06360644356925F0FF5532
:102EE80025F4C015356197B38D6891F800C0904EF0
:102EF8002F4414FB0C3C013FB7FBF5F78444BFB2E9
:102F0800DCF810804FEAC74909EA060646EA0806CF
:102F1800CCF810600E7814FB0633034405FB07F564
:102F28001C69C5F312052543012A1D6123D0CB78FE
:102F3800012B29D00A784FF4306303EB4213C258AF
:102F480042F00442C2500020BDE8F00370470D78FB
:102F58008E6814FB05350544C6F312062F693E43F7
:102F68002E610D7814FB05330344012A1C6944F4CF
:102F780000241C61DBD10A78CB6800EB4212C2F84E
:102F8800143BCB78012BD5D1D0F808380A7813F444
:102F9800807F4FF4306303EB4213C2580CBF42F0FA
:102FA800005242F08052C250C4E74C69002C71D0E4
:102FB80091F80080D1F808C05D4E20254FF41063C9
:102FC80015FB0838804404EB0C09D8F81070FF0C86
:102FD800FF04C8F8107091F8008015FB0838804489
:102FE80009F1FF39D8F8107027F0FF5727F4C017F8
:102FF800C8F810700F7815FB07370744B9FBFCFCBD
:10300800D7F810804FEACC4C0CEA060646EA0806C8
:103018003E610E7815FB06360644C4F3120C376978
:103028004CEA07073761CE78012E70D0012A5DD0AF
:10303800CB78012B4CD05CB10D78D0F834680127DF
:1030480007FA05F53543C0F83458CB78012B3FD043
:103058000D784FF4106303EB4513C55845F004454C
:10306800C550CB78012B7FF46EAFCB680978002A66
:103078007FF469AFA4B20334A4103FF464AF00EB4B
:10308800013000F58050013253F8041B016094426E
:10309800F9D158E70F784FF41063202515FB07374F
:1030A80007443E6926F0FF5626F4C0163E610E78A6
:1030B80015FB06360644376947F4002737610E7852
:1030C80015FB063505442B69DB0CDB042B61ADE7EA
:1030D800D0F80838DB0510D40D784FF4106303EBF3
:1030E8004513C55845F00055C550B1E70D780B6933
:1030F80000EB4515C5F81439A7E70D784FF41063B0
:1031080003EB4513C55845F08055C550A0E70E7828
:1031180015FB06360644376927F0C04737610E7835
:1031280015FB063303441D6945F000551D617DE715
:103138000000F81F4B78012BF0B43CD00E784F6993
:1031480020244FF4306514FB065606443369DB0C23
:10315800DB0433610B788E6814FB03540444236941
:1031680023F0FF5323F4C013236117BB0D782024E9
:103178004FF4306314FB05350544C6F312062F6976
:1031880047F400272F610D7814FB05350544012A03
:103198002F6946EA07062E615DD00A784FF430633E
:1031A80003EB4213F0BCC25842F00442C250002064
:1031B80070474E61DAE74B69002B53D091F800C095
:1031C8008C684FF41067202616FB0C7C8444A342BD
:1031D800DCF810504FEAD5454FEAC545CCF81050F9
:1031E8000D7816FB0576064498BF1C46356925F010
:1031F800FF5525F4C01535610E7888BF4C614FF432
:103208001065202313FB06560644C4F312043769DD
:1032180047F4002737610E7813FB065303441D69F2
:103228002C431C61012A3BD04B6943B10A78D0F882
:103238003448012505FA02F22243C0F834280A78F6
:103248004FF4106303EB4213F0BCC25842F004423F
:10325800C250002070470D78CA6814FB0533034438
:103268005A619AE70E784FF41063202414FB06364F
:103278000644356925F0FF5525F4C01535610D78EC
:1032880014FB053505442E6946F400262E610D7899
:1032980014FB053404442369DB0CDB042361C1E718
:1032A8000A780B6900EB4212C2F81439C7E700BF6D
:1032B80030B49DF8084064B903339B1009D000F579
:1032C800805000EB0232013451F8045B1560A342D0
:1032D800F9D1002030BC7047033270B495100BD080
:1032E80000F580560A4600230133346842F8044B3F
:1032F8009D42F9D101EB8501084670BC704700BFBB
:103308004B78012B0B7870B40CBF4FF410644FF45A
:103318003064202515FB03431A181E58002E07DBBE
:103328001A5822F080421A500A7815FB02420244C9
:10333800136843F400130020136070BC704700BF8B
:103348004B78012B0B7830B40CBF4FF410624FF45C
:103358003062202414FB03231D5825F400151D504A
:10336800CB78023B012B06D80B7814FB03221358A9
:1033780043F080531350002030BC7047D0F8002829
:1033880022F4FE62C0F80028D0F80028090101F4F0
:10339800FE631343C0F800380020704708B500F5F5
:1033A80000635A6822F0020203205A60FCF7C4FF47
:1033B800002008BD08B500F500635A6842F0020213
:1033C80003205A60FCF7B8FF002008BD43698069F4
:1033D80018407047D0F8183800F50060C0691840E8
:1033E800000C7047D0F81828D0F81C3802EA0300FF
:1033F80080B2704700F5306303EB411100F50060BF
:103408008B68406918407047D0F8102810B4D0F87D
:10341800344800EB411000F5106324FA01F0C001B4
:10342800C0B29B685DF8044B10431840704700BF5A
:10343800406900F001007047D0F8002922F4FF62CB
:1034480022F0070200F50063C0F800299A6802F02C
:103458000602042A05D1D0F8002942F00302C0F878
:1034680000295A6842F480725A600020704700BFF1
:1034780010B40024C0F8104BD0F8104B44F40024CA
:10348800C0F8104BD0F8104B44F01804C0F8104B9B
:10349800D0F8104B012944F0C044C0F8104B05D1B6
:1034A8004FF08021C0F8142BC0F8001B00205DF8F5
:1034B800044B7047FEE700BF08B50C4B1A6801467D
:1034C80082B11046CA1C22F00302094902448A420A
:1034D80001D81A6008BD05F0D5FA0C2303604FF037
:1034E800FF3008BD03481860ECE700BF1802002051
:1034F80000FC0120F8B401200148FEF7FBB800BF2A
:1035080044B001200122024B02600B60704700BFEB
:1035180004000020104A114BD2F8881041F47001C1
:1035280010B4C2F8881019680D4C002041F0010150
:1035380019609860196821F0847121F4803119604C
:103548005C601C684FF0006124F480241C60D86023
:103558005DF8044B9160704700ED00E000380240D0
:1035680010300024037933B9826801210171536254
:1035780013680B43136070478368196A41F211128C
:103588000A4042B9196A40F244420A401AB91A6814
:1035980022F001021A6000220271586A704700BFC7
:1035A80083685A6A0260002110465962704700BF5A
:1035B800F0B5274BADF5C33D9942A9B006463DD8B5
:1035C800002941D0234D002328AF6C46A5FB0302F8
:1035D800D20802EB8202A3EB42023032E2540133FA
:1035E8008B42F3D11C4D62182B794FF0530E4520B6
:1035F80007F8A0EC02F8010C33B9AA68012053625D
:103608002871136803431360684600F099FDAB689E
:10361800196A41F211120A4042B9196A40F2444249
:103628000A401AB91A6822F001021A60586A00237F
:103638002B7130600DF5C33D29B0F0BD002030601E
:103648000DF5C33D29B0F0BD28AF6C46CAE700BFF1
:103658009F860100CDCCCCCC2002002030B51C4C7C
:103668001C4B1D4AA36000232360156C1B48237163
:1036780045F0080515641A490268A361A1FB020216
:10368800D20C013A83B06FF0010192B204F1080044
:1036980061612361E361E260FEF7CCFFB8B9A3681A
:1036A800196A41F211120A4042B9196A40F24442B9
:1036B8000A401AB91A6822F001021A600023694602
:1036C800084800930193FFF731F803B030BDFEE7D7
:1036D80020020020000C0040003802400C000020AE
:1036E80083DE1B432802002008B580B1D0F81432CD
:1036F80013B10023C0F8143209B1C0F81012012325
:10370800027080F8FC3103F0F3FA002008BD0220B3
:1037180008BD00BF19B1C0F814120020704702207C
:10372800704700BF08B503F013FB002008BD00BFB9
:1037380008B5D0F8143213B11B68984708B10220B5
:1037480008BD08BD08B5D0F814325B68984700205A
:1037580008BD00BF38B5044600F50275284600F0DC
:10376800C9FA94F80812B4F80E32C4F8F8310122F4
:1037780001F01F039342C4F8F42115D00ED3022B95
:1037880006D0204601F0800103F0FCFA002038BD85
:103798002046294600F054FA002038BD2046294624
:1037A80000F0E0F8002038BD2046294600F02AFA4B
:1037B800002038BD10B51346044629B9D0F8F421C5
:1037C800032A0CD0002010BDD0F814329B69002BBE
:1037D800F8D090F8FC21032AF4D19847F2E7D0F802
:1037E8000C11D0F8102191420CD8D0F814321B6972
:1037F8001BB190F8FC21032A0FD0204600F0E2FA12
:10380800002010BD891A914238BF0A4692B2C0F80A
:103818000C11194600F0CEFAD4E79847EDE700BF3F
:1038280070B51346044649B9D0F8F421022A15D0D8
:1038380094F80032012B0CD0002070BDD0F814325F
:103848005B69002BF8D090F8FC21032AF4D1984743
:10385800F2E7002384F80032002070BDC269056ACF
:10386800AA421DD88369B3FBF5F605FB16365EB987
:103878009D4209D8D0F8F821934205D2324600F08B
:1038880081FAC4F8F861D3E7D4F81432DB681BB1C5
:1038980094F8FC21032A0AD0204600F09FFAC7E7D3
:1038A800521BC261194692B200F06CFAC0E720467A
:1038B8009847F1E738B50021044640231D460A46DB
:1038C80003F04EFA2B460022C4F8105120468021FE
:1038D80003F046FAD4F818322562012284F8FC2154
:1038E8002BB1D4F8143221795B6820469847002020
:1038F80038BD00BF01740020704700BF90F8FC215C
:1039080080F8FD21042380F8FC310020704700BFB7
:103918000346002093F8FD2183F8FC21704700BF7F
:1039280008B590F8FC21032A01D0002008BDD0F882
:103938001432DB69002BF8D09847002008BD00BF7F
:1039480000207047002070470020704708B501210B
:10395800D0F8142280F8FC115268017990470020B1
:1039680008BD00BF30B54B7883B00D460446092B1F
:103978000CD8DFE803F0364A0B5B0B05690B7F16A2
:10398800AB881BB9EB88002B00F081808021204692
:1039980003F0F8F92046002103F0F4F9002003B001
:1039A80030BDA978964D01292970EFD890F8FC31DF
:1039B800022B00F08A80032BE8D1002900F0168141
:1039C8004168012909D0C9B2FFF7BCFE29786160B6
:1039D8002046FFF7ADFE0228D8D0204600F0F2F9C5
:1039E800DCE790F8FC310122023B93424FF00301DF
:1039F800CCD8D0F80432C26003B1C160204604F1CB
:103A08000C01022200F0B0F9C8E790F8FC31023B43
:103A1800012BBBD86B88012BC0D1D0F814320022FF
:103A28009B68C0F8042229469847D6E76B88012B83
:103A3800B4D1D0F81422C0F80432294693689847C4
:103A4800204600F0BFF9A9E76A88130A013B062B54
:103A58009CD801A151F823F0413B0008633B0008C2
:103A6800513B000895390008953900082B3B0008A0
:103A7800ED3A0008EA88012A88D190F8FC31022B37
:103A88001CD0032B82D1011D00F06EF986E790F857
:103A9800FC31AD78032B05F07F053FF477AF80F854
:103AA800FE51294603F092F9204600F08BF9002DCB
:103AB80000F08F80022384F8FC316FE70146002371
:103AC80041F8083F00F050F968E7002985D0012146
:103AD8000323416080F8FC31FFF72AFE02287FF4B7
:103AE8007CAF53E7037C002B7FF450AFD0F814323F
:103AF80068461B6B9847072301464370BDF80030A2
:103B0800002B3FF44BAFEA88002A3FF447AF9A42B4
:103B180038BF13461A462046ADF8003000F024F9A5
:103B28003CE7037C002B7FF431AFD0F814326846B1
:103B38005B6B98470146E1E7D0F81032007C1B68C0
:103B4800694698470146D9E7D2B2052A3FF61EAF23
:103B5800DFE802F0271F170F372F037C002B3CD11B
:103B6800D0F8143268469B6A98470223014643708E
:103B7800C4E7D0F81032007C1B69694698470146B3
:103B8800BCE7D0F81032007CDB68694698470146EC
:103B9800B4E7D0F81032007C9B6869469847014624
:103BA800ACE7D0F81032007C5B686946984701465C
:103BB800A4E7D0F81032007C9B6969469847014613
:103BC8009CE7D0F81032007C5B696946984701464B
:103BD80094E7012384F8FC31E0E6D0F81432684613
:103BE800DB6A984702230146437087E70223416056
:103BF80080F8FC31FFF7A6FD204600F0E3F8CDE69B
:103C08006402002038B590F8FC31032B04460D46B9
:103C180002D10B79012B08D9802103F0B3F8204693
:103C2800002103F0AFF8002038BDD0F814329B68AB
:103C38009847EB88002BF6D1204600F0C3F8F2E74E
:103C480038B54B788A88012B0C460546D1B223D06B
:103C580018D3032B14D190F8FC31022B16D0032B68
:103C68003FD163881BB94A0601D003F08BF8D5F819
:103C7800143221469B6828469847284600F0A2F847
:103C8800002038BD90F8FC31022B13D14A06F7D03A
:103C980003F078F8002038BD90F8FC31022BF5D0FD
:103CA800032B1ED16388002BEAD14B06E5D003F025
:103CB80071F8DCE7032B14D101F07F0400EB041446
:103CC80013064CBF143404F5827403F06BF800300B
:103CD80018BF0120206021462846022200F044F83F
:103CE800CEE7802103F04EF82846002103F04AF879
:103CF800D0E700BF0B7803704B784370CA788B7895
:103D080003EB022343804A790B7903EB0223838078
:103D1800CA798B7903EB0223C380704730B4F0B1C2
:103D28000378F3B10446002314F8015F0133DBB2D2
:103D3800002DF9D15B000233DCB2032513800C702F
:103D48004D7002785AB1022300255C1CE4B2CA54B3
:103D58000D5510F8012F0233DBB2002AF5D130BC23
:103D6800704702242346E8E738B5134602250A4679
:103D78008361C361C0F8F451002103F02FF80020DB
:103D880038BD00BF08B513460A46002103F026F8DF
:103D9800002008BD38B5134603250A46C0F8083187
:103DA800C0F80C31C0F8F451002103F01FF80020CE
:103DB80038BD00BF08B513460A46002103F016F8BF
:103DC800002008BD08B500210423C0F8F4310A46D4
:103DD8000B4603F003F8002008BD00BF08B500211A
:103DE8000523C0F8F4310A460B4602F0FFFF002015
:103DF80008BD00BFD0F818321BB10020C3F8140268
:103E080070470220704700BFD0F81C3210B5D0F8B8
:103E180018425BB194F80002FF2807D09B6894F819
:103E2800012221469847FF2384F80032002010BD64
:103E38004323038000487047100000204323038079
:103E480000487047DC000020432303800048704787
:103E5800980000200A230380004870478C00002047
:103E680038B50446D0F8185202F0C8FFD4F8183212
:103E7800C5F80C024BB1D4F81C32D5F80402DB6843
:103E880005F503719847002038BD022038BD00BFF2
:103E980070B50B78D0F8186203F06002202A0C463F
:103EA80005460DD1C98869B11B0613D4637886F815
:103EB8000032E38886F80132E2883146FFF76AFF6C
:103EC800002070BDD0F81C3260789B680A4698477D
:103ED800002070BDD0F81C3260789B680A463146D5
:103EE800984728463146E288FFF73EFF002070BD1C
:103EF80010B58121044602F03DFF0121204602F061
:103F080039FF2046822102F035FFD4F8183253B128
:103F1800D4F81C325B689847D4F8180204F0C0FD46
:103F28000023C4F81832002010BD00BFF8B5037C88
:103F380004468121022263BB4FF4007302F010FF94
:103F48002046012102224FF4007302F009FF82216A
:103F580003220823204602F003FF4FF4077004F001
:103F680097FD0546C4F8180218B3D4F81C321B682C
:103F78009847277CD5F804220026C5F81462204605
:103F8800C5F81862012177B1402302F02FFF3046AF
:103F9800F8BD402302F0E4FE20460121022240231E
:103FA80002F0DEFED3E74FF4007302F01FFF38463D
:103FB800F8BD0120F8BD00BF19B1C0F81C120020DF
:103FC80070470220704700BFD0F818320020C3F8AD
:103FD8000812C3F810227047D0F818320020C3F82E
:103FE80004127047D0F8183210B583B1D3F81442D0
:103FF8000CB1012010BD0122C3F814228121D3F88D
:104008000822B3F8103202F0E9FE204610BD022063
:1040180010BD00BFD0F8183210B57BB1047CD3F8BE
:104028000422012124B1402302F0E0FE002010BD4B
:104038004FF4007302F0DAFE204610BD022010BDD6
:1040480000207047054B0A68C3F8042200200122AB
:1040580083F80822C3F80002704700BF68020020F6
:1040680008B504490448FFF7B7FF044B01221A704A
:10407800002008BD6802002010AE012040B00120D9
:104088002028F0B414D021280FD1154B1A680A70D3
:104098001A68120A4A705A888A70DA78CA701A79C5
:1040A8000A715A794A719B798B710020F0BC70476C
:1040B8008F784E780D78CC7891F804C048798A7951
:1040C800074B390441EA0621294341EA0461587142
:1040D80083F804C09A7100201960F0BC704700BFD3
:1040E8003001002038B5144C94F90832D3B1D4F813
:1040F8000022D4F80452AD1AA942B8BF0D46002DCB
:104108000EDDA1182A4604F0D3FCD4F80032D4F806
:1041180004222B449342C4F8003205DA284638BDFD
:10412800002038BD184638BD0023044884F80832FA
:10413800FFF770FF284638BD6802002010AE012046
:10414800B1F5007F2DE9F0470D46804625DD4B1E71
:1041580023F4FF7323F00103DFF8889003F5007A56
:104168000024D9F818722E1BB6F5007FA8BF4FF4AB
:10417800007608EB040147B3D7F81432002BFBD1C3
:104188001848B2B2FFF720FF1648FFF72BFFE0B937
:10419800D7F81432002BFBD118E0124BD3F8184291
:1041A800E4B1D4F81432002BFBD141460D48AAB231
:1041B800FFF70AFF0B48FFF715FF78B9D4F8143258
:1041C800002BFBD12846BDE8F08726B904F500741A
:1041D8005445C6D1F6E72046BDE8F0870020BDE883
:1041E800F08700BF10AE0120034B0022DA631A6487
:1041F8005A649A64704700BF7804002038B50446B2
:1042080000220068A188FCF79BFA632300BF013BEA
:1042180013F0FF03FAD12069A18A0122FCF790FA72
:10422800632300BF013B13F0FF03FAD10825A069FF
:10423800A18B0022FCF784FA206AA18C0022FCF7EB
:104248007FFA632300BF013B13F0FF03FAD1206A12
:10425800A18C0122FCF774FA632300BF013B13F021
:10426800FF03FAD16B1E13F0FF05E0D12068A18887
:104278000122BDE83840FCF763BA00BFF8B505462F
:104288000C460068A9880022FCF75AFA632300BF8D
:10429800013B13F0FF03FAD12869A98A0122FCF730
:1042A8004FFA632300BF013B13F0FF03FAD108273D
:1042B80024F07F0606F0FF02A869A98B2EB301221D
:1042C800FCF73EFA6400286AA98C0022FCF738FA49
:1042D800E4B2632300BF013B13F0FF03FAD1286A5D
:1042E800A98C0122FCF72CFA632300BF013B13F0D1
:1042F800FF03FAD17B1E13F0FF07D9D12868A988DC
:104308000122BDE8F840FCF71BBAFCF719FAD9E717
:1043180038B505464FF4FC74013C2846A4B2FFF7B3
:104328006DFF002CF8D138BDF8B505460C46164689
:104338000068A9880022FCF703FA632300BF013B49
:1043480013F0FF03FAD1002E3BD132462869A98A1F
:10435800FCF7F6F9632300BF013B13F0FF03FAD122
:10436800082724F07F0606F0FF02A869A98B2EB360
:104378000122FCF7E5F96400286AA98C0022FCF701
:10438800DFF9E4B2632300BF013B13F0FF03FAD166
:10439800286AA98C0122FCF7D3F9632300BF013BEB
:1043A80013F0FF03FAD17B1E13F0FF07D9D1286859
:1043B800A9880122BDE8F840FCF7C2B9FCF7C0F9AA
:1043C800D9E72869A98A0122FCF7BAF9C2E700BF30
:1043D8002DE9F04114460F46002243F0400104EB5A
:1043E80044040646FFF7A0FF610061F07F0101F079
:1043F800FE0130460022FFF797FF3B789BB1DFF8BC
:104408002C80203BDDB205EB450508EB4505002473
:10441800295D30460134FFF731FF062CF8D117F833
:10442800013F002BEDD1BDE8F08100BF24940008C6
:104438002A4B2B481A6B42F0010270B51A631A6BAB
:10444800284C42F001021A635A6C86B042F01002FE
:104458005A6400254FF40072022301A9072601922D
:104468000293049303950596FBF7F4FF4FF48063DA
:1044780001A91B4801930596FBF7ECFF1A49A560B3
:104488004FF416520C232046E5602561A56184E8A7
:1044980006006361FEF76EF908B102F023FB23689A
:1044A8001249DA680F4842F48072DA605A6942F0B9
:1044B80001025A61DA6842F02002DA604FF47A6346
:1044C8000522FEF759FA032100222520FBF754FFA5
:1044D8002520FBF789FF06B070BD00BF00380240F9
:1044E80000000240C804002000100140389700086E
:1044F800134B1A6B42F0010270B51A631A6B114D17
:1045080042F001021A635A6C86B042F010025A64F3
:1045180028460223002201A907244FF400760293BB
:104528000493039201960594FBF794FF4FF480637C
:10453800284601A905940193FBF78CFF06B070BDCE
:1045480000380240000002402DE9F043252083B0E6
:10455800FBF772FF374B1B681A6811070CD51968EF
:10456800354A21F0080119601168C9B28DF80710A1
:104578005268D2B28DF807201A68920619D51868C1
:104588002D492E4A20F0200018604B681178DBB2C4
:104598008DF807309DF80740E3B269B9284D242B00
:1045A80028683AD00678242E0BD0264A302311707A
:1045B800037003B0BDE8F0830139117003B0BDE8A2
:1045C800F0832A2B0CD00A2B21D00D2B1FD01D4B8A
:1045D8001A784D2A2AD084541A7801321A70E8E7DA
:1045E800194F184E3B68194CDFF8648096F8009014
:1045F80038604FF0020C0127302031702B60217891
:10460800A8F8009082F800C027701870D1E70D4A0A
:104618000021302311700370CBE7502204F051FAC7
:104628002A68084B147001221A70C2E730221970E8
:104638000270BEE7C804002000100140C604002034
:104648003C010020C504002038010020C4040020DB
:1046580004050020214B5A6992060CD52021204AD6
:10466800596113691F4998062CD41F4B01204FF438
:104678007A7208701A60194B5A6912060CD5802193
:10468800174A596113691749180616D4164B0120A1
:104698004FF47A7248705A60104B5A69D2050BD59C
:1046A8004FF480710E4A596113690E49DB050ED526
:1046B8000D4A00238B70936070470B4A00234B70A0
:1046C8005360E9E7084A00230B701360D3E7064BF1
:1046D80001204FF47A7288709A607047003C01405C
:1046E80000040240F0050020E4050020214B1B686F
:1046F800DA68D20700D470471F4A116859B11168A7
:10470800013911601168B1F5167F2BD0116811B904
:104718001A49032008705068174958B14868013889
:1047280048604868B0F5167F18D0496811B9134930
:10473800032048709168104A59B191680139916015
:104748009168B1F5167F11D0926812B90B4A03210E
:1047580091701A6922F001021A6170470749022014
:104768004870E7E7054902200870D4E7034A0221A8
:104778009170EEE7A8050020E4050020F005002070
:10478800074B1A6812B11A68013A1A60054B1A8861
:1047980092B21AB11A88013A92B21A80FBF7BEBDDA
:1047A800F40500207404002030B40022074D084CA2
:1047B8000849056044608160C26002610263C262A8
:1047C80042618261C261026230BC70476F12833AF3
:1047D800A69B443B9A99993E90ED067A90ED086A1B
:1047E80090ED074AD0ED002AD0ED057AD0ED024AC7
:1047F800D0ED043AD0ED036A90ED013AB0EE475A95
:1048080096EE015AF1EE415A35EE445AA6EE254A83
:1048180035EE225AA6EE257AE5EE017A70EEE30A25
:1048280077EEA44AE0EE816AC7EEA45A84EE245AD1
:10483800E7EEE57AA7EE657AA3EE016A30EE660A3E
:10484800B1EE453AE5EE806AE5EE003AA3EE274A76
:10485800A3EE076A80ED0B0AC0ED0C4AC0ED036AAF
:10486800C0ED057AC0ED095A80ED067AC0ED043A2C
:1048780080ED0A5A80ED074A80ED086A704700BF4C
:10488800F0B4F5EE401AF1EE10FA2DED088B05D1D3
:10489800B5EE402AF1EE10FA00F0308162EE027AAD
:1048A800F6EE00AAE1EEA17A9D4B9E4A9E4C9F48E7
:1048B80094ED008A93ED003AD2ED006A90ED009AEB
:1048C800D2ED003A94ED004AD0ED008A93ED007ADB
:1048D80092ED00AAD2ED009A93ED005AD3ED005A5A
:1048E800934DE2EEA27A0026B7EE086A17EE907AA8
:1048F8007910C1F1BE4101F55D1101F5CE511F31AD
:104908000BEE101A67EEAA7A69EE666A67EE8BAA52
:10491800FEEE007AABEE6A6AEAEE297A28EE877A2A
:104928002BEE066AE5EE257AE8EE036AA3EE847AB2
:1049380061EE861A62EE862A22EE062AD5ED004A34
:1049480067EEE15A27EE625A26EEC26AF5EEC04AD1
:10495800F1EE10FAA2EE275AE2EEA65AA1EE876A05
:1049680040F3D780D5ED006A724F9FED737AD7ED8B
:10497800007A724E724966EE856AE6EE877AC7ED6E
:10498800007AD5ED006AD6ED007A66EEA56AE6EE05
:10499800877AC6ED007AD5ED006AD1ED007A66EE29
:1049A800866AE6EE877AC1ED007AD7ED006A96ED61
:1049B800007AD1ED007A30EE260A70EE870A31EEE1
:1049C800271A6049D1ED006A91ED007AD1ED007A9D
:1049D800A6EE850AE7EE250AA7EE861ABDEC088B37
:1049E8009FED597A92ED006AD4ED005AD0ED006A35
:1049F800D3ED004A92ED005A60EE870A20EE070ACE
:104A080060EEE67A21EE071AE5EEC07A26EE817AA4
:104A1800E4EEC17AA6EE007A35EE275A61EE657AA1
:104A280082ED005AD3ED004A94ED005AA4EEE07AE4
:104A3800E6EE207A35EE077A65EEA00A84ED007A74
:104A4800D3ED005A90ED007AE5EE807AE6EE010AA1
:104A580077EE277AE6EEC00AC0ED007AD3ED007A49
:104A680070EEA70AB6EE006AC3ED000A92ED003AAE
:104A7800D2ED003A94ED007AD4ED007A90ED004A38
:104A8800D0ED004A93ED005AD3ED005AD2ED006AFA
:104A980067EE277AB7EE087AE3EE237AE4EE247A13
:104AA800E5EE257A17EE905A6910C1F1BE4101F57D
:104AB8005D1101F5CE511F3103EE101A67EE867AAB
:104AC80067EE837AA3EE677A63EE077A26EEA77A13
:104AD80082ED007A94ED007A27EE277A84ED007A49
:104AE80090ED007A27EE277AF0BC80ED007A93EDFE
:104AF800007A67EE277AC3ED007A7047F5EE402A10
:104B0800F1EE10FA7FF4CAAE074C054B054A074888
:104B180064E7084F094D0A493E602E600E6050E771
:104B28000406002040010020FC05002000060020AB
:104B380044010020080600200AD7233B0C06002069
:104B4800F8050020480100200AD7A33AF0B52DED5A
:104B5800108BB5EE403AF1EE10FA8BB0B0EE40AAE9
:104B6800F0EE60AAF0EE419AB0EE61CAB0EE42DA19
:104B7800F0EE626A05D1F5EE403AF1EE10FA00F077
:104B88002E82B5EE40CAF1EE10FA05D1B5EE40DA44
:104B9800F1EE10FA00F0188263EEA37AF94FFA4E9C
:104BA800FA4DD7ED000AFA4C97ED001AD7ED00FA46
:104BB800D6ED001AD7ED002AD5ED004ACDED011A41
:104BC800E3EE037AD7ED005ACDED034AE4EE047A1A
:104BD80094ED006ACDED080A17EE902A53108DED7A
:104BE800091AC3F1BE4396ED001AD6ED001A96EDE8
:104BF80000EAD5ED004AD6ED00EA94ED002A95EDDD
:104C0800005AD5ED000ACDED022A03F55D1395EDA6
:104C180000FACDED040AD4ED002AD4ED000AD4ED53
:104C280000BACDED050A03F5CE53B6EE007A1F3370
:104C380067EE877A00EE903A67EEA07AF0EE470AC0
:104C4800E1EE610AF7EE08CA01EE103AF0EE6C8A5E
:104C5800E1EE678AB1EE455A8DED075A61EE288A72
:104C68002EEE24EA9DED041ACDED060AF0EE604A18
:104C7800DDED070ADDED051AB0EE47BA6DEE0D7AE7
:104C8800A0EE81BAECEE0C7AB1EE615AE5EE2B4A51
:104C9800A5EE2BBAB0EE4E5A23EEA89AA5EE865A88
:104CA800E6EEA67AA5EEC6EA2FEE22FA23EE288AC9
:104CB800DDED010A9DED021ADDED031A64EE894A65
:104CC8006EEE82EAF0EE4F5A17EE902AEFEEE05AB7
:104CD8005310C3F1BE43E5EE084A03F55D1303F52F
:104CE800CE532EEE096AF0EE6EDA64EE288AE1EE13
:104CF80021DA1F33ABEE086AE5EEA84AADEEA86AE2
:104D080002EE903A67EE877A74EEA44A67EEA27ACA
:104D180036EE066A64EEA44AE2EEE7CAE6EE064A12
:104D280062EEACCA14EE900A2CEE2CCA2DEE2CDAE8
:104D380066EEACCA03F064FB41EC100B02F01CFAFF
:104D480051EC100B03F04AFE9DED014ADDED024ADD
:104D58009DED035ADDED076ADDED047A9DED066AE7
:104D6800DDED080A9DED091ADDED051A894BAFEE58
:104D780084FA0022E4EEC5EA2FEE097AA6EEA76AC5
:104D8800AEEE887AFEEE007AA6EE287AE0EE817A18
:104D980037EE077A05EE900A26EE076A6EEE876A06
:104DA8002FEE077AE1EEAB7AAEEE257AADEEA56A84
:104DB800EBEE256A27EECC4A67EE683A66EE484A7B
:104DC80066EEC95A2FEE6C3A2EEECD5AADEE273A62
:104DD800E9EE063AE8EEA64AE8EE075AACEEAE4A25
:104DE800ACEE0F5AD3ED007AF5EEC07AF1EE10FA78
:104DF80073EE233A74EE244A75EE255A40F3FC808C
:104E0800D3ED006A64489FED657AD0ED007A644975
:104E1800644A66EEA36AE6EE877AC0ED007AD3EDBF
:104E2800006AD1ED007A66EEA46AE6EE877AC1EDF3
:104E3800007AD3ED006AD2ED007A66EEA56AE6EE56
:104E4800877AC2ED007AD0ED006A91ED007AD2ED52
:104E5800007A3AEE26AA7AEE87AA79EEA79A524BFA
:104E6800D3ED006A93ED007AD3ED007AA6EEA3AAFB
:104E7800E7EE24AAE7EEA59A9FED4C7A97ED006A33
:104E8800D6ED005AD5ED006AD4ED004A97ED005AE8
:104E98006AEE87AA2AEE07AA6AEEE67A69EE879A88
:104EA800E5EECA7A26EEA97AE4EEE97AA6EE0A7A5F
:104EB80035EE275A69EEE57A87ED005AD4ED004AB7
:104EC80096ED005AA4EEEA7AE6EE2A7A35EE077AEB
:104ED80065EEAAAA86ED007AD4ED005A95ED007A1F
:104EE800E5EE8A7AE6EE29AA77EE277AE6EECAAAEE
:104EF800C5ED007AD4ED007A7AEEA7AAB6EE006A7C
:104F0800C4ED00AA97ED003AD7ED003A96ED007A85
:104F1800D6ED007A95ED004AD5ED004A94ED005A99
:104F2800D4ED005AD7ED006A67EE277AB7EE087A13
:104F3800E3EE237AE4EE247AE5EE257A17EE902A5A
:104F48005310C3F1BE4303F55D1303F5CE531F336E
:104F580000EE903A67EE867A67EEA07AA0EEE77ADE
:104F680060EE877A26EEA77A87ED007A96ED007ACA
:104F780027EE277A86ED007A95ED007A27EE277AD4
:104F880016E000BF40010020FC05002000060020BC
:104F98000406002044010020080600200AD7233B0D
:104FA8000C060020F8050020480100200AD7A33A83
:104FB80085ED007A94ED007A67EE277AC4ED007AE1
:104FC8000BB0BDEC108BF0BDF5EE406AF1EE10FAB7
:104FD8007FF4E2AD0C4F0D4E0D4D0E4C4CE7B5EE87
:104FE800404AF1EE10FA7FF4CCAD0BB0BDEC108B5B
:104FF800BDE8F040FFF744BC07480849084B026089
:105008000A601A602BE700BF40010020FC05002061
:105018000006002004060020080600200C060020D8
:10502800F80500202DE9F041324C334E334DDFF8BE
:10503800D080D8ED005A96ED006A94ED000AD5EDBF
:10504800004AD6ED006A96ED007A94ED005AD4ED48
:10505800007A20EE240A65EE277AA5EE860A07462E
:10506800E6EE877A2DED028BB7EE008AF0EE008A25
:10507800F0EE480AE7EEE80A30EE000A02F038F9E6
:1050880087ED000A98ED007AD4ED007AD5ED006A34
:1050980096ED000A20EE660AA7EE270A30EE000A0F
:1050A80002F0C8F8D8ED005A95ED006A96ED004A6E
:1050B800D4ED004AD4ED006A94ED007A95ED005ADB
:1050C800D5ED007A87ED010A65EE277A24EE240AE9
:1050D800E6EE877AA5EE860AF0EE480AE7EEE80AD9
:1050E80030EE000A02F004F9BDEC028B87ED020AEB
:1050F800BDE8F08100060020FC0500200406002021
:105108004001002008B51F20FBF796F90248BDE8CA
:105118000840FBF705BF00BF10060020704700BF1E
:10512800704700BF2DE9F04790F8F830DBB2012B4B
:10513800044608BF80F8F730303094F8F33000F0B8
:10514800BBFE204601F0D2F904F1600000F08EFFAA
:1051580004F5D333B3F88021B3F8821192B29142A7
:1051680066D9B3F88021B4F830A0B4F83290B4F816
:105178003480B4F800C06788A688B4F86050B4F8E2
:105188006200B4F8641092B202EBC20204EB42026D
:10519800A2F8A0A1B3F8802192B202EBC20204EBFC
:1051A8004202A2F8A291B3F8802192B202EBC202A5
:1051B80004EB4202A2F8A481B3F8802192B202EB78
:1051C800C20204EB4202A2F8A6C1B3F8802192B24F
:1051D80002EBC20204EB4202A2F8A871B3F88021E4
:1051E80092B202EBC20204EB4202A2F8AA61B3F83F
:1051F800802192B202EBC20204EB4202A2F8AC5147
:10520800B3F8802192B202EBC20204EB4202A2F888
:10521800AE01B3F8802192B202EBC20204EB420263
:10522800A2F8B011B3F88021013292B2A3F880211C
:10523800012384F8F330BDE8F08700BF2DE9F04F73
:10524800504D05F5D33683B0D6F88431DB68DB07DB
:1052580002D403B0BDE8F08F95F8F830494CDBB2C2
:10526800012B04F1300008BF85F8F73095F8F330CA
:1052780000F022FE204601F039F904F1600000F048
:10528800F5FEB6F88021B6F8821192B2914204F583
:10529800D3336BD9B3F88021B4F830B0B4F832A066
:1052A800B4F83490B4F80080B4F802C0A788B4F811
:1052B8006000B4F86210009192B202EBC20204EBF3
:1052C8004202B4F86410A2F8A0B1B3F880210191A9
:1052D80092B202EBC20204EB42020099A2F8A2A128
:1052E800B3F8802192B202EBC20204EB4202A2F8A8
:1052F800A491B3F8802192B202EBC20204EB4202FD
:10530800A2F8A681B3F8802192B202EBC20204EBA4
:105318004202A2F8A8C1B3F8802192B202EBC202FD
:1053280004EB4202A2F8AA71B3F8802192B202EB10
:10533800C20204EB4202A2F8AC01B3F8802192B297
:1053480002EBC20204EB4202A2F8AE11B3F88021CC
:1053580092B202EBC20204EB4204019AA4F8B02113
:10536800B3F88021013292B2A3F88021D6F88431B3
:10537800012285F8F3201A6922F001021A6103B0AC
:10538800BDE8F08F50060020D0ED5F6ADFED147A9B
:1053980090ED5E6A90ED5D7A124900B566EEA76AF7
:1053A80027EE277A66EE277AFDEEE66ABDEEC77A23
:1053B800FDEEE77A16EE900A91B017EE102A17EE76
:1053C800903A00B2009012B21BB203A803F02AFC74
:1053D80081B203A8FEF7B4FE11B05DF804FB00BF6C
:1053E80000007A446C96000810B5D0F8F4301B4AD7
:1053F80023F07F4323F0FF03934290B0044601D08B
:1054080010B010BDD0ED5C6ADFED157A90ED5A6AE8
:1054180090ED597A134966EEA76A27EE277A66EE69
:10542800277AFDEEE66ABDEEC77AFDEEE77A16EE5C
:10543800900A17EE102A17EE903A00B2009012B2B6
:105448001BB203A803F0EEFB81B203A8FEF778FEB7
:10545800002384F8F63010B010BD00BF0001010031
:1054680000007A446C96000800F5D333B0F8F000D9
:1054780041F2707201FB00F19142A8BF114600226F
:10548800A3F88211A3F88021704700BF2DE9F047E7
:1054980000F5D33796B0B7F882310546002B51D0C6
:1054A800D7F88421116A41F211130B40002B4CD01C
:1054B80005F5D33606F5C176002404EBC4035B007A
:1054C80003F5D073E918EA5A4B88B1F804A0B1F88B
:1054D8000690B1F80880B1F80AC0B1F80CE0C889A4
:1054E800098A0FFA8CFC0FFA8EFE00B209B20FFA85
:1054F8008AFA0FFA89F90FFA88F81BB212B2CDF8B6
:105508000CC0CDF810E005900691CDF800A0144924
:10551800CDF80490CDF8088009A803F083FB81B288
:1055280009A8FEF70DFE01343388A4B2A342C4D8FB
:105538000022D7F88431A7F880211968328041F019
:1055480001021A6016B0BDE8F087116A40F24443C0
:105558000B40002BACD1136823F001031360A7E7BD
:105568007C96000838B500F5D33541F21113D5F80B
:105578008421116A0B40044643B9116A40F244433E
:105588000B401BB9136823F00103136004F13000CA
:10559800642100F0CDFB2046642100F021FFD5F8FE
:1055A80084311A6842F001021A6038BD38B5D02239
:1055B8000025A623044680F8282080F85830058660
:1055C80045868586603000F0DBFD04F1B80000F008
:1055D800B9FCEE2384F8F23004F1FC00FFF7E4F89C
:1055E80004F59870FFF7E0F8094B84F8F3500022AF
:1055F80084F8F55084F8F65084F8F750C4E960232D
:10560800C4E96223C4E96423C4E96623204638BD9B
:10561800008066402DE9F047814B824C1A6B86B0BA
:1056280006AD42F002024FF0400A1A6345F814AD85
:105638001222002704234FF00208294606467A481A
:10564800029205934FF400790397CDF81080FAF78A
:1056580001FF29467448CDF80490FAF7FBFE1123A0
:10566800294671480293CDF804A00397CDF810801D
:10567800FAF7F0FE29466C48CDF810800297039798
:10568800CDF80490FAF7E6FE67484FF40071FBF78F
:1056980051F801280FD064484021FBF757F801233F
:1056A80023602368002BFCD15F484FF40071FBF79F
:1056B80041F80128EFD15C484FF40071FBF73AF844
:1056C80001280FD058484021FBF740F801232360F8
:1056D8002368002BFCD154484FF40071FBF72AF8DB
:1056E8000128EFD1122100274FF0020E0422402397
:1056F8004D4802912946CDF810E005920193039791
:10570800FAF7A8FE29464FF4007347480193FAF7C1
:10571800A1FE434A454B116C9F6041F4001111648E
:10572800116A5F6141F400111162116ADFF814E136
:105738003F4DDF6121F400111162184610224FF429
:1057480080411F62C3F800E05D601961DA609A6108
:10575800FBF7BEF9002840D1022323602568002DFD
:10576800FCD1344B06F130004FF0010883F800807B
:1057780000F088FA304600F087FD06F1600000F07E
:1057880011FD06F1B80000F0F7FB254B2A481C6C08
:105798002A492B4A44F002041C640368A1FB030154
:1057A800890B06F5D33401394FF4C87089B2182330
:1057B80004F5C277A6F8F0003846C4F88811C4F892
:1057C8009451C4F88C51C4F89851C4F88421C4F891
:1057D8009031FCF72FFF18B1FEE701F083F9BBE722
:1057E8001D20FAF701FE1D2041460222FAF7C4FDEA
:1057F8003846FCF78FFF90B9D4F88431196A41F222
:1058080011120A4042B9196A40F244420A401AB9D0
:105818001A6822F001021A6006B0BDE8F087FEE7B8
:1058280000380240F4050020000402401006002061
:10583800801A0600480600200C0000205917B7D12E
:10584800000400400054004010B52DED088B90ED89
:105858001B8A90ED1A9AD0ED1C8A68EE087A0446E5
:10586800E9EE097AE8EEA87AF5EEC07AF1EE10FAD8
:1058780059DDB1EEE70AB4EE400AF1EE10FA5CD158
:10588800F0EE407A88EE278A94ED590AC8EEA79A76
:1058980089EE279A01F092FBB0EE40BA94ED590ACE
:1058A80001F0FAFB60EE488A94ED5A0A01F0F4FB25
:1058B800F0EE40AA94ED590A01F080FBB0EE40AA40
:1058C80094ED5A0A01F07AFB2AEE00AA94ED590ADF
:1058D80001F0E2FB28EE0A8AB0EE40AA94ED5A0ADB
:1058E80001F06CFBA9EE2A8AE9EE8B8A2AEE00AA5F
:1058F800F0EE480AB0EE680AE9EE8A0A01F0F8FC10
:10590800B5EEC00AF1EE10FADFED0E7A0ED4BDEC5A
:10591800088BB4EEE70AF1EE10FAC8BF30EE670A5A
:1059280084ED5C0A10BDDFED087AABE7BDEC088BAF
:1059380030EE270A84ED5C0A10BDB0EE670A01F06C
:10594800D9FC9DE7DB0FC940000000000000000003
:1059580010B52DED088B90ED0F8A90ED0E9AD0EDD5
:10596800109A68EE087A0446E9EE097AE9EEA97A0F
:10597800F5EEC07AF1EE10FA40F38480B1EEE70A52
:10598800B4EE400AF1EE10FA40F08C80F0EE40AA36
:10599800C9EEAA9A89EE2A9AF5EEC09AF1EE10FAA3
:1059A800C8EE2AAA74DD9FED488BB7EE00BADFED8A
:1059B8004A7A29EEA9AA69EE277AB0EE4A7AA9EEC0
:1059C800277AB5EEC07AF1EE10FA0EDDB1EEC70A0D
:1059D800B4EE400AF1EE10FA6ED120EE0B0A10EE8A
:1059E800100A02F00DFD41EC180B1AEE900A02F0B5
:1059F80007FDB0EE481AF0EE681A41EC100B01F002
:105A0800B9FB51EC100B02F0E9FFDFED340AC4F8E2
:105A180064016AEEAAAA7AEE207A7AEEA77AF4EE00
:105A2800E07AF1EE10FA08DDB1EEE70AB4EE400ACA
:105A3800F1EE10FA3BD1F0EE400AB1EE490A01F05E
:105A480057FCDFED267A84ED5A0AB0EE677AA9EEA4
:105A5800097A7AEE87AA3AEE2AAAB4EEE7AAF1EE14
:105A680010FA12DDB1EECA0AB4EE400AF1EE10FAED
:105A780013D189EE800A01F00FFBBDEC088B84ED91
:105A88005B0A10BDDFED15AA82E7B0EE670AF0E702
:105A98009FED0F8BBFEE00BA89E7B0EE4A0A01F01E
:105AA80029FCE6E7B0EE670A01F024FC6EE7B0EEE9
:105AB800670A01F01FFCBEE7B0EE470A01F01AFCC6
:105AC8008BE700BFAFF3008000000000000000007B
