:020000040800F2
:1000000000000220950200089D020008A1020008DD
:10001000A5020008A9020008AD02000800000000C7
:10002000000000000000000000000000B102000815
:10003000B502000800000000B902000851260008BF
:10004000C9020008C9020008C9020008C902000864
:10005000C9020008C9020008C9020008C902000854
:10006000C9020008C9020008C9020008C902000844
:10007000C9020008C9020008C9020008C902000834
:10008000C9020008C9020008C9020008C902000824
:10009000C9020008C9020008C9020008E5240008D6
:1000A000C9020008C9020008C9020008C902000804
:1000B00099250008C9020008C9020008C902000801
:1000C000C9020008C9020008C9020008C9020008E4
:1000D000C9020008C9020008C9020008C9020008D4
:1000E000C9020008C9020008C9020008C9020008C4
:1000F000C9020008C9020008C9020008C9020008B4
:10010000C9020008C9020008C9020008C9020008A3
:10011000C9020008C9020008C9020008C902000893
:10012000C9020008C9020008C9020008C902000883
:10013000C9020008C9020008C9020008C902000873
:10014000C9020008C9020008C9020008C902000863
:10015000C9020008C9020008C9020008C902000853
:10016000C9020008C9020008C9020008C902000843
:10017000C9020008C9020008C90200080000000006
:10018000C9020008C902000800B583B0304B314AEB
:100190001360314A1360314B3149002201E01A608B
:1001A00004338B42FBD32B4B1B6813B92A4B1B68C0
:1001B00003B1FEE7264B2B4A13602B4A13602B4BEF
:1001C0002B4A2C4803E0116819600433043283423F
:1001D000F9D3244B1A68284B9A4204D1224B1A684F
:1001E0001B689A4200D0FEE702F0EEFE01A86946C5
:1001F00001F0F8FF214B224EF61AB61000241D46DE
:1002000003E055F8243098470134A642F9DC1D4B31
:100210001D4EF61AB61000241D4603E055F8243092
:1002200098470134A642F9DC0198009903F05EF882
:100230000546164B164CE41AA4101E4603E0013C7A
:1002400056F824309847002CF9DC284601F09CFF32
:10025000BABADECA7C0000201C0200207C0000200C
:100260002002002000000020780000200000002074
:10027000A84300087C00002078563412CC02000805
:10028000CC020008CC020008CC020008CC02000816
:10029000CC02000808B5FFF777FF00BFFEE700BFFC
:1002A000FEE700BFFEE700BFFEE700BFFEE700BFBE
:1002B000FEE700BFFEE700BFFEE700BFFEE700BFAE
:0C02C000FEE700BFFEE700BFFEE700BF46
:1002D000704700BF08B50C4B1A6842F400721A60F0
:1002E0001A6842F480621A601A6842F480721A60D6
:1002F0004FF47A5000F084F8032000F015F8FFF76F
:10030000E7FF002008BD00BF003C0240024B1A6816
:1003100001321A60704700BF80000020014B18684E
:10032000704700BF8000002010B50446C31E042B98
:1003300003D90A48BA2101F05DFF04F00704084B15
:10034000D86820F4E0600004000C40EA042040F08B
:10035000BF6040F40030D86010BD00BFB83D000859
:1003600000ED00E070B506460D4614460F2A03D98D
:100370001A48D22101F03EFF0F2D03D91748D3218F
:1003800001F038FF164BDB68C3F30223C3F107010A
:10039000042928BF04211A1D062A8CBF033B002311
:1003A000012202FA01F101390D409D4002FA03F3E6
:1003B000013B1C402C43002E06DA06F00F062401F8
:1003C000E4B2084B9C5570BD2401E4B206F16040D4
:1003D00000F5614080F8004370BD00BFB83D0008E3
:1003E00000ED00E014ED00E0420900F01F000123E1
:1003F00003FA00F0014B43F82200704700E100E0EF
:100400000138B0F1807F0AD2064B5860F021064ACD
:1004100082F823100020986007221A60704701209C
:10042000704700BF10E000E000ED00E02DE9F84F5C
:1004300005460E460B681BB99848C32101F0DAFE49
:100440007368012B22D9112B20D0022B1ED0122B26
:100450001CD0934A934219D002F58012934215D0D2
:1004600002F58012934211D0A2F5F81293420DD0FA
:1004700002F58012934209D002F58012934205D012
:10048000032B03D08548C42101F0B4FEB368022BCE
:1004900003D98248C52101F0ADFE002444E1A14604
:1004A0000127A740336803EA0708B84540F03B81BD
:1004B0007368022B01D0122B54D13369C3B3092BBB
:1004C00036D0ABB3A3B39BB393B3012B30D02FD0B3
:1004D000022B2DD02CD02BD0032B29D0042B27D0AE
:1004E00026D025D0052B23D022D0092B20D0062BB7
:1004F0001ED0092B1CD0072B1AD019D018D0082BCE
:1005000016D015D014D0092B12D011D00A2B0FD031
:100510000ED00B2B0CD00C2B0AD009D00D2B07D0F2
:100520000C2B05D00F2B03D05C48D62101F062FEC6
:10053000336904F00702920003FA02F1E30808337A
:1005400055F823004FF00F0C0CFA02F220EA0202D9
:1005500045F8232055F823200A4355F823100A4371
:1005600045F823202B684FEA440A4FF0030B0BFA9F
:100570000AFB6FEA0B0B03EA0B032B602A68736814
:1005800003F0030303FA0AF313432B6073685A1E44
:10059000012A03D9112B01D0122B1DD1F368032B93
:1005A00003D93E48E72101F025FEAB680BEA0303BF
:1005B000AB60AA68F36803FA0AF31343AB606B6895
:1005C00023EA07076F606A687368C3F3001303FACE
:1005D00009F942EA09036B60EB680BEA0303EB607D
:1005E000EA68B36803FA0AF31343EB60736813F025
:1005F000805F00F098802B4B5A6C42F480425A6422
:1006000004F0030080004FF00F0C0CFA00FCA1086E
:10061000A3F580338A1C53F8227027EA0C0743F8AD
:10062000227053F82230204A95423FD002F5806272
:10063000954230D002F5806295422AD002F5806260
:10064000954224D002F5806295421ED002F5806268
:10065000954218D002F58062954212D002F5806270
:1006600095420CD002F58062954206D002F5806278
:10067000954214BF0A22092219E0082217E0072236
:1006800015E0062213E0052211E004220FE0032208
:100690000DE002220BE0012209E000BFEC3D000862
:1006A000000011100038024000000240002202FA4F
:1006B00000F0184302311F4B43F8210003F580631B
:1006C00019686FEA080211401960596811405960B1
:1006D000736813F4803F04D0174B196841EA08018E
:1006E0001960736813F4003F04D0134B596841EA52
:1006F00008015960104B996811409960D9680A4007
:10070000DA60736813F4801F04D00B4B9A6842EAD6
:1007100008029A60736813F4001F04D0064BDA686D
:1007200042EA0802DA6001340F2C7FF6B8AEBDE869
:10073000F88F00BF00380140003C014038B5054645
:100740000C464B1E9BB2012B28D9042926D0082920
:1007500024D0102922D0202920D040291ED0802941
:100760001CD0B1F5807F19D0B1F5007F16D0B1F55E
:10077000806F13D0B1F5006F10D0B1F5805F0DD050
:10078000B1F5005F0AD0B1F5804F07D0B1F5004F49
:1007900004D006484FF4BB7101F02CFD2B6903EA2D
:1007A0000400003018BF012038BD00BFEC3D000838
:1007B00070B506460C4615464B1E9BB2012B28D938
:1007C000042926D0082924D0102922D0202920D07D
:1007D00040291ED080291CD0B1F5807F19D0B1F5F9
:1007E000007F16D0B1F5806F13D0B1F5006F10D037
:1007F000B1F5805F0DD0B1F5005F0AD0B1F5804F43
:1008000007D0B1F5004F04D0084840F2971101F02D
:10081000F1FC012D04D905484FF4CC7101F0EAFC3C
:100820000DB1348370BD748370BD00BFEC3D000812
:1008300038B505460C464B1E9BB2012B28D904291E
:1008400026D0082924D0102922D0202920D04029C0
:100850001ED080291CD0B1F5807F19D0B1F5007F62
:1008600016D0B1F5806F13D0B1F5006F10D0B1F58F
:10087000805F0DD0B1F5005F0AD0B1F5804F07D091
:10088000B1F5004F04D004484FF4D77101F0B2FC29
:100890006B695C406C6138BDEC3D00082DE9F843A4
:1008A00004460E469046FFF739FD00EB0809C6F3F3
:1008B000074728E023685D6915F4806F13D01A6834
:1008C00042F400721A6023685A6922F480625A6105
:1008D000042384F83630012084F83500002384F89E
:1008E0003430BDE8F883B8F1FF3F0CD0FFF716FDB8
:1008F000484508D3012384F83530002384F8343088
:100900000320BDE8F883012F23680CBF5B699B6956
:1009100026EA03039BB2003318BF0123002BC9D181
:100920000020BDE8F88300BF2DE9F04105460C46E4
:1009300090461E46FFF7F2FC8719B8F1000F10D061
:1009400032E0B6F1FF3F0ED0FFF7E8FCB8420AD321
:10095000012385F83530002385F834300320BDE8C5
:10096000F081C4F30748B8F1010F2B680CBF5B6935
:100970009B6924EA03039BB2003318BF0123002BB9
:10098000DFD10020BDE8F081B6F1FF3F0ED0FFF7C8
:10099000C5FCB8420AD3012385F83530002385F819
:1009A00034300320BDE8F081C4F30748B8F1010FEB
:1009B0002B680CBF5B699B6924EA03039BB2D3F1EC
:1009C000010338BF0023002BDED10020BDE8F081F9
:1009D0002DE9F04705468A4690469946089E0468E8
:1009E000276847F4807727604FF0011100223346D3
:1009F000FFF79AFF002835D12B680AF0FE021A6132
:100A000028461C493246FFF749FF38B195F8363081
:100A1000DBB2042B14BF0321012128E02B685A69A3
:100A20009B692846144900223346FFF77DFF0146A3
:100A3000D0B9B9F1010F04D12B685FFA88F21A61BD
:100A400015E02B684FEA18221A6128460A4900224D
:100A50003346FFF769FF014640B92B685FFA88F219
:100A60001A6104E0032102E0032100E003210846AB
:100A7000BDE8F08702000100800001002DE9F04789
:100A80000446884691469A46089E05682B6843F4BA
:100A900080632B6005682F6847F480772F604FF0E4
:100AA000011100223346FFF73FFF00285DD1236884
:100AB0005FFA88F808F0FE021A6120463149324692
:100AC000FFF7ECFE38B194F83630DBB2042B14BFDC
:100AD0000323012352E023685A699B6920462A496F
:100AE00000223346FFF720FF002840D1BAF1010F62
:100AF00004D123685FFA89F21A610FE023684FEA94
:100B000019221A612046204900223346FFF70CFFC4
:100B100000282ED123685FFA89F21A6120461A490B
:100B200000223346FFF700FF28BB23681A6842F40F
:100B300080721A6020464FF0011100223346FFF701
:100B4000F3FED0B9236848F001021A6120460D492E
:100B50003246FFF7A3FE034680B194F83630DBB28D
:100B6000042B14BF0323012308E0032306E003231F
:100B700004E0032302E0032300E003231846BDE85A
:100B8000F08700BF0200010080000100704700BF35
:100B900038B50446002800F0DE8003686F4A9342AF
:100BA0000CD002F58062934208D002F58062934235
:100BB00004D06B4840F2211101F01CFB6368013B3B
:100BC000684A934204D966484FF4917101F012FBD0
:100BD000A3683BB1B3F5804F04D0614840F22311C4
:100BE00001F008FBE36823F47F7323F0030323B1D0
:100BF0005B484FF4927101F0FDFA2369B3F5804F21
:100C000007D0B3F5404F04D0554840F2251101F00C
:100C1000F1FA6369012B04D951484FF4937101F043
:100C2000E9FAA36933F0FE0204D04D4840F22711DF
:100C300001F0E0FAE36933B1402B04D048484FF4A7
:100C4000947101F0D7FA236A33B1802B04D0444861
:100C500040F2291101F0CEFA94F8353013F0FF0F6D
:100C600002D12046FFF792FF022384F83530236833
:100C70001A6822F001021A6000F004FF3A4BA3FB4D
:100C800000539B0C2268536021686268374DAA426A
:100C900001D8013308E04FF4967202FB03F3344AA3
:100CA000A2FB03539B0901330B62226863682F493F
:100CB0008B4208D85B00B0FBF3F0C0F30B03032BAF
:100CC00098BF04202BE0A16851B903EB4305B0FBAA
:100CD000F5F5C5F30B05D5F1010538BF00250BE08F
:100CE00003EB830505EB8505B0FBF5F5C5F30B05B7
:100CF000D5F1010538BF002585B931B903EB4303B0
:100D0000B0FBF3F040F4004009E003EB830303EB96
:100D10008303B0FBF3F040F4404000E00120D061D9
:100D20002368E169226A0A431A6023682169E2683C
:100D30000A439A6023686169A2690A43DA602368FA
:100D40001A6842F001021A60002084F8360001237C
:100D500084F8353038BD012038BD00BF0054004054
:100D60001C3E00087F1A060083DE1B43A08601009C
:100D7000D34D62102DE9F04182B0054688461746F2
:100D80001C46BDF82460012B06D0102B04D042482D
:100D900040F2336101F02EFA95F83530DBB2012BC9
:100DA00067D10899002966D0002E66D02B689B6910
:100DB00013F0020F63D195F83430012B61D0012379
:100DC00085F83430322385F83530002385F8363005
:100DD0000A9A0092284641463A462346FFF7F8FD14
:100DE00038B395F83630DBB2042B4FF0000385F8AA
:100DF00034300CBF012303234AE0284641463A46DB
:100E00000A9BFFF791FD00283DD1286808994B1CEB
:100E10000A780261013EB6B22868446914F0040FF2
:100E200005D026B18B1C4A780261013EB6B2089308
:100E300002E0DFF868800027002EDED1284617493F
:100E400000220A9BFFF770FDF8B92B681A6842F47C
:100E500000721A602846124901220A9BFFF764FDBE
:100E60000346A0B9012285F83520002285F83420F8
:100E70000EE002230CE001230AE0012308E0022334
:100E800006E0022304E0032302E0032300E003233F
:100E9000184602B0BDE8F0811C3E00088000010049
:100EA000020010002DE9F04182B005468846174641
:100EB0001C46BDF82460012B06D0102B04D08948B5
:100EC00040F29D6101F096F995F83530DBB2012BC7
:100ED00040F0EF800899002900F0ED80002E00F02E
:100EE000EC802B689B6913F0020F40F0E88095F8C6
:100EF0003430012B00F0E580012385F834304223A3
:100F000085F83530002385F836300A9A0092284655
:100F100041463A462346FFF7B1FD58B195F83630C1
:100F2000DBB2042B4FF0000385F834300CBF0123F3
:100F30000323D3E0012E0CD12B681A6822F48062BF
:100F40001A602B685A699A691A6842F400721A602A
:100F500094E0022E0DD12B681A6822F480621A6088
:100F60002B681A6842F400621A602B685A699B6900
:100F700084E02B685A699B6980E0032E60D8012EBB
:100F800011D12846414622460A9BFFF7CDFC002896
:100F900040F099802B681B6908990B70013EB6B22E
:100FA000013108916EE0022E1CD1284639462246B6
:100FB0000A9BFFF7B9FC002840F087802B681A686D
:100FC00042F400721A602B681A69089B03F8022B1E
:100FD000013EB6B22A68126908994A70013EB6B25B
:100FE00008934FE02846394622460A9BFFF79CFCAF
:100FF00000286CD12B681A6822F480621A602B6872
:101000001B69089A1370013EB6B22846394622463B
:101010000A9BFFF789FC00285BD12B681A6842F411
:1010200000721A602B681B6908994B70013EB6B2BA
:101030002B681B698B70013EB6B20331089121E029
:101040002846414622460A9BFFF76EFC002842D103
:10105000089A511C2B681B691370013EB6B22B68AD
:101060005A6912F0040F07D01B6908994B70013EB2
:10107000B6B20231089105E0089103E0DFF8708014
:101080000024194F002E7FF478AF2B681A6822F4E1
:1010900000621A602846154901220A9BFFF744FCAA
:1010A0000346D0B9012285F83520002285F8342086
:1010B00014E0022312E0012310E001230EE00223DA
:1010C0000CE002230AE0032308E0032306E00323E5
:1010D00004E0032302E0032300E00323184602B0E8
:1010E000BDE8F0811C3E0008040001000200100071
:1010F000400001002DE9F84F044690461F4690F845
:101100003530DBB2012B40F0888003689B6913F017
:10111000020F40F0848090F83430012B00F0818081
:101120004FF0010980F83490022380F83530002315
:1011300080F8363001F0FE0ADFF8FCB000E0994696
:1011400023681A6842F480721A6020464FF0011139
:1011500000223B46FFF7E8FB002864D12368C3F870
:1011600010A0FFF7DBF8C51923685A69C2F34002E3
:101170005B69C3F3802394F83510C9B203260FE0EE
:10118000FFF7CCF8A84228BF84F8356023685A6975
:10119000C2F340025B69C3F3802394F83510C9B2EF
:1011A00012B90BB90329EBD1012384F83530236838
:1011B0005A6912F0020F15D01A6842F400721A60D0
:1011C00023685A699B6920461B4901223B46FFF769
:1011D000ABFB034648BB012284F83520002284F88B
:1011E000342025E01A6842F400721A6023685A69B4
:1011F00022F480625A612046594601223B46FFF79D
:1012000093FBA0B909F10103C14598D3012384F8E8
:101210003530002284F834200AE0022308E002235B
:1012200006E0022304E0032302E0032300E003239B
:101230001846BDE8F88F00BF0200100070B50446E4
:1012400003680F2B04D9AC484FF49D7100F0D2FF16
:10125000236813F0010F5ED06368012B06D9052BBC
:1012600004D0A54840F23F1100F0C4FFA34B9B6897
:1012700003F00C03042B0AD0A04B9B6803F00C0373
:10128000082B0ED19D4B5B6813F4800F09D09B4B4C
:101290001B6813F4003F3ED06368012B40F0EA81E5
:1012A00039E00022964B1A70FFF738F800F59C558C
:1012B0000835924E04E0FFF731F8A84280F0DC8157
:1012C000336813F4003FF6D122798D4B1A706368AE
:1012D000012B10D1FFF722F800F59C550835874EF9
:1012E00004E0FFF71BF8A84280F0C881336813F4CC
:1012F000003FF6D00FE0FFF711F800F59C550835D8
:101300007E4E04E0FFF70AF8A84280F0B981336806
:1013100013F4003FF6D1236813F0020F5FD0E368A7
:10132000012B04D9744840F27F1100F063FF236958
:101330001F2B04D970484FF4C07100F05BFF6F4B56
:101340009B6813F00C0F0AD06C4B9B6803F00C03E6
:10135000082B0ED1694B5B6813F4800F09D1674BE2
:101360001B6813F0020F3AD0E368012B40F08A812A
:1013700035E0E3680BB30122624B1A60FEF7CEFF43
:1013800000F164065D4D04E0FEF7C8FFB04280F056
:101390007B812B6813F0020FF6D0584B1A6822F0AD
:1013A000F8022369F82191FAA1F1B1FA81F1C9B2E9
:1013B0008B401A43514B1A6011E00022514B1A60C6
:1013C000FEF7ACFF00F164064C4D04E0FEF7A6FF0B
:1013D000B04280F05B812B6813F0020FF6D12368D6
:1013E00013F0080F2ED06369012B04D942484FF443
:1013F000DC7100F0FFFE636993B10122424B1A6079
:10140000FEF78CFF00F164063C4D04E0FEF786FF1A
:10141000B04280F03D816B6F13F0020FF6D011E007
:101420000022394B1A60FEF779FF00F16406334D54
:1014300004E0FEF773FFB04280F02C816B6F13F075
:10144000020FF6D1236813F0040F6CD0A368012BB0
:1014500006D9052B04D028484FF4F17100F0CAFEDC
:10146000264B1A6C42F080521A64A3F5E4331A68D2
:1014700042F480721A60FEF751FF00F16406234DBA
:1014800004E0FEF74BFFB04280F006812B6813F4B6
:10149000807FF6D000221E4B1A70FEF73FFF00F54A
:1014A0009C550835154E04E0FEF738FFA84280F041
:1014B000F580336F13F0020FF6D1227A144B1A70B5
:1014C000A368012B10D1FEF729FF00F59C550835C4
:1014D0000A4E04E0FEF722FFA84280F0E180336F5D
:1014E00013F0020FF6D01EE0FEF718FF00F59C5532
:1014F0000835024E13E000BF5C3E00080038024091
:101500000238024000004742800E4742007000400F
:1015100070380240FEF702FFA84280F0C380336FAC
:1015200013F0020FF6D1A369022B04D9634840F2ED
:10153000262100F05FFEA369002B00F0B580604A11
:10154000926802F00C02082A00F0B080022B7ED1D3
:10155000E3693BB1B3F5800F04D0584840F22F2126
:1015600000F048FE236A3F2B04D954484FF40C7115
:1015700000F040FE636AC03BF02B04D94F4840F2B4
:10158000312100F037FEA36A022B0AD0042B08D0C9
:10159000062B06D0082B04D0484840F2322100F038
:1015A00029FEE36A043B0B2B04D9444840F2332163
:1015B00000F020FE0022434B1A60FEF7AFFE00F160
:1015C00064063F4D03E0FEF7A9FEB04270D22B68DF
:1015D00013F0007FF7D1236A626A47F6C07191FA6F
:1015E000A1F1B1FA81F1C9B28A4043EA0201A36ACA
:1015F0005B085A1E4FF4403393FAA3F3B3FA83F314
:10160000DBB29A400A43E3691343E16A4FF0706228
:1016100092FAA2F2B2FA82F2D2B201FA02F21A43BA
:1016200042F00052264B5A600122264B1A60FEF708
:1016300075FE00F16405224C03E0FEF76FFEA84240
:1016400038D2236813F0007FF7D0002070BD00224D
:101650001C4B1A60FEF762FE00F16405184C03E0B3
:10166000FEF75CFEA84227D2236813F0007FF7D173
:10167000002070BD012070BD032070BD032070BD2F
:10168000032070BD012070BD032070BD032070BD1C
:10169000032070BD032070BD032070BD032070BD0A
:1016A000032070BD032070BD002070BD012070BDFF
:1016B000032070BD032070BD032070BD5C3E000898
:1016C0000038024060004742204B9B6803F00C0347
:1016D000042B38D0082B01D01D4870471B4B58688D
:1016E00000F03F005A6802F480024FF4800393FA3E
:1016F000A3F3B3FA83F3DBB232FA03F314BF154B4F
:10170000134BB3FBF0F0114B5A6847F6C0731A4005
:1017100093FAA3F3B3FA83F3DBB222FA03F303FBE6
:1017200000F00A4B5A6802F440324FF4403393FA07
:10173000A3F3B3FA83F3DBB222FA03F301335B00C2
:10174000B0FBF3F070470348704700BF0038024019
:101750000024F40000127A0008B5FFF7B5FF094B2A
:101760009A6802F0F002F02393FAA3F3B3FA83F33A
:10177000DBB222FA03F3044AD35CD840034B18606F
:1017800008BD00BF003802404C3E00080C0000209D
:10179000F8B504460D460368013B0E2B04D9AC484E
:1017A00040F2962100F026FD072D04D9A84840F20A
:1017B000972100F01FFDA74B1B6803F00F03AB42FE
:1017C00061D2EAB2A34B1A701B6803F00F03AB425D
:1017D00040F02D81236813F0010F00F0B48063689E
:1017E000022B04D99A4840F2AD2100F003FD636852
:1017F000012B05D1984A126812F4003F0ED118E16E
:10180000022B05D1944A126812F0007F06D112E132
:10181000914A126812F0020F00F00F818E4A91680F
:1018200021F003010B439360FEF778FD00F59C5512
:1018300008356368012B0CD104E0FEF76FFDA84268
:1018400001D3FCE0844EB36803F00C03042BF4D105
:1018500079E0022B11D104E0FEF760FDA84201D32C
:10186000EFE07D4EB36803F00C03082BF4D16AE07F
:10187000FEF754FDA84201D3E5E0774EB36813F0BC
:101880000C0FF5D15FE0236813F0010F52D06368AD
:10189000022B04D96E4840F2F52100F0ABFC6368DE
:1018A000012B05D16C4A126812F4003F0ED1CCE036
:1018B000022B05D1684A126812F0007F06D1D3E0EE
:1018C000654A126812F0020F00F0D080624A9168F7
:1018D00021F003010B439360FEF720FD00F59C56B9
:1018E00008366368012B0CD104E0FEF717FDB04207
:1018F00001D3BDE0584FBB6803F00C03042BF4D1B7
:1019000018E0022B11D104E0FEF708FDB04201D32C
:10191000B0E0514FBB6803F00C03082BF4D109E091
:10192000FEF7FCFCB04201D3A6E04B4FBB6813F0BE
:101930000C0FF5D1EAB2474B1A701B6803F00F0386
:10194000AB4240F09B80236813F0020F1DD0A368C8
:10195000A3B1802B12D0902B10D0A02B0ED0B02B87
:101960000CD0C02B0AD0D02B08D0E02B06D0F02B07
:1019700004D0374840F2453100F03CFC364B9968C2
:1019800021F0F001A2680A439A60236813F0040F63
:1019900019D0E36883B1B3F5805F0DD0B3F5A05FD4
:1019A0000AD0B3F5C05F07D0B3F5E05F04D0284894
:1019B0004FF4537100F01EFC274B996821F4E0515D
:1019C000E2680A439A60236813F0080F1AD023696B
:1019D00083B1B3F5805F0DD0B3F5A05F0AD0B3F546
:1019E000C05F07D0B3F5E05F04D0194840F253312F
:1019F00000F000FC184B9A6822F46042216942EA28
:101A0000C1029A60FFF7A8FE144BA3FB00239B09B9
:101A1000013BB3F1807F33D2114A5360F021114B67
:101A200083F823100020906007231360F8BD012085
:101A3000F8BD0120F8BD0120F8BD0120F8BD03204C
:101A4000F8BD0320F8BD0320F8BD0120F8BD00BF9C
:101A50005C3E0008003C024000380240D34D62105A
:101A600010E000E000ED00E00120F8BD0120F8BD2D
:101A70000320F8BD0320F8BD0320F8BD0120F8BD08
:101A80000020F8BD08B5FFF767FE084B9A6802F41E
:101A9000E0524FF4E05393FAA3F3B3FA83F3DBB2CB
:101AA00022FA03F3024AD35CD84008BD0038024052
:101AB0004C3E00082DE9F04105460C4690461E4676
:101AC000FEF72CFC8719B8F1000F28D057E0B6F1CB
:101AD000FF3F24D0FEF722FCB84220D32B685A687F
:101AE00022F0E0025A602B681A6822F040021A6065
:101AF000AB6AB3F5005F09D12B681A6822F4005273
:101B00001A602B681A6842F400521A60012385F8A3
:101B10005130002385F850300320BDE8F0812B6858
:101B20009B682340A342D2D10020BDE8F081B6F1EA
:101B3000FF3F24D0FEF7F2FBB84220D32B685A684F
:101B400022F0E0025A602B681A6822F040021A6004
:101B5000AB6AB3F5005F09D12B681A6822F4005212
:101B60001A602B681A6842F400521A60012385F843
:101B70005130002385F850300320BDE8F0812B68F8
:101B80009B682340A342D2D00020BDE8F08100BF73
:101B90002DE9F04182B004460F4690461E46089D4E
:101BA00090F85100C0B2012802D0222840F07E8176
:101BB000002F00F07D81B8F1000F00F07B81002E36
:101BC00000F07A81A36823B199484FF42C7100F09A
:101BD00011FB94F85030012B00F07081012384F840
:101BE000503094F85130DBB2012B04BF322384F81B
:101BF0005130002384F85230C4F83880A687E68735
:101C00002763A686E686A364E364A36AB3F5005F50
:101C100009D123681A6822F400521A6023681A68EE
:101C200042F400521A6023681A6812F0400F03D180
:101C30001A6842F040021A60E368B3F5006F76D18B
:101C40002368226B1288DA60236B02332363E38EEE
:101C5000013B9BB2E386002B4ED1A36AB3F5005F34
:101C600004D123681A6842F480521A602046012188
:101C700000222B46FFF71EFF002840F02181A36BB6
:101C80002268D2681A80A36B0233A363E38F013BFF
:101C9000E387BAE02046394632462B46FFF70AFF73
:101CA000002840F00F812368226B1288DA60236BD2
:101CB00002332363E38E013B9BB2E38643B9A36AFD
:101CC000B3F5005F04D123681A6842F480521A60A9
:101CD0002046414632462B46FFF7ECFE002840F0F6
:101CE000F380A36B2268D2681A80A36B0233A363CC
:101CF000E38F013BE38703E0022700264FF0010852
:101D0000E38E002BC6D12046012100222B46FFF78F
:101D1000D1FE002840F0DA80A36B2268D2681A80D6
:101D2000A36B0233A363E38F013BE3876DE022687B
:101D3000236B591C21631B78D360E38E013B9BB25C
:101D4000E386002B49D1A36AB3F5005F04D1236871
:101D50001A6842F480521A602046012100222B4664
:101D6000FFF7A8FE002840F0B380A36B2268D2687A
:101D70001A70E38F013BE38747E02046394632463D
:101D80002B46FFF797FE002840F0A4802268236BC3
:101D9000591C21631B78D360E38E013B9BB2E38621
:101DA00043B9A36AB3F5005F04D123681A6842F40B
:101DB00080521A602046414632462B46FFF77AFE93
:101DC000002840F08980A36B5A1CA2632268D26865
:101DD0001A70E38F013BE38703E0022700264FF0F0
:101DE0000108E38E002BC8D12046012100222B469A
:101DF000FFF760FE002871D1A36B5A1CA263226812
:101E0000D2681A70E38F013BE387A36AB3F5005FE2
:101E100015D12046012100222B46FFF74BFE48B189
:101E200094F8523043F0020384F85230032356E012
:101E30008C3E00082368DB689BB2ADF80630204674
:101E4000802101222B46FFF735FE034638B194F876
:101E5000523043F0200384F8523003233FE0012244
:101E600084F851202268916801F01000A16AB1F550
:101E7000005F17D1B0B194F8523043F0020384F8F8
:101E80005230B1F5005F08D1136823F4005313609A
:101E900023681A6842F400521A60002384F8503014
:101EA00001231CE0002284F8502018E0022316E0F1
:101EB000012314E0012312E0012310E002230EE0CD
:101EC00003230CE003230AE0032308E0032306E0D6
:101ED000032304E0032302E0032300E00323184666
:101EE00002B0BDE8F08100BF704700BF10B50446E6
:101EF0000368234A934237D0B3F1804F34D0A2F520
:101F00007C42934230D002F5806293422CD002F59D
:101F10008062934228D002F58062934224D002F579
:101F20008062934220D002F5704293421CD002F5A9
:101F30007052934218D002F58062934214D002F599
:101F40008062934210D0A2F5983293420CD002F5F1
:101F50008062934208D002F58062934204D009481F
:101F60004FF4AD7100F046F92368DA6842F00102DF
:101F7000DA6023681A6842F001021A60002010BD7E
:101F800000000140BC3E00080368444A904215D05E
:101F9000B0F1804F14D0A2F57C42904212D002F5ED
:101FA0008062904210D002F5806290420ED002F51D
:101FB0007842904214BF0022012208E0012206E08C
:101FC000012204E0012202E0012200E001221AB114
:101FD00023F070034A681343304A90422DD0B0F189
:101FE000804F2CD0A2F57C4290422AD002F580622C
:101FF000904228D002F58062904226D002F57842C5
:10200000904224D002F57052904222D002F58062B4
:10201000904220D002F5806290421ED0A2F5983204
:1020200090421CD002F5806290421AD002F5806284
:10203000904214BF0022012214E0012212E001228A
:1020400010E001220EE001220CE001220AE0012250
:1020500008E0012206E0012204E0012202E0012260
:1020600000E001221AB123F44073CA6813430360ED
:102070008B68C3620B688362084B984206D003F5F5
:102080008063984214BF0023012300E001230BB1B9
:102090000B69036301234361704700BF00000140E7
:1020A00010B50446002869D00368354A934236D0FB
:1020B000B3F1804F33D0A2F57C4293422FD002F58A
:1020C000806293422BD002F58062934227D002F5C2
:1020D0008062934223D002F5806293421FD002F5C2
:1020E000704293421BD002F57052934217D002F512
:1020F0008062934213D002F5806293420FD0A2F522
:10210000983293420BD002F58062934207D002F5D9
:102110008062934203D01B48D02100F06BF8A36883
:102120005BB1102B09D0202B07D0402B05D0602BA2
:1021300003D01448D12100F05DF823694BB1B3F509
:10214000807F06D0B3F5007F03D00E48D22100F087
:1021500051F894F8393013F0FF0F02D12046FFF701
:10216000C3FE022384F83930214651F8040BFFF7EF
:102170000BFF012384F83930002010BD012010BD71
:1021800000000140BC3E0008FEE700BF08B5034860
:1021900000F056F80120FFF7F7FF00BFEC3E000803
:1021A00008B50D4B1B6813B90C4A0B4B1A600A4B50
:1021B0001B68033020F003001844094A904206D9F6
:1021C00001F0ACF90C2303604FF0FF3008BD024A68
:1021D0001060184608BD00BF8400002020020020C7
:1021E00000FC012001230360014B0B60704700BF1E
:1021F0000400002008B503460A460348194600F0CB
:1022000005F8FFF7C3FF00BF403F00080FB400B55B
:1022100083B004AB53F8042B01930848802101F0EC
:1022200059FD011E03DD054800F038F80146084657
:1022300003B05DF804EB04B0704700BF8C000020D1
:1022400010B5044601F044FA0146204600F026F895
:102250000248012100F022F810BD00BF6C3F0008C9
:1022600010B400244FF0604212E0D2F8803E13F028
:10227000010F04D0D2F8003E13F0010F01D1204627
:1022800009E01368002BFCD003781370013401308F
:102290008C42EAD308465DF8044B704708B5FFF757
:1022A000DFFF08BD0F4AD2F8883043F47003C2F84C
:1022B00088300D4B196841F00101196000209860C9
:1022C000196821F0847121F480311960074959603F
:1022D000196821F480211960D8604FF00063936081
:1022E000704700BF00ED00E00038024010300024CD
:1022F0002DE9F04105460F4614460068A9880022E2
:10230000FEF756FA0A22234B1A6019460B68002B77
:10231000FCD12CB92869A98A0022FEF749FA04E009
:102320002869A98A0122FEF743FA0A22194B1A608A
:102330001A461368002BFCD10026B046154C20E04D
:1023400017F0800FA869A98B14BF01224246FEF73F
:102350002FFA7F00FFB2286AA98C4246FEF728FABE
:10236000012323602368002BFCD1286AA98C012259
:10237000FEF71EFA012323602368002BFCD10136EF
:10238000F6B2072EDCD92868A9880122FEF710FAD8
:10239000BDE8F0815801002070B506462039CDB265
:1023A000002405EB45056D0008E02B193046054A71
:1023B000D15C0122FFF79CFF0134E4B2052CF4D973
:1023C00070BD00BF9C3F0008F8B5074600242646B4
:1023D000012506E0384631462A46FFF789FF0134D9
:1023E000A4B2B4F5FC7FF5D3F8BD00BFF8B505463F
:1023F00041F040010022FFF77BFF284680210022A8
:10240000FFF776FF00242746012606E028463946D6
:102410003246FFF76DFF0134A4B2532CF6D9F8BD54
:1024200070B505460C4602EB42025600F6B243F088
:1024300040010022FFF75CFF284646F080010022A1
:10244000FFF756FF03E02846FFF7A6FF0134217887
:102450000029F8D170BD00BF2DE9F04F83B00546CB
:10246000934699469DF830609DF8343013F0070F7D
:102470004FEAD30318BF013300934FF0000A01EB7A
:1024800041014900019126E0019BDCB228464BF056
:1024900040010022FFF72CFF284644F08001002273
:1024A000FFF726FF002406FB0AF8012709E004EBEA
:1024B0000803284619F803103A46FFF719FF0134BC
:1024C000E4B2B442F3D30BF1010B5FFA8BFB0AF1D8
:1024D000010A5FFA8AFA009B9A45D5D303B0BDE89A
:1024E000F08F00BF294B5B6913F0200F15D020221D
:1024F000264B5A6103F548431B6913F0200F07D19F
:102500000122234B1A704FF47A72224B1A6004E0B6
:1025100000231F4A13701F4A13601C4B5B6913F0A2
:10252000800F15D08022194B5A6103F548431B696F
:1025300013F0800F07D10122154B5A704FF47A72B5
:10254000144B5A6004E00023114A5370114A53603F
:102550000E4B5B6913F4807F16D04FF480720B4BE7
:102560005A6103F548431B6913F4807F07D10122A8
:10257000074B9A704FF47A72064B9A6070470023AB
:10258000034A9370034A9360704700BF003C0140C8
:10259000540100204801002008B5294B1B68DB6866
:1025A00013F0010F4BD0274B1B688BB1254B1A68DA
:1025B000013A1A601B68B3F5167F03D10222224B41
:1025C0001A7005E01F4B1B6813B903221E4B1A70CB
:1025D0001C4B5B688BB11B4B5A68013A5A605B68B5
:1025E000B3F5167F03D10222174B5A7005E0154B45
:1025F0005B6813B90322144B5A70124B9B688BB162
:10260000104B9A68013A9A609B68B3F5167F03D124
:1026100002220D4B9A7005E00A4B9B6813B9032206
:10262000094B9A70094B1B7813F0FF0F01D000F093
:102630001DF8034B1B681A6922F001021A6108BDDC
:102640000C01002048010020540100207C010020E2
:1026500008B5054B1B681BB1034B1A68013A1A6099
:10266000FDF754FE08BD00BF5801002030B583B00F
:10267000414A13780133DBB21370022B79D16846DB
:1026800000F0ECF9BDF800100AB23C4BB3F9003091
:102690009A4202DD394B198007E00AB2384BB3F990
:1026A00000309A42BCBF364B1980BDF8022010B2F0
:1026B000344BB3F90030984202DD324B1A8007E008
:1026C00010B2314BB3F900309842BCBF2E4B1A8088
:1026D000BDF804301CB22D48B0F90000844202DD80
:1026E0002A48038007E01CB22948B0F90000844260
:1026F000BCBF274803802748046804FA81F10160C1
:102700002548046804FA82F202602448046804FA46
:1027100083F30360224C20780130C0B2207014286B
:1027200024D109B21F4880FB0154C917C1EBA4147E
:10273000A4B21D490C8012B280FB0241D217C2EB39
:10274000A11189B2194A11801BB280FB0352DB1719
:10275000C3EBA21292B2164B1A8000230D4A1360EB
:102760000D4A13600D4A13600D4A13700022024B8C
:102770001A7003B030BD00BF5E0100206A01002066
:10278000680100206C0100206E0100207001002013
:102790007401002060010020640100207801002005
:1027A000760100201F85EB51720100207E01002080
:1027B0005C010020FEE700BF00B587B08DF80F0078
:1027C0004FF48052104B1A6010481A4605E0136807
:1027D000591E11600BB9FFF7EDFF03689B6813F0FA
:1027E000020FF4D04FF48053009308480DF10F010D
:1027F0000DF117020123FFF7CBF900B1FEE79DF8B9
:10280000170007B05DF804FB1000002080010020D5
:1028100038B540F080050A4C204608210022FDF71B
:10282000C7FF2846FFF7C8FF0020FFF7C5FF054692
:10283000204608210122FDF7BBFF284638BD00BF16
:102840000010024010B504462420FFF7E1FF00F01D
:102850003800202800F2E480DFE800F011E2E2E234
:10286000E2E2E2E23BE2E2E2E2E2E2E265E2E2E26C
:10287000E2E2E2E28FE2E2E2E2E2E2E2B900B4F9AD
:10288000003007EE103AB8EEC77ADFED667A27EE31
:10289000277ABDEEC77A17EE103A2380B4F90230DA
:1028A00007EE103AB8EEC77A27EE277ABDEEC77A60
:1028B00017EE103A6380B4F9043007EE103AB8EE20
:1028C000C77A67EE277AFDEEE77A17EE903AA38093
:1028D00010BDB4F9003007EE103AB8EEC77ADFED5C
:1028E000527A27EE277ABDEEC77A17EE103A238088
:1028F000B4F9023007EE103AB8EEC77A27EE277A1D
:10290000BDEEC77A17EE103A6380B4F9043007EED3
:10291000103AB8EEC77A67EE277AFDEEE77A17EE3F
:10292000903AA38010BDB4F9003007EE103AB8EE2B
:10293000C77ADFED3E7A27EE277ABDEEC77A17EE2B
:10294000103A2380B4F9023007EE103AB8EEC77A95
:1029500027EE277ABDEEC77A17EE103A6380B4F9F6
:10296000043007EE103AB8EEC77A67EE277AFDEE2C
:10297000E77A17EE903AA38010BDB4F9003007EE65
:10298000103AB8EEC77ADFED2A7A27EE277ABDEE45
:10299000C77A17EE103A2380B4F9023007EE103AE6
:1029A000B8EEC77A27EE277ABDEEC77A17EE103A4F
:1029B0006380B4F9043007EE103AB8EEC77A67EED8
:1029C000277AFDEEE77A17EE903AA38010BDB4F9AE
:1029D000003007EE103AB8EEC77ADFED167A27EE30
:1029E000277ABDEEC77A17EE103A2380B4F9023089
:1029F00007EE103AB8EEC77A27EE277ABDEEC77A0F
:102A000017EE103A6380B4F9043007EE103AB8EECE
:102A1000C77A67EE277AFDEEE77A17EE903AA38041
:102A200010BD00BF8FC2753D8FC2F53DEC51383EE1
:102A30008FC2753E48E13A3F70B506460D461446D2
:102A400008E02846FFF7E4FE06F8010B013CA4B2BB
:102A50000135EDB2002CF4D170BD00BF38B505468C
:102A60000023272405E02046FFF7D2FE00F00800EF
:102A7000C3B2002BF7D0284628210622FFF7DCFF3F
:102A80002B8803F623432B806B88033B6B80AB883A
:102A9000033BAB802846FFF7D5FE38BD014B0360F2
:102AA000704700BFD041000810B50446FFF7F6FF9D
:102AB000204600F02FFD204610BD00BF00B587B0B6
:102AC00000238DF815301C4B1B7863B10DF11503F5
:102AD0000093012301934FF47A6202921748A621D2
:102AE0003122FEF747F908238DF81630124B1B7878
:102AF00063B10DF116030093012301934FF47A6241
:102B000002920E48A6212D22FEF734F90F238DF8EC
:102B10001730094B1B7863B10DF1170300930123A4
:102B200001934FF47A6202920448A6212C22FEF708
:102B300021F907B05DF804FB0C020020D40100204D
:102B40002DE9F04F2DED028B8BB004460591002549
:102B50002E462F46A846DFF83091DFF830B14FF00F
:102B6000060A19E099F800305BB10094CDF804A092
:102B70004FF47A6302935846A62132220123FEF7CE
:102B800091F9B4F900309844B4F902301F44B4F913
:102B900004301E440135ADB2B5F57A7FE2D3354B32
:102BA00083FB08124FEAE878C8EBA2181FFA88F8EE
:102BB00083FB0725FF17C7EBA515ADB283FB0613F3
:102BC000F617C6EBA314A4B205980021FFF70EFC7C
:102BD0000FFA88F807EE908AF8EEE77A9FED268ADA
:102BE00067EE887AFDEEE77A17EE902A07A8234968
:102BF00012B200F049FD059807A900221346FFF71D
:102C00000FFC05980121FFF7F1FB2DB207EE905A5A
:102C1000F8EEE77A67EE887AFDEEE77A17EE902A0B
:102C200007A8174912B200F02FFD059807A9002246
:102C30000123FFF7F5FB05980221FFF7D7FB24B22C
:102C400007EE104AF8EEC77A27EE888ABDEEC88AEA
:102C500018EE102A07A80B4912B200F015FD0598CE
:102C600007A900220223FFF7DBFB0BB0BDEC028BB0
:102C7000BDE8F08FD34D62109A997940D841000891
:102C8000E0410008E84100080C020020D4010020C7
:102C900030B587B00C468579194B1B7873B30DF1AD
:102CA0001202059263B105AB0093012301934FF427
:102CB0007A620292134829461622FEF7F3F800E0E2
:102CC0000120D8B1E40004F018049DF8123003F09C
:102CD000E7031C438DF812408DF81340084B1B7816
:102CE00063B10DF113030093012301934FF47A6252
:102CF0000292044829461622FEF73CF807B030BD80
:102D00000C020020D4010020F0B585B004460F4627
:102D100016461D468179C21D0F4B1B7853B1009298
:102D2000062301934FF47A6302930C481D2201237A
:102D3000FEF7B8F8E279237A43EA02233B80627A0D
:102D4000A37A43EA02233380E27A237B43EA022315
:102D50002B8005B0F0BD00BF0C020020D401002084
:102D60002DE9F04F2DED028B85B004468B460025F2
:102D70002E462F46A84600F1020A00F1040910E091
:102D80002046214652464B46FFF7BEFFB4F90030BD
:102D90009844B4F902301F44B4F904301E4401359C
:102DA000ADB2B5F57A7FEBD3354B83FB08124FEA12
:102DB000E878C8EBA2181FFA88F883FB0725FF17ED
:102DC000C7EBA515ADB283FB0613F617C6EBA3142C
:102DD000A4B258460321FFF709FB0FFA88F807EE63
:102DE000908AF8EEE77A9FED278A67EE887AFDEE03
:102DF000E77A17EE902A01A8234912B200F044FCAA
:102E0000584601A900220323FFF70AFB5846042174
:102E1000FFF7ECFA2DB207EE905AF8EEE77A67EE7C
:102E2000887AFDEEE77A17EE902A01A8174912B2C8
:102E300000F02AFC584601A900220423FFF7F0FA0B
:102E400058460521FFF7D2FA24B207EE104AF8EEF1
:102E5000C77A27EE888ABDEEC88A18EE102A01A824
:102E60000B4912B200F010FC584601A900220523BC
:102E7000FFF7D6FA05B0BDEC028BBDE8F08F00BFBE
:102E8000D34D6210855F8A3DD8410008E0410008BB
:102E9000E841000830B587B00C468579194B1B789E
:102EA0006BB30DF11202059263B105AB00930123E0
:102EB00001934FF47A620292134829463E22FDF7AD
:102EC000F1FF00E00120D0B104F007049DF81230BA
:102ED00003F0F8031C438DF812408DF81340094BA2
:102EE0001B7863B10DF113030093012301934FF499
:102EF0007A620292044829463E22FDF73BFF07B062
:102F000030BD00BF0C020020D401002010B50446E3
:102F10000321FFF7BDFE20460121FFF7BBFF10BDD7
:102F200030B587B00C4B1A6B42F008021A634FF4AD
:102F30008054019401230293022204920393074DCB
:102F4000284601A9FDF772FA284621460022FDF71E
:102F50002FFC07B030BD00BF00380240000C02401B
:102F600010B592B0174B1A6C42F080521A64A3F558
:102F7000E4331A6842F440421A6001230193029339
:102F8000022407944FF480030893082309934FF415
:102F9000A8730A930B9407230C9301A8FEF74EF92C
:102FA0000F230D930E9400230F934FF4A05310930F
:102FB0004FF4805311930DA80521FEF7E9FB12B0E1
:102FC00010BD00BF0038024008B5FFF76BF9064B93
:102FD000D3F8882042F47002C3F88820FDF77AF90C
:102FE000FFF7BEFF08BD00BF00ED00E030B587B0C1
:102FF00004464F4B03604FF40072828083604FF4AD
:103000008072828103618021818283614023838376
:10301000484B0362828403F560531A6B42F001024D
:103020001A631A6B42F004021A6302230493012309
:10303000029300230393838806AD45F8143D00688E
:103040002946FDF7F3F9A3890193A0682946FDF706
:10305000EDF9A38A019320692946FDF7E7F9A38BCF
:103060000193A0692946FDF7E1F9A38C0193206A39
:103070002946FDF7DBF942F210722F4B1A601A460F
:103080001368002BFCD1A068A1890022FDF790FBFA
:103090004FF47A72284B1A601A461368002BFCD141
:1030A000A068A1890122FDF783FB2068A188002286
:1030B000FDF77EFB4FF47A721F4B1A601A461368B5
:1030C000002BFCD12068A1880122FDF771FB4FF491
:1030D0007A72194B1A601A461368002BFCD12046ED
:1030E00021210022FFF704F92046C0210022FFF72A
:1030F000FFF8204606210022FFF7FAF820461421A7
:103100000022FFF7F5F8204620210022FFF7F0F813
:103110002046FFF759F920460C210022FFF7E8F876
:103120002068A1880022FDF743FB204607B030BD90
:103130000008024000000240580100202DE9F04F35
:1031400095B00646614B0360D0238372A6230376B5
:10315000EE2380F820305E4B1A6B42F002021A63B5
:1031600012230793002708974FF00209CDF8249007
:1031700004230A934FF0400B14AD45F838BDDFF837
:10318000648140462946FDF751F94FF4007ACDF8A5
:1031900018A040462946FDF749F94E4B06934E4B81
:1031A00007930897102309934FF480420A920B97D4
:1031B0000C930D970E97494C0FCD0FC40FCD0FC434
:1031C0000FCD0FC495E8030084E803001123029398
:1031D0000397CDF8109014AC44F84CBD40462146FE
:1031E000FDF724F902970397CDF81090CDF804A0CD
:1031F00040462146FDF71AF94546394C08E0284675
:103200004021FDF715FB642323602368002BFCD1CC
:1032100028464FF40071FDF791FA0128EFD109E03B
:1032200028464021FDF704FB642323602368002B1C
:10323000FCD101E02B4D2A4C28464FF40071FDF7DC
:103240007DFA0128ECD11223029300230393022379
:1032500004930423059314AC402344F84C3D214DC2
:1032600028462146FDF7E2F84FF400730193284603
:103270002146FDF7DBF8164B1A6C42F400121A6473
:103280001A6A42F400121A621A6A22F400121A62CE
:103290001248FDF77DFC8DF804004FF4FA62104BE4
:1032A0001A601A461368002BFCD10C48A62105228F
:1032B0004FF47A63FDF71EFF8DF8040001220A4BDC
:1032C0001A70304615B0BDE8F08F00BFD04100083D
:1032D0000038024000540040801A0600D40100204B
:1032E00058010020000402400C020020F0B599B003
:1032F000764B5A6C42F480425A64754B1A68754B8F
:10330000A3FB0212920C013AB2F1807F0BD2724BF6
:103310005A60F021714A82F8231000229A60072136
:103320001960134600E0012303B1FEE70EA8FFF782
:103330005DFE00248DF81040654B1A68684BA3FBB6
:1033400002139B0B013B9BB2604E326C42F00102B8
:103350003264644D4FF080422A600922EA606B605B
:103360002C61AC606C612846FEF79AFE1C20214659
:103370000522FCF7F7FF1C20FDF736F82846FEF77C
:10338000B5FD336B43F002033363574B0693079449
:1033900018AD202345F84C3DA6F550563046294639
:1033A000FDF744F88023059330462946FDF73EF8A3
:1033B0004FF48073059330462946FDF737F8062011
:1033C000FCF7B2FF172021460422FCF7CBFF1720A1
:1033D000FDF70AF80EA8FEF7F7FF0EA843492246AC
:1033E0002346FFF71DF818230093282301930EA806
:1033F000214622463E4BFFF72FF83E4A3E4B1A60CD
:103400001A68002AFCD105A8FFF798FE06A8FFF766
:103410007DFD0DF12600FFF751FB02A8FFF780FDAF
:103420000025364E344C33788DF80C3073788DF897
:103430000D30B3780135ADB2B5F57A7F09D10DF114
:1034400026000EA9FFF77CFB06A80EA9FFF788FC53
:1034500000259DF80C30032B05D10EA82849002229
:103460001346FEF7DDFF9DF80D70012F06D19DF884
:10347000103013F1FF3318BF012300E000230BB31A
:1034800020484FF480510122FDF792F90EA81E4901
:1034900005221346FEF7C4FF164B23602368002B5A
:1034A000FCD118484FF480510022FDF781F90EA895
:1034B000164905221346FEF7B3FF154B2360236818
:1034C000002BFCD18DF81070ADE700BF0038024032
:1034D0000C00002083DE1B4310E000E000ED00E064
:1034E0005917B7D10C0100200000311050430008DB
:1034F000F041000840420F00580100205401002014
:1035000058430008000C0240684300086C43000860
:1035100020A1070008B100F007B87047014B1868F8
:10352000704700BF74000020024B0146186800F08D
:1035300003B800BF7400002030B500293CD051F81A
:10354000042C0B1F1D49002AB8BF9B180A680C46A3
:1035500012B95A600B6030BD93420DD219685818E9
:10356000904203D15A581144426819605A6023604E
:1035700030BD994203D80A4651680029F9D1146830
:1035800015199D420AD11B682344D0188842136044
:1035900012D10868034413604B680CE002D90C2375
:1035A000036030BD18681C188C4203D10C68496850
:1035B000204418605960536030BD00BF14020020E1
:1035C00070B5CD1C25F0030508350C2D38BF0C2532
:1035D000002D06463FDB8D423DD3214B1C6818462B
:1035E0002146A1B10B685B1B0ED40B2B03D90B60DA
:1035F000CC18CD501FE08C4202D1626802601AE004
:103600004B6863600C4616E00C464968E9E7154CC8
:1036100023681BB9304600F027F820602946304661
:1036200000F022F8431C014615D0C41C24F003040A
:1036300084420AD1256004F10B00231D20F007000D
:10364000C31A0BD05A42E25070BD3046611A00F0E6
:103650000BF80130EED10C233360002070BD00BFA9
:10366000140200201002002038B5064C0023054645
:1036700008462360FEF794FD431C02D1236803B182
:103680002B6038BD180200200EB400B59CB04FF47A
:103690000271ADF814106FF00041049107914FF6DC
:1036A000FF711DABADF81610084953F8042B0290BA
:1036B00006900868019302A900F06EF8029B0022B0
:1036C0001A701CB05DF804EB03B070477400002062
:1036D000034613F8012B002AFBD1181A0138704752
:1036E0002DE9F0478D68AB4281460C4692461F4655
:1036F00043D38B8913F4906F3DD026680969C1EBE1
:1037000006086669022206EB460696FBF2F608F109
:1037100001023A44964238BF16465B050FD5314642
:10372000FFF74EFF054698B12169424600F0F1FAD5
:10373000A38923F4906343F08003A38113E032460E
:1037400000F00BFB054670B948462169FFF7F4FE0F
:103750000C23C9F80030A38943F04003A3814FF044
:10376000FF30BDE8F087256166614544C8EB060679
:103770002560A6603D46AF4200D23D462A462068FD
:10378000514600F0CFFAA3685B1BA36023681D4479
:1037900025600020BDE8F0872DE9F0439DB0074685
:1037A00003938B891C060D4616460CD50B6953B93D
:1037B0004021FFF705FF2860286110B90C233B600A
:1037C000C8E040236B610023099320238DF8293042
:1037D00030238DF82A3033461C4613F8012B1AB9D2
:1037E000B4EB06090FD002E0252AF5D1F8E73846F8
:1037F000294632464B46FFF773FF013000F0A580A3
:10380000099B4B4409932378002B00F09E800023F2
:103810004FF0FF3204930793059206938DF85330CF
:103820001A9304F101094C464D4E21783046052289
:1038300000F060FA09F10109049B28B1861B012000
:10384000B04003430493EEE7D90644BF20228DF82D
:1038500053201A0744BF2B228DF8532022782A2A9E
:1038600002D0079B21460EE0039A111D12680391B6
:10387000002A01DB079204E0524243F00203079260
:10388000049301340AE00C4601312278303A092AC7
:1038900003D80A2000FB0323F5E7079323782E2B98
:1038A0001AD163782A2B0AD1039B1A1D1B68039235
:1038B000002B04F10204B8BF4FF0FF330BE0611C92
:1038C00000230C4601312278303A092A03D80A2015
:1038D00000FB0323F5E70593224E217830460322AF
:1038E00000F008FA30B1861B049B4020B04003432F
:1038F0000493013421781C488DF828100622661C98
:1039000000F0F8F988B1194B33B9039B073323F062
:1039100007030833039314E003AB0093384604A96C
:103920002A46134BAFF3008007E003AB0093384601
:1039300004A92A460E4B00F08FF8B0F1FF3F8046F5
:1039400003D0099B4344099345E7AB895B0601D447
:10395000099801E04FF0FF301DB0BDE8F08300BFD3
:1039600072430008784300087C4300080000000010
:10397000E13600082DE9F84315461F468A680B69B1
:10398000DDF820809A42A8BF13462B6091F84320AF
:1039900006460C460AB101332B602368990602D50E
:1039A0002B6802332B60236813F006091DD094F8AE
:1039B00043302268003318BF012392061FD5E11857
:1039C0005A1C302081F84300224494F8451082F8B4
:1039D0004310023313E03046394604F11902012343
:1039E000C047013007D009F10109E2682B68D31AFA
:1039F0009945F0DBDBE74FF0FF30BDE8F883304658
:103A0000394604F14302C0470130F4D023682A68E4
:103A1000E16803F00603042B08BFC2EB010523692C
:103A2000A2680CBF25EAE57500259A42C4BFC3EB26
:103A30000203ED184FF00009A9450ADA304639466D
:103A400004F11A020123C0470130D4D009F1010961
:103A5000F2E70020BDE8F8832DE9FF470E7E0C9DBC
:103A60006E2E80460C4691469A4601F1430000F0C6
:103A7000A58011D8632E22D009D8002E00F0AF8087
:103A8000582E40F0BF8081F845607B4A4FE0642E9D
:103A90001ED0692E1CD0B5E0732E00F0A48009D88A
:103AA0006F2E2BD0702E40F0AD800B6843F02003BA
:103AB0000B6038E0752E21D0782E34D0A2E02B6830
:103AC0001A1D1B682A6001F1420781F842309DE00F
:103AD00022682B6812F0800F03D01A1D2A601D681F
:103AE00005E05106F9D51A1D2A60B3F90050002DE2
:103AF00039DA2D236D4284F8433034E022682B6894
:103B000012F0800F03D01A1D2A601D6804E05206CF
:103B1000F9D51A1D2A601D88237E574A6F2B14BFC2
:103B20000A2308231BE07823544A84F8453023688D
:103B3000296813F0800F01F104062E6001D00D6892
:103B400002E05F06FBD50D88DE0744BF43F020038B
:103B500023601DB9236823F0200323601023002174
:103B600084F8431001E0444A0A236668A660002EE8
:103B700003DB216821F00401216005B96EB104F175
:103B80004201B5FBF3F603FB16550F46555D01F8F0
:103B900001593546002EF4D100E00746082B0AD122
:103BA0002368DD0707D5626823699A4203DC302366
:103BB00007F8013C013FC01B20612CE009682B681D
:103BC000626911F0800F04D0191D29601B681A600A
:103BD00005E04906F8D5191D29601B681A800023E5
:103BE0002361074617E02B681A1D2A601F683846B4
:103BF000FFF76EFD63682061984288BF23612369E7
:103C0000636005E004F1420784F842600123236108
:103C1000002384F84330CDF800A04046214603AA93
:103C20004B46FFF7A7FE013002D14FF0FF301FE0F7
:103C3000404649463A462369D0470130F5D02368CB
:103C40009B0705D4E068039B9842B8BF18460FE075
:103C50000025E268039BD31A9D42F3DA40464946A9
:103C600004F119020123D0470130DED00135F0E71D
:103C700004B0BDE8F08700BF834300089443000808
:103C800030B5141E9BB0054604DA8B2303604FF059
:103C9000FF301CE04FF4027200910491ADF80C204B
:103CA00014BF04F1FF3121464FF6FF7202910591D6
:103CB000ADF80E2069461A461E9BFFF76DFD431CAA
:103CC000BCBF8B232B6014B1009B00221A701BB069
:103CD00030BD000073B50093054B06460D461446F3
:103CE000186831462A462346FFF7CAFF02B070BD66
:103CF0007400002010B5C9B202449042034606D0B9
:103D00001C788C4200F10100F7D1184610BD00204C
:103D100010BD10B50023934203D0CC5CC4540133D2
:103D2000F9E710BD814270B501D300230EE08C1875
:103D3000A042FAD28518134613F1FF3305D351423E
:103D400066182944F65CCE54F6E770BD934203D062
:103D5000CC5CC4540133F9E770BDF8B5064614468F
:103D60000D4621B91146BDE8F840FFF729BC1AB944
:103D7000FFF7E2FB2046F8BD00F015F8A0420ED296
:103D800030462146FFF71CFC074650B12946224623
:103D9000FFF7BFFF30462946FFF7CEFB01E028467C
:103DA000F8BD3846F8BD51F8040C002802DA043991
:103DB0000B581844043870472E2E2F73797374658E
:103DC0006D2F7372632F73746D333266342D686197
:103DD0006C2F73746D3332663478785F68616C5F12
:103DE000636F727465782E63000000002E2E2F73AF
:103DF000797374656D2F7372632F73746D333266CC
:103E0000342D68616C2F73746D3332663478785F4B
:103E100068616C5F6770696F2E6300002E2E2F73D0
:103E2000797374656D2F7372632F73746D3332669B
:103E3000342D68616C2F73746D3332663478785F1B
:103E400068616C5F6932632E63000000000000004F
:103E50000102030401020304060708092E2E2F7332
:103E6000797374656D2F7372632F73746D3332665B
:103E7000342D68616C2F73746D3332663478785FDB
:103E800068616C5F7263632E630000002E2E2F73D7
:103E9000797374656D2F7372632F73746D3332662B
:103EA000342D68616C2F73746D3332663478785FAB
:103EB00068616C5F7370692E630000002E2E2F7393
:103EC000797374656D2F7372632F73746D333266FB
:103ED000342D68616C2F73746D3332663478785F7B
:103EE00068616C5F74696D2E6300000061626F72BF
:103EF0007428292C2065786974696E672E2E2E002F
:103F00002C2066756E6374696F6E3A2000000000A5
:103F1000617373657274696F6E2022257322206647
:103F200061696C65643A2066696C6520222573229C
:103F30002C206C696E65202564257325730A0000AA
:103F40006173736572745F706172616D2829206698
:103F500061696C65643A2066696C6520222573226C
:103F60002C206C696E652025640A00000A000000A0
:103F70006D61696E28617267633D25642C206172F2
:103F800067763D5B000000002C2000002225732294
:103F9000000000005D293B0A000000000000000056
:103FA00000000000002F00000000070007000014C0
:103FB0007F147F1400242A7F2A12006264081323CE
:103FC00000364955225000000503000000001C2265
:103FD0004100000041221C000014083E08140008A3
:103FE000083E0808000000A0600000080808080853
:103FF000000060600000002010080402003E5149EB
:10400000453E0000427F4000004261514946002188
:1040100041454B31001814127F10002745454539A2
:10402000003C4A49493000017109050300364949FD
:10403000493600064949291E0000363600000000B6
:104040005636000000081422410000141414141401
:1040500000004122140800020151090600324959AA
:10406000513E007C1211127C007F49494936003EC6
:1040700041414122007F4141221C007F4949494181
:10408000007F09090901003E4149497A007F08087B
:10409000087F0000417F4100002040413F01007F38
:1040A00008142241007F40404040007F020C027F04
:1040B000007F0408107F003E4141413E007F090916
:1040C0000906003E4151215E007F0919294600463C
:1040D000494949310001017F0101003F4040403F13
:1040E000001F2040201F003F4038403F006314085D
:1040F0001463000708700807006151494543000038
:104100007F41410000552A552A55000041417F005A
:10411000000402010204004040404040000001024F
:104120000400002054545478007F48444438003838
:104130004444442000384444487F003854545418C0
:1041400000087E0901020018A4A4A47C007F0804D2
:1041500004780000447D4000004080847D00007FA2
:10416000102844000000417F4000007C04180478BF
:10417000007C0804047800384444443800FC2424BB
:1041800024180018242418FC007C080404080048A3
:104190005454542000043F444020003C4040207CC4
:1041A000001C2040201C003C4030403C00442810B3
:1041B0002844001CA0A0A07C004464544C44141467
:1041C000141414140000000000000000000000009F
:1041D0009D2A0008A92A0008583D25640000000017
:1041E000593D2564000000005A3D25640000000090
:1041F0000000000000000000000000000080C0403F
:104200002000101000080808080808080010100016
:104210002040C080000000000000000000000000FE
:104220000000000000000000000000700C0201000F
:10423000000000000000000000000000000000007E
:1042400000000000000001020C70000000000000EF
:104250000000000000000000000000007F000000DF
:1042600080C0E0E0F0F0F0F0E0C00000000000C02E
:10427000E0F0F0F0F0E0E0C0800000007F0000001F
:104280000000000000000000000000000000070027
:10429000186083878787070303030140F0F0F0F07D
:1042A000F040010303030787878783601800070036
:1042B00000000000000000000000000000000000FE
:1042C0000000000000FF001F274888888888884871
:1042D0004848888888888848271F00FF0000000019
:1042E00000000000000000000000000000000000CE
:1042F0000000000000000000030204040800101089
:104300001010101010101000080404020300000028
:10431000000000000000000000000000000000009D
:10432000000000000000000000000000000000008D
:10433000000000000000000000000000000000007D
:10434000000000000000000000000000000000006D
:1043500054524F4C4F4C4F006C6F6E6750757368E2
:1043600020636F6E737400003100000030000000A5
:104370004300232D302B2000686C4C006566674598
:1043800046470030313233343536373839414243CD
:10439000444546003031323334353637383961627E
:0543A000636465660086
:1043A8007856341288000020000000000024F40031
:1043B80000100000000000000000000000000000E5
:1043C80000000000000000000000000000000000E5
:1043D800000000007043000800000000000000001A
:1043E80000000000000000000000000000000000C5
:1043F80000000000000000000000000000000000B5
:1044080000000000000000000000000000000000A4
:0C441800000000001400002032547698D0
:040000050800018965
:00000001FF
