:020000040800F2
:1000000000000220A5020008AD020008B1020008AD
:10001000B5020008B9020008BD0200080000000097
:10002000000000000000000000000000C102000805
:10003000C502000800000000C90200085D52000867
:10004000D9020008D9020008D9020008D902000824
:10005000D9020008D9020008D9020008D902000814
:10006000D9020008D9020008D9020008D902000804
:10007000D9020008D9020008D9020008D9020008F4
:10008000D9020008D9020008D9020008D9020008E4
:10009000D9020008D9020008D9020008315100082D
:1000A000D9020008D9020008D9020008D9020008C4
:1000B000D5020008DD530008C9510008D902000824
:1000C000D9020008D9020008D9020008D9020008A4
:1000D000D9020008D9020008D9020008D902000894
:1000E000D9020008D9020008D9020008D902000884
:1000F000D9020008D9020008D9020008D902000874
:10010000D9020008D9020008D9020008D902000863
:10011000D9020008D9020008D9020008D902000853
:10012000D9020008D9020008D9020008D902000843
:10013000D9020008D9020008D9020008D902000833
:10014000D9020008D9020008D90200086940000855
:10015000D9020008D9020008D9020008D902000813
:10016000D9020008D9020008D9020008D902000803
:10017000D9020008D9020008D902000800000000D6
:10018000D9020008D902000800B53548354B364D74
:10019000364C374A2A60984283B0226007D2C24365
:1001A000134423F003020432002106F0A0FE2B6862
:1001B00003B1FEE72368002BFBD12E482E4B2F4DB9
:1001C0002F4C2B4A2A609842226007D2C243134424
:1001D00023F0030204322B4906F080FE2A682A4BE2
:1001E0009A4200D0FEE7226823689A42FAD1274E4D
:1001F000274D761B05F0F8FFB610684601A903F0FD
:1002000039FF002E07DD043D0024013455F8043F7A
:100210009847B442F9D11F4E1F4D761BB610002EE1
:1002200007DD043D0024013455F8043F9847B442EB
:10023000F9D11A4D1A4C9DE8030006F0B9F8641B79
:10024000A410002C0646C8BF05EB840505DD013C63
:1002500055F8043D9847002CF9D1304603F0D8FEFC
:10026000F8010020FCB30120F8010020F8B30120C0
:10027000BABADECA00000020F4010020000000200D
:10028000F0010020647F000878563412DC02000878
:10029000DC020008E8020008DC020008E8020008AE
:1002A000E802000808B5FFF76FFF00BFFEE700BFD8
:1002B000FEE700BFFEE700BFFEE700BFFEE700BFAE
:1002C000FEE700BFFEE700BFFEE700BFFEE700BF9E
:0C02D000FEE700BFFEE700BFFEE700BF36
:0C02DC0081420008ED4E00085D5900084A
:1002E800704700BF08B50C4B1A6842F400721A60D8
:1002F8001A6842F480621A601A6842F480721A60BE
:100308004FF47A5000F098F8032000F023F8FFF734
:10031800E7FF002008BD00BF003C0240024B1A68FE
:1003280001321A60704700BFFC010020014B1868B9
:10033800704700BFFC01002082B0054A0190116897
:10034800019B194413689942FCD802B0704700BF5A
:10035800FC010020C31E042B10B5044603D909482C
:10036800BA2103F08BFE084AD1684FF6FF030B4011
:1003780043F0BF6304F0070443F4003343EA042363
:10038800D36010BD9078000800ED00E00F2AF8B5A2
:10039800174606460D4629D80F2D2DD81D4BDC686B
:1003A800C4F30224C4F10703221D042B28BF04232D
:1003B800062A18D9033C0122A240013A174001221B
:1003C80002FA03F3013B1D4005FA04F4002E44EA47
:1003D800070716DB06F1604000F561403F01FFB2F8
:1003E80080F80073F8BD00273C46E8E70A48D221A8
:1003F80003F044FE0F2DD1D90748D32103F03EFE68
:10040800CCE7064B06F00F063F013344FFB21F76D8
:10041800F8BD00BF00ED00E090780008FCEC00E0BB
:1004280000F01F0201214009024B01FA02F243F8D1
:100438002020704700E100E00138B0F1807F10B45F
:100448000DD2094B094C5860F02084F82300002293
:10045800072110469A6019605DF8044B7047012027
:100468005DF8044B704700BF10E000E000ED00E0CD
:100478002DE9F84F0B680F460546002B00F0258143
:100488007B68032B17D9A3F11102012A13D9A049BC
:1004980023F400128A420ED001F580118B420AD053
:1004A800A1F570218A4206D09A4A934203D09A480D
:1004B800C42103F0E3FDBB68022B00F20181DFF8E1
:1004C8006482DFF86492002403E00134102C00F009
:1004D800BA8001233E68A3401E409E42F5D17B6846
:1004E80023F01002022A00F084804FEA440A4FF0F9
:1004F800030B29680BFA0AFB6FEA0B0B0BEA0101E5
:100508002960286803F0030101FA0AF1013A01435E
:10051800012A296056D9E968BA680BEA0101E9603D
:10052800E96802FA0AFA4AEA0102D900EA60CCD577
:100538007A49DFF8F8C1486C24F0030202F18042DE
:1005480002F59C3240F48040486404F0030190684E
:1005580089004FF00F0A0AFA01FA20EA0A009060AF
:100568006545906878D0454500F0A0804D4500F07D
:10057800A280DFF8BCC1654500F0AC80DFF8B4C1EB
:10058800654500F0AC80DFF8B0C1654500F0B1808A
:10059800DFF8A8C1654500F0B180DFF8A4C1654562
:1005A80000F0A280DFF89CC1654500F0AC80DFF860
:1005B80098C165450CBF4FF0090C4FF00A0C0CFAB6
:1005C80001F14AE0FA68032A3FD8A9680BEA010159
:1005D800A960A96802FA0AF20A43AA606A6822EACC
:1005E80006026A606968C3F30012A2400A436A609F
:1005F80091E738690D2809D90F2807D04648D62130
:1006080003F03CFD7B68386923F01002E10805EB34
:10061800810104F0070CD1F820B04FEA8C0C4FF0A0
:100628000F0A0AFA0CFA2BEA0A0AC1F820A0D1F834
:1006380020A0D1F820B000FA0CFC4BEA0A0040EAEE
:100648000C00086251E7BDE8F88F3348E72103F052
:1006580015FDFA687B68B8E70021084330499060C7
:100668000A68F04302400A604A6802404A60DA03B6
:1006780002D50A6832430A609A0303D5284A5168AA
:1006880031435160264A916801409160D168084021
:10069800D902D06002D59168314391609B027FF501
:1006A80014AF1F4BDA681643DE600EE74FF0010CFB
:1006B8000CFA01F1D1E74FF0020C0CFA01F1CCE78A
:1006C8001548C52103F0DAFCF9E61348C32103F005
:1006D800D5FCD5E64FF0030C0CFA01F1BDE74FF05D
:1006E800040C0CFA01F1B8E74FF0070C0CFA01F111
:1006F800B3E74FF0050C0CFA01F1AEE74FF0060C2A
:100708000CFA01F1A9E74FF0080C0CFA01F1A4E783
:100718000000111000002210C478000800380240C0
:10072800003C014000040240000802400000024072
:10073800000C024000100240001402400018024061
:10074800001C0240002002400024024038B54B1E25
:10075800012B0C46054628D9042926D0082924D07F
:10076800102922D0202920D040291ED080291CD031
:10077800B1F5807F19D0B1F5007F16D0B1F5806F43
:1007880013D0B1F5006F10D0B1F5805F0DD0B1F581
:10079800005F0AD0B1F5804F07D0B1F5004F04D003
:1007A80005484FF4BB7103F069FC2B691C420CBF70
:1007B8000020012038BD00BFC478000830B54B1EAA
:1007C800012B83B00C4605462AD9042928D00829CC
:1007D80026D0102924D0202922D0402920D08029B1
:1007E8001ED0B1F5807F1BD0B1F5007F18D0B1F5D0
:1007F800806F15D0B1F5006F12D0B1F5805F0FD0C2
:10080800B1F5005F0CD0B1F5804F09D0B1F5004FBC
:1008180006D00B48019240F2971103F02FFC019A81
:10082800012A07D906484FF4CC7103F027FC2C8322
:1008380003B030BD002AFAD16C8303B030BD00BFCD
:10084800C478000838B54B1E012B0C46054628D93C
:10085800042926D0082924D0102922D0202920D0E4
:1008680040291ED080291CD0B1F5807F19D0B1F560
:10087800007F16D0B1F5806F13D0B1F5006F10D09E
:10088800B1F5805F0DD0B1F5005F0AD0B1F5804FAA
:1008980007D0B1F5004F04D004484FF4D77103F0E6
:1008A800EDFB6B695C406C6138BD00BFC478000823
:1008B80070B50C460546FFF739FD061901342A685C
:1008C80005D193699B07FCD4002070BD2A68936901
:1008D800DB4313F00204F7D1FFF728FD8642F5D871
:1008E800012385F8344085F83530032070BD00BFFA
:1008F8002DE9F04706460068089F8A46016841F4DA
:100908008071016090469946FFF710FD791C3568A3
:1009180000EB070439D16C69E207FCD50AF0FE0345
:100928002B61FFF703FD7A1C316800EB070403D045
:1009380038E04B69580539D448698407F9D54B69BB
:100948008B69FFF7F3FC7B1C326800EB07044BD183
:1009580053691B06FCD5B9F1010F0BD04FEA1823D8
:100968001361FFF7E3FCC4190137326840D15369BA
:100978001806FCD55FFA88F313610020BDE8F087FC
:10098800FFF7D4FC84423FD935686B69DB07F7D59C
:10099800C4E74B6913F4806508D1FFF7C7FC8442AC
:1009A8003BD931684B699A07F3D5C8E70B6843F41C
:1009B80000730B604C69042024F480640123002236
:1009C8004C6186F8360086F8342086F8353096F87B
:1009D8003630042B14BF03200120BDE8F087FFF751
:1009E800A5FC844210D9326853691D06F7D5B2E7D1
:1009F80053691906BED4FFF799FC844204D93268BA
:100A080053691906F7D5B5E70122002386F8352082
:100A180086F834300320BDE8F087012386F8345087
:100A280086F83530D3E700BF2DE9F84F0646006851
:100A38000A9F8A46016841F480610160016841F4B7
:100A48008071016090469946FFF770FC791C356803
:100A580000EB070464D16C69E207FCD55FFA8AFAF7
:100A68000AF0FE032B61FFF761FCC519781C346896
:100A780003D062E06369590563D460698007F9D5DA
:100A88006369A369FFF752FC791C326800EB07041D
:100A980074D153691B06FCD5B9F1010F0BD04FEA8D
:100AA80018231361FFF742FCC419781C326877D108
:100AB80053691906FCD55FFA88F31361FFF736FC12
:100AC8007D1C326800EB070461D153691806FCD518
:100AD800136843F480731360FFF728FC7A1C3368AB
:100AE80000EB070465D15A69D207FCD54AF0010228
:100AF8001A61FFF71BFCC4190137336803D07EE085
:100B08005A69540569D45A69D24312F00202F7D1DE
:100B18001046BDE8F88FFFF709FC84424DD93568C7
:100B28006B69DB07F7D599E7636913F4806B08D124
:100B3800FFF7FCFB85424AD9346863699A07F3D505
:100B48009EE7236843F4007323606069042120F45E
:100B5800806001230022606186F8361086F8342010
:100B680086F8353096F83630042B2DD00320BDE8B2
:100B7800F88FFFF7DBFB84421FD9326853691D06E3
:100B8800F7D589E7FFF7D2FB844216D93268536953
:100B98001906F7D59CE7FFF7C9FB84420DD93268DF
:100BA80053691B06F7D586E7FFF7C0FB844204D9D3
:100BB80033685A69D507F7D598E70122002386F8E4
:100BC800352086F83430D1E70120BDE8F88F0123BD
:100BD80086F834B086F83530C4E71A6842F40072F3
:100BE8001A605C69042024F48064012200215C619D
:100BF80086F8360086F8341086F83520B2E75A6948
:100C0800D24312F0020283D05A6912F48065E4D10B
:100C1800FFF78CFB844201D93368F0E7012386F89B
:100C2800345086F835309DE7704700BFF8B5044664
:100C3800002800F0DB8003686D4A93420CD002F56F
:100C48008062934208D002F58062934204D06948DA
:100C580040F2211103F012FA6368674A013B93429C
:100C680000F2A880A36833F4804240F08380E368F0
:100C780023F47F7323F00303002B40F0888023695B
:100C880023F40043B3F5804F04D05A4840F22511AD
:100C980003F0F4F96369012B04D956484FF49371B2
:100CA80003F0ECF9A36933F0FE0640F08980E369AC
:100CB80033F0400704D04F484FF4947103F0DEF945
:100CC800236A33F0800268D194F83530002B6DD058
:100CD80023684A4D022284F835201A6822F001025E
:100CE8001A6001F04BFC464962682368A1FB006169
:100CF800890CAA42596025D85200B0FBF2F0C0F323
:100D08000B020131032A19628CBF84464FF0040C90
:100D1800206AE769E6682169A2696569C3F81CC0A9
:100D2800384331432A4318609960DA601868002212
:100D380040F001000121186084F83620104684F83C
:100D48003510F8BD4FF496772E4EA56807FB01F1D4
:100D5800A6FB0171890901311962002D36D102EB18
:100D68004202B0FBF2F0C0F30B02002A3BD14FF075
:100D7800010CCDE71F4840F2231103F07FF9E36827
:100D880023F47F7323F00303002B3FF478AF194853
:100D98004FF4927103F072F971E7164840F2291185
:100DA80003F06CF994F83530002B91D12046FFF709
:100DB8003BFF8DE70F484FF4917103F05FF951E75E
:100DC8000C4840F2271103F059F970E702EB820250
:100DD80002EB8202B0FBF2F0C0F30B02002AC6D08D
:100DE80040F4404C94E740F4004C91E70120F8BDF2
:100DF80000540040F47800087F1A0600A08601001D
:100E080083DE1B43D34D62102DE9F04782B0012BDE
:100E18001C46054688469146BDF82C7006D0102B16
:100E280004D0464840F2336103F028F995F835605C
:100E3800F6B2012E03D0022002B0BDE8F0870A996D
:100E480009B307B32B689B6913F0020AF3D195F82D
:100E58003430012BEFD032200C9B85F834604146AA
:100E680000934A4685F835002346284685F836A07B
:100E7800FFF73EFD48B195F8363085F834A0042BCD
:100E880001D00320D8E73046D6E7FFF74FFA0C9990
:100E98000C9C2A680131044430D153691B06FCD5E7
:100EA8000A990B7813615369791E5B0789B232D4AA
:100EB8000A9B01330A930F46002FE6D1FFF736FA53
:100EC8000C9B0C9C2A680133044420D153691806F2
:100ED800FCD513680C9943F4007313602846FFF798
:100EE800E7FC0028CDD1012385F8340085F835309A
:100EF800A2E7FFF71BFA844217D92A6853691E062E
:100F0800F7D5CDE7FFF712FA84420ED92A6853695C
:100F18001906F7D5DDE70029D0D00A99023F4B78AA
:100F280013610231BFB20A91C6E70122002385F896
:100F3800352085F8343003207EE700BFF4780008B8
:100F48002DE9F04782B0012B1C460546884691469C
:100F5800BDF82C7006D0102B04D0934840F29D6148
:100F680003F08CF895F83560F6B2012E04D002240F
:100F7800204602B0BDE8F0870A9A12B30FB32B6877
:100F88009B6913F0020AF2D195F83430012BEED0A8
:100F98000C9B85F8346042200093414685F8350063
:100FA80023464A46284685F836A0FFF73DFD044605
:100FB80048B195F8363085F834A0042B01D00324C5
:100FC800D6E73446D4E7012F2B6800F0CF80022FF4
:100FD80000F0D7805A699B69032F60D8012F00F071
:100FE800A680022F7CD0FFF7A1F90C9B0C9E2A68E3
:100FF800013306443AD153695807FCD5136823F4E2
:101008008063136013690A9A1370FFF78FF90C9BBA
:101018000C9E2A680133064431D153695B07FCD51D
:10102800136843F40073136013690A9A53702B68AA
:101038001B6993702B681A6822F400621A60FFF724
:1010480075F90C9A0C9E2B680132064421D19A69D5
:101058009107FCD40122002385F8352085F8343027
:1010680086E7FFF763F9864279D92A6853695907F1
:10107800F7D5C3E7FFF75AF9864270D92A6853694A
:101088005F07F7D5CCE7FFF751F9864240F2848035
:101098002B689B69DB4313F00207F4D0DAE7FFF70C
:1010A80045F90C9B0C9E2A680133064414D15369F8
:1010B8005E06FCD513690A9A13702B685A695207A1
:1010C8002DD40A9B013F0133BFB20A9384E7FFF78F
:1010D8002DF9864243D92A6853695806F7D5E9E7B6
:1010E800FFF724F90C9B0C9E2A680133064412D1A1
:1010F80053695B07FCD5136843F4007313601369E5
:101108000A9A13702B681B69537093E7FFF70EF95F
:10111800864224D92A6853695F07F7D5EBE70A9A0C
:101128001B695370023F0232BFB20A9254E7FFF7BD
:10113800FDF80C9B0C9E2A68013306440BD15369B9
:101148005806FCD513690A9A137073E7FFF7EEF88F
:10115800864204D92A6853695906F7D5F2E701226D
:10116800002385F8352085F8343028E71A6822F4FA
:1011780080621A605A699A691A6842F400721A60A1
:101188002AE71A6822F480621A601A6842F4006238
:101198001A605A699B691FE7012385F8347085F83E
:1011A80035300324E4E600BFF47800082DE9F04F59
:1011B80004468BB0002800F00C820368B3F1A04FFE
:1011C8000CD0044A934209D003488B2102F056FF01
:1011D80004E000BF00000440247900084FF0020832
:1011E8002046264684F8798305F0BCFA206802F088
:1011F80073FA56F8107B0FCE6D460FC596E80F00B0
:1012080085E80F00251D95E80E000995384602F07F
:10121800FFF92068002102F067FA00254FF0010E5F
:101228004FF0030B4FF0040A4FF005094FF0080385
:1012380084F831E084F84DE084F84CE084F869E003
:1012480084F885E084F8A1E084F8BDE084F868803B
:1012580084F8305084F83350A563E563656484F8F6
:101268004F506565A565256684F86B5025676567E9
:10127800E56784F88750C4F88C50C4F89050C4F8D7
:10128800985084F8A350C4F8A850C4F8AC50C4F8D7
:10129800B45084F8BF5084F884B084F8A0A084F8CF
:1012A800BC90C4F8C45084F810314FF0090384F896
:1012B8002C314FF00A030620072184F848314FF0FB
:1012C8000B0384F8D9E084F8F5E084F811E184F898
:1012D8002DE184F849E184F865E184F8D80084F8C0
:1012E800F410C4F8C850C4F8D05084F8DB50C4F8DF
:1012F800E050C4F8E450C4F8EC5084F8F750C4F84F
:10130800FC50C4F80051C4F8085184F81351C4F8CB
:101318001851C4F81C51C4F8245184F82F51C4F84A
:101328003451C4F83851C4F8405184F84B51C4F8CA
:101338005051C4F85451C4F85C5184F8643127689A
:1013480084F881E14FF00E0C0C220D2384F8B8C10B
:1013580084F89DE184F8B9E184F8802184F89C310F
:1013680084F86751C4F86C51C4F87051C4F87851C6
:1013780084F88351C4F88851C4F88C51C4F8945146
:1013880084F89F51C4F8A451C4F8A851C4F8B051C6
:1013980084F8BB51C4F8C051C4F8C451C4F8CC5146
:1013A80084F8D55184F8D451E58684F8D751C4F827
:1013B800DC51C4F8E051C4F8E851C7F8045184F886
:1013C800F0E184F8F151A4F852E084F8F351C4F83C
:1013D800F851C4F8FC51C4F80452C7F8085184F80D
:1013E8000D5284F80C82A4F86E8084F80F52C4F869
:1013F8001452C4F81852C4F82052C7F80C5184F893
:10140800295284F828B2A4F88AB084F82B52C4F878
:101418003052C4F83452C4F83C52C7F8105184F81A
:10142800455284F844A2A4F8A6A084F84752C4F808
:101438004C52C4F85052C4F85852C7F8145184F8A2
:10144800615284F86092A4F8C29084F86352C4F898
:101458006852C4F86C52C4F87452C7F8185184F82A
:101468007C02A4F8DE0084F87D5284F87F52C4F828
:101478008452C4F88852C4F89052C7F81C5184F8B2
:101488009812A4F8FA104FF0080184F8995284F8D9
:101498009B52C4F8A052C4F8A452C4F8AC52C7F87E
:1014A800205184F8B4124FF00801A4F816114FF037
:1014B800090184F8B55284F8B752C4F8BC52C4F88C
:1014C800C052C4F8C852C7F8245184F8D0124FF05B
:1014D8000901A4F832114FF00A0184F8D15284F8B6
:1014E800D352C4F8D852C4F8DC52C4F8E452C7F84E
:1014F800285184F8EC124FF00A01A4F84E114FF06D
:101508000B0184F8ED5284F8EF52C4F8F452C4F891
:10151800F852C4F80053C7F82C5184F808134FF058
:101528000B01A4F86A1184F8095384F80B53C4F822
:101538001053C4F81453C4F81C5304F1100EC7F820
:10154800305184F82423A4F8862184F8255384F89C
:101558002753C4F82C53C4F83053C4F83853C7F889
:10156800345184F84033A4F8A23184F8415384F804
:101578004353C4F84853C4F84C53C4F85453C7F8F9
:10158800385184F85D5384F85CC384F85F53BEE82F
:101598000F00EE46A4F8BEC1C4F86453C4F86853FB
:1015A800C4F87053C7F83C51AEE80F0096E80F0036
:1015B8008EE80F00099E384696E80E0002F0AEF855
:1015C80084F87953206802F09FFC28460BB0BDE8E8
:1015D800F08F01200BB0BDE8F08F00BF90F8783392
:1015E800012B10B5044601D1022010BD012380F85B
:1015F8007833006802F07CFC206802F065F800206F
:1016080084F8780310BD00BF2DE9F04F076887B054
:101618000446384602F0B6FC10B107B0BDE8F08FBA
:10162800206802F07DFC0028F7D0206802F078FCE2
:1016380010F0020F20681EBF436943F002034361A4
:1016480002F06EFC010300F134814FF000082068BD
:1016580002F066FC10F4802F206840F0CE8002F083
:101668005FFC0028C0F21782206802F059FC0105CF
:101678004ED4206802F054FCC3047FD4206802F0E2
:101688004FFC10F4005F20685AD102F049FC10F0BA
:10169800100F206817D0836923F0100383613D6A17
:1016A80005F00F03C3EBC303C5F3434204EB830305
:1016B800022A03F5EA7600F0DA81062A33D0836934
:1016C80043F01003836102F02BFC070700F141810E
:1016D800206802F025FCC60200F12581206802F08E
:1016E8001FFC850200F12A81206802F019FC4000E5
:1016F80000F1D680206802F013FC41078DD52368DD
:101708005D686A0700F198815A6815435D6084E74F
:10171800D7F80838DA0700F194812068436943F460
:1017280000634361A6E7384604F55F71082202F0BA
:101738007DFBB3692068C5F30A152B44B361BEE786
:1017480002F024FC2068C36823F47053C36002F0DD
:10175800B1F82368002840F08181DA68E0604FF42E
:10176800007142F410526161DA60204605F0D4F845
:101778002068436943F40053436186E707F5006630
:101788007368206823F001037360002102F080F879
:1017980065685DB107F510630022FF210132AA4296
:1017A8009960C3F8081203F12003F7D14FF0FF3313
:1017B800B361F269A36A42F00112F261002B00F0F2
:1017C8004481D6F8843043F00B03C6F88430736C38
:1017D80043F00B037364D7F800382068217C23F4A6
:1017E800FE63C7F8003804F55F7202F0EBFB20686F
:1017F800436943F48053436141E702F09DFB83460C
:10180800002800F087814FF00008206803972546DC
:1018180007F5106AC14609E05FEA5B0B09F10109A7
:1018280005F11C050AF1200A00F09C801BF0010F4D
:10183800F2D05FFA89F7394602F090FBC3070646F3
:1018480016D5012303FA09F1039B03F50062C94386
:101858002369516301229342CAF8082000F03881B5
:101868003946204605F04AF82169012900F022810D
:10187800300744BF0823CAF80830F10644BF1023D4
:10188800CAF80830720644BF4023CAF80830B307C4
:1018980044BF0222CAF80820300666D42068BBE795
:1018A800204605F059F82068436943F080434361B6
:1018B80021E7206802F038FB054600283FF4C5AE52
:1018C80007F53066A3464FF0000808E06D0808F1F8
:1018D800010806F120060BF11C0B3FF4B8AEEA072D
:1018E800F4D55FFA88FA5146206802F02DFB10F013
:1018F800010F81460DD0236901229342B26000F0A6
:10190800FB805146204604F0EFFF2169012900F0D1
:10191800E48019F0080F40F0898019F0100F1CBFFF
:101928001022B260D2E720465FFA88F105F010F87D
:101938002068436943F480134361D0E620465FFA88
:1019480088F105F001F82068436943F40013436106
:10195800CBE6204604F0DCFF2068436943F0080327
:101968004361B6E6C846039F79E62368696CD5F8F3
:1019780048C0AA6B049303F5106808EB4918CCEB30
:101988000103934234BF1E461646D8F818E0F01CEF
:1019980048BFB01D1FFA8EFEBEEBA00F40F2BD80FF
:1019A800614540F2BA80002900F0B780E96BCDF8B4
:1019B80014901646A94625464446DDF8108006E0F0
:1019C800D9F844209A421ED9D9F83860D31AB342BC
:1019D80038BF1E462B7C00933A46B3B2404602F00D
:1019E80011FAD9F83C10D9F8483031443344C9F8D1
:1019F8003C10C9F84830A069F21C80B248BFB21D3B
:101A0800B0EBA20FDCD82C464D462068DDF81490C8
:101A1800002E3FF701AF049A02F50061012202FA95
:101A280009F34A6B22EA03034B63F5E6204604F008
:101A380055FF0823B36070E7204604F091FF236840
:101A480062E6204604F078FF67E6736943F00B030B
:101A58007361336943F00B033361BCE6DA68032032
:101A680042F4A0524021E0606161DA607DE647F609
:101A7800F0732B40002B3FF422AE1D092A4638464E
:101A8800F16802F0D3F9F268B36920682A442B445C
:101A9800F260B36113E6D7F8042822F00102204669
:101AA800C7F8042804F04CFF2068436943F000435A
:101AB8004361DAE5B9F1000F7FF4DAAE636C002B0D
:101AC8007FF4D6AE206804F55F7202F07BFACFE6A9
:101AD800EA6BAB6B1344EB63C2E6B8F1000F7FF41B
:101AE80018AFD4F8E831002B7FF413AF206804F561
:101AF8005F7202F067FA0CE73169DBF8DC31DBF87A
:101B0800E021C1F31201591A1344CBF8EC11CBF8B8
:101B1800E031F6E680462068A1E5049878E700BF42
:101B280090F87833012B10B5044601D1022010BD7E
:101B3800012380F87833006802F0CAF9002084F89D
:101B4800780310BD70B50546080620D4C1EBC10066
:101B580005EB800000F5EA74002680F8D411A26035
:101B6800E3706670022B04BF0023237195F8783365
:101B7800012B01D1022070BD0123214685F878335D
:101B8800286801F0B5FE002085F8780370BD01F0E3
:101B98007F01C1EBC100800030302C180126295488
:101BA800A260E370E1806670DCE700BFCAB213068A
:101BB80010B5044619D4C1EBC10300EB830303F548
:101BC800EA73D2095A70197094F87823012A01D15E
:101BD800022010BD0122194684F87823206801F0FC
:101BE800CFFE002084F8780310BD01F07F01C1EB1F
:101BF800C10300EB83033033E3E700BF70B501F0A6
:101C08007F050446C5EBC50004EB800000F5EA71CA
:101C180000264E70CA604B618E6180F8D4512369EA
:101C2800012B08BF0A6194F87823012A11D00122F8
:101C380084F878232068DAB22DB101F0E3FE0020A1
:101C480084F8780370BD02F01FF8002084F8780348
:101C580070BD022070BD00BF01F07F01C1EBC10162
:101C680000EB8100B0F8EC01704700BFF8B501F057
:101C78007F05C5EBC5018900044601F13000211834
:101C8800012600274E70CA604B618F612554236975
:101C9800B34208BF0A6194F87823012A11D00122BF
:101CA80084F878232068DAB22DB101F0ABFE002069
:101CB80084F87803F8BD01F0E7FF002084F8780382
:101CC800F8BD0220F8BD00BFCAB238B513060446F5
:101CD8001CD4C1EBC10300EB830303F5EA730D4683
:101CE800D20901215A701D70997094F878238A429C
:101CF80001D1022038BD84F878132068194602F013
:101D0800A9F85DB1002084F8780338BD01F07F059B
:101D1800C5EBC50300EB83033033E1E72068217C82
:101D280004F55F7202F04EF9ECE700BFCAB238B5AD
:101D3800130604461BD4C1EBC10300EB830303F570
:101D4800EA73D20900255A7019709D7094F87823A7
:101D5800012A01D1022038BD0122194684F87823CE
:101D6800206802F097F884F87853284638BD01F0C7
:101D78007F01C1EBC10300EB83033033E1E700BF10
:101D880030B405686B6AD1B1A86A013903EB104019
:101D98000CD000242346403405EB840401336468E6
:101DA800DBB28B4200EB14401C46F4DB403105EB00
:101DB800810540EA02406860002030BC704743EA71
:101DC8000243AB62002030BC704700BF03680020AC
:101DD8005962704703680F2B2DE9F041044600F261
:101DE800A481DE073FD56368012B06D9052B04D0F3
:101DF800B44840F23F1102F041F9B34B9A6802F03F
:101E08000C02042A00F082819A6802F00C02082A67
:101E180000F07881AD4BAC4E00221A70FEF786FABE
:101E280000F59C55083504E0FEF780FA854240F23B
:101E3800798133689903F7D4A44B22791A706368BF
:101E4800012B00F0DB81FEF771FA00F59C5508358F
:101E58009D4E04E0FEF76AFA854240F263813368DA
:101E68009B03F7D423689F073BD5E368012B04D96C
:101E7800944840F27F1102F001F923691F2B00F208
:101E88007581914B9A6812F00C0F00F02F819A68B7
:101E980002F00C02082A00F02581E368002B00F00C
:101EA8006B818B4B884D01221A60FEF73FFA00F1D7
:101EB800640604E0FEF73AFA864240F233812B6862
:101EC800814A9807F6D51168F82090FAA0F0B0FA80
:101ED80080F02369C0B221F0F80183400B431360FE
:101EE80023681A0700F1D180590748D5A368012B48
:101EF80006D9052B04D073484FF4F17102F0BEF8EF
:101F0800714B744D1A6C42F080521A642B6843F47A
:101F180080732B60FEF70AFA00F1640604E0FEF70E
:101F280005FA864240F2FE802B68DA05F7D56A4B3F
:101F3800654E00221A70FEF7F9F900F59C55083530
:101F480004E0FEF7F3F9854240F2EC80336F9B071B
:101F5800F7D4614B227A1A70A368012B00F03F81F5
:101F6800FEF7E4F900F59C550835574E04E0FEF7F6
:101F7800DDF9854240F2D680336F9807F7D4A3691C
:101F8800022B00F2E980002B7CD04F4DAA6802F0AA
:101F98000C02082A00F0C380022B40F0FD80E369A0
:101FA80033F4800204D0474840F22F2102F066F84B
:101FB800236A3F2B00F20D81636AC03BF02B00F2CD
:101FC8000281A36A23F00402022A08D0042B06D057
:101FD800082B04D03B4840F2322102F04FF8E36A64
:101FE800043B0B2B00F2E9803C4B374D00221A6072
:101FF800FEF79CF900F1640704E0FEF797F98742C1
:1020080040F290802B68304E9901F6D447F6C0789C
:1020180098FAA8F8B8FA88F84FF4403191FAA1F183
:10202800B1FA81F14FF0706292FAA2F2B2FA82F23A
:10203800D4F820C0E769A56AD4F824E0E06A274B01
:102048004CEA07075FFA88F46D080EFA04F4C9B27F
:1020580047F00057013D3C43D2B205FA01F100FABE
:1020680002F221431143012271601A60FEF75EF902
:1020780000F1640403E0FEF759F9844252D9336849
:102088009A01F8D50020BDE8F0816369012B05D9D4
:102098000C484FF4DC7101F0F1FF6369002B4BD061
:1020A8000F4B094D01221A60FEF740F900F1640652
:1020B80003E0FEF73BF9864234D96B6F9F07F8D5EA
:1020C800236811E7647900080038024002380240AA
:1020D80000004742007000407038024060004742EC
:1020E800800E47425B685E023FF5D7AE4B4B1B68DC
:1020F8009D0702D5E368012B11D123681A077FF5E4
:10210800F3AEC2E75B685D027FF584AE434B1B68A4
:1021180098037FF5A7AE6368012B3FF4A3AE0120B7
:10212800BDE8F0810320BDE8F0813D484FF49D7182
:1021380001F0A4FF236854E63A4A384D1360FEF7CD
:10214800F5F800F1640603E0FEF7F0F88642E9D9F5
:102158006B6F9807F8D4B3E7314840F2262101F0B5
:102168008DFFA369002B7FF410AF8BE72C484FF449
:10217800C07101F083FF84E62B4A284D1360FEF7F7
:10218800D5F800F1640603E0FEF7D0F88642C9D915
:102198002B689907F8D4B0E7244B00221A60FEF7A1
:1021A800C5F82C4600F1640503E0FEF7BFF8854248
:1021B800B8D923689B01F8D464E7194840F2332161
:1021C80001F05CFF10E7164840F2312101F056FF9C
:1021D800F7E613484FF40C7101F050FFECE6FEF7F8
:1021E800A5F800F59C5508350C4E03E0FEF79EF85F
:1021F800854297D9336F9F07F8D5C0E6FEF796F862
:1022080000F59C550835054E03E0FEF78FF885422A
:1022180088D933689A03F8D524E600BF003802400D
:1022280064790008800E4742000047426000474238
:10223800294B9A6802F00C02042A10B44AD0082AE2
:1022480014D02648244BF0229B6892FAA2F2B2FAE4
:1022580082F203F0F003D2B223FA02F22049214BB2
:102268008A5C5DF8044BD04018607047586859681C
:1022780000F03F044FF4800292FAA2F2B2FA82F21E
:1022880001F48001D2B231FA02F2596847F6C072FD
:1022980092FAA2F2B2FA82F247F6C07314BF124859
:1022A8000E48D2B20B40D3400B4AB0FBF4F000FB0F
:1022B80003F052684FF4403393FAA3F3B3FA83F36D
:1022C80002F44032DBB222FA03F301335B00B0FBC5
:1022D800F3F0B7E70448B5E7003802400024F400FB
:1022E800547900080C00002000127A00F8B5036841
:1022F800013B0E2B05460C4600F2BC80072C00F271
:10230800B380984B1A6802F00F02944209D9E2B2DE
:102318001A701B6803F00F03A34200F0B18001207C
:10232800F8BD2B68DB0729D56B68022B00F2E68025
:102338008D4A012B126800F0E880022B00F0ED8036
:102348009007ECD5884FBA6822F003021343BB60AC
:10235800FDF7ECFF6B6800F59C56012B06F10806AB
:1023680000F0BC80022B05D1C2E0FDF7DFFF8642FA
:1023780040F2CF80BB6813F00C0FF6D1794BE2B274
:102388001A701B6803F00F03A342C8D12B68990782
:102398001ED5AA6832F0800114D022F020019029BD
:1023A80010D022F04001A0290CD022F01001C02941
:1023B80008D0F02A06D06D4840F2453101F05EFEA3
:1023C800AA682B686849886820F0F00002438A6090
:1023D8005A0718D5EA6832F480510ED022F4006109
:1023E800B1F5A05F09D0B2F5C05F06D05F484FF4E1
:1023F800537101F043FEEA682B685B49886820F452
:10240800E05002438A601B0718D52B6933F48052C9
:102418000DD023F40062B2F5A05F08D0B3F5C05F19
:1024280005D0524840F2533101F028FE2B694E4A3C
:10243800916821F4604141EAC3039360FFF7F8FE15
:102448004B4BA3FB00139B09013BB3F1807F62D286
:10245800484A49485360F02480F823400023072164
:10246800936018461160F8BD404840F2972101F08A
:1024780005FE46E73D4840F2962101F0FFFD3DE7A5
:102488002B68DC0783D56B68022B61D8364A012B91
:10249800126864D0022B58D092077FF540AF324EB5
:1024A800B26822F003021343B360FDF73FFF6B6885
:1024B80000F59C54012B04F1080436D0022B04D1FA
:1024C8003DE0FDF733FF844223D9B36813F00C0FC6
:1024D800F7D15BE7FDF72AFF86421AD9BB6803F0FC
:1024E8000C03042BF6D149E7FDF720FF864210D9EB
:1024F800BB6803F00C03082BF6D13FE71B4840F2FA
:10250800F52101F0BBFD6B6812E797033FF51AAFA1
:1025180005E70320F8BD0020F8BD96013FF512AF8E
:10252800FDE6FDF703FF8442F3D9B36803F00C031B
:10253800042BF6D12AE7FDF7F9FE8442E9D9B368FE
:1025480003F00C03082BF6D120E79101A7D4E6E6A7
:10255800064840F2AD2101F091FD6B6896E79003C3
:102568009DD4DCE6003C0240003802406479000853
:10257800D34D621010E000E000ED00E0314B9A68A6
:1025880002F00C02042A10B459D0082A23D02E4B8A
:102598002C49F0248A6894FAA4F4B4FA84F402F07A
:1025A800F002E4B222FA04F4284A2948145DE34010
:1025B800036088684FF4E05191FAA1F1B1FA81F112
:1025C80000F4E050C9B220FA01F15DF8044B505C08
:1025D80023FA00F070475A68596802F03F004FF438
:1025E800800292FAA2F2B2FA82F201F48001D2B227
:1025F80031FA02F25C6847F6C07292FAA2F2B2FAB5
:1026080082F247F6C07114BF124B0F4BD2B2214071
:10261800D140B3FBF0F303FB01F30A494FF4403216
:10262800496892FAA2F2B2FA82F201F44031D2B2C7
:1026380021FA02F201325200B3FBF2F3A8E7054B8C
:10264800A6E700BF003802400024F40054790008CF
:102658000C00002000127A002DE9F0410446006ABF
:10266800294B0D4620F4807089682A682062266A02
:102678006768E06926F4007620F073089C4246EA11
:10268800012648EA02080BD003F580639C4207D074
:102698006B686760C4F81C80E3632662BDE8F0815C
:1026A800EB6833F0080216D1AB6933F400721BD122
:1026B8006B6933F4807220D1E968AA6926F4006650
:1026C80027F4405746EA012647EA021726F48066AF
:1026D80047EA0317DCE70D4841F2352101F0CEFC4B
:1026E800AB6933F40072E3D0084841F2362101F0B7
:1026F800C5FC6B6933F48072DED0044841F237219F
:1027080001F0BCFC6B69D7E7000001409479000830
:10271800704700BF38B50446002800F0BF80036842
:102728005F4A934236D0B3F1804F33D0A2F57C4252
:1027380093422FD002F5806293422BD002F580623B
:10274800934227D002F58062934223D002F580623B
:1027580093421FD002F5704293421BD002F570528B
:10276800934217D002F58062934213D002F580623B
:1027780093420FD0A2F5983293420BD002F58062B3
:10278800934207D002F58062934203D04548D02196
:1027980001F074FCA36833F0100209D023F0400262
:1027A800202A05D0402B03D03E48D12101F066FCF9
:1027B800236933F480723CD194F83930002B43D02C
:1027C80023683749022284F839208B421A6855D089
:1027D800B3F1804F3CD0A1F57C418B4238D001F554
:1027E80080618B4234D001F580618B4230D001F595
:1027F80078418B422CD001F570518B422CD001F5D9
:1028080080618B4228D001F580618B4224D0A1F5EC
:1028180098318B4220D001F580618B421CD001F5A4
:1028280080618B4218D0E06861681A60D86299624A
:102838001EE0B3F5007FBFD01A48D22101F01EFC7C
:1028480094F83930002BBBD12046FFF761FFB7E77A
:10285800A16822F070020A432169E568606822F4E1
:1028680040721143104A19609342DD62986212D097
:1028780001225A61002084F8392038BDA0682169F6
:1028880022F07002104320F4407001431960E2689E
:10289800DA6262689A6262691A63E9E7012038BD00
:1028A800000001409479000800040140244A0368AC
:1028B800934210B5044638D0B3F1804F35D0A2F515
:1028C8007C42934231D002F5806293422DD002F5CA
:1028D8008062934229D002F58062934225D002F5A6
:1028E8008062934221D002F5704293421DD002F5D6
:1028F8007052934219D002F58062934215D002F5C6
:102908008062934211D0A2F5983293420DD002F51D
:102918008062934209D002F58062934205D009484B
:102928004FF4AD7101F0AAFB2368DA6842F00102A6
:10293800DA601A6842F001021A60002010BD00BF78
:102948000000014094790008704700BF38B504467C
:10295800002800F0C2800368614A934237D0B3F17F
:10296800804F34D0A2F57C42934230D002F5806289
:1029780093422CD002F58062934228D002F58062FF
:10298800934224D002F58062934220D002F570422F
:1029980093421CD002F57052934218D002F580621F
:1029A800934214D002F58062934210D0A2F5983277
:1029B80093420CD002F58062934208D002F58062FF
:1029C800934204D0474840F2E23101F057FBA36834
:1029D80033F010020AD023F04002202A06D0402B00
:1029E80004D0404840F2E33101F048FB236933F456
:1029F80080723CD194F83930002B44D02368384990
:102A0800022284F839208B421A6856D0B3F1804FDD
:102A18003DD0A1F57C418B4239D001F580618B42D4
:102A280035D001F580618B4231D001F578418B4278
:102A38002DD001F570518B422DD001F580618B426C
:102A480029D001F580618B4225D0A1F598318B42C0
:102A580021D001F580618B421DD001F580618B4248
:102A680019D0E06861681A60D86299621FE0B3F50E
:102A7800007FBFD01B484FF4797101F0FFFA94F83A
:102A88003930002BBAD12046FFF75EFFB6E7A168C0
:102A980022F070020A432169E568606822F44072F6
:102AA8001143114A19609342DD62986212D00122E3
:102AB8005A61002084F8392038BDA068216922F0C5
:102AC8007002104320F4407001431960E268DA6232
:102AD80062689A6262691A63E9E7012038BD00BF3B
:102AE80000000140947900080004014090F8383053
:102AF800012B70B504460D466BD00B6802220121EC
:102B0800B3F5805F80F8381080F839200CD0B3F521
:102B1800005F09D033F0300306D0402B04D0B8480A
:102B280040F6EE6101F0AAFA6B68B3F5004F03D0E6
:102B380033F0020240F00381AB6833F4405240F0B6
:102B4800F880EB680F2B00F2EE80236829689A68FA
:102B580022F47F4222F0770240299A6000F00D8229
:102B680039D9702900F0DD816AD9B1F5805F00F0AC
:102B78004B81B1F5005F40F0CF80A24A934218D054
:102B8800B3F1804F15D0A2F57C42934211D002F5E3
:102B9800806293420DD002F58062934209D002F51B
:102BA8007842934205D0964840F6187101F066FACB
:102BB800236898686A68AE68E96820F47F40324301
:102BC800024342EA01229A609A6842F480429A607B
:102BD800A2E0022070BD102974D040F2B9802029EB
:102BE80000F0E380302940F09780864A934220D055
:102BF800B3F1804F1DD0A2F57C42934219D002F563
:102C08008062934215D002F58062934211D002F59A
:102C1800784293420DD002F57052934209D0A2F542
:102C28009432934205D0764840F6527101F026FA64
:102C380023689A6822F0700242F037029A606BE0CB
:102C4800502900F02281602966D16E4A934220D033
:102C5800B3F1804F1DD0A2F57C42934219D002F502
:102C68008062934215D002F58062934211D002F53A
:102C7800784293420DD002F57052934209D0A2F5E2
:102C88009432934205D05E4840F62E7101F0F6F971
:102C980023681A6A6868ED6822F010021A62996956
:102CA8001A6A21F4704122F0A00242EA001241EAB5
:102CB800053199611A629A6822F0700242F067023F
:102CC8009A6029E04F4A934220D0B3F1804F1DD03B
:102CD800A2F57C42934219D002F58062934215D046
:102CE80002F58062934211D002F5784293420DD0EA
:102CF80002F57052934209D0A2F59432934205D05E
:102D08003F4840F6467101F0B9F923689A6822F005
:102D1800700242F017029A600123002084F83930CB
:102D280084F8380070BD364840F6F16101F0A6F924
:102D38000BE733484FF46F6101F0A0F901E70A2B64
:102D48003FF4FAAE2E4840F6EF6101F097F9F3E64A
:102D58000029E1D12B4A934220D0B3F1804F1DD0F6
:102D6800A2F57C42934219D002F58062934215D0B5
:102D780002F58062934211D002F5784293420DD059
:102D880002F57052934209D0A2F59432934205D0CD
:102D98001B484FF4746101F071F923689A6822F0B6
:102DA800700242F007029A60B6E7164A934220D0B2
:102DB800B3F1804F1DD0A2F57C42934219D002F5A1
:102DC8008062934215D002F58062934211D002F5D9
:102DD800784293420DD002F57052934209D0A2F581
:102DE8009432934205D0064840F64C7101F046F9FA
:102DF80023689A6822F0700242F027029A608BE7F3
:102E08009479000800000140824A934238D0B3F117
:102E1800804F35D0A2F57C42934231D002F58062D2
:102E280093422DD002F58062934229D002F5806248
:102E3800934225D002F58062934221D002F5704278
:102E480093421DD002F57052934219D002F5806268
:102E5800934215D002F58062934211D0A2F59832C0
:102E680093420DD002F58062934209D002F5806248
:102E7800934205D0684840F6FD6101F0FFF82368E9
:102E88009A6822F007029A6046E7624A934230D075
:102E9800B3F1804F2DD0A2F57C42934229D002F5A0
:102EA8008062934225D002F58062934221D002F5D8
:102EB800784293421DD002F57052934219D002F520
:102EC8008062934215D002F58062934211D0A2F538
:102ED800983293420DD002F58062934209D002F5F0
:102EE8008062934205D04C4840F6257101F0C6F83F
:102EF80023681A6A196A6E68E86821F00101196284
:102F0800996922F00A0221F0F001324341EA0011E6
:102F180099611A629A6822F0700242F057029A6028
:102F2800FAE63C4A934218D0B3F1804F15D0A2F587
:102F38007C42934211D002F5806293420DD002F593
:102F48008062934209D002F57842934205D0324814
:102F580040F6057101F092F8236898686A68AE68CF
:102F6800E96820F47F403243024342EA01229A6032
:102F78009A6842F077029A60CEE6264A934230D0A9
:102F8800B3F1804F2DD0A2F57C42934229D002F5AF
:102F98008062934225D002F58062934221D002F5E7
:102FA800784293421DD002F57052934219D002F52F
:102FB8008062934215D002F58062934211D0A2F547
:102FC800983293420DD002F58062934209D002F5FF
:102FD8008062934205D0104840F6377101F04EF8F0
:102FE80023681A6A196A6E68E86821F00101196293
:102FF800996922F00A0221F0F001324341EA0011F6
:1030080099611A629A6822F0700242F047029A6047
:1030180082E600BF00000140947900082DE9F041E4
:103028000446006A294B0D4620F0100089682A687A
:103038002062266A6768A06926F0200620F4E64820
:103048009C4246EA011648EA02280BD003F5806341
:103058009C4207D06B686760C4F81880A363266237
:10306800BDE8F081EB6833F0080216D1AB6933F4A0
:1030780000721BD16B6933F4807220D1E968AA69A8
:1030880026F0800627F4406746EA011647EA8207D9
:1030980026F0400647EA8307DCE70D4841F2F111C4
:1030A80000F0ECFFAB6933F40072E3D0084841F25A
:1030B800F21100F0E3FF6B6933F48072DED004484C
:1030C80041F2F31100F0DAFF6B69D7E70000014025
:1030D800947900082DE9F843054632F00C001646AD
:1030E8000C4640F05F81226832F0300122F0100374
:1030F80040F06181A36833F0020104D0BA484FF46C
:10310800376100F0BBFFE36833F0080204D0B6482B
:1031180040F6713100F0B2FF236933F0040704D0A0
:10312800B14840F6723100F0A9FFA36933F400708A
:103138006ED1636933F4807164D195F83830012B0E
:103148005DD00122022385F8382085F839300C2E0D
:103158004DD8DFE816F063004C004C004C00C70067
:103168004C004C004C00F0004C004C004C000D0092
:103178002E689E4B9E4218D0B6F1804F15D0A3F50D
:103188007C439E4211D003F580639E420DD003F527
:1031980080639E4209D003F578439E4205D0924849
:1031A80040F6973100F06AFF2E68306AA1682268FD
:1031B8008E4B20F480503062D6F820907768F06902
:1031C80029F4005920F4E6489E4249EA013948EAC0
:1031D800022800F0F98003F580639E4200F0F48035
:1031E80063687760C6F81C803364C6F820900123B2
:1031F800002085F8393085F83800BDE8F8830220CA
:10320800BDE8F883784840F6743100F037FF94E75A
:10321800754840F6733100F031FF8AE72B68734A2E
:10322800934200F0E580B3F1804F00F0A580A2F54D
:103238007C42934200F0A08002F58062934200F045
:103248009B8002F58062934200F0968002F57842F6
:10325800934200F0DE8002F57052934200F08C80B9
:1032680002F58062934200F0878002F58062934203
:1032780000F08280A2F5983293427DD002F58062F8
:10328800934279D002F58062934275D0564840F651
:103298007F3100F0F3FE2B68A268196A266853484C
:1032A80021F0010119621F6A5968D3F818C027F084
:1032B80002072CF0730C834247EA02024CEA060626
:1032C80003D000F58060834266D1E768606922F028
:1032D80008023A43A76921F44071384322F00402F6
:1032E800014359E02868414B984220D0B0F1804F03
:1032F8001DD0A3F57C43984219D003F5806398420A
:1033080015D003F58063984211D003F578439842AD
:103318000DD003F57053984209D0A3F59433984221
:1033280005D0314840F6873100F0A8FE28682146CC
:10333800FFF774FE5BE728682C4B984218D0B0F171
:10334800804F15D0A3F57C43984211D003F58063D4
:1033580098420DD003F58063984209D003F578436D
:10336800984205D0204840F68F3100F087FE286843
:103378002146FFF771F93AE71A6AA668206822F031
:1033880001021A621A6A59689F6922F0020227F03C
:10339800730C32434CEA0006606859609E615863BA
:1033A8001A6224E7182A3FF49EAE0F4840F66E31A1
:1033B80000F064FE97E6402B3FF49CAE0A4840F6C6
:1033C8006F3100F05BFE95E6636933F4807005D0D9
:1033D800054841F27B2100F051FE636927F48047DC
:1033E80047EA8317FCE600BF947900080000014013
:1033F8001A6A22F001021A621A6A59689F69A66855
:10340800206822F0020227F0730C32434CEA0006CF
:103418005BE71A6A22F001021A621E6A59689F69FC
:10342800A268206826F0020627F0730C32434CEAA3
:1034380000064AE738B5334A0368934204460D4606
:1034480027D0B3F1804F24D0A2F57C42934220D0FC
:1034580002F5806293421CD002F58062934218D034
:1034680002F58062934214D002F58062934210D034
:1034780002F5704293420CD002F57052934208D084
:10348800A2F59432934204D01F4840F2316100F013
:10349800F5FD2B6833F030032BD16B6833F08002D5
:1034A80021D194F83830012B1BD02368022284F8EC
:1034B8003920586820F0700095E806005860586870
:1034C80001435960996821F0800199609868012149
:1034D800104300229860104684F8391084F8382088
:1034E80038BD022038BD084840F2336100F0C6FDFF
:1034F800D7E7402BD1D0044840F2326100F0BEFD3E
:10350800CBE700BF00000140C47900083E4A0368C9
:1035180093422DE9F04105460C4617D0B3F1804F90
:1035280014D0A2F57C42934210D002F580629342F7
:103538000CD002F58062934208D002F5784293429B
:1035480004D0324840F2566100F098FD236833F405
:1035580000624DD1636833F4806243D1A36833F4C9
:1035680040724BD1236933F4805235D1636933F407
:10357800005204D0254840F25B6100F07FFDA3694A
:1035880033F4804222D195F83830012B1BD094E8CF
:10359800040104F110000BC8A768E66848EA0204B1
:1035A8003C43344304430C432A681C430220002351
:1035B800012185F839005464184685F8391085F8D2
:1035C8003830BDE8F0810220BDE8F0810F4840F2B4
:1035D8005C6100F053FDD6E70C4840F25A6100F0F8
:1035E8004DFDC3E709484FF4CB6100F047FDB5E74F
:1035F800064840F2576100F041FDABE7034840F24E
:10360800596100F03BFDADE700000140C4790008B6
:1036180084B030B4089D03AC012D84E80E0027D097
:10362800C268284B42F04002C26001E0013B0DD065
:103638000269002AFADA0269224B42F001020261A9
:1036480001E0013B02D00269D207FAD44FF480337B
:103658008363069B012B07D1836843F00C038360C7
:10366800836843F02003836030BC002004B07047B7
:10367800836B0D9A23F480338363C36823F4840334
:1036880023F04003C360C368012A23F44013C360D6
:1036980012D00C4B01E0013BDBD00269002AFADAB8
:1036A8000269084B42F00102026101E0013BD0D0FF
:1036B8000269D107FAD4CCE7C36843F48013C36026
:1036C800E7E700BF400D0300034600209A6842F078
:1036D80001029A60704700BF034600209A6822F0F2
:1036E80001029A60704700BF08B5C368012923F03A
:1036F800C043C36009D019B9C36843F08043C360AD
:103708003220FCF719FE002008BDC36843F00053BF
:10371800C3603220FCF710FE002008BD84B02DE9FC
:10372800F00708AC84E80E00836BDDF840A0DDF8F4
:103738002CC043F400238363BAF1000F03D1836BD9
:1037480043F4001383630023C0F8003E0D9BD0F8B8
:103758000028C0F80028012B00F5006400F08480E0
:10376800D0F8003843F00303C0F800384FF408736A
:103778000361444B01E0013B02D002699506FAD48B
:10378800102303613F4B01E0013B02D00269D206DE
:10379800FAD400224FF0FF3322616261A361E26133
:1037A80041B3154600F510634FF09049FF261F6896
:1037B8000132002FB4BFC3F800901D608A421D611A
:1037C8009E6003F12003F2D10022164600F5306313
:1037D8004FF090494FF0FF081F680132002FB4BF27
:1037E800C3F800901E608A421E61C3F8088003F186
:1037F8002003F1D12369BCF1010F23F48073236105
:1038080023D000226FF0804382614361BCF1000F36
:1038180003D1836943F01003836181691A4B0E9ABF
:103828000B4383611AB1836943F008038361BAF1DA
:10383800010F05D1836943F0804343F0040383619A
:10384800BDE8F007002004B07047104B2363236BDA
:1038580043F4803343F00303236300226FF0804373
:10386800216B82614361D8E70A9B23B9D0F80038FD
:10387800C0F800387AE7D0F8003843F00103C0F800
:10388800003873E7400D030000383C8000018000D9
:10389800490141F020010161054A01E0013A05D0E2
:1038A800036913F02003F9D11846704703207047C5
:1038B800400D0300D0F8083813F0060300F5006047
:1038C80013D0836803F00603022B0CD0836803F03F
:1038D8000603062B07D0836803F00603042B0CBFEE
:1038E800022000207047032070471846704700BF29
:1038F80070B44B78012B21D00A78D0F81C484FF4CB
:10390800803505FA02F22243C0F81C280A784FF4E1
:10391800306303EB42131A5812040CD41A588C68FB
:10392800C97842F0805242F40042C4F30A042243A8
:1039380042EA81421A50002070BC70470C78A340BC
:10394800D0F81C489BB22343C0F81C380A784FF4BF
:10395800106303EB42131C582404ECD41E588D68E2
:10396800CC7846F08051C5F30A0541F4004129435B
:1039780041EA844141EA82521A5070BC00207047E3
:103988004B78012B30B41DD00C78D0F83C5801226C
:1039980002FA04F425EA0444C0F83C480D78D0F84B
:1039A8001C48AA4024EA0242C0F81C280A784FF4AE
:1039B800306303EB421330BC1A5822F400421A5009
:1039C800002070470C78D0F83C5803FA04F4A4B2ED
:1039D80025EA0404C0F83C480D78D0F81C48AB40F0
:1039E8009BB224EA0303C0F81C380A784FF410632A
:1039F80003EB421330BC1A5822F400421A5000203C
:103A0800704700BF2DE9F0034B78012B77D00E7873
:103A18004F6920244FF4306314FB06360644356999
:103A2800ED0CED0435610E7814FB06360644356955
:103A380025F0FF5525F4C015356197B38D6891F8C9
:103A480000C0904E2F4414FB0C3C013FB7FBF5F728
:103A58008444BFB2DCF810804FEAC74909EA060679
:103A680046EA0806CCF810600E7814FB06330344C7
:103A780005FB07F51C69C5F312052543012A1D61DD
:103A880023D0CB78012B29D00A784FF4306303EB8D
:103A98004213C25842F00442C2500020BDE8F0036D
:103AA80070470D788E6814FB05350544C6F3120679
:103AB8002F693E432E610D7814FB05330344012A18
:103AC8001C6944F400241C61DBD10A78CB6800EB44
:103AD8004212C2F8143BCB78012BD5D1D0F8083864
:103AE8000A7813F4807F4FF4306303EB4213C25813
:103AF8000CBF42F0005242F08052C250C4E74C69F9
:103B0800002C71D091F80080D1F808C05D4E2025B6
:103B18004FF4106315FB0838804404EB0C09D8F8FF
:103B28001070FF0CFF04C8F8107091F8008015FBA6
:103B38000838804409F1FF39D8F8107027F0FF578A
:103B480027F4C017C8F810700F7815FB073707441B
:103B5800B9FBFCFCD7F810804FEACC4C0CEA0606FF
:103B680046EA08063E610E7815FB06360644C4F39D
:103B7800120C37694CEA07073761CE78012E70D0EE
:103B8800012A5DD0CB78012B4CD05CB10D78D0F8F0
:103B98003468012707FA05F53543C0F83458CB785F
:103BA800012B3FD00D784FF4106303EB4513C55834
:103BB80045F00445C550CB78012B7FF46EAFCB6838
:103BC8000978002A7FF469AFA4B20334A4103FF443
:103BD80064AF00EB013000F58050013253F8041B4C
:103BE80001609442F9D158E70F784FF4106320250B
:103BF80015FB073707443E6926F0FF5626F4C01622
:103C08003E610E7815FB06360644376947F40027EF
:103C180037610E7815FB063505442B69DB0CDB0490
:103C28002B61ADE7D0F80838DB0510D40D784FF4D8
:103C3800106303EB4513C55845F00055C550B1E76F
:103C48000D780B6900EB4515C5F81439A7E70D7811
:103C58004FF4106303EB4513C55845F08055C55024
:103C6800A0E70E7815FB06360644376927F0C047EB
:103C780037610E7815FB063303441D6945F000557E
:103C88001D617DE70000F81F4B78012BF0B43CD094
:103C98000E784F6920244FF4306514FB065606440D
:103CA8003369DB0CDB0433610B788E6814FB035437
:103CB8000444236923F0FF5323F4C013236117BB83
:103CC8000D7820244FF4306314FB05350544C6F302
:103CD80012062F6947F400272F610D7814FB05356C
:103CE8000544012A2F6946EA07062E615DD00A7845
:103CF8004FF4306303EB4213F0BCC25842F0044265
:103D0800C250002070474E61DAE74B69002B53D050
:103D180091F800C08C684FF41067202616FB0C7CC5
:103D28008444A342DCF810504FEAD5454FEAC54514
:103D3800CCF810500D7816FB0576064498BF1C4643
:103D4800356925F0FF5525F4C01535610E7888BF13
:103D58004C614FF41065202313FB06560644C4F348
:103D68001204376947F4002737610E7813FB0653AE
:103D780003441D692C431C61012A3BD04B6943B1A4
:103D88000A78D0F83448012505FA02F22243C0F82F
:103D980034280A784FF4106303EB4213F0BCC2587E
:103DA80042F00442C250002070470D78CA6814FBE4
:103DB800053303445A619AE70E784FF410632024C0
:103DC80014FB06360644356925F0FF5525F4C01561
:103DD80035610D7814FB053505442E6946F4002637
:103DE8002E610D7814FB053404442369DB0CDB04D5
:103DF8002361C1E70A780B6900EB4212C2F8143953
:103E0800C7E700BF30B49DF8084064B903339B107E
:103E180009D000F5805000EB0232013451F8045B00
:103E28001560A342F9D1002030BC7047033270B44A
:103E380095100BD000F580560A46002301333468EC
:103E480042F8044B9D42F9D101EB8501084670BC4C
:103E5800704700BF4B78012B0B7870B40CBF4FF440
:103E680010644FF43064202515FB03431A181E58BC
:103E7800002E07DB1A5822F080421A500A7815FBE8
:103E880002420244136843F400130020136070BC1C
:103E9800704700BF4B78012B0B7830B40CBF4FF440
:103EA80010624FF43062202414FB03231D5825F4BC
:103EB80000151D50CB78023B012B06D80B7814FB5C
:103EC8000322135843F080531350002030BC70472E
:103ED800D0F8002822F4FE62C0F80028D0F80028A4
:103EE800090101F4FE631343C0F80038002070474D
:103EF80008B500F500635A6822F0020203205A60F0
:103F0800FCF71AFA002008BD08B500F500635A68E6
:103F180042F0020203205A60FCF70EFA002008BDA6
:103F28004369806918407047D0F8183800F5006078
:103F3800C0691840000C7047D0F81828D0F81C3811
:103F480002EA030080B2704700F5306303EB4111C9
:103F580000F500608B68406918407047D0F8102859
:103F680010B4D0F8344800EB411000F5106324FA7F
:103F780001F0C001C0B29B685DF8044B10431840C3
:103F8800704700BF406900F001007047D0F8002971
:103F980022F4FF6222F0070200F50063C0F800294E
:103FA8009A6802F00602042A05D1D0F8002942F0E6
:103FB8000302C0F800295A6842F480725A6000204F
:103FC800704700BF10B40024C0F8104BD0F8104B55
:103FD80044F40024C0F8104BD0F8104B44F01804F7
:103FE800C0F8104BD0F8104B012944F0C044C0F879
:103FF800104B05D14FF08021C0F8142BC0F8001BDE
:1040080000205DF8044B7047FEE700BF08B5034881
:1040180000F056F80120FFF7F7FF00BFF879000815
:1040280008B50C4B1A68014682B11046CA1C22F02A
:104038000302094902448A4201D81A6008BD02F005
:1040480033FF0C2303604FF0FF3008BD03481860AE
:10405800ECE700BF0002002000FC0120FCB30120B7
:104068000148FDF7D1BA00BF48AF01200122024B39
:1040780002600B60704700BF040000200A4608B5C4
:104088000146024800F004F8FFF7C0FF4C7A000828
:104098000FB400B583B004AB084853F8042B019360
:1040A800802103F087FB002803DD0146034800F068
:1040B80017F803B05DF804EB04B07047080200205D
:1040C80010B5044602F0E4FF0146204600F008F867
:1040D80002480121BDE8104000F002B8847A0008C7
:1040E80030B401B34FF06042D2F8803E13F00103C0
:1040F8001CD0D2F8003E13F0010317D01546002457
:104108001368002BFCD0035D2B7001348C420AD05D
:10411800D5F8803EDB0703D5D5F8003EDB07EFD4A2
:10412800204630BC7047084630BC70471846F8E750
:10413800104A114BD2F8881041F4700110B4C2F83B
:10414800881019680D4C002041F001011960986031
:10415800196821F0847121F4803119605C601C6851
:104168004FF0006124F480241C60D8605DF8044B93
:104178009160704700ED00E00038024010300024E4
:10418800037933B9826801210171536213680B43C3
:10419800136070478368196A41F211120A4042B9E4
:1041A800196A40F244420A401AB91A6822F0010218
:1041B8001A6000220271586A704700BF83685A6A01
:1041C8000260002110465962704700BFF0B5274BC6
:1041D800ADF5C33D9942A9B006463DD8002941D066
:1041E800234D002328AF6C46A5FB0302D20802EB3F
:1041F8008202A3EB42023032E25401338B42F3D104
:104208001C4D62182B794FF0530E452007F8A0EC8F
:1042180002F8010C33B9AA680120536228711368A7
:1042280003431360684600F099FDAB68196A41F2D0
:1042380011120A4042B9196A40F244420A401AB9B6
:104248001A6822F001021A60586A00232B71306044
:104258000DF5C33D29B0F0BD002030600DF5C33D1C
:1042680029B0F0BD28AF6C46CAE700BF9F860100A1
:10427800CDCCCCCC8802002030B51C4C1C4B1D4A40
:10428800A36000232360156C1B48237145F00805C3
:1042980015641A490268A361A1FB0202D20C013A13
:1042A80083B06FF0010192B204F1080061612361EB
:1042B800E361E260FEF72EFAB8B9A368196A41F221
:1042C80011120A4042B9196A40F244420A401AB926
:1042D8001A6822F001021A60002369460848009310
:1042E8000193FFF7A7F803B030BDFEE7880200206E
:1042F800000C0040003802400C00002083DE1B4305
:104308009002002008B580B1D0F8143213B1002310
:10431800C0F8143209B1C0F810120123027080F8F5
:10432800FC3102F021FB002008BD022008BD00BFBF
:1043380019B1C0F81412002070470220704700BF5E
:1043480008B502F041FB002008BD00BF08B5D0F851
:10435800143213B11B68984708B1022008BD08BD84
:1043680008B5D0F814325B689847002008BD00BF34
:1043780038B5044600F50275284600F0C9FA94F8E5
:104388000812B4F80E32C4F8F831012201F01F0304
:104398009342C4F8F42115D00ED3022B06D0204640
:1043A80001F0800102F02AFB002038BD2046294692
:1043B80000F054FA002038BD2046294600F0E0F805
:1043C800002038BD2046294600F02AFA002038BDD2
:1043D80010B51346044629B9D0F8F421032A0CD0A5
:1043E800002010BDD0F814329B69002BF8D090F84B
:1043F800FC21032AF4D19847F2E7D0F80C11D0F841
:10440800102191420CD8D0F814321B691BB190F8D6
:10441800FC21032A0FD0204600F0E2FA002010BD4C
:10442800891A914238BF0A4692B2C0F80C1119464F
:1044380000F0CEFAD4E79847EDE700BF70B5134611
:10444800044649B9D0F8F421022A15D094F800326C
:10445800012B0CD0002070BDD0F814325B69002B02
:10446800F8D090F8FC21032AF4D19847F2E700230A
:1044780084F80032002070BDC269056AAA421DD8BE
:104488008369B3FBF5F605FB16365EB99D4209D87C
:10449800D0F8F821934205D2324600F081FAC4F8E8
:1044A800F861D3E7D4F81432DB681BB194F8FC2127
:1044B800032A0AD0204600F09FFAC7E7521BC261C0
:1044C800194692B200F06CFAC0E720469847F1E727
:1044D80038B50021044640231D460A4602F07CFAFE
:1044E8002B460022C4F810512046802102F074FAAD
:1044F800D4F818322562012284F8FC212BB1D4F8B3
:10450800143221795B6820469847002038BD00BFE7
:1045180001740020704700BF90F8FC2180F8FD214D
:10452800042380F8FC310020704700BF03460020B8
:1045380093F8FD2183F8FC21704700BF08B590F877
:10454800FC21032A01D0002008BDD0F81432DB6911
:10455800002BF8D09847002008BD00BF0020704706
:10456800002070470020704708B50121D0F81422B8
:1045780080F8FC11526801799047002008BD00BFFF
:1045880030B54B7883B00D460446092B0CD8DFE8CC
:1045980003F0364A0B5B0B05690B7F16AB881BB91A
:1045A800EB88002B00F081808021204602F026FA5B
:1045B8002046002102F022FA002003B030BDA9787D
:1045C800964D01292970EFD890F8FC31022B00F0A4
:1045D8008A80032BE8D1002900F01681416801295F
:1045E80009D0C9B2FFF7BCFE297861602046FFF701
:1045F800ADFE0228D8D0204600F0F2F9DCE790F8AA
:10460800FC310122023B93424FF00301CCD8D0F891
:104618000432C26003B1C160204604F10C010222D9
:1046280000F0B0F9C8E790F8FC31023B012BBBD889
:104638006B88012BC0D1D0F8143200229B68C0F8D7
:10464800042229469847D6E76B88012BB4D1D0F8C5
:104658001422C0F80432294693689847204600F08F
:10466800BFF9A9E76A88130A013B062B9CD801A168
:1046780051F823F05D4700087F4700086D470008A0
:10468800B1450008B1450008474700080947000838
:10469800EA88012A88D190F8FC31022B1CD0032B20
:1046A80082D1011D00F06EF986E790F8FC31AD78F3
:1046B800032B05F07F053FF477AF80F8FE512946BC
:1046C80002F0C0F9204600F08BF9002D00F08F8031
:1046D800022384F8FC316FE70146002341F8083FC4
:1046E80000F050F968E7002985D0012103234160D3
:1046F80080F8FC31FFF72AFE02287FF47CAF53E7ED
:10470800037C002B7FF450AFD0F8143268461B6B43
:104718009847072301464370BDF80030002B3FF44B
:104728004BAFEA88002A3FF447AF9A4238BF134696
:104738001A462046ADF8003000F024F93CE7037C27
:10474800002B7FF431AFD0F8143268465B6B984782
:104758000146E1E7D0F81032007C1B6869469847AB
:104768000146D9E7D2B2052A3FF61EAFDFE802F0CC
:10477800271F170F372F037C002B3CD1D0F814329A
:1047880068469B6A9847022301464370C4E7D0F8FD
:104798001032007C1B69694698470146BCE7D0F88F
:1047A8001032007CDB68694698470146B4E7D0F8C8
:1047B8001032007C9B68694698470146ACE7D0F800
:1047C8001032007C5B68694698470146A4E7D0F838
:1047D8001032007C9B696946984701469CE7D0F8EF
:1047E8001032007C5B6969469847014694E70123CB
:1047F80084F8FC31E0E6D0F814326846DB6A984762
:1048080002230146437087E70223416080F8FC31A8
:10481800FFF7A6FD204600F0E3F8CDE6CC02002025
:1048280038B590F8FC31032B04460D4602D10B79BC
:10483800012B08D9802102F0E1F82046002102F07E
:10484800DDF8002038BDD0F814329B689847EB8813
:10485800002BF6D1204600F0C3F8F2E738B54B78C4
:104868008A88012B0C460546D1B223D018D3032BD6
:1048780014D190F8FC31022B16D0032B3FD163885A
:104888001BB94A0601D002F0B9F8D5F8143221460E
:104898009B6828469847284600F0A2F8002038BDB3
:1048A80090F8FC31022B13D14A06F7D002F0A6F893
:1048B800002038BD90F8FC31022BF5D0032B1ED117
:1048C8006388002BEAD14B06E5D002F09FF8DCE7BD
:1048D800032B14D101F07F0400EB041413064CBF22
:1048E800143404F5827402F099F8003018BF0120DE
:1048F800206021462846022200F044F8CEE78021B5
:1049080002F07CF82846002102F078F8D0E700BFD2
:104918000B7803704B784370CA788B7803EB0223CB
:1049280043804A790B7903EB02238380CA798B7918
:1049380003EB0223C380704730B4F0B10378F3B1BE
:104948000446002314F8015F0133DBB2002DF9D1CE
:104958005B000233DCB2032513800C704D700278C3
:104968005AB1022300255C1CE4B2CA540D5510F854
:10497800012F0233DBB2002AF5D130BC7047022484
:104988002346E8E738B5134602250A468361C36122
:10499800C0F8F451002102F05DF8002038BD00BFD6
:1049A80008B513460A46002102F054F8002008BD55
:1049B80038B5134603250A46C0F80831C0F80C314B
:1049C800C0F8F451002102F04DF8002038BD00BFB6
:1049D80008B513460A46002102F044F8002008BD35
:1049E80008B500210423C0F8F4310A460B4602F04A
:1049F80031F8002008BD00BF08B500210523C0F824
:104A0800F4310A460B4602F02DF8002008BD00BF1D
:104A1800D0F818321BB10020C3F8140270470220E6
:104A2800704700BFD0F81C3210B5D0F818425BB1FF
:104A380094F80002FF2807D09B6894F801222146C9
:104A48009847FF2384F80032002010BD43230380D9
:104A58000048704710000020432303800048704737
:104A6800DC000020432303800048704798000020A2
:104A78000A230380004870478C00002038B504469C
:104A8800D0F8185201F0F6FFD4F81832C5F80C0225
:104A98004BB1D4F81C32D5F80402DB6805F5037174
:104AA8009847002038BD022038BD00BF70B50B788C
:104AB800D0F8186203F06002202A0C4605460DD192
:104AC800C98869B11B0613D4637886F80032E38875
:104AD80086F80132E2883146FFF76AFF002070BD90
:104AE800D0F81C3260789B680A469847002070BD51
:104AF800D0F81C3260789B680A46314698472846A9
:104B08003146E288FFF73EFF002070BD10B58121D5
:104B1800044601F06BFF0121204601F067FF2046A3
:104B2800822101F063FFD4F8183253B1D4F81C3253
:104B38005B689847D4F8180202F0C4F90023C4F857
:104B48001832002010BD00BFF8B5037C044681214F
:104B5800022263BB4FF4007301F03EFF204601219F
:104B680002224FF4007301F037FF82210322082349
:104B7800204601F031FF4FF4077002F09BF905461B
:104B8800C4F8180218B3D4F81C321B689847277C5D
:104B9800D5F804220026C5F814622046C5F8186224
:104BA800012177B1402301F05DFF3046F8BD402375
:104BB80001F012FF204601210222402301F00CFFE0
:104BC800D3E74FF4007301F04DFF3846F8BD0120DC
:104BD800F8BD00BF19B1C0F81C12002070470220B0
:104BE800704700BFD0F818320020C3F80812C3F885
:104BF80010227047D0F818320020C3F8041270470A
:104C0800D0F8183210B583B1D3F814420CB1012092
:104C180010BD0122C3F814228121D3F80822B3F869
:104C2800103201F017FF204610BD022010BD00BF52
:104C3800D0F8183210B57BB1047CD3F804220121D6
:104C480024B1402301F00EFF002010BD4FF4007383
:104C580001F008FF204610BD022010BD002070475B
:104C6800054B0A68C3F804220020012283F80822B1
:104C7800C3F80002704700BFD002002008B50449FD
:104C88000448FFF7B7FF044B01221A70002008BD43
:104C9800D002002014AD012044AF01202028F0B438
:104CA80014D021280FD1154B1A680A701A68120AF5
:104CB8004A705A888A70DA78CA701A790A715A79E9
:104CC8004A719B798B710020F0BC70478F784E78C1
:104CD8000D78CC7891F804C048798A79074B390463
:104CE80041EA0621294341EA0461587183F804C066
:104CF8009A7100201960F0BC704700BF3001002095
:104D080038B5144C94F90832D3B1D4F80022D4F849
:104D18000452AD1AA942B8BF0D46002D0EDDA118E8
:104D28002A4602F0D7F8D4F80032D4F804222B44EB
:104D38009342C4F8003205DA284638BD002038BD51
:104D4800184638BD0023044884F80832FFF770FF7E
:104D5800284638BDD002002014AD0120B1F5007FEF
:104D68002DE9F0470D46804625DD4B1E23F4FF73E1
:104D780023F00103DFF8889003F5007A0024D9F8BE
:104D880018722E1BB6F5007FA8BF4FF4007608EB0B
:104D9800040147B3D7F81432002BFBD11848B2B23C
:104DA800FFF720FF1648FFF72BFFE0B9D7F81432BA
:104DB800002BFBD118E0124BD3F81842E4B1D4F819
:104DC8001432002BFBD141460D48AAB2FFF70AFF67
:104DD8000B48FFF715FF78B9D4F81432002BFBD134
:104DE8002846BDE8F08726B904F500745445C6D1B5
:104DF800F6E72046BDE8F0870020BDE8F08700BF51
:104E080014AD0120F0B5344A344E576C002347F0F6
:104E1800010743F65E44C82157649BB00660C4602E
:104E280041600361836043610546FDF773FC002818
:104E380051D12B68196A41F211120A4042B9196A14
:104E480040F244420A401AB91A6822F001021A6074
:104E58001AA94FF4805341F85C3D2846FDF746FEF9
:104E680028460024FDF772FD01A928460194029402
:104E7800FEF7E0FA4FF400530CA9284611930C945E
:104E88000D940E940F94109412946026FEF73EFB36
:104E9800224640F22D3313A92846139614931594ED
:104EA8001694179418941994FEF714F90A4B0C48A1
:104EB8001A6B42F010021A634FF4007602220123A3
:104EC80007A909940A94079608920B93FBF7D0FA5E
:104ED80028461BB0F0BDFEE7003802400000014044
:104EE8000010024008B50248FFF78CFF08BD00BF5C
:104EF800E004002038B5044600220068A188FBF7CA
:104F08005DFC632300BF013B13F0FF03FAD1206966
:104F1800A18A0122FBF752FC632300BF013B13F077
:104F2800FF03FAD10825A069A18B0022FBF746FCF4
:104F3800206AA18C0022FBF741FC632300BF013BE0
:104F480013F0FF03FAD1206AA18C0122FBF736FC8B
:104F5800632300BF013B13F0FF03FAD16B1E13F06C
:104F6800FF05E0D12068A1880122BDE83840FBF7A1
:104F780025BC00BFF8B505460C460068A988002284
:104F8800FBF71CFC632300BF013B13F0FF03FAD1BE
:104F98002869A98A0122FBF711FC632300BF013BA2
:104FA80013F0FF03FAD1082724F07F0606F0FF026A
:104FB800A869A98B2EB30122FBF700FC6400286ABC
:104FC800A98C0022FBF7FAFBE4B2632300BF013B84
:104FD80013F0FF03FAD1286AA98C0122FBF7EEFB34
:104FE800632300BF013B13F0FF03FAD17B1E13F0CC
:104FF800FF07D9D12868A9880122BDE8F840FBF746
:10500800DDBBFBF7DBFBD9E738B505464FF4FC748D
:10501800013C2846A4B2FFF76DFF002CF8D138BD3B
:10502800F8B505460C4616460068A9880022FBF725
:10503800C5FB632300BF013B13F0FF03FAD1002E29
:105048003BD132462869A98AFBF7B8FB632300BF26
:10505800013B13F0FF03FAD1082724F07F0606F07E
:10506800FF02A869A98B2EB30122FBF7A7FB6400F6
:10507800286AA98C0022FBF7A1FBE4B2632300BFD6
:10508800013B13F0FF03FAD1286AA98C0122FBF730
:1050980095FB632300BF013B13F0FF03FAD17B1E8E
:1050A80013F0FF07D9D12868A9880122BDE8F84084
:1050B800FBF784BBFBF782FBD9E72869A98A0122A1
:1050C800FBF77CFBC2E700BF2DE9F04114460F4611
:1050D800002243F0400104EB44040646FFF7A0FF1A
:1050E800610061F07F0101F0FE0130460022FFF708
:1050F80097FF3B789BB1DFF82C80203BDDB205EBB6
:10510800450508EB45050024295D30460134FFF7C5
:1051180031FF062CF8D117F8013F002BEDD1BDE87F
:10512800F08100BFA87A0008214B5A6992060CD575
:105138002021204A596113691F4998062CD41F4B16
:1051480001204FF47A7208701A60194B5A691206D6
:105158000CD58021174A596113691749180616D4C6
:10516800164B01204FF47A7248705A60104B5A69F6
:10517800D2050BD54FF480710E4A596113690E4957
:10518800DB050ED50D4A00238B70936070470B4AE0
:1051980000234B705360E9E7084A00230B70136043
:1051A800D3E7064B01204FF47A7288709A607047F3
:1051B800003C01400004024064050020580500201E
:1051C800214B1B68DA68D20700D470471F4A116860
:1051D80059B11168013911601168B1F5167F2BD0EA
:1051E800116811B91A49032008705068174958B155
:1051F8004868013848604868B0F5167F18D0496893
:1052080011B91349032048709168104A59B191683F
:10521800013991609168B1F5167F11D0926812B981
:105228000B4A032191701A6922F001021A61704732
:10523800074902204870E7E7054902200870D4E7CB
:10524800034A02219170EEE71C0500205805002052
:1052580064050020074B1A6812B11A68013A1A60EF
:10526800054B1A8892B21AB11A88013A92B21A807A
:10527800FBF754B868050020DC04002030B4002295
:10528800064D074C0749056044608160C2600261B1
:1052980042618261C261026230BC70476F12833A18
:1052A800A69B443B9A99993E2DE9F04790F8A13086
:1052B800DBB2012B08BF80F8A53004461C3000F093
:1052C8006FFD204600F064FF04F1400000F018FE76
:1052D80004F5D333B3F82821B3F82A1192B29142D6
:1052E80066D9B3F82821B4F81CA0B4F81E90B4F815
:1052F8002080B4F800C06788A688B4F84050B4F895
:105308004200B4F8441092B202EBC20204EB42022B
:10531800A2F848A1B3F8282192B202EBC20204EB2A
:105328004202A2F84A91B3F8282192B202EBC202D3
:1053380004EB4202A2F84C81B3F8282192B202EBA6
:10534800C20204EB4202A2F84EC1B3F8282192B27D
:1053580002EBC20204EB4202A2F85071B3F8282112
:1053680092B202EBC20204EB4202A2F85261B3F815
:10537800282192B202EBC20204EB4202A2F8545175
:10538800B3F8282192B202EBC20204EB4202A2F85F
:105398005601B3F8282192B202EBC20204EB420292
:1053A800A2F85811B3F82821013292B2A3F82821A3
:1053B800074B1A88013292B20121C82A1A8084F850
:1053C800A11003D1002284F8A2101A80BDE8F0874A
:1053D80010AD01202DE9F04F564E06F5D33583B0B8
:1053E800D5F82C31DB68DB0702D403B0BDE8F08FB9
:1053F80096F8A1304F4CDBB2012B04F11C0008BF1A
:1054080086F8A53000F0CCFC204600F0C1FE04F17F
:10541800400000F075FDB5F82821B5F82A1192B2C0
:10542800914204F5D33317D8434B42481A880132C6
:1054380092B20121C82A1A8086F8A11003D100224D
:1054480080F8A2101A80D5F82C311A6922F00102CE
:105458001A6103B0BDE8F08FB3F82821B4F81CB086
:10546800B4F81EA0B4F82090B4F80080B4F802C0D4
:10547800A788B4F84000B4F84210009192B202EB49
:10548800C20204EB4202B4F84410A2F848B1B3F8DF
:105498002821019192B202EBC20204EB4202009968
:1054A800A2F84AA1B3F8282192B202EBC20204EB97
:1054B8004202A2F84C91B3F8282192B202EBC20240
:1054C80004EB4202A2F84E81B3F8282192B202EB13
:1054D800C20204EB4202A2F850C1B3F8282192B2EA
:1054E80002EBC20204EB4202A2F85271B3F828217F
:1054F80092B202EBC20204EB4202A2F85401B3F8E2
:10550800282192B202EBC20204EB4202A2F8561121
:10551800B3F8282192B202EBC20204EB4204019ACA
:10552800A4F85821B3F82821013292B2A3F828210F
:105538007AE700BFA805002010AD012030B590F82B
:10554800A53085B00025012B0446029537D090F888
:10555800A430012B02D0284605B030BD90F8A33006
:10556800012BF8D190F8A130012BF4D11648FEF7A1
:1055780025FE04AB042143F8080D1846FFF7EEFB9F
:10558800062104F11C00FFF7E9FB06212046FFF77E
:10559800E5FB062104F14000FFF7E0FBD4E9120126
:1055A80001F048FB04AB022123F8100D6846FFF711
:1055B800D5FB84F8A15084F8A4501220CCE780F8D9
:1055C800A550284605B030BD8802002000F5D3302C
:1055D80041F27073994228BF19460022A0F82A1197
:1055E800A0F82821704700BF2DE9F04700F5D33710
:1055F80041F21112D7F82C31196A0A4096B00546C3
:105608002AB9196A40F244420A40002A51D0B7F830
:105618002A21002A41D005F5D33606F595760024CF
:1056280004EBC4035B0003F5A473E918EA5A4B883A
:10563800B1F804A0B1F80690B1F80880B1F80AC032
:10564800B1F80CE0C889098A0FFA8CFC0FFA8EFEB3
:1056580000B209B20FFA8AFA0FFA89F90FFA88F834
:105668001BB212B2CDF80CC0CDF810E0059006912F
:10567800CDF800A01149CDF80490CDF8088009A80C
:1056880001F0E2FC81B209A8FFF768FB0134338816
:10569800A4B2A342C4D8D7F82C310022A7F82821F5
:1056A8001968A7F82A2141F001021A6016B0BDE86E
:1056B800F0871A6822F001021A60A8E7D07C000877
:1056C8001C300121642200F093B900BF38B5D02204
:1056D8000025A6230446027580F834308583C583E7
:1056E8000584403000F052FC04F1680000F070FBC3
:1056F800EE2384F8A03004F1A800FFF7BFFD04F101
:10570800DC00FFF7BBFD0A4B84F8A150002284F8A7
:10571800A35084F8A45084F8A550C4E94A23C4E9E6
:105728004C23C4E94E23C4E95023204638BD00BFAA
:10573800008066402DE9F0437C4B7D4A7D49196025
:1057480087B0116B7C4C5C6006AD41F002014FF0F4
:105758004009116345F8149D002610224FF0120CE1
:105768004FF0040E02244FF4804829460746734838
:10577800DA609A61CDF808C0CDF814E0C3F810805B
:105788009E605E61DE611E6204944FF400780396A9
:10579800FAF76EFE29466948CDF80480FAF768FEE4
:1057A80011232946654802930494CDF80490039682
:1057B800FAF75EFE29466148049402960396CDF8EE
:1057C8000480FAF755FE5D485D4C4FF40071FAF716
:1057D800BDFF01280FD059484021FBF733F80123BA
:1057E80023602368002BFCD154484FF40071FAF76A
:1057F800ADFF0128EFD151484FF40071FAF7A6FF29
:1058080001280FD04D484021FBF71CF801232360E5
:105818002368002BFCD149484FF40071FAF796FF32
:105828000128EFD112214FF0000E04224023022656
:10583800424802912946CDF80CE00592019304965E
:10584800FAF716FE4FF4007329463C480193FAF71D
:105858000FFE374B35481A6C42F400121A641A6A64
:1058680042F400121A621A6A22F400121A62FBF752
:10587800DDF98DF8040026602568002DFCD1314B38
:10588800012238461A7000F0E5FB07F11C0000F011
:1058980067F807F1400000F08FFB07F1680000F09F
:1058A800B5FA234B28481C6C284A294944F00204BD
:1058B8001C640368A2FB03039B0B07F5D334013B6D
:1058C80063229BB204F59676C4F83821C4F83C519B
:1058D800C4F83451C4F84051C4F82C11C4F830311C
:1058E8003046FCF717FF024600B1FEE71D200421F1
:1058F800FAF74CFD1D20FAF793FD3046FCF7D6FF6A
:1059080090B9D4F82C31196A41F211120A4042B9FF
:10591800196A40F244420A401AB91A6822F0010290
:105928001A6007B0BDE8F083FEE700BF6C050020F1
:105938000038024000540040801A0600000402406B
:1059480068050020A40500200C0000205917B7D1D5
:10595800000400400148FFF7B9BE00BFA8050020B9
:1059680070B5214C86B0237800228DF810203BB901
:1059780001238DF8153001238DF8153006B070BD60
:1059880004AB01254FF4C8768DE8280031222B4658
:1059980002961648A621FBF737FA23788DF81500EA
:1059A80008228DF81620002BE5D00DF116038DE89E
:1059B80068002D222B460D48A621FBF725FA2378EF
:1059C8008DF815001D228DF81720002BD6D00DF16B
:1059D80017020092019502962B46A6212C22034815
:1059E800FBF712FA06B070BDA40500206C05002074
:1059F8002DE9F04F2DED048BB9B00026054617921E
:105A08001A961B961C9624962596269627962896CF
:105A1800299651B916211F220E23C1800281438184
:105A280039B0BDEC048BBDE8F08FDFF800E20B96CF
:105A3800BEE80F002BAF0FC7BEE80F000FC7DEF898
:105A480000303B7000260027CDE90C672BA84FF4E7
:105A58007A774FF61846202109971496FFF77EF9B2
:105A68000B9F119710970A97DDE90C67CDE912672C
:105A7800CDE90E67099F149EDFF8B481684C15972D
:105A8800BA461696B3460A9E179F731C9BB20A9392
:105A98001BB2BB4200F3D0800B260DF1600906272C
:105AA80098F80030002B40F0AE8001232360236873
:105AB800002BFCD1B5F800E06988BDF86420AB88FC
:105AC800BDF860C0BDF862001344E6440144721E8C
