:020000040800F2
:1000000000000220A5020008AD020008B1020008AD
:10001000B5020008B9020008BD0200080000000097
:10002000000000000000000000000000C102000805
:10003000C502000800000000C9020008D9790008C4
:10004000D9020008D9020008D9020008D902000824
:10005000D9020008D9020008D9020008D902000814
:10006000D9020008D9020008D9020008D902000804
:10007000D9020008D9020008D9020008D9020008F4
:10008000D9020008D9020008D9020008D9020008E4
:10009000D9020008D9020008D9020008AD7800088A
:1000A000D9020008D9020008D9020008D9020008C4
:1000B000D5020008D18B0008457900086D8300083F
:1000C000D9020008D9020008D9020008D9020008A4
:1000D000D902000881770008D9020008D902000877
:1000E000D9020008D9020008D9020008D902000884
:1000F000D9020008D9020008D9020008D902000874
:10010000D9020008D9020008D9020008D902000863
:10011000D9020008D9020008D9020008D902000853
:10012000D9020008D9020008D9020008D902000843
:10013000D9020008D9020008D9020008D902000833
:10014000D9020008D9020008D9020008E92E0008E7
:10015000D9020008D9020008D9020008D902000813
:10016000D9020008D9020008D9020008D902000803
:10017000D9020008D9020008D902000800000000D6
:10018000D9020008D902000800B53548354B364D74
:10019000364C374A2A60984283B0226007D2C24365
:1001A000134423F00302043200210BF0A6FB2B685A
:1001B00003B1FEE72368002BFBD12E482E4B2F4DB9
:1001C0002F4C2B4A2A609842226007D2C243134424
:1001D00023F0030204322B490BF086FB2A682A4BDA
:1001E0009A4200D0FEE7226823689A42FAD1274E4D
:1001F000274D761B09F068F9B610684601A902F090
:1002000079FE002E07DD043D0024013455F8043F3B
:100210009847B442F9D11F4E1F4D761BB610002EE1
:1002200007DD043D0024013455F8043F9847B442EB
:10023000F9D11A4D1A4C9DE8030009F029FA641B04
:10024000A410002C0646C8BF05EB840505DD013C63
:1002500055F8043D9847002CF9D1304602F022FEB3
:1002600010020020FCBB012010020020F8BB01207E
:10027000BABADECA000000201002002000000020F0
:100280000C020020E8D1000878563412DC02000885
:10029000DC020008E8020008DC020008E8020008AE
:1002A000E802000808B5FFF76FFF00BFFEE700BFD8
:1002B000FEE700BFFEE700BFFEE700BFFEE700BFAE
:1002C000FEE700BFFEE700BFFEE700BFFEE700BF9E
:0C02D000FEE700BFFEE700BFFEE700BF36
:0C02DC004D300008D96E0008398F000872
:1002E800704700BF08B50C4B1A6842F400721A60D8
:1002F8001A6842F480621A601A6842F480721A60BE
:100308004FF47A5000F07CF8052000F023F8FFF74E
:10031800E7FF002008BD00BF003C0240024B1A68FE
:1003280001321A60704700BF14020020014B1868A0
:10033800704700BF1402002082B0054A019011687E
:10034800019B194413689942FCD802B0704700BF5A
:1003580014020020074AD1684FF6FF030B4043F010
:10036800BF6300F0070043F4003343EA0023D3607F
:10037800704700BF00ED00E0194B30B4DC68C4F3EF
:100388000224C4F10703251D042B28BF0423062DCE
:1003980019D9033C0125A540013D2A40012505FA4C
:1003A80003F3013B194001FA04F4002844EA02046B
:1003B8000CDB00F1604000F561402401E4B280F8F4
:1003C800004330BC704700221446E7E7054B00F0B5
:1003D8000F0024010344E4B21C7630BC704700BF10
:1003E80000ED00E0FCEC00E000F01F0201214009F4
:1003F800024B01FA02F243F82020704700E100E0C6
:100408000138B0F1807F10B40DD2094B094C586007
:10041800F02084F823000022072110469A60196012
:100428005DF8044B704701205DF8044B704700BF2E
:1004380010E000E000ED00E04209603200F01F002B
:100448000121034B01FA00F043F82200704700BF76
:1004580000E100E02DE9F00F0023DFF8B0920F680B
:10046800A94D03E00133102B00F0E68001229A40E9
:1004780002EA07049442F5D14A6822F01008B8F15C
:10048800020F00F082805E004FF0030CD0F800A04D
:100498000CFA06FC6FEA0C0C0CEA0A0AC0F800A079
:1004A800D0F800A002F0030B0BFA06FB08F1FF38A6
:1004B8004BEA0A0AB8F1010FC0F800A040F29B808D
:1004C800D0F80CA0D1F808800CEA0A0CC0F80CC0CF
:1004D800D0F80CC008FA06F646EA0C06C660D60044
:1004E800C0D5D9F844C023F0030606F1804606F5C6
:1004F8009C364CF4804CC9F844C003F0030CD6F881
:1005080008A04FEA8C0C4FF00F0808FA0CF82AEAFA
:100518000808DFF8FCA1C6F808805045D6F808801E
:1005280000F08D800AF5806A504500F0C480DFF83D
:10053800E4A1504500F0C480DFF8DCA1504500F08C
:10054800C480DFF8D8A1504500F0C480DFF8D0A1FE
:10055800504500F0C980DFF8CCA1504500F0C980B3
:10056800DFF8C4A1504500F0BA80DFF8C0A15045BB
:1005780000F0C480DFF8B8A150450CBF4FF0090A5D
:100588004FF00A0A0AFA0CFC5BE0DE0800EB86066C
:1005980003F0070CD6F820A0D1F810B04FEA8C0C65
:1005A8004FF00F0808FA0CF82AEA0808C6F8208065
:1005B800D6F82080D6F820A00BFA0CFC4AEA0808E6
:1005C80048EA0C0CC6F820C05E004FF0030CD0F8C7
:1005D80000800CFA06FC6FEA0C0C0CEA0808C0F85C
:1005E8000080D0F800A002F0030808FA06F848EAEC
:1005F8000A08C0F80080D0F808A0D1F80C800CEAEE
:100608000A0AC0F808A0D0F808A008FA06F848EACC
:100618000A08C0F80880D0F8048028EA0408C0F85E
:100628000480D0F804A0C2F3001808FA03F848EAD6
:100638000A08C0F8048043E7BDE8F00F70474FF0A0
:10064800000C4CEA080CC6F808C0D5F800C0E64310
:1006580006EA0C0CC5F800C0D5F804C012F4803FB7
:1006680006EA0C0CC5F804C005D0D5F800C044EA69
:100678000C0CC5F800C012F4003F05D0D5F804C032
:1006880044EA0C0CC5F804C0D5F808C006EA0C0CFE
:10069800C5F808C0D5F80CC006EA0C06EE60D6020C
:1006A80002D5AE682643AE6092027FF5DBAEEA68FB
:1006B8001443EC60D6E64FF0010A0AFA0CFCC0E7D6
:1006C8004FF0020A0AFA0CFCBBE74FF0030A0AFAD9
:1006D8000CFCB6E74FF0040A0AFA0CFCB1E74FF03D
:1006E800070A0AFA0CFCACE74FF0050A0AFA0CFCF8
:1006F800A7E74FF0060A0AFA0CFCA2E74FF0080A2F
:100708000AFA0CFC9DE700BF003C0140003802409B
:100718000000024000080240000C024000100240A5
:100728000014024000180240001C02400020024051
:10073800002402400AB9418370470183704700BF13
:1007480070B50C460546FFF7F1FD061901342A6815
:1007580005D193699B07FCD4002070BD2A68936972
:10076800DB4313F00204F7D1FFF7E0FD8642F5D82A
:10077800012385F8344085F83530032070BD00BF6B
:100788002DE9F04706460068089F8A46016841F44B
:100798008071016090469946FFF7C8FD791C35685D
:1007A80000EB070439D16C69E207FCD50AF0FE03B7
:1007B8002B61FFF7BBFD7A1C316800EB070403D0FF
:1007C80038E04B69580539D448698407F9D54B692D
:1007D8008B69FFF7ABFD7B1C326800EB07044BD13C
:1007E80053691B06FCD5B9F1010F0BD04FEA18234A
:1007F8001361FFF79BFDC4190137326840D1536973
:100808001806FCD55FFA88F313610020BDE8F0876D
:10081800FFF78CFD84423FD935686B69DB07F7D554
:10082800C4E74B6913F4806508D1FFF77FFD844264
:100838003BD931684B699A07F3D5C8E70B6843F48D
:1008480000730B604C69042024F4806401230022A7
:100858004C6186F8360086F8342086F8353096F8EC
:100868003630042B14BF03200120BDE8F087FFF7C2
:100878005DFD844210D9326853691D06F7D5B2E789
:1008880053691906BED4FFF751FD844204D9326872
:1008980053691906F7D5B5E70122002386F83520F4
:1008A80086F834300320BDE8F087012386F83450F9
:1008B80086F83530D3E700BF2DE9F84F06460068C3
:1008C8000A9F8A46016841F480610160016841F429
:1008D8008071016090469946FFF728FD791C3568BC
:1008E80000EB070464D16C69E207FCD55FFA8AFA69
:1008F8000AF0FE032B61FFF719FDC519781C34684F
:1009080003D062E06369590563D460698007F9D54B
:100918006369A369FFF70AFD791C326800EB0704D5
:1009280074D153691B06FCD5B9F1010F0BD04FEAFE
:1009380018231361FFF7FAFCC419781C326877D1C1
:1009480053691906FCD55FFA88F31361FFF7EEFCCB
:100958007D1C326800EB070461D153691806FCD589
:10096800136843F480731360FFF7E0FC7A1C336864
:1009780000EB070465D15A69D207FCD54AF0010299
:100988001A61FFF7D3FCC4190137336803D07EE03E
:100998005A69540569D45A69D24312F00202F7D150
:1009A8001046BDE8F88FFFF7C1FC84424DD9356881
:1009B8006B69DB07F7D599E7636913F4806B08D196
:1009C800FFF7B4FC85424AD9346863699A07F3D5BE
:1009D8009EE7236843F4007323606069042120F4D0
:1009E800806001230022606186F8361086F8342082
:1009F80086F8353096F83630042B2DD00320BDE824
:100A0800F88FFFF793FC84421FD9326853691D069B
:100A1800F7D589E7FFF78AFC844216D9326853690B
:100A28001906F7D59CE7FFF781FC84420DD9326897
:100A380053691B06F7D586E7FFF778FC844204D98B
:100A480033685A69D507F7D598E70122002386F855
:100A5800352086F83430D1E70120BDE8F88F01232E
:100A680086F834B086F83530C4E71A6842F4007264
:100A78001A605C69042024F48064012200215C610E
:100A880086F8360086F8341086F83520B2E75A69B9
:100A9800D24312F0020283D05A6912F48065E4D17D
:100AA800FFF744FC844201D93368F0E7012386F854
:100AB800345086F835309DE72DE9F04190F83550EF
:100AC80082B0EDB2012D0446BDF8246003D00220A7
:100AD80002B0BDE8F081089FFFB1F6B10768BF69B1
:100AE80017F00208F3D190F834C0BCF1010FEED032
:100AF8004FF0320E0A9F80F83450009780F835E0A6
:100B080080F83680FFF73CFE48B194F8363084F818
:100B18003480042B01D00320DAE72846D8E7FFF712
:100B280005FC0A990A9D2268013105442FD15369B1
:100B38001B06FCD5089F3B7813615369711E5B0740
:100B480089B231D4013708970E46002EE7D1FFF756
:100B5800EDFB0A9B0A9D22680133054420D15369A5
:100B68001806FCD513680A9943F4007313602046ED
:100B7800FFF7E6FD0028CED1012384F8340084F87D
:100B88003530A5E7FFF7D2FB854217D922685369AC
:100B98001F06F7D5CEE7FFF7C9FB85420ED92268B5
:100BA80053691906F7D5DDE70029D0D0089D023E24
:100BB8006B7813610235B6B20895C6E701220023A7
:100BC80084F8352084F83430032081E72DE9F0419A
:100BD80090F8356082B0F6B2012E0546BDF8247053
:100BE80004D00224204602B0BDE8F081089CFCB184
:100BF800F7B10468A46914F00208F2D190F83440FF
:100C0800012CEED00A9C80F834604FF0420E00941C
:100C180080F835E080F83680FFF74EFE044648B18C
:100C280095F8363085F83480042B01D00324D9E7B1
:100C38003446D7E7012F2B6800F0CF80022F00F051
:100C4800D7805A699B69032F60D8012F00F0A680CE
:100C5800022F7CD0FFF76AFB0A9B0A9E2A680133A1
:100C680006443AD153695807FCD5136823F48063C6
:100C780013601369089A1370FFF758FB0A9B0A9EC2
:100C88002A680133064431D153695B07FCD51368E0
:100C980043F4007313601369089A53702B681B6937
:100CA80093702B681A6822F400621A60FFF73EFB03
:100CB8000A9A0A9E2B680132064421D19A69910743
:100CC800FCD40122002385F8352085F8343089E7E3
:100CD800FFF72CFB864279D92A6853695907F7D55B
:100CE800C3E7FFF723FB864270D92A6853695F0779
:100CF800F7D5CCE7FFF71AFB864240F284802B68D1
:100D08009B69DB4313F00207F4D0DAE7FFF70EFB29
:100D18000A9B0A9E2A680133064414D153695E0669
:100D2800FCD51369089A13702B685A6952072DD499
:100D3800089B013F0133BFB2089384E7FFF7F6FA37
:100D4800864243D92A6853695806F7D5E9E7FFF779
:100D5800EDFA0A9B0A9E2A680133064412D15369A8
:100D68005B07FCD5136843F4007313601369089A92
:100D780013702B681B69537093E7FFF7D7FA864205
:100D880024D92A6853695F07F7D5EBE7089A1B69E6
:100D98005370023F0232BFB2089254E7FFF7C6FA17
:100DA8000A9B0A9E2A68013306440BD153695806E8
:100DB800FCD51369089A137073E7FFF7B7FA8642F0
:100DC80004D92A6853695906F7D5F2E701220023A6
:100DD80085F8352085F8343028E71A6822F48062CF
:100DE8001A605A699A691A6842F400721A602AE706
:100DF8001A6822F480621A601A6842F400621A6063
:100E08005A699B691FE7012385F8347085F83530E6
:100E18000324E7E6704700BF704700BF704700BF74
:100E280003689A6912F0010270B5044627D09A69DE
:100E3800510764D55A69586859695D681206C1F343
:100E4800800140F1A780460540F1A480002900F008
:100E58001881A80540F1A18094F83420012A00F0F7
:100E68009C80628D012192B284F83410002A00F02F
:100E78002881626A5118616212781A6163E05969BF
:100E88005E685D6998698907C6F3402605F0100514
:100E980000F0040028D415B1002E40F08C805A6967
:100EA800002858D0586859695D681606C1F3800152
:100EB8007CD540057AD500297AD194F83420012AC6
:100EC8006BD0628D012192B284F8341042B1626A0B
:100ED8005118616212781A61638D013B9BB2638578
:100EE800002384F8343070BD002ED8D094F8341024
:100EF800012952D059699B6984F8342070BD596919
:100F080058685A695D684906C2F3800246D54605A5
:100F180044D5002A7BD0A8053FD594F83420012A6F
:100F28003BD0628D92B20121032A84F8341000F07C
:100F3800ED80628D92B2022A00F00081626A1B691C
:100F4800511C61621370628D013A92B2002362856E
:100F580084F8343070BD586859695D685606C1F325
:100F680080011ED540051CD5E9B994F83420012A22
:100F780013D0628D012192B284F83410002AAFD0C8
:100F8800626A1B69511861621370638D013B9BB2E1
:100F98006385A5E700297FF45CAF70BD002ABAD14C
:100FA80070BD0029F9D0AA05F7D5DEE70029F4D0ED
:100FB800AA05F2D581E794F83420012AEDD05A68C1
:100FC80084F8346022F4E0625A605A691A6842F080
:100FD80001021A601A6822F480621A60FFF7A6F903
:100FE80000F1230603E0FFF7A1F9864263D92368DD
:100FF8009B69DB4313F00205F5D00122002384F836
:10100800352084F834302046FFF704FFC5E794F80C
:1010180034100129C1D0618D89B20120032984F8D7
:10102800340079D802390129596840F28180626A0E
:1010380021F4E06159601B69511C61621370638D72
:10104800013B9BB26385FFF771F900F1230603E0CA
:10105800FFF76CF986422ED923689B69DB4313F0AE
:101068000205F5D094F83530422B00F09D8001221E
:10107800002384F8352084F83430204607F080F9BE
:1010880070BD94F83420012A87D0626A0121501873
:10109800606284F8341012781A61628D013A92B253
:1010A8006285628D92B2002A7FF41AAF5A6822F4E0
:1010B80080625A6014E7012384F8345084F835308C
:1010C80070BD5A6822F4E0625A601A6842F40072ED
:1010D8001A60FFF72BF900F1230603E0FFF726F962
:1010E8008642E8D923689B69DB4313F00205F5D0F3
:1010F80094F83530322B4DD00122002384F8352066
:1011080084F83430204607F039F970BD1968626AEE
:1011180021F48061196012E7616A1B69081860622E
:101128000B70638D84F83420013B9BB2638570BDDE
:1011380021F48061596084F8342070BD1968626AAE
:1011480041F4007119601B69511C61621370618D53
:10115800636A2268013989B261851269591C616222
:101168001A70628D2368013A92B262855A6822F435
:1011780040725A60FFF7DAF800F1230603E0FFF740
:10118800D5F8864297D923689B69DB4313F002059B
:10119800F5D067E70122002384F8352084F834303D
:1011A8002046FFF739FE70BD0122002384F8352060
:1011B80084F834302046FFF731FE70BD2DE9F04F3A
:1011C80004468BB0002800F0FA814FF0020806466A
:1011D80080F8798308F0A4FB206801F0C7F956F875
:1011E800107B0FCE6D460FC596E80F0085E80F00FF
:1011F800251D95E80E000995384601F053F9206839
:10120800002101F0BBF900254FF0010E4FF0030B50
:101218004FF0040A4FF005094FF0080384F831E055
:1012280084F84DE084F84CE084F869E084F885E0BF
:1012380084F8A1E084F8BDE084F8688084F8305030
:1012480084F83350A563E563656484F84F50656599
:10125800A565256684F86B5025676567E56784F89A
:101268008750C4F88C50C4F89050C4F8985084F84B
:10127800A350C4F8A850C4F8AC50C4F8B45084F8CB
:10128800BF5084F884B084F8A0A084F8BC90C4F857
:10129800C45084F810314FF0090384F82C314FF012
:1012A8000A030620072184F848314FF00B0384F81D
:1012B800D9E084F8F5E084F811E184F82DE184F8A8
:1012C80049E184F865E184F8D80084F8F410C4F89A
:1012D800C850C4F8D05084F8DB50C4F8E050C4F8C3
:1012E800E450C4F8EC5084F8F750C4F8FC50C4F843
:1012F8000051C4F8085184F81351C4F81851C4F8BF
:101308001C51C4F8245184F82F51C4F83451C4F83E
:101318003851C4F8405184F84B51C4F85051C4F8BE
:101328005451C4F85C5184F86431276884F881E129
:101338004FF00E0C0C220D2384F8B8C184F89DE1FF
:1013480084F8B9E184F8802184F89C3184F86751E5
:10135800C4F86C51C4F87051C4F8785184F88351BA
:10136800C4F88851C4F88C51C4F8945184F89F513A
:10137800C4F8A451C4F8A851C4F8B05184F8BB51BA
:10138800C4F8C051C4F8C451C4F8CC5184F8D5513C
:1013980084F8D451E58684F8D751C4F8DC51C4F8F0
:1013A800E051C4F8E851C7F8045184F8F0E184F832
:1013B800F151A4F852E084F8F351C4F8F851C4F894
:1013C800FC51C4F80452C7F8085184F80D5284F847
:1013D8000C82A4F86E8084F80F52C4F81452C4F832
:1013E8001852C4F82052C7F80C5184F8295284F8CE
:1013F80028B2A4F88AB084F82B52C4F83052C4F842
:101408003452C4F83C52C7F8105184F8455284F855
:1014180044A2A4F8A6A084F84752C4F84C52C4F8D1
:101428005052C4F85852C7F8145184F8615284F8DD
:101438006092A4F8C29084F86352C4F86852C4F861
:101448006C52C4F87452C7F8185184F87C02A4F896
:10145800DE0084F87D5284F87F52C4F88452C4F8C0
:101468008852C4F89052C7F81C5184F89812A4F80E
:10147800FA104FF0080184F8995284F89B52C4F886
:10148800A052C4F8A452C4F8AC52C7F8205184F84A
:10149800B4124FF00801A4F816114FF0090184F8AE
:1014A800B55284F8B752C4F8BC52C4F8C052C4F854
:1014B800C852C7F8245184F8D0124FF00901A4F893
:1014C80032114FF00A0184F8D15284F8D352C4F88B
:1014D800D852C4F8DC52C4F8E452C7F8285184F84A
:1014E800EC124FF00A01A4F84E114FF00B0184F8EA
:1014F800ED5284F8EF52C4F8F452C4F8F852C4F824
:101508000053C7F82C5184F808134FF00B01A4F8C6
:101518006A1184F8095384F80B53C4F81053C4F8BB
:101528001453C4F81C5304F1100EC7F8305184F852
:101538002423A4F8862184F8255384F82753C4F873
:101548002C53C4F83053C4F83853C7F8345184F8CE
:101558004033A4F8A23184F8415384F84353C4F8C3
:101568004853C4F84C53C4F85453C7F8385184F856
:101578005D5384F85CC384F85F53BEE80F00EE4601
:10158800A4F8BEC1C4F86453C4F86853C4F87053CF
:10159800C7F83C51AEE80F0096E80F008EE80F0040
:1015A800099E384696E80E0001F002F884F879534F
:1015B800206801F0F3FB28460BB0BDE8F08F01204E
:1015C8000BB0BDE8F08F00BF90F87833012B10B551
:1015D800044601D1022010BD012380F87833006849
:1015E80001F0D0FB206800F0B9FF002084F87803F0
:1015F80010BD00BF2DE9F04F076887B00446384694
:1016080001F00AFC10B107B0BDE8F08F206801F0C6
:10161800D1FB0028F7D0206801F0CCFB10F0020FB6
:1016280020681EBF436943F00203436101F0C2FB17
:10163800010300F134814FF00008206801F0BAFB83
:1016480010F4802F206840F0CE8001F0B3FB002812
:10165800C0F21782206801F0ADFB01054ED4206866
:1016680001F0A8FBC3047FD4206801F0A3FB10F4A9
:10167800005F20685AD101F09DFB10F0100F206820
:1016880017D0836923F0100383613D6A05F00F03C7
:10169800C3EBC303C5F3434204EB8303022A03F5F8
:1016A800EA7600F0DA81062A33D0836943F0100322
:1016B800836101F07FFB070700F14181206801F099
:1016C80079FBC60200F12581206801F073FB8502D1
:1016D80000F12A81206801F06DFB400000F1D680FE
:1016E800206801F067FB41078DD523685D686A07AC
:1016F80000F198815A6815435D6084E7D7F8083887
:10170800DA0700F194812068436943F40063436178
:10171800A6E7384604F55F71082201F0D1FAB369EB
:101728002068C5F30A152B44B361BEE701F078FBC6
:101738002068C36823F47053C36001F005F8236878
:10174800002840F08181DA68E0604FF4007142F4CB
:1017580010526161DA60204608F0BEF920684369DA
:1017680043F40053436186E707F500667368206811
:1017780023F001037360002100F0D4FF65685DB1B8
:1017880007F510630022FF210132AA429960C3F8CD
:10179800081203F12003F7D14FF0FF33B361F26968
:1017A800A36A42F00112F261002B00F04481D6F8DE
:1017B800843043F00B03C6F88430736C43F00B039A
:1017C8007364D7F800382068217C23F4FE63C7F8D7
:1017D800003804F55F7201F03FFB2068436943F469
:1017E8008053436141E701F0F1FA8346002800F095
:1017F80087814FF0000820680397254607F5106A8F
:10180800C14609E05FEA5B0B09F1010905F11C0516
:101818000AF1200A00F09C801BF0010FF2D05FFA59
:1018280089F7394601F0E4FAC307064616D50123BD
:1018380003FA09F1039B03F50062C9432369516365
:1018480001229342CAF8082000F038813946204620
:1018580008F034F92169012900F02281300744BFDA
:101868000823CAF80830F10644BF1023CAF8083024
:10187800720644BF4023CAF80830B30744BF0222A7
:10188800CAF80820300666D42068BBE7204608F06E
:1018980043F92068436943F08043436121E72068A6
:1018A80001F08CFA054600283FF4C5AE07F530660E
:1018B800A3464FF0000808E06D0808F1010806F19A
:1018C80020060BF11C0B3FF4B8AEEA07F4D55FFA1B
:1018D80088FA5146206801F081FA10F0010F81461C
:1018E8000DD0236901229342B26000F0FB8051467B
:1018F800204608F0D9F82169012900F0E48019F0A0
:10190800080F40F0898019F0100F1CBF1022B26038
:10191800D2E720465FFA88F108F0FAF820684369B0
:1019280043F480134361D0E620465FFA88F108F05B
:10193800EBF82068436943F400134361CBE6204683
:1019480008F0C6F82068436943F008034361B6E627
:10195800C846039F79E62368696CD5F848C0AA6B26
:10196800049303F5106808EB4918CCEB0103934284
:1019780034BF1E461646D8F818E0F01C48BFB01D04
:101988001FFA8EFEBEEBA00F40F2BD80614540F20B
:10199800BA80002900F0B780E96BCDF8149016469C
:1019A800A94625464446DDF8108006E0D9F84420CB
:1019B8009A421ED9D9F83860D31AB34238BF1E46A6
:1019C8002B7C00933A46B3B2404601F065F9D9F84A
:1019D8003C10D9F8483031443344C9F83C10C9F8B0
:1019E8004830A069F21C80B248BFB21DB0EBA20F0C
:1019F800DCD82C464D462068DDF81490002E3FF7C1
:101A080001AF049A02F50061012202FA09F34A6B58
:101A180022EA03034B63F5E6204608F03FF8082363
:101A2800B36070E7204608F07BF8236862E620463A
:101A380008F062F867E6736943F00B037361336972
:101A480043F00B033361BCE6DA68032042F4A0528A
:101A58004021E0606161DA607DE647F6F0732B4073
:101A6800002B3FF422AE1D092A463846F16801F0E2
:101A780027F9F268B36920682A442B44F260B361FD
:101A880013E6D7F8042822F001022046C7F80428F4
:101A980008F036F82068436943F000434361DAE50B
:101AA800B9F1000F7FF4DAAE636C002B7FF4D6AE89
:101AB800206804F55F7201F0CFF9CFE6EA6BAB6BF3
:101AC8001344EB63C2E6B8F1000F7FF418AFD4F803
:101AD800E831002B7FF413AF206804F55F7201F042
:101AE800BBF90CE73169DBF8DC31DBF8E021C1F345
:101AF8001201591A1344CBF8EC11CBF8E031F6E691
:101B080080462068A1E5049878E700BF90F878330C
:101B1800012B10B5044601D1022010BD012380F825
:101B28007833006801F01EF9002084F8780310BDAE
:101B380070B50546080620D4C1EBC10005EB80004E
:101B480000F5EA74002680F8D411A260E37066708C
:101B5800022B04BF0023237195F87833012B01D1A0
:101B6800022070BD0123214685F87833286800F0EB
:101B780009FE002085F8780370BD01F07F01C1EBF4
:101B8800C100800030302C1801262954A260E3706F
:101B9800E1806670DCE700BFCAB2130610B50446E0
:101BA80019D4C1EBC10300EB830303F5EA73D2092F
:101BB8005A70197094F87823012A01D1022010BDB7
:101BC8000122194684F87823206800F023FE0020BB
:101BD80084F8780310BD01F07F01C1EBC10300EB6D
:101BE80083033033E3E700BF70B501F07F05044697
:101BF800C5EBC50004EB800000F5EA7100264E70C5
:101C0800CA604B618E6180F8D4512369012B08BFEB
:101C18000A6194F87823012A11D0012284F87823E4
:101C28002068DAB22DB100F037FE002084F878037E
:101C380070BD00F073FF002084F8780370BD0220A7
:101C480070BD00BF01F07F01C1EBC10100EB810055
:101C5800B0F8EC01704700BFF8B501F07F05C5EB9F
:101C6800C5018900044601F130002118012600272A
:101C78004E70CA604B618F6125542369B34208BF17
:101C88000A6194F87823012A11D0012284F8782374
:101C98002068DAB22DB100F0FFFD002084F8780347
:101CA800F8BD00F03BFF002084F87803F8BD02205F
:101CB800F8BD00BFCAB238B5130604461CD4C1EB40
:101CC800C10300EB830303F5EA730D46D209012132
:101CD8005A701D70997094F878238A4201D10220B5
:101CE80038BD84F878132068194600F0FDFF5DB10F
:101CF800002084F8780338BD01F07F05C5EBC503E3
:101D080000EB83033033E1E72068217C04F55F7240
:101D180001F0A2F8ECE700BFCAB238B513060446D2
:101D28001BD4C1EBC10300EB830303F5EA73D209AB
:101D380000255A7019709D7094F87823012A01D1F2
:101D4800022038BD0122194684F87823206800F063
:101D5800EBFF84F87853284638BD01F07F01C1EBCA
:101D6800C10300EB83033033E1E700BF30B40568FB
:101D78006B6AD1B1A86A013903EB10400CD000247A
:101D88002346403405EB840401336468DBB28B429C
:101D980000EB14401C46F4DB403105EB810540EABA
:101DA80002406860002030BC704743EA0243AB62DF
:101DB800002030BC704700BF03680020596270479C
:101DC80003682DE9F041DE07054635D5B34A916829
:101DD80001F00C01042900F0E880916801F00C0181
:101DE800082900F0DE80AE4BAC4E00221A70FEF7D8
:101DF8009DFA00F59C54083404E0FEF797FA8442F3
:101E080040F2C08033689903F7D4A54B2A791A7039
:101E18006B68012B00F05081FEF788FA00F59C549E
:101E280008349E4E04E0FEF781FA844240F2AA800C
:101E380033689B03F7D42B689F072FD5974A91687F
:101E480011F00C0F00F0A580916801F00C01082931
:101E580000F09B80EB68002B00F0C380914B8F4C07
:101E680001221A60FEF762FA00F1640604E0FEF748
:101E78005DFA864240F286802368884A9807F6D53C
:101E88001168F82090FAA0F0B0FA80F02B69C0B27F
:101E980021F0F80183400B4313602B681A0720D404
:101EA800590734D4AB69CBB17C4CA26802F00C0260
:101EB800082A00F08380022B7B4B4FF000021A6047
:101EC80000F0A080FEF732FA00F1640503E0FEF7A7
:101ED8002DFA854256D923689B01F8D40020BDE825
:101EE800F0816B69002B6CD0704B6C4C01221A602E
:101EF800FEF71CFA00F1640603E0FEF717FA8642C3
:101F080040D9636F9F07F8D52B685907CAD5634B2B
:101F1800674C1A6C42F080521A64236843F4807349
:101F28002360FEF703FA00F1640603E0FEF7FEF90A
:101F3800864227D92368DA05F8D55E4B574E00222A
:101F48001A70FEF7F3F900F59C54083403E0FEF725
:101F5800EDF9844216D9336F9B07F8D4554B2A7A8A
:101F68001A70AB68012B00F0B780FEF7DFF94B4E13
:101F780000F59C540834336F980793D5FEF7D6F9CB
:101F88008442F8D80320BDE8F081526856023FF534
:101F980061AF424A1268940780D5EA68012A0DD1D8
:101FA8007CE7526854027FF51EAF3C4A12689003E2
:101FB8007FF542AF6A68012A3FF43EAF0120BDE8D1
:101FC800F0813A4A354C1360FEF7B0F900F1640627
:101FD80003E0FEF7ABF98642D4D9636F9807F8D4CB
:101FE80092E7304A2D4C1360FEF7A0F900F1640621
:101FF80003E0FEF79BF98642C4D923689907F8D411
:102008002B684BE7FEF792F900F1640703E0FEF74F
:102018008DF98742B6D92368204E9901F7D447F63F
:10202800C07494FAA4F4B4FA84F44FF4403191FAE9
:10203800A1F1B1FA81F14FF0706292FAA2F2B2FA0C
:1020480082F2D5F82080EF69D5F828C0D5F824E0C9
:10205800E86A154B4FEA5C05E4B248EA07070EFA4E
:1020680004F4C9B247F00057013D3C43D2B205FA27
:1020780001F100FA02F221431143012271601A6052
:10208800FEF754F900F1640404E0FEF74FF98442C6
:102098007FF678AF33689A01F7D51FE7003802401A
:1020A800023802400000474260004742800E474223
:1020B8000070004070380240FEF738F900F59C5473
:1020C80008340D4E04E0FEF731F984427FF65AAF2A
:1020D80033689A03F7D5AEE6FEF728F9064E00F501
:1020E8009C540834336F9F073FF5DCAEFEF71EF9AA
:1020F8008442F7D846E700BF00380240294B9A6867
:1021080002F00C02042A10B44AD0082A14D0264837
:10211800244BF0229B6892FAA2F2B2FA82F203F000
:10212800F003D2B223FA02F22049214B8A5C5DF80F
:10213800044BD040186070475868596800F03F0455
:102148004FF4800292FAA2F2B2FA82F201F480010C
:10215800D2B231FA02F2596847F6C07292FAA2F284
:10216800B2FA82F247F6C07314BF12480E48D2B2D0
:102178000B40D3400B4AB0FBF4F000FB03F052686D
:102188004FF4403393FAA3F3B3FA83F302F44032E3
:10219800DBB222FA03F301335B00B0FBF3F0B7E7DD
:1021A8000448B5E7003802400024F40070C2000873
:1021B8000C00002000127A00F8B56A4B1A6802F089
:1021C8000F028A420C46054608D2CAB21A701B682A
:1021D80003F00F038B4264D00120F8BD0368DB07CE
:1021E80024D54368604A012B126800F09580022BC1
:1021F80000F09A809007EFD55B4FBA6822F003028F
:102208001343BB60FEF792F86B6800F59C56012BF0
:1022180006F1080670D0022B04D177E0FEF786F8A5
:1022280086427DD9BB6813F00C0FF7D14D4BE2B253
:102238001A701B6803F00F03A342CDD12B689907CE
:1022480006D5494AA968906820F0F00001439160DA
:102258005A0706D5444AE968906820F4E0500143DB
:1022680091601B0707D5404B29699A6822F46042A0
:1022780042EAC1029A60FFF741FF3C4BA3FB0023EF
:102288009B09013BB3F1807F4CD2394A39485360EE
:10229800F02480F82340002307219360184611603A
:1022A800F8BD0368DC07CAD543682F4A012B1268BA
:1022B80055D0022B50D092078ED52B4EB26822F003
:1022C80003021343B360FEF731F86B6800F59C54C2
:1022D800012B04F108042FD0022B04D136E0FEF7BD
:1022E80025F884421CD9B36813F00C0FF7D1A5E781
:1022F800FEF71CF8864213D9BB6803F00C03042BC5
:10230800F6D193E7FEF712F8864209D9BB6803F0C5
:102318000C03082BF6D189E797033FF56DAF5BE710
:102328000320F8BD0020F8BD96013FF565AF53E7DF
:10233800FDF7FCFF8442F3D9B36803F00C03042BC8
:10234800F6D17BE7FDF7F2FF8442E9D9B36803F0E1
:102358000C03082BF6D171E79101AED43CE790034A
:10236800ABD439E7003C024000380240D34D62103C
:1023780010E000E000ED00E0704700BF38B504460B
:10238800002865D090F83930002B4ED023683149A9
:10239800022284F839208B421A6849D0B3F1804F61
:1023A8002DD0A1F57C418B4229D001F580618B426B
:1023B80025D001F580618B4221D001F578418B420F
:1023C8001DD001F570518B421DD001F580618B4203
:1023D80019D001F580618B4215D0A1F598318B4257
:1023E80011D001F580618B420DD001F580618B42DF
:1023F80009D0E06861681A60D86299620FE0A16844
:1024080022F070020A432169E568606822F440728C
:102418001143114A19609342DD62986215D0012276
:102428005A61002084F8392038BDFFF7A5FFADE7D1
:10243800A068216922F07002104320F44070014323
:102448001960E268DA6262689A6262691A63E6E7AA
:10245800012038BD000001400004014090F83830E8
:10246800012B024610B44FF0020018D0136882F80E
:1024780039005C6824F0700403C95C605C68204320
:102488005860986820F08000986098680124084394
:1024980000219860084682F8394082F838105DF8C3
:1024A800044B704784B030B4089D03AC012D84E818
:1024B8000E0027D0C268284B42F04002C26001E0FB
:1024C800013B0DD00269002AFADA0269224B42F078
:1024D8000102026101E0013B02D00269D207FAD48D
:1024E8004FF480338363069B012B07D1836843F045
:1024F8000C038360836843F02003836030BC0020B2
:1025080004B07047836B0D9A23F480338363C368E8
:1025180023F4840323F04003C360C368012A23F42F
:102528004013C36012D00C4B01E0013BDBD00269C1
:10253800002AFADA0269084B42F00102026101E05E
:10254800013BD0D00269D107FAD4CCE7C36843F481
:102558008013C360E7E700BF400D03000346002077
:102568009A6842F001029A60704700BF0346002053
:102578009A6822F001029A60704700BF08B5C368E4
:10258800012923F0C043C36009D019B9C36843F0D7
:102598008043C3603220FDF7CFFE002008BDC3682A
:1025A80043F00053C3603220FDF7C6FE002008BD8B
:1025B80084B02DE9F00708AC84E80E00836BDDF8E1
:1025C80040A0DDF82CC043F400238363BAF1000F68
:1025D80003D1836B43F4001383630023C0F8003EE8
:1025E8000D9BD0F80028C0F80028012B00F50064E6
:1025F80000F08480D0F8003843F00303C0F80038B6
:102608004FF408730361444B01E0013B02D00269B7
:102618009506FAD4102303613F4B01E0013B02D039
:102628000269D206FAD400224FF0FF3322616261B8
:10263800A361E26141B3154600F510634FF090497C
:10264800FF261F680132002FB4BFC3F800901D6039
:102658008A421D619E6003F12003F2D100221646D2
:1026680000F530634FF090494FF0FF081F680132C2
:10267800002FB4BFC3F800901E608A421E61C3F8E1
:10268800088003F12003F1D12369BCF1010F23F481
:102698008073236123D000226FF0804382614361FD
:1026A800BCF1000F03D1836943F010038361816992
:1026B8001A4B0E9A0B4383611AB1836943F00803DE
:1026C8008361BAF1010F05D1836943F0804343F078
:1026D80004038361BDE8F007002004B07047104B85
:1026E8002363236B43F4803343F003032363002203
:1026F8006FF08043216B82614361D8E70A9B23B95D
:10270800D0F80038C0F800387AE7D0F8003843F03D
:102718000103C0F8003873E7400D030000383C801F
:1027280000018000490141F020010161054A01E0F2
:10273800013A05D0036913F02003F9D11846704710
:1027480003207047400D0300D0F8083813F0060343
:1027580000F5006013D0836803F00603022B0CD049
:10276800836803F00603062B07D0836803F006038B
:10277800042B0CBF02200020704703207047184626
:10278800704700BF70B44B78012B21D00A78D0F87D
:102798001C484FF4803505FA02F22243C0F81C2881
:1027A8000A784FF4306303EB42131A5812040CD41E
:1027B8001A588C68C97842F0805242F40042C4F337
:1027C8000A04224342EA81421A50002070BC704732
:1027D8000C78A340D0F81C489BB22343C0F81C389F
:1027E8000A784FF4106303EB42131C582404ECD40A
:1027F8001E588D68CC7846F08051C5F30A0541F41F
:102808000041294341EA844141EA82521A5070BC8E
:10281800002070474B78012B30B41DD00C78D0F8CD
:102828003C58012202FA04F425EA0444C0F83C4862
:102838000D78D0F81C48AA4024EA0242C0F81C28A7
:102848000A784FF4306303EB421330BC1A5822F471
:1028580000421A50002070470C78D0F83C5803FA10
:1028680004F4A4B225EA0404C0F83C480D78D0F872
:102878001C48AB409BB224EA0303C0F81C380A7812
:102888004FF4106303EB421330BC1A5822F4004291
:102898001A500020704700BF2DE9F0034B78012B38
:1028A80077D00E784F6920244FF4306314FB063636
:1028B80006443569ED0CED0435610E7814FB0636D7
:1028C8000644356925F0FF5525F4C015356197B3E1
:1028D8008D6891F800C0904E2F4414FB0C3C013FCA
:1028E800B7FBF5F78444BFB2DCF810804FEAC7495C
:1028F80009EA060646EA0806CCF810600E7814FBCA
:102908000633034405FB07F51C69C5F31205254387
:10291800012A1D6123D0CB78012B29D00A784FF4E6
:10292800306303EB4213C25842F00442C250002005
:10293800BDE8F00370470D788E6814FB0535054433
:10294800C6F312062F693E432E610D7814FB05333A
:102958000344012A1C6944F400241C61DBD10A7871
:10296800CB6800EB4212C2F8143BCB78012BD5D1CF
:10297800D0F808380A7813F4807F4FF4306303EBFB
:102988004213C2580CBF42F0005242F08052C2506B
:10299800C4E74C69002C71D091F80080D1F808C0C8
:1029A8005D4E20254FF4106315FB0838804404EB76
:1029B8000C09D8F81070FF0CFF04C8F8107091F8D3
:1029C800008015FB0838804409F1FF39D8F81070E9
:1029D80027F0FF5727F4C017C8F810700F7815FBB9
:1029E80007370744B9FBFCFCD7F810804FEACC4CFA
:1029F8000CEA060646EA08063E610E7815FB06361E
:102A08000644C4F3120C37694CEA07073761CE78DD
:102A1800012E70D0012A5DD0CB78012B4CD05CB14F
:102A28000D78D0F83468012707FA05F53543C0F862
:102A38003458CB78012B3FD00D784FF4106303EB5B
:102A48004513C55845F00445C550CB78012B7FF494
:102A58006EAFCB680978002A7FF469AFA4B203345B
:102A6800A4103FF464AF00EB013000F58050013250
:102A780053F8041B01609442F9D158E70F784FF4DA
:102A88001063202515FB073707443E6926F0FF56DB
:102A980026F4C0163E610E7815FB063606443769E3
:102AA80047F4002737610E7815FB063505442B6976
:102AB800DB0CDB042B61ADE7D0F80838DB0510D45C
:102AC8000D784FF4106303EB4513C55845F00055D6
:102AD800C550B1E70D780B6900EB4515C5F81439F9
:102AE800A7E70D784FF4106303EB4513C55845F07D
:102AF8008055C550A0E70E7815FB063606443769A1
:102B080027F0C04737610E7815FB063303441D696B
:102B180045F000551D617DE70000F81F4B78012B3B
:102B2800F0B43CD00E784F6920244FF4306514FB84
:102B3800065606443369DB0CDB0433610B788E6878
:102B480014FB03540444236923F0FF5323F4C013F4
:102B5800236117BB0D7820244FF4306314FB05352F
:102B68000544C6F312062F6947F400272F610D7834
:102B780014FB05350544012A2F6946EA07062E612C
:102B88005DD00A784FF4306303EB4213F0BCC258AF
:102B980042F00442C250002070474E61DAE74B69A8
:102BA800002B53D091F800C08C684FF41067202692
:102BB80016FB0C7C8444A342DCF810504FEAD54540
:102BC8004FEAC545CCF810500D7816FB057606443B
:102BD80098BF1C46356925F0FF5525F4C0153561A9
:102BE8000E7888BF4C614FF41065202313FB0656FE
:102BF8000644C4F31204376947F4002737610E7896
:102C080013FB065303441D692C431C61012A3BD066
:102C18004B6943B10A78D0F83448012505FA02F225
:102C28002243C0F834280A784FF4106303EB4213A8
:102C3800F0BCC25842F00442C250002070470D78E0
:102C4800CA6814FB053303445A619AE70E784FF4B7
:102C58001063202414FB06360644356925F0FF5519
:102C680025F4C01535610D7814FB053505442E692A
:102C780046F400262E610D7814FB053404442369BC
:102C8800DB0CDB042361C1E70A780B6900EB421215
:102C9800C2F81439C7E700BF30B49DF8084064B9DA
:102CA80003339B1009D000F5805000EB0232013449
:102CB80051F8045B1560A342F9D1002030BC70477D
:102CC800033270B495100BD000F580560A460023E5
:102CD8000133346842F8044B9D42F9D101EB850178
:102CE800084670BC704700BF4B78012B0B7870B456
:102CF8000CBF4FF410644FF43064202515FB0343D8
:102D08001A181E58002E07DB1A5822F080421A5053
:102D18000A7815FB02420244136843F400130020AA
:102D2800136070BC704700BF4B78012B0B7830B430
:102D38000CBF4FF410624FF43062202414FB0323BD
:102D48001D5825F400151D50CB78023B012B06D8E1
:102D58000B7814FB0322135843F0805313500020C0
:102D680030BC7047D0F8002822F4FE62C0F8002872
:102D7800D0F80028090101F4FE631343C0F80038B5
:102D88000020704708B500F500635A6822F0020277
:102D980003205A60FDF7D0FA002008BD08B500F5F9
:102DA80000635A6842F0020203205A60FDF7C4FA31
:102DB800002008BD4369806918407047D0F818386A
:102DC80000F50060C0691840000C7047D0F818285A
:102DD800D0F81C3802EA030080B2704700F530636F
:102DE80003EB411100F500608B684069184070479B
:102DF800D0F8102810B4D0F8344800EB411000F592
:102E0800106324FA01F0C001C0B29B685DF8044B5E
:102E180010431840704700BF406900F00100704738
:102E2800D0F8002922F4FF6222F0070200F50063BF
:102E3800C0F800299A6802F00602042A05D1D0F8E1
:102E4800002942F00302C0F800295A6842F480724F
:102E58005A600020704700BF10B40024C0F8104B1F
:102E6800D0F8104B44F40024C0F8104BD0F8104BA5
:102E780044F01804C0F8104BD0F8104B012944F066
:102E8800C044C0F8104B05D14FF08021C0F8142B76
:102E9800C0F8001B00205DF8044B7047FEE700BF38
:102EA80008B50C4B1A68014682B11046CA1C22F0BC
:102EB8000302094902448A4201D81A6008BD08F091
:102EC800F9FC0C2303604FF0FF3008BD034818607D
:102ED800ECE700BF1802002000FC0120FCBB012029
:102EE8000148FEF787BB00BF48B701200122024B0B
:102EF80002600B60704700BF04000020104A114BAD
:102F0800D2F8881041F4700110B4C2F8881019681A
:102F18000D4C002041F0010119609860196821F0FA
:102F2800847121F4803119605C601C684FF0006185
:102F380024F480241C60D8605DF8044B91607047CD
:102F480000ED00E00038024010300024037933B966
:102F5800826801210171536213680B431360704743
:102F68008368196A41F211120A4042B9196A40F29B
:102F780044420A401AB91A6822F001021A60002273
:102F88000271586A704700BF83685A6A026000215C
:102F980010465962704700BFF0B5274BADF5C33DE9
:102FA8009942A9B006463ED8002942D0234D0023B5
:102FB80028AF6C46A5FB0302D20802EB8202A3EB02
:102FC80042023032E25401338B42F3D11C4D621875
:102FD8002B794FF0530E452007F8A0EC02F8010CAE
:102FE80033B9AA6801205362287113680343136038
:102FF80089B2684600F0D6FDAB68196A41F2111231
:103008000A4042B9196A40F244420A401AB91A6899
:1030180022F001021A60586A00232B7130600DF506
:10302800C33D29B0F0BD002030600DF5C33D29B087
:10303800F0BD28AF6C46C9E79F860100CDCCCCCC4B
:103048002002002030B51C4C1C4B1D4AA3600023F5
:103058002360156C1B48237145F0080515641A494F
:103068000268A361A1FB0202D20C013A83B06FF09F
:10307800010192B204F1080061612361E361E26039
:10308800FFF77CF9B8B9A368196A41F211120A402E
:1030980042B9196A40F244420A401AB91A6822F041
:1030A80001021A6000236946084800930193FFF75C
:1030B800D5F903B030BDFEE720020020000C004027
:1030C800003802400C00002083DE1B432802002049
:1030D80008B580B1D0F8143213B10023C0F8143207
:1030E80009B1C0F810120123027080F8FC3106F013
:1030F8001BFD002008BD022008BD00BF19B1C0F8A3
:103108001412002070470220704700BF08B506F06F
:103118003BFD002008BD00BF08B5D0F8143213B13C
:103128001B68984708B1022008BD08BD08B5D0F84B
:1031380014325B689847002008BD00BF38B50446C4
:1031480000F50275284600F0C9FA94F80812B4F898
:103158000E32C4F8F831012201F01F039342C4F87B
:10316800F42115D00ED3022B06D0204601F08001A1
:1031780006F024FD002038BD2046294600F054FA08
:10318800002038BD2046294600F0E0F8002038BD70
:103198002046294600F02AFA002038BD10B513460B
:1031A800044629B9D0F8F421032A0CD0002010BD18
:1031B800D0F814329B69002BF8D090F8FC21032A30
:1031C800F4D19847F2E7D0F80C11D0F810219142C9
:1031D8000CD8D0F814321B691BB190F8FC21032AD3
:1031E8000FD0204600F0E2FA002010BD891A914263
:1031F80038BF0A4692B2C0F80C11194600F0CEFA50
:10320800D4E79847EDE700BF70B51346044649B9BF
:10321800D0F8F421022A15D094F80032012B0CD0F2
:10322800002070BDD0F814325B69002BF8D090F8FC
:10323800FC21032AF4D19847F2E7002384F80032EE
:10324800002070BDC269056AAA421DD88369B3FB14
:10325800F5F605FB16365EB99D4209D8D0F8F82177
:10326800934205D2324600F081FAC4F8F861D3E7F8
:10327800D4F81432DB681BB194F8FC21032A0AD075
:10328800204600F09FFAC7E7521BC261194692B266
:1032980000F06CFAC0E720469847F1E738B50021FE
:1032A800044640231D460A4606F076FC2B460022BB
:1032B800C4F810512046802106F06EFCD4F818326C
:1032C8002562012284F8FC212BB1D4F8143221792B
:1032D8005B6820469847002038BD00BF0174002075
:1032E800704700BF90F8FC2180F8FD21042380F886
:1032F800FC310020704700BF0346002093F8FD21F1
:1033080083F8FC21704700BF08B590F8FC21032A18
:1033180001D0002008BDD0F81432DB69002BF8D0AA
:103328009847002008BD00BF002070470020704764
:103338000020704708B50121D0F8142280F8FC114C
:10334800526801799047002008BD00BF30B54B781E
:1033580083B00D460446092B0CD8DFE803F0364A43
:103368000B5B0B05690B7F16AB881BB9EB88002B31
:1033780000F081808021204606F020FC20460021B4
:1033880006F01CFC002003B030BDA978964D012939
:103398002970EFD890F8FC31022B00F08A80032BBB
:1033A800E8D1002900F016814168012909D0C9B285
:1033B800FFF7BCFE297861602046FFF7ADFE0228C2
:1033C800D8D0204600F0F2F9DCE790F8FC31012271
:1033D800023B93424FF00301CCD8D0F80432C260CC
:1033E80003B1C160204604F10C01022200F0B0F9DB
:1033F800C8E790F8FC31023B012BBBD86B88012B46
:10340800C0D1D0F8143200229B68C0F804222946A3
:103418009847D6E76B88012BB4D1D0F81422C0F8AE
:103428000432294693689847204600F0BFF9A9E777
:103438006A88130A013B062B9CD801A151F823F096
:10344800293500084B350008393500087D33000858
:103458007D33000813350008D5340008EA88012AAE
:1034680088D190F8FC31022B1CD0032B82D1011D8E
:1034780000F06EF986E790F8FC31AD78032B05F083
:103488007F053FF477AF80F8FE51294606F0BAFB76
:10349800204600F08BF9002D00F08F80022384F87D
:1034A800FC316FE70146002341F8083F00F050F96E
:1034B80068E7002985D001210323416080F8FC31A9
:1034C800FFF72AFE02287FF47CAF53E7037C002B2A
:1034D8007FF450AFD0F8143268461B6B9847072327
:1034E80001464370BDF80030002B3FF44BAFEA882B
:1034F800002A3FF447AF9A4238BF13461A4620467F
:10350800ADF8003000F024F93CE7037C002B7FF491
:1035180031AFD0F8143268465B6B98470146E1E753
:10352800D0F81032007C1B68694698470146D9E7F5
:10353800D2B2052A3FF61EAFDFE802F0271F170FA9
:10354800372F037C002B3CD1D0F8143268469B6A95
:103558009847022301464370C4E7D0F81032007C34
:103568001B69694698470146BCE7D0F81032007CD1
:10357800DB68694698470146B4E7D0F81032007C0A
:103588009B68694698470146ACE7D0F81032007C42
:103598005B68694698470146A4E7D0F81032007C7A
:1035A8009B696946984701469CE7D0F81032007C31
:1035B8005B6969469847014694E7012384F8FC3122
:1035C800E0E6D0F814326846DB6A984702230146E1
:1035D800437087E70223416080F8FC31FFF7A6FDBE
:1035E800204600F0E3F8CDE66402002038B590F8F4
:1035F800FC31032B04460D4602D10B79012B08D967
:10360800802106F0DBFA2046002106F0D7FA0020D8
:1036180038BDD0F814329B689847EB88002BF6D158
:10362800204600F0C3F8F2E738B54B788A88012BBA
:103638000C460546D1B223D018D3032B14D190F8E9
:10364800FC31022B16D0032B3FD163881BB94A06E5
:1036580001D006F0B3FAD5F8143221469B68284603
:103668009847284600F0A2F8002038BD90F8FC31B1
:10367800022B13D14A06F7D006F0A0FA002038BD75
:1036880090F8FC31022BF5D0032B1ED16388002B58
:10369800EAD14B06E5D006F099FADCE7032B14D102
:1036A80001F07F0400EB041413064CBF143404F536
:1036B800827406F093FA003018BF0120206021467A
:1036C8002846022200F044F8CEE7802106F076FA78
:1036D8002846002106F072FAD0E700BF0B78037085
:1036E8004B784370CA788B7803EB022343804A797E
:1036F8000B7903EB02238380CA798B7903EB0223CE
:10370800C380704730B4F0B10378F3B104460023A6
:1037180014F8015F0133DBB2002DF9D15B000233ED
:10372800DCB2032513800C704D7002785AB1022365
:1037380000255C1CE4B2CA540D5510F8012F023361
:10374800DBB2002AF5D130BC704702242346E8E7F3
:1037580038B5134602250A468361C361C0F8F4519F
:10376800002106F057FA002038BD00BF08B51346FF
:103778000A46002106F04EFA002008BD38B5134667
:1037880003250A46C0F80831C0F80C31C0F8F451D6
:10379800002106F047FA002038BD00BF08B51346DF
:1037A8000A46002106F03EFA002008BD08B50021AF
:1037B8000423C0F8F4310A460B4606F02BFA002021
:1037C80008BD00BF08B500210523C0F8F4310A463A
:1037D8000B4606F027FA002008BD00BFD0F81832C3
:1037E8001BB10020C3F8140270470220704700BFC5
:1037F800D0F81C3210B5D0F818425BB194F800022A
:10380800FF2807D09B6894F8012221469847FF2398
:1038180084F80032002010BD43230380004870471D
:10382800100000204323038000487047DC0000207C
:103838004323038000487047980000200A23038030
:10384800004870478C00002038B50446D0F818525C
:1038580006F0F0F9D4F81832C5F80C024BB1D4F8D8
:103868001C32D5F80402DB6805F50371984700207F
:1038780038BD022038BD00BF70B50B78D0F818628B
:1038880003F06002202A0C4605460DD1C98869B1AB
:103898001B0613D4637886F80032E38886F8013271
:1038A800E2883146FFF76AFF002070BDD0F81C326D
:1038B80060789B680A469847002070BDD0F81C3293
:1038C80060789B680A463146984728463146E28820
:1038D800FFF73EFF002070BD10B58121044606F0B9
:1038E80065F90121204606F061F92046822106F09B
:1038F8005DF9D4F8183253B1D4F81C325B68984794
:10390800D4F8180207F0E4FF0023C4F818320020A6
:1039180010BD00BFF8B5037C04468121022263BBB9
:103928004FF4007306F038F92046012102224FF4C3
:10393800007306F031F9822103220823204606F09D
:103948002BF94FF4077007F0BBFF0546C4F81802BF
:1039580018B3D4F81C321B689847277CD5F8042282
:103968000026C5F814622046C5F81862012177B10F
:10397800402306F057F93046F8BD402306F00CF90D
:10398800204601210222402306F006F9D3E74FF42E
:10399800007306F047F93846F8BD0120F8BD00BFAE
:1039A80019B1C0F81C12002070470220704700BFF0
:1039B800D0F818320020C3F80812C3F81022704754
:1039C800D0F818320020C3F804127047D0F8183223
:1039D80010B583B1D3F814420CB1012010BD0122F7
:1039E800C3F814228121D3F80822B3F8103206F064
:1039F80011F9204610BD022010BD00BFD0F81832C2
:103A080010B57BB1047CD3F80422012124B14023F2
:103A180006F008F9002010BD4FF4007306F002F913
:103A2800204610BD022010BD002070472DE9F0434C
:103A38000A6883B01AB3304D0023A8461C461F46B7
:103A48004FF00509C35C242B39D00D2B20D00A2B4D
:103A58001ED095F85360013E032E0BD8DFE806F020
:103A68001628021B85F8503085F8527004230A681E
:103A780085F853300134A4B294422346E2D31F4858
:103A8800FFF7BCFF002003B0BDE8F083432B1AD03A
:103A980085F85370EEE72A2B1FD095F85220502A4C
:103AA80015D008F80230013288F852200A68E1E798
:103AB80085F8513003230A6885F85330DAE7012383
:103AC80085F85330D6E7022385F85330D2E788F8D3
:103AD800527088F853700A68CCE785F853900190C3
:103AE800009105F049FE00BF009985F8527085F8ED
:103AF80053700A680198BDE7F0B60120B0B4012000
:103B080010B50A4C0A492046FFF75AFF20460949D2
:103B18000022FFF74DFF084B084A002001211170D1
:103B280083F8520083F8530010BD00BFB0B40120E1
:103B38006802002070040020F0B6012044B701207C
:103B48002028F0B414D021280FD1154B1A680A7018
:103B58001A68120A4A705A888A70DA78CA701A790A
:103B68000A715A794A719B798B710020F0BC7047B1
:103B78008F784E780D78CC7891F804C048798A7996
:103B8800074B390441EA0621294341EA0461587187
:103B980083F804C09A7100201960F0BC704700BF18
:103BA80030010020F8B5134DD5F81842FCB1D4F80F
:103BB8001432012B19D0D4F810E20F4FCEF5FF7351
:103BC8000133994234BF0E461E463246014607EB82
:103BD8000E0007F085FED4F81022324492B239461E
:103BE8002846FFF7E5FE3046F8BD0020F8BD204620
:103BF800F8BD00BFB0B40120700400202DE9F041E9
:103C0800154D804607F057FFD5F818420CB3D4F885
:103C18001432012B1AD0D4F810E2104FCEF5FF73EE
:103C2800013386B29E4228BF1E464146324607EB04
:103C38000E0007F055FED4F81022324492B23946ED
:103C48002846FFF7B5FE3046BDE8F0810020BDE804
:103C5800F0812046BDE8F081B0B401207004002056
:103C68000B4810B5D0F818427CB1D4F810320BB913
:103C7800012010BDFFF7AAFE38B9D4F81432002B82
:103C8800FBD1C4F81032012010BD002010BD00BFC8
:103C9800B0B401200B4810B5D0F818427CB1D4F864
:103CA80010320BB9012010BDFFF790FE38B9D4F8D7
:103CB8001432002BFBD1C4F81032012010BD0020B3
:103CC80010BD00BFB0B40120F8B5C46A00F13007D8
:103CD8000546224640783946012302F069FEB0B90C
:103CE8002A6AAB692871A21A9A420ED2EE78012E7E
:103CF80001D80AE0AB691C44013E2246687839467F
:103D0800012302F055FE012EF4D10020F8BD012058
:103D1800F8BD00BF2DE9F041C56A8D4204460E4644
:103D280033D0037900F130087BB9324641466078D8
:103D3800012302F0D7FD002818BF4FF0FF36E662D6
:103D480014BF01200020BDE8F081414640782A4692
:103D5800012302F02DFEA8B9226AA3692071AA1ACC
:103D68009A42E2D2E778012F01D8DEE7A3691D4421
:103D7800013F2A4660784146012302F019FE012FCF
:103D8800F4D1D2E70120BDE8F0810020BDE8F08140
:103D98002DE9F84F0379044663B92378032B2AD019
:103DA800002160780A4602F0E1FE003018BF0120C9
:103DB800BDE8F88FC56A407804F130072A463946CD
:103DC800012302F0F5FD002866D1226AA36920715B
:103DD800AA1A9A42E1D2E678012E01D8DDE7A36952
:103DE8001D44013E2A4660783946012302F0E0FD71
:103DF800012EF4D1D1E76579012DD1D104F1300735
:103E0800384600214FF4007207F073FD2269E66816
:103E1800E36984F81C624FEA12694FEA164C4FEACC
:103E2800166EC6F307284FF05506522084F818225C
:103E3800C2F3072B4FEA124A39465A1C41272B4630
:103E480084F81B9261254FF0720984F82E626FF096
:103E5800550684F8300084F8310084F819B284F8E3
:103E68001AA284F81D8284F81EC284F81FE2E26256
:103E780084F82F6284F8325084F8175284F833702B
:103E880084F8167284F8149284F81592607802F017
:103E98008FFD0023637183E70120BDE8F88F00BF21
:103EA8002DE9F84F0378022B04460D46164600F01C
:103EB8009080032B72D0012B02D00220BDE8F88F2E
:103EC800016AC76A05EB550901EB5928B84500F0A6
:103ED8002881027900F1300B002A40F09E80594673
:103EE80060784246012302F0FDFC00286BD1216A6C
:103EF800C4F82C80474609F1010A15F00105C9F3F9
:103F08000809A144F2B206D099F8303003F00F0343
:103F180043EA0212D2B201EB5A2B0123C34589F8B6
:103F2800302023712BD004F130094946607842468D
:103F380002F03EFD002849D1226AA3692071C2EB34
:103F480008029A4212D294F80380B8F1010F01D8FE
:103F58000CE0A3691F4408F1FF383A4660784946E7
:103F6800012302F025FDB8F1010FF2D1494660782E
:103F78005A46012302F0B6FC28BBC4F82CB0CAF399
:103F8800080A002D00F0CF80C6F30716A2440123CB
:103F98008AF8306023710020BDE8F88F036AC76A89
:103FA80003EBD119B94500F0A180037900F1300A7B
:103FB800002B76D1514660784A46012302F092FCE4
:103FC800002800F091804FF0FF33E3620120BDE844
:103FD800F88F036AC76A03EB1129B9450ED0037934
:103FE80000F1300A002B3AD1514660784A46012345
:103FF80002F078FC0028E6D1C4F82C906D0005F496
:10400800FF756119C6F30722012381F8306081F832
:10401800312023710020BDE8F88F594640783A4690
:1040280002F0C6FC0028D1D1226AA3692071BA1A0D
:104038009A42BFF454AF94F803A0BAF1010F01D823
:104048004DE7A3691F440AF1FF3A3A46607859469A
:10405800012302F0ADFCBAF1010FF2D13FE751465E
:1040680040783A46012302F0A3FC0028AED1226A28
:10407800A3692071BA1A9A42B6D294F80380B8F1AB
:10408800010F01D8B0E7A3691F4408F1FF383A4689
:1040980060785146012302F08BFCB8F1010FF2D190
:1040A800A2E7514640783A46012302F081FC0028F5
:1040B8008CD1226AA3692071BA1A9A42BFF47AAFE6
:1040C80094F80380B8F1010F01D873E7A3691F447E
:1040D80008F1FF383A4660785146012302F068FC3F
:1040E800B8F1010FF2D165E7C4F82C90AD0005F4E2
:1040F800FE7505F1300323442544DA78120602F0F0
:1041080070421643C6F3072C370C310E012285F88E
:10411800306083F801C09F70D97022710020BDE81B
:10412800F88F4746E7E6A244C6F303269AF83030EC
:1041380023F00F031E432AE72DE9F84F0378022BDB
:1041480004460D4661D0032B45D0012B02D0012037
:10415800BDE8F88F016AC66A05EB550901EB5927D6
:10416800B74200F0EC80027900F1300A002A6ED1E3
:10417800514660783A46012302F0B4FB00283FD14B
:10418800216AE7623E46C9F3080309F1010923449D
:1041980001EB5928B84593F830A00ED0237904F1E3
:1041A800300B002B40F0CD80594660784246012301
:1041B80002F098FB20BBC4F82C80C9F308094C44D2
:1041C80094F830304AEA0320EB074CBF0009C0F3EB
:1041D8000B00BDE8F88F036AC66A03EBD118B04537
:1041E80000F09780037900F13009002B6ED1494621
:1041F80060784246012302F075FB002800F08780B2
:104208004FF0FF30E062BDE8F88F036AC66A03EB3F
:104218001128B0450ED0037900F13009002B37D1B1
:10422800494660784246012302F05CFB0028E7D14A
:10423800C4F82C806D0005F4FF7563191C4693F8CB
:10424800303094F8310043EA0020BDE8F88F514639
:104258004078324602F0ACFB002854D1226AA369A8
:104268002071B21A9A4283D294F80380B8F1010FF0
:1042780001D87DE7A3691E4408F1FF38324660780B
:104288005146012302F094FBB8F1010FF2D16FE718
:10429800494640783246012302F08AFB002832D191
:1042A800226AA3692071B21A9A42B9D2E778012F1B
:1042B80001D8B5E7A3691E44013F324660784946F4
:1042C800012302F075FB012FF4D1A9E74946407894
:1042D8003246012302F06CFBA8B9226AA369207157
:1042E800B21A9A4283D2E778012F01D87FE7A369EF
:1042F8001E44013F324660784946012302F058FBCC
:10430800012FF4D173E74FF0FF30BDE8F88FC4F800
:104318002C80AD0005F4FE7505F1300323442C44D0
:10432800D87899785A7894F83030000640EA0140F5
:1043380040EA0220184320F07040BDE8F88F3E465E
:1043480021E7594660783A46012302F031FB0028FC
:10435800D9D1226AA3692071BA1A9A42BFF424AF4C
:10436800E778012F01D81FE7A3691E44013F3246B1
:1043780060785946012302F01BFB012FF4D113E7A3
:10438800836870B50446012B0D46E18003D00068B0
:104398004269934201D3022070BDC3B90178032951
:1043A80011D002899542F6D2426AE360002AF2D01F
:1043B80005F00F0300EB431002EB1512303060617B
:1043C8002261002070BD416A0029EAD00B46867838
:1043D8003601B54219D3012BDDD99A42C6EB050542
:1043E800D9D908E00128D6D9206842699A42D2D999
:1043F800AE420AD80D461946FFF79EFE421C0346F8
:10440800C6EB0501EED1012070BD023A991E91421A
:1044180004D28678826A06FB0122C6E7E360BAE71F
:104428002DE9F04F83B004460091002954D1C668A5
:104438004369002E5AD10126354601359D4259D38C
:10444800012E40F24681022B4CD92378022B4FF0E3
:10445800020554D0032B7CD0012B43D1226AE76A92
:1044680005EB550902EB5928B84500F0308122794F
:1044780004F1300B002A40F0078159466078424623
:10448800012302F02FFAF8B9226AC4F82C80C34637
:10449800C9F30803234409F1010902EB592793F8EA
:1044A80030300193474500F04C81237904F1300AFC
:1044B800002B40F02081514660783A46012302F0F3
:1044C80011FA002800F03C814FF0FF33E3624FF00F
:1044D800FF3003B0BDE8F08F012903D94369994241
:1044E800C0F0FB80012003B0BDE8F08F9E4228BFDA
:1044F8000126A1E7012DF5D92378022BAAD1236A39
:10450800E76A03EB1529B9450FD0237904F1300A7E
:10451800002B40F09580514660784A46012302F00E
:10452800E1F90028D0D1C4F82C906B0003F4FF7394
:10453800E218134692F8302093F8313042EA032308
:10454800002B31D0012BCDD0AE4200F0C280636980
:1045580073E7236AE76A03EBD519B9450ED02379C7
:1045680004F1300A002B48D1514660784A460123AD
:1045780002F0B8F90028A7D1C4F82C90AA0002F4D8
:10458800FE7202F1300323442244DF789878597888
:1045980092F830203B0643EA004343EA01231343E1
:1045A80023F07043002BCDD16369AB429AD92046E2
:1045B80029466FF07042FFF773FC002840F0CF8067
:1045C800009B6BB1012B1A468CD963699A4289D238
:1045D800114620462A46FFF763FC002840F0BF80BA
:1045E8002369E5605A1C00F0BE806279013B42F005
:1045F800010223612846627175E7514660783A46A0
:10460800012302F0D5F900287FF461AF226AA3697B
:104618002071BA1A9A42A7D294F80380B8F1010F10
:1046280001D8A1E7A3691F4408F1FF383A4660782A
:104638005146012302F0BCF9B8F1010FF2D193E71A
:10464800514660783A46012302F0B2F900287FF417
:104658003EAF226AA3692071BA1A9A42BFF45BAFCF
:1046680094F80380B8F1010F01D854E7A3691F44F7
:1046780008F1FF383A4660785146012302F098F96C
:10468800B8F1010FF2D146E7594660783A4602F090
:104698008FF900287FF41BAF226AA3692071BA1A28
:1046A8009A42BFF4EAAE94F803A0BAF1010F01D818
:1046B800E3E6A3691F440AF1FF3A3A46607859468F
:1046C800012302F075F9BAF1010FF2D1D5E6C3461C
:1046D800DEE6002003B0BDE8F08FFFF72DFD0128CE
:1046E8007FF600AF451C3FF4F2AE636983423FF6A4
:1046F800FAAE009EA0E6514660784246012302F0D9
:1047080057F900287FF4E3AE226AA3692071C2EB4F
:1047180008029A42BFF4CFAE94F80380B8F1010FB3
:1047280001D8C8E6A3699B4408F1FF385A46607867
:104738005146012302F03CF9B8F1010FF2D1BAE673
:10474800E762C9F308032344019A93F83030E90774
:1047580042EA03234CBF1B09C3F30B03F0E601280D
:104768007FF4C0AEB3E62846BDE600BF2DE9F84F9A
:1047780091F900302F2B8946064600F089805C2B82
:1047880000F086800024B46099F800301F2B40F2B6
:104798008880B26949460B4601311C7864B22F2CD7
:1047A800F9D05C2CF7D02021002411705170917041
:1047B800D170117151719171D171117251729172DF
:1047C8002546A2464FF008085F5DF8B2202805F19B
:1047D800010931D92F2856D05C2854D02E2800F052
:1047E8006E8144452CD200F17F013F06C9B248BF13
:1047F8004AF0030A1E2931D900F12001C9B21C2947
:104808002CD922281CD09E4F01E0604518D017F8FB
:10481800015F4FFA85FC002DF7D1A0F1410119295C
:1048280013D84AF0020A10554D4601345F5DF8B2BC
:10483800202805F10109CDD899440423002C39D149
:104848004FF006084046BDE8F88FA0F1610119292C
:10485800E9D82038C0B24AF0010AE4E713F8091091
:10486800A1F140073E2F05F1020503D981F0800729
:104878007C2FE5D808F1FF37BC42E1D2671C105500
:10488800D1550234A0E799440023002CD8D011E078
:1048980009F101090024B46099F800301F2B3FF694
:1048A80078AF30462146FFF76BFD8046746140467D
:1048B800BDE8F88F1178E52904BF05211170B8F11A
:1048C800080F04BF4FEA8A0A5FFA8AFA0AF003015E
:1048D80001290AF00C0A08BF43F01003BAF1040FCB
:1048E80008BF43F00803D37230460021FFF748FDA4
:1048F8008046002865D13468D6F810A0E56A554589
:1049080015D0237904F1300B002B6FD1594660780C
:104918005246012301F0E6FF38B14FF0FF33E3625E
:104928004FF001084046BDE8F88FC4F82CA0736921
:104938001978002900F09780D87A05073BD4B26926
:104948001478A14237D15C7851788C4233D19C7865
:1049580091788C422FD1DC78D1788C422BD11C797C
:1049680011798C4227D15C7951798C4223D19C7979
:1049780091798C421FD1DC79D1798C421BD11C7A78
:10498800117A8C4217D15C7A517A8C4213D19C7A75
:10499800917A8C420FD1D17A49073FF553AFC006BF
:1049A8006BD53068DC7E0078997E032841EA0421C3
:1049B80045D0B160EEE6F5880135ABB23BB94FF0B2
:1049C8000408B369B8F1040FDB7A4ED03AE7D6F899
:1049D80010A0BAF1000FF2D015F00F0724D03468F8
:1049E80004EB471330337361F58087E759466078E5
:1049F8002A46012301F0DCFF002891D1226AA3692D
:104A08002071AA1A9A4281D2E778012F01D87DE74E
:104A1800A3691D44013F2A4660785946012301F0E5
:104A2800C7FF012FF4D171E7F16834680AF1010A70
:104A3800C6F810A051B923899D42C0D2D0E7587D4D
:104A48001B7D43EA002341EA0341B2E7A378013B17
:104A580013EA1513C4D1012902D96369994211D304
:104A68004FF00208ADE7B369DB7A13F0040F0CBF0F
:104A78004FF005084FF00408E4E64FF00508E1E6BA
:104A880080C200082046FFF757FB0128E8D9441CDC
:104A980012D034686369984291D29A1E831E934259
:104AA800F0603BBF94F802A0A26A4FF0000A0AFB2C
:104AB800032AC6F810A093E74FF0010881E7B8F180
:104AC800080F7FF4BDAE4FEA8A0A44465FFA8AFAB5
:104AD8004D464FF00B0877E62DE9F04F002183B0E3
:104AE8000646FFF74DFC814628B1042864D04846A5
:104AF80003B0BDE8F08F3468D6F810804FF0010A93
:104B0800E56A454516D0237904F1300B002B65D1B1
:104B1800594660784246012301F0E4FE40B14FF067
:104B2800FF33E3624FF00109484603B0BDE8F08F58
:104B3800C4F82C8070690378E52B01D0002B37D19D
:104B48003468D6F81080E56AA8450FD0237904F1B7
:104B5800300A002B78D1514660784246012301F093
:104B6800C1FE0028DBD17069C4F82C800021202206
:104B780006F0BFFE7369B26943EA0201890740F093
:104B88008480101D191D8A4238BF83427DD3116865
:104B9800196051685960117A1972517A5972927A6A
:104BA8009A723368012248461A7103B0BDE8F08F43
:104BB800F5880135ABB213B94FF0070997E7D6F876
:104BC8001080B8F1000FF7D015F00F0724D0346823
:104BD80004EB471730377761F58091E759466078DD
:104BE8002A46012301F0E4FE00289BD1226AA3692A
:104BF8002071AA1A9A428BD2E778012F01D887E749
:104C0800A3691D44013F2A4660785946012301F0F3
:104C1800CFFE012FF4D17BE7F168346808F1010871
:104C2800C6F8108061B1A378013B13EA1513CFD100
:104C3800012902D96369994238D34FF0020956E72E
:104C480023899D42B8D2C3E7514660782A4601239A
:104C580001F0AEFE00287FF465AF226AA36984F8EC
:104C68000490AA1A9A42BFF476AFE778012F01D8C8
:104C780071E7A3691D44013F2A4660785146012324
:104C880001F096FE012FF4D165E71178197051787B
:104C9800597091789970D178D970117919715179C1
:104CA800597191799971D179D97174E72046FFF7D3
:104CB80043FA01288346C0D9B0F1FF3F3FF432AF31
:104CC8003468636998420FD2821E023B9342C6F849
:104CD8000CB085BF94F80280A36A4FF0000808FB67
:104CE8000238C6F8108073E72046F168FFF798FB92
:104CF800834600283FF460AF01289ED0B0F1FF3F03
:104D08003FF410AF30680379002B2ED100214FF407
:104D18000072303006F0EDFD34686369A178023B1B
:104D2800ABF102029A4236BFA36A002301FB0233A9
:104D3800E36209B34FF0000805E0E36AA1780133A4
:104D48008845E36219D284F804A03468237908F10D
:104D58000108002BF1D020460192FEF7B5FF019A19
:104D680000287FF4DFAE3468E7E7FEF7ADFF0028E0
:104D78007FF4D8AE3068C9E78846C8EB0301E16222
:104D88006369A2E72DE9F04F002303600E6885B040
:104D980090464EB33378202B0ED94FFA83FCBCF1E2
:104DA8003A0F21D0771C3B4601E03A2C1AD01D4619
:104DB80013F8014B202CF8D8C34B1C680CB30460C3
:104DC800237823B1607801F083FDC70710D5002050
:104DD8002070607001F098FCC60716D5032005B056
:104DE800BDE8F08FAF4238D00B2005B0BDE8F08F9A
:104DF800B8F1000F3AD010F0040F0CBF00200A20C1
:104E0800EDE70C2005B0BDE8F08FB8F1000F03D036
:104E1800450701D50A20E2E700224FF0FF3504F1EB
:104E280030072271E56239466078012301F05AFDA6
:104E3800C8B994F82F1294F82E22A44BE06242EAE3
:104E4800012212B29A4200F0AD8002230025032B02
:104E580000F0A6806BB10D20C1E7BCF1300FC3D1C3
:104E680002360E60A8E7E5620323EFE74046B6E79F
:104E7800054694F83C2094F83B3043EA0223B3F506
:104E8800007FE8D194F8471094F8463053EA01219E
:104E98000DD194F8562094F8570094F8543094F8AB
:104EA8005510120442EA0062134343EA012194F8C0
:104EB8004020A161531E012BE270CCD894F83D30FC
:104EC800A37002FB01FC002BC5D05A1E1A42C2D1A6
:104ED80094F8420094F8412042EA00221007228107
:104EE800B9D194F8446094F8430050EA06260DD1ED
:104EF80094F8527094F8538094F8500094F85160E4
:104F08003F0447EA0867384340EA062694F83F70AA
:104F180094F83E0050EA07279DD007EB1210604432
:104F2800864298D3361AB6FBF3F3002B93D040F69B
:104F3800F576B34240F285814FF6F576B34200F23A
:104F48006481022602332F44284463612762A062E9
:104F5800E561002A3FF47FAF6744022E676200F0E4
:104F6800528103EB430203F0010303EB52030126D2
:104F780003F2FF13B1EB532FFFF46DAF4FF0FF3384
:104F88008022032E2361E360627100F0D980504AC9
:104F98002670138801339BB21380E38000201EE73C
:104FA80001201CE794F8685094F8696094F866202A
:104FB80094F86710474B2D0445EA06652A4342EAF0
:104FC800012222F07F429A4200F0B88094F884507F
:104FD80094F8856094F8822094F883102D0445EAAB
:104FE80006652A4342EA012222F07F429A423FF4B0
:104FF8003FAF94F8F2216AB194F8F91194F8F801E6
:1050080094F8F63194F8F721090641EA00410B4378
:1050180043EA022294F8023200926BB194F8091222
:1050280094F8080294F8063294F80722090641EA2F
:1050380000410B4343EA022394F8122201936AB118
:1050480094F8191294F8180294F8163294F8172262
:10505800090641EA00410B4343EA022294F822324E
:1050680002926BB194F8281294F8290294F8263227
:1050780094F82722090441EA00610B4343EA02231A
:10508800DFF848A0DFF84C900393ADF104060DF16A
:105098000C0856F8045F1DB902234645F9D1D6E637
:1050A8004FF0FF3B00235D452371C4F82CB014D0AA
:1050B800607839462A46012301F014FC60B1C4F82F
:1050C8002CB00323E9E700BF7C06002055AAFFFFA8
:1050D8007806002046415400E56294F82F2294F89F
:1050E8002E3243EA02231BB25345D5D194F86810F7
:1050F80094F8690094F8663094F86720090441EA46
:1051080000610B4343EA022323F07F434B453FF4FE
:10511800B0AE94F8841094F8850094F8823094F82E
:105128008320090441EA00610B4343EA022323F088
:105138007F434B453FF49DAE0123AEE7034685E62A
:1051480094F8612094F8603043EA0223012B7FF43D
:105158001EAF691C2046FEF7DDFD00287FF417AF5F
:1051680094F82F1294F82E22374B607142EA0122EC
:1051780012B29A427FF40BAF94F8320094F833508D
:1051880094F8302094F83110304B000440EA056060
:10519800024342EA01229A427FF4F9AE94F81602D9
:1051A80094F8175294F8142294F81512000403F195
:1051B800FF5340EA056003F500530243203342EAF7
:1051C80001229A427FF4E3AE94F81A7294F81E52C0
:1051D80094F81B8294F81FC294F8182294F81C3291
:1051E80094F8190294F81D123F042D0447EA086741
:1051F80045EA0C653A432B4342EA002243EA01237D
:105208002261E360C3E65B00B2E602332F44284420
:1052180063612762A062E561002A7FF41CAE94F8FE
:105228005E6094F85F7094F85C2094F85D00360432
:1052380046EA0766324342EA00229B00626203267E
:1052480096E601267EE600BF55AAFFFF525261414D
:1052580030B583B00B4601900091F9B10978202947
:105268000CD949B23A2919D05D1C2B4601E03A28DD
:1052780012D01C4613F8010B2028F8D80F490B68E8
:105288000BB100201870019B93B10020012A0B601C
:10529800187006D003B030BDA5420CD00B2003B067
:1052A80030BD0246694601A8FFF76CFD03B030BD6A
:1052B8000B601846EEE73029E0D0EFE77C060020C7
:1052C8002DE9F04F044693B00D469046002866D06D
:1052D8000023036000295ED00B78202B0CD95EB226
:1052E8003A2E58D0481C034601E03A2A51D01946B4
:1052F80013F8012B202AF8D8794B1E68002E5DD0B0
:105308000B96337808F01E07002B4CD0707801F00C
:10531800DFFAC10747D40FB1420754D4294607AB77
:105328000BA81193FFF722FA08F01F07109D002819
:1053380066D018F01C0F2FD004282DD10BA8FFF72A
:10534800CBFB47F00807109D30BB3E0700F1938068
:105358000B9EF36AE36100232562A771E37132783B
:10536800E97EAB7E032A43EA012365D02361A87F47
:10537800EF7F2A7F697FF388A380000440EA0760F3
:10538800024342EA012200202660E260A060A06198
:1053980002E0884219D00B2013B0BDE8F08F092035
:1053A80013B0BDE8F08F00203070707001F0ACF9D8
:1053B800C30705D5032013B0BDE8F08F0C20EBE739
:1053C8003FB1470705D50A20E6E7302EE3D102357D
:1053D80092E700224FF0FF3706F1300A3271F76288
:1053E80051467078012301F07DFA002833D0F76226
:1053F80003230027032B71D0002B76D00D20CBE799
:10540800002D36D018F01C0F05D0EB7A13F0110FD1
:1054180019D00720C0E7EB7ADA061AD418F0020F81
:1054280001D0DB07F5D408F00803DBB20B9E002B94
:105438008FD047F020078CE7697D2A7D42EA012258
:1054480043EA024392E718F0040F3FF47EAF0820C6
:10545800A2E70420A0E796F82F1296F82E22214BF7
:10546800F06242EA012212B29A4200F0F18002236D
:10547800BFE706205DE701F091FC0023010C020E56
:10548800C0F3072C0B9E29746A74A87385F80FC0A3
:10549800EB722B776B77AB77EB773378E97EAA7E65
:1054A800032B42EA0122019200F0C9800023AB7667
:1054B800EB762B756B75019B01223271002BB8D0EE
:1054C800F26A0492012B04D97369019A9A42C0F0D6
:1054D8008581022060E74FF0FF33F36201205BE72C
:1054E8007C06002055AAFFFF019C96F83C2096F800
:1054F8003B3043EA0223B3F5007F7FF47FAF96F891
:10550800471096F8463053EA01210DD196F85620F7
:1055180096F8570096F8543096F85510120442EA57
:105528000062134343EA012196F840A0B1610AF1F1
:10553800FF33012B86F803A03FF660AF96F83D30A5
:10554800B3700AFB01FA002B3FF458AF5A1E1A42F7
:105558007FF454AF96F8420096F8412042EA0022C0
:10556800100732817FF44AAF96F8449096F84300CA
:1055780050EA09290FD196F852C096F853B096F818
:10558800500096F851904FEA0C4C4CEA0B6C4CEAE0
:10559800000040EA092996F83FC096F83E0050EA14
:1055A8000C2C3FF42BAF0CEB1210504448453FF63F
:1055B80025AFC0EB0909B9FBF3F3002B3FF41EAF8D
:1055C80040F6F5794B4540F2F8824FF6F5794B45B0
:1055D80000F2D3824FF002090233BC4438447361AD
:1055E800C6F820C0B062F761002A3FF407AF0AEBA3
:1055F8000C02B9F1020F726200F0BD8203EB4302A4
:1056080003F0010303EB52034FF0010903F2FF1308
:10561800B1EB532FFFF4F2AE4FF0FF338022B9F114
:10562800030F3361F360727100F04082BC4A86F860
:105638000090138801339BB21380F3806EE66A7D75
:105648002B7D43EA0223019A42EA034201922DE7A5
:1056580096F8687096F869C096F8662096F867100C
:10566800B04B3F0447EA0C673A4342EA012222F072
:105678007F429A4200F0E38196F8847096F885C0DC
:1056880096F8822096F883103F0447EA0C673A435D
:1056980042EA012222F07F429A4200F0D28196F833
:1056A800F2316BB196F8F91196F8F80196F8F631DF
:1056B80096F8F721090641EA00410B4343EA022321
:1056C800079396F802326BB196F8091296F8080219
:1056D80096F8063296F80722090641EA00410B437C
:1056E80043EA0223089396F812326BB196F819121E
:1056F80096F8180296F8163296F81722090641EA23
:1057080000410B4343EA0223099396F822326BB116
:1057180096F8281296F8290296F8263296F8272243
:10572800090441EA00610B4343EA0223DFF8F4C1AC
:105738000A930DF118090DF1280B019459F8047F0B
:1057480027B90223D945F9D1019C53E64FF0FF341C
:105758000023A7423371F4620ED07078CDF800C0F0
:1057680051463A46012301F0BDF8DDF800C010B1FA
:10577800F4620323E6E7F76296F82F2296F82E32B2
:1057880043EA0223684A1BB29342DAD196F86810BA
:1057980096F8690096F8663096F86720090441EA99
:1057A80000610B4343EA022323F07F4363453FF440
:1057B8009BAE96F8841096F8850096F8823096F895
:1057C8008320090441EA00610B4343EA022323F0E2
:1057D8007F4363453FF488AE0123B3E7029706F1A0
:1057E8003008174603949F4280F05281012F7FF6BC
:1057F80070AE3378022B00F09980032B64D0012B14
:105808007FF467AE326AD6F82CA007EB570B02EB91
:105818005B29D14500F0ED803279002A40F0A6805E
:10582800707841464A46012301F05CF800287FF46D
:1058380052AE326AC6F82C90CA46CBF308033344FA
:105848000BF1010402EB542B93F830300593CB4550
:105858000ED03379002B40F0F680707841465A46D6
:10586800012301F03FF800287FF435AEC6F82CB0CC
:10587800C4F308033344F80793F83090059B43EAD0
:1058880009294CBF4FEA1914C9F30B04002C00F086
:10589800FF80012C3FF41DAE73699F42BFF419AE1F
:1058A800394630460022FEF7FBFA00287FF474AD33
:1058B8003369591C05D07279013342F00102336112
:1058C8007271736927468EE7336AF46A03EBD71A55
:1058D800A2450ED03379002B40F08D807078414678
:1058E8005246012300F0FEFF00287FF4F4ADC6F80D
:1058F8002CA0BA0002F4FE7202F130033344B0184F
:10590800DA78997893F8019090F83030120642EAE4
:10591800014242EA092949EA030929F07044B5E736
:10592800780600204641540055AAFFFF336AF46AFE
:1059380003EB172AA2450DD03379002B36D17078A6
:1059480041465246012300F0CDFF00287FF4C3AD45
:10595800C6F82CA07B0003F4FF73F218134692F8E4
:10596800302093F8319042EA09248FE77078414655
:10597800524601F01DF800287FF4B0AD326AB369D1
:105988003071C2EB0A029A42BFF44AAFF478012C94
:1059980001D845E7B3699A44013C524670784146BC
:1059A800012301F005F8012CF4D139E7707841465C
:1059B8002246012300F0FCFF00287FF48FAD326AF5
:1059C800B3693071A21A9A42B9D296F803B0BBF102
:1059D800010F01D8B3E7B3691C440BF1FF3B224622
:1059E80070784146012300F0E3FFBBF1010FF2D1CB
:1059F800A5E7CA4621E7707841462246012300F010
:105A0800D7FF00287FF46AAD326AB3693071A21AF1
:105A18009A42BFF463AF96F803B0BBF1010F01D807
:105A28005CE7B3691C440BF1FF3B224670784146A2
:105A3800012300F0BDFFBBF1010FF2D14EE7034691
:105A4800D7E4074651E5707841464A46012300F0FD
:105A5800AFFF00287FF442AD326AB3693071C2EB00
:105A680009029A42BFF4F9AE96F80390B9F1010F12
:105A780001D8F2E6B3699A4409F1FF3952467078C1
:105A88004146012300F094FFB9F1010FF2D1E4E699
:105A9800019A0B980499029F039C531EC360FEF75A
:105AA80039F900287FF478AC0B9EC2E496F861209F
:105AB80096F8603043EA0223012B7FF4B7AD791CD6
:105AC8003046FEF727F900287FF4B0AD96F82F127C
