:020000040800F2
:1000000000000220950200089D020008A1020008DD
:10001000A5020008A9020008AD02000800000000C7
:10002000000000000000000000000000B102000815
:10003000B502000800000000B90200089D42000857
:10004000C9020008C9020008C9020008C902000864
:10005000C9020008C9020008C9020008C902000854
:10006000C9020008C9020008C9020008C902000844
:10007000C9020008C9020008C9020008C902000834
:10008000C9020008C9020008C9020008C902000824
:10009000C9020008C9020008C9020008314100086D
:1000A000C9020008C9020008C9020008C902000804
:1000B000E541000899480008C9020008C902000883
:1000C000C9020008C9020008C9020008C9020008E4
:1000D000C9020008C9020008C9020008C9020008D4
:1000E000C9020008C9020008C9020008C9020008C4
:1000F000C9020008C9020008C9020008C9020008B4
:10010000C9020008C9020008C9020008C9020008A3
:10011000C9020008C9020008C9020008C902000893
:10012000C9020008C9020008C9020008C902000883
:10013000C9020008C9020008C9020008C902000873
:10014000C9020008C9020008C902000825330008D6
:10015000C9020008C9020008C9020008C902000853
:10016000C9020008C9020008C9020008C902000843
:10017000C9020008C9020008C90200080000000006
:10018000C9020008C902000800B583B0304B314AEB
:100190001360314A1360314B3149002201E01A608B
:1001A00004338B42FBD32B4B1B6813B92A4B1B68C0
:1001B00003B1FEE7264B2B4A13602B4A13602B4BEF
:1001C0002B4A2C4803E0116819600433043283423F
:1001D000F9D3244B1A68284B9A4204D1224B1A684F
:1001E0001B689A4200D0FEE705F044F901A8694671
:1001F00003F0A0F8214B224EF61AB61000241D463B
:1002000003E055F8243098470134A642F9DC1D4B31
:100210001D4EF61AB61000241D4603E055F8243092
:1002200098470134A642F9DC0198009905F018FBC3
:100230000546164B164CE41AA4101E4603E0013C7A
:1002400056F824309847002CF9DC284603F03CF897
:10025000BABADECAF8010020000F0020F801002021
:10026000040F002000000020F0010020000000200A
:10027000707B0008F401002078563412CC0200088C
:10028000CC020008CC020008D0020008D00200080E
:10029000D402000808B5FFF777FF00BFFEE700BFF4
:1002A000FEE700BFFEE700BFFEE700BFFEE700BFBE
:1002B000FEE700BFFEE700BFFEE700BFFEE700BFAE
:0C02C000FEE700BFFEE700BFFEE700BF46
:0802CC005949000869490008C6
:1002D800704700BF08B50C4B1A6842F400721A60E8
:1002E8001A6842F480621A601A6842F480721A60CE
:1002F8004FF47A5000F092F8032000F023F8FFF74B
:10030800E7FF002008BD00BF003C0240024B1A680E
:1003180001321A60704700BFFC010020014B1868C9
:10032800704700BFFC01002010B582B00190FFF7B4
:10033800F5FF019C0444FFF7F1FFA042FBD302B094
:1003480010BD00BF10B50446C31E042B03D90A48CC
:10035800BA2102F0F3FF04F00704084BD86820F430
:10036800E0600004000C40EA042040F0BF6040F464
:100378000030D86010BD00BF2876000800ED00E00E
:1003880070B506460D4614460F2A03D91A48D221DD
:1003980002F0D4FF0F2D03D91748D32102F0CEFF66
:1003A800164BDB68C3F30223C3F10701042928BFF6
:1003B80004211A1D062A8CBF033B0023012202FADE
:1003C80001F101390D409D4002FA03F3013B1C4045
:1003D8002C43002E06DA06F00F062401E4B2084B7F
:1003E8009C5570BD2401E4B206F1604000F56140FF
:1003F80080F8004370BD00BF2876000800ED00E0DB
:1004080014ED00E0420900F01F00012303FA00F098
:10041800014B43F82200704700E100E00138B0F1D9
:10042800807F0AD2064B5860F021064A82F82310D2
:100438000020986007221A6070470120704700BFAB
:1004480010E000E000ED00E02DE9F84F05460E460B
:100458000B681BB99848C32102F070FF7368012B21
:1004680022D9112B20D0022B1ED0122B1CD0934A3C
:10047800934219D002F58012934215D002F58012EA
:10048800934211D0A2F5F81293420DD002F58012D2
:10049800934209D002F58012934205D0032B03D072
:1004A8008548C42102F04AFFB368022B03D9824869
:1004B800C52102F043FF002444E1A1460127A740DB
:1004C800336803EA0708B84540F03B817368022B9C
:1004D80001D0122B54D13369C3B3092B36D0ABB337
:1004E800A3B39BB393B3012B30D02FD0022B2DD0C5
:1004F8002CD02BD0032B29D0042B27D026D025D0C5
:10050800052B23D022D0092B20D0062B1ED0092B57
:100518001CD0072B1AD019D018D0082B16D015D0FC
:1005280014D0092B12D011D00A2B0FD00ED00B2BC0
:100538000CD00C2B0AD009D00D2B07D00C2B05D0D2
:100548000F2B03D05C48D62102F0F8FE336904F083
:100558000702920003FA02F1E308083355F8230072
:100568004FF00F0C0CFA02F220EA020245F82320A1
:1005780055F823200A4355F823100A4345F8232049
:100588002B684FEA440A4FF0030B0BFA0AFB6FEA99
:100598000B0B03EA0B032B602A68736803F0030351
:1005A80003FA0AF313432B6073685A1E012A03D90E
:1005B800112B01D0122B1DD1F368032B03D93E4810
:1005C800E72102F0BBFEAB680BEA0303AB60AA6845
:1005D800F36803FA0AF31343AB606B6823EA07076F
:1005E8006F606A687368C3F3001303FA09F942EA93
:1005F80009036B60EB680BEA0303EB60EA68B36816
:1006080003FA0AF31343EB60736813F0805F00F09A
:1006180098802B4B5A6C42F480425A6404F00300D1
:1006280080004FF00F0C0CFA00FCA108A3F58033F2
:100638008A1C53F8227027EA0C0743F8227053F8F3
:100648002230204A95423FD002F58062954230D050
:1006580002F5806295422AD002F58062954224D044
:1006680002F5806295421ED002F58062954218D04C
:1006780002F58062954212D002F5806295420CD054
:1006880002F58062954206D002F58062954214BF59
:100698000A22092219E0082217E0072215E006229B
:1006A80013E0052211E004220FE003220DE00222EC
:1006B8000BE0012209E000BF5C7600080000111081
:1006C8000038024000000240002202FA00F01843FD
:1006D80002311F4B43F8210003F5806319686FEA64
:1006E800080211401960596811405960736813F481
:1006F800803F04D0174B196841EA080119607368F4
:1007080013F4003F04D0134B596841EA08015960BB
:10071800104B996811409960D9680A40DA6073688B
:1007280013F4801F04D00B4B9A6842EA08029A60BF
:10073800736813F4001F04D0064BDA6842EA080213
:10074800DA6001340F2C7FF6B8AEBDE8F88F00BF31
:1007580000380140003C014038B505460C464B1EA8
:100768009BB2012B28D9042926D0082924D0102986
:1007780022D0202920D040291ED080291CD0B1F5B4
:10078800807F19D0B1F5007F16D0B1F5806F13D0F6
:10079800B1F5006F10D0B1F5805F0DD0B1F5005FF5
:1007A8000AD0B1F5804F07D0B1F5004F04D0064804
:1007B8004FF4BB7102F0C2FD2B6903EA040000305C
:1007C80018BF012038BD00BF5C76000870B506462A
:1007D8000C4615464B1E9BB2012B28D9042926D05E
:1007E800082924D0102922D0202920D040291ED021
:1007F80080291CD0B1F5807F19D0B1F5007F16D0C3
:10080800B1F5806F13D0B1F5006F10D0B1F5805FEE
:100818000DD0B1F5005F0AD0B1F5804F07D0B1F522
:10082800004F04D0084840F2971102F087FD012DCF
:1008380004D905484FF4CC7102F080FD0DB1348322
:1008480070BD748370BD00BF5C76000838B505467E
:100858000C464B1E9BB2012B28D9042926D0082907
:1008680024D0102922D0202920D040291ED0802928
:100878001CD0B1F5807F19D0B1F5007F16D0B1F545
:10088800806F13D0B1F5006F10D0B1F5805F0DD037
:10089800B1F5005F0AD0B1F5804F07D0B1F5004F30
:1008A80004D004484FF4D77102F048FD6B695C40EE
:1008B8006C6138BD5C7600082DE9F84304460E46A5
:1008C8009046FFF72BFD00EB0809C6F3074728E021
:1008D80023685D6915F4806F13D01A6842F40072BA
:1008E8001A6023685A6922F480625A61042384F8E2
:1008F8003630012084F83500002384F83430BDE810
:10090800F883B8F1FF3F0CD0FFF708FD484508D33E
:10091800012384F83530002384F834300320BDE8FF
:10092800F883012F23680CBF5B699B6926EA0303E0
:100938009BB2003318BF0123002BC9D10020BDE8AA
:10094800F88300BF2DE9F04105460C4690461E4647
:10095800FFF7E4FC8719B8F1000F10D032E0B6F1C8
:10096800FF3F0ED0FFF7DAFCB8420AD3012385F81F
:100978003530002385F834300320BDE8F081C4F316
:100988000748B8F1010F2B680CBF5B699B6924EA23
:1009980003039BB2003318BF0123002BDFD10020D3
:1009A800BDE8F081B6F1FF3F0ED0FFF7B7FCB842C3
:1009B8000AD3012385F83530002385F83430032025
:1009C800BDE8F081C4F30748B8F1010F2B680CBFEC
:1009D8005B699B6924EA03039BB2D3F1010338BF27
:1009E8000023002BDED10020BDE8F0812DE9F0477F
:1009F80005468A4690469946089E0468276847F443
:100A0800807727604FF0011100223346FFF79AFFE5
:100A1800002835D12B680AF0FE021A6128461C49C5
:100A28003246FFF749FF38B195F83630DBB2042B70
:100A380014BF0321012128E02B685A699B692846C5
:100A4800144900223346FFF77DFF0146D0B9B9F1BA
:100A5800010F04D12B685FFA88F21A6115E02B6840
:100A68004FEA18221A6128460A4900223346FFF73E
:100A780069FF014640B92B685FFA88F21A6104E001
:100A8800032102E0032100E003210846BDE8F087C6
:100A980002000100800001002DE9F0470446884665
:100AA80091469A46089E05682B6843F480632B603C
:100AB80005682F6847F480772F604FF001110022F6
:100AC8003346FFF73FFF00285DD123685FFA88F8B7
:100AD80008F0FE021A61204631493246FFF7ECFE63
:100AE80038B194F83630DBB2042B14BF032301234A
:100AF80052E023685A699B6920462A4900223346F6
:100B0800FFF720FF002840D1BAF1010F04D1236874
:100B18005FFA89F21A610FE023684FEA19221A6115
:100B28002046204900223346FFF70CFF00282ED12B
:100B380023685FFA89F21A6120461A49002233466F
:100B4800FFF700FF28BB23681A6842F480721A6016
:100B580020464FF0011100223346FFF7F3FED0B9CB
:100B6800236848F001021A6120460D493246FFF712
:100B7800A3FE034680B194F83630DBB2042B14BFD1
:100B88000323012308E0032306E0032304E00323EF
:100B980002E0032300E003231846BDE8F08700BF06
:100BA8000200010080000100704700BF38B504460C
:100BB800002800F0DE8003686F4A93420CD002F5EB
:100BC8008062934208D002F58062934204D06B4859
:100BD80040F2211102F0B2FB6368013B684A93427C
:100BE80004D966484FF4917102F0A8FBA3683BB1A1
:100BF800B3F5804F04D0614840F2231102F09EFB08
:100C0800E36823F47F7323F0030323B15B484FF4B5
:100C1800927102F093FB2369B3F5804F07D0B3F5C7
:100C2800404F04D0554840F2251102F087FB636914
:100C3800012B04D951484FF4937102F07FFBA3694B
:100C480033F0FE0204D04D4840F2271102F076FB43
:100C5800E36933B1402B04D048484FF4947102F053
:100C68006DFB236A33B1802B04D0444840F229112C
:100C780002F064FB94F8353013F0FF0F02D12046E0
:100C8800FFF792FF022384F8353023681A6822F0B0
:100C980001021A6001F0BCFA3A4BA3FB00539B0C0B
:100CA8002268536021686268374DAA4201D801332F
:100CB80008E04FF4967202FB03F3344AA2FB035395
:100CC8009B0901330B62226863682F498B4208D85D
:100CD8005B00B0FBF3F0C0F30B03032B98BF0420B9
:100CE8002BE0A16851B903EB4305B0FBF5F5C5F35B
:100CF8000B05D5F1010538BF00250BE003EB830593
:100D080005EB8505B0FBF5F5C5F30B05D5F1010538
:100D180038BF002585B931B903EB4303B0FBF3F0C5
:100D280040F4004009E003EB830303EB8303B0FBCB
:100D3800F3F040F4404000E00120D0612368E1690D
:100D4800226A0A431A6023682169E2680A439A60A2
:100D580023686169A2690A43DA6023681A6842F065
:100D680001021A60002084F83600012384F8353027
:100D780038BD012038BD00BF005400408C76000803
:100D88007F1A060083DE1B43A0860100D34D621044
:100D98002DE9F04182B00546884617461C46BDF845
:100DA8002460012B06D0102B04D0424840F2336156
:100DB80002F0C4FA95F83530DBB2012B67D10899F7
:100DC800002966D0002E66D02B689B6913F0020FAD
:100DD80063D195F83430012B61D0012385F8343084
:100DE800322385F83530002385F836300A9A009288
:100DF800284641463A462346FFF7F8FD38B395F8AA
:100E08003630DBB2042B4FF0000385F834300CBFCA
:100E1800012303234AE0284641463A460A9BFFF746
:100E280091FD00283DD1286808994B1C0A78026179
:100E3800013EB6B22868446914F0040F05D026B103
:100E48008B1C4A780261013EB6B2089302E0DFF8D3
:100E580068800027002EDED12846174900220A9B09
:100E6800FFF770FDF8B92B681A6842F400721A602F
:100E78002846124901220A9BFFF764FD0346A0B9E0
:100E8800012285F83520002285F834200EE002235F
:100E98000CE001230AE0012308E0022306E0022314
:100EA80004E0032302E0032300E00323184602B012
:100EB800BDE8F0818C760008800001000200100077
:100EC8002DE9F04182B00546884617461C46BDF814
:100ED8002460012B06D0102B04D0894840F29D6174
:100EE80002F02CFA95F83530DBB2012B40F0EF8098
:100EF8000899002900F0ED80002E00F0EC802B68A6
:100F08009B6913F0020F40F0E88095F83430012B0C
:100F180000F0E580012385F83430422385F8353028
:100F2800002385F836300A9A0092284641463A4608
:100F38002346FFF7B1FD58B195F83630DBB2042BE4
:100F48004FF0000385F834300CBF01230323D3E0AE
:100F5800012E0CD12B681A6822F480621A602B6863
:100F68005A699A691A6842F400721A6094E0022E6B
:100F78000DD12B681A6822F480621A602B681A68EF
:100F880042F400621A602B685A699B6984E02B68F6
:100F98005A699B6980E0032E60D8012E11D128463A
:100FA800414622460A9BFFF7CDFC002840F0998075
:100FB8002B681B6908990B70013EB6B20131089184
:100FC8006EE0022E1CD12846394622460A9BFFF7BE
:100FD800B9FC002840F087802B681A6842F4007238
:100FE8001A602B681A69089B03F8022B013EB6B2F7
:100FF8002A68126908994A70013EB6B208934FE010
:101008002846394622460A9BFFF79CFC00286CD1EB
:101018002B681A6822F480621A602B681B69089A88
:101028001370013EB6B22846394622460A9BFFF79E
:1010380089FC00285BD12B681A6842F400721A6098
:101048002B681B6908994B70013EB6B22B681B6967
:101058008B70013EB6B20331089121E02846414623
:1010680022460A9BFFF76EFC002842D1089A511CC1
:101078002B681B691370013EB6B22B685A6912F0CF
:10108800040F07D01B6908994B70013EB6B20231B4
:10109800089105E0089103E0DFF870800024194FFB
:1010A800002E7FF478AF2B681A6822F400621A6069
:1010B8002846154901220A9BFFF744FC0346D0B98C
:1010C800012285F83520002285F8342014E0022317
:1010D80012E0012310E001230EE002230CE00223BA
:1010E8000AE0032308E0032306E0032304E00323C4
:1010F80002E0032300E00323184602B0BDE8F081B4
:101108008C76000804000100020010004000010075
:101118002DE9F04F83B007468A460268C1EBC10546
:1011280000EB85053035A9696C69AB68641A9C4287
:1011380028BF1C4614F1030B48BF0BF1030B4FEA01
:10114800AB0B164602EB4A185FFA8AF917E09C1AAD
:10115800AB689C4228BF1C46E31C48BF03334FEAD8
:10116800A30BE9683B7C009330464A46A3B201F0E2
:101178006FFEEB682344EB60AB692344AB613146F7
:10118800D8F818399BB25B4505D9AA696B699A42A8
:1011980001D2002BDBD1002C08DC012303FA0AFA68
:1011A800D1F8343823EA0A03C1F83438002003B0F0
:1011B800BDE8F08FF0B589B0054600286FD0036808
:1011C800B3F1A04F06D0374A934203D036488B215B
:1011D80002F0B4F8022385F87933284604F074FC49
:1011E800286801F0F5FB2C4654F8107B6E460FCCAE
:1011F8000FC694E80F0086E80F002B1D0ECB38466B
:1012080001F0A4FB2868002101F0E8FB0023012479
:1012180019460EE0C3EBC30205EB820282F83140A7
:1012280082F83030D38682F833109163D1635164E9
:1012380001330E2BEED900231A4617E0C3EBC30186
:1012480005EB810181F8D52181F8D431CB8681F86D
:10125800D721C1F8DC21C1F8E021C1F8E8212968CB
:1012680003F1400001EB80014A6001330E2BE5D900
:101278002C4654F8107B6E460FCC0FC694E80F002E
:1012880086E80F002B1D0ECB384601F0E7FB002443
:1012980085F87943286801F095FF204600E0012091
:1012A80009B0F0BD00000440BC76000810B5044643
:1012B80090F87833012B0CD0012380F8783300683C
:1012C80001F074FF206801F07DFB002084F87803AA
:1012D80010BD022010BD00BF2DE9F84F0446066876
:1012E800304601F0ABFF002840F01E82206801F074
:1012F80075FF002800F01882206801F06FFF10F0D9
:10130800020F04D023685A6942F002025A61206829
:1013180001F064FF10F4002F5ED0206801F062FF36
:10132800074600254FF0100B4FF0010A51E017F067
:10133800010F4CD05FFA85F92068494601F062FF39
:10134800804610F0010F30D006EB4513C3F808AB08
:1013580003F530632269012A12D1C5EBC50204EBFB
:101368008202D2F8DC111B69C3F31203C91AC2F84E
:10137800EC11D2F8E011D2F8DC310B44C2F8E031BC
:101388002046494604F068FC2369012B0DD165B954
:10139800C5EBC50304EB8303D3F8E8312BB9206808
:1013A800514604F55F7201F069FF18F0080F07D085
:1013B800204604F047FC06EB45130822C3F8082B27
:1013C80018F0100F03D006EB4513C3F808BB01351E
:1013D8007F08002FABD100E00025206801F0FEFE59
:1013E80010F4802F68D0206801F004FF074600251C
:1013F8004FF0020B4FF0400A5CE017F0010F57D096
:101408005FFA85F92068494601F006FF804610F02A
:10141800010F28D0012303FA05F1C943C6F834188F
:1014280006EB4512C2F808392369012B07D1C5EB31
:10143800C50304EB8303D96B9A6B0A44DA6320462D
:10144800494604F015FC2369012B0CD15DB9C5EBA5
:10145800C50304EB83035B6C2BB92068012104F5F9
:101468005F7201F00BFF18F0080F04D006EB45136C
:101478000822C3F8082918F0100F04D006EB45130A
:101488001022C3F8082918F0400F03D006EB4513C3
:10149800C3F808A918F0020F03D006EB4513C3F8E8
:1014A80008B918F0800F03D020462946FFF730FE10
:1014B80001357F08002FA0D1206801F08FFE002899
:1014C8000DDAD6F8042822F00102C6F804282046CE
:1014D80004F0F6FB23685A6942F000425A6120681A
:1014E80001F07CFE10F4006F0CD0D6F8083813F029
:1014F800010F02D0204604F0DDFB23685A6942F44C
:1015080000625A61206801F069FE10F4805F4FD0D4
:10151800374606F50068D8F8043023F00103C8F808
:1015280004302068002101F06FFA0023FF2106E053
:1015380007EB4312C2F80819C2F8081B01336268A6
:101548009A42F5D84FF0FF33C8F81830D8F81C3055
:1015580043F00113C8F81C30A36A63B1D8F884308B
:1015680043F00B03C8F88430D8F8443043F00B0339
:10157800C8F844300BE0D8F8143043F00B03C8F82F
:101588001430D8F8103043F00B03C8F81030D6F8F0
:10159800003823F4FE63C6F800382068217C04F57F
:1015A8005F7201F06BFE23685A6942F480525A61F7
:1015B800206801F013FE10F4005F27D0206801F0C6
:1015C80041FE2368DA6822F47052DA60206801F07C
:1015D800EBFA50B90023E3604FF4007363612368AA
:1015E800DA6842F41052DA6008E00323E36040232B
:1015F80063612368DA6842F4A052DA60204604F096
:1016080049FB23685A6942F400525A61206801F084
:10161800E5FD10F0100F3BD023689A6922F0100204
:101628009A61376A07F00F03C3EBC30304EB830324
:1016380003F5EA78C7F34342022A15D147F6F07357
:101648003B4020D01F093046D8F80C103A4601F02C
:101658002DFDD8F80C303B44C8F80C30D8F81830B9
:101668003B44C8F818300EE0062A0CD1304604F581
:101678005F71082201F01AFDC7F30A17D8F818306D
:101688003B44C8F8183023689A6942F010029A61FE
:10169800206801F0A3FD10F0080F07D0204604F0E1
:1016A800F3FA23685A6942F008025A61206801F087
:1016B80095FD10F4801F08D02046E9B204F00CFB19
:1016C80023685A6942F480125A61206801F086FD45
:1016D80010F4001F08D02046E9B204F0F7FA236896
:1016E8005A6942F400125A61206801F077FD10F03F
:1016F800804F07D0204604F0F5FA23685A6942F073
:1017080080425A61206801F069FD10F0040F0BD087
:1017180023685D6815F0040F02D0204604F0E8FA4B
:1017280023685A6815435D60BDE8F88F10B5044614
:1017380090F87833012B09D0012380F878330068BA
:1017480001F024FD002084F8780310BD022010BDAC
:1017580038B50546C8B210F0800F01F07F04C4EB1D
:10176800C40405EB840414BF303404F5EA7401F0B2
:101778007F012170C0096070A260E37000B1E18050
:10178800022B04BF0023237195F87833012B0AD06C
:10179800012385F878332868214601F025FA0020CE
:1017A80085F8780338BD022038BD00BF10B504465F
:1017B800CAB212F0800F01F07F03C3EBC30300EB42
:1017C800830314BF303303F5EA7301F07F01197006
:1017D800D2095A7090F87823012A0AD0012280F899
:1017E80078230068194601F047FA002084F8780346
:1017F80010BD022010BD00BF38B5044601F07F00BF
:10180800C0EBC00504EB850505F5EA71CA604B61BC
:1018180000238B614B7085F8D4012369012B08BF25
:101828000A6194F87833012B10D0012384F87833B7
:1018380020B92068227C01F05DFA03E02068227C50
:1018480001F01AFB002084F8780338BD022038BD67
:1018580001F07F01C1EBC10100EB8100B0F8EC01A0
:10186800704700BF38B5044601F07F00C0EBC005E3
:10187800AD0030356119CA604B6100238B610123CB
:101888004B7060552369012B08BF0A6194F87833BF
:10189800012B10D0012384F8783320B92068227CEA
:1018A80001F028FA03E02068227C01F0E5FA002024
:1018B80084F8780338BD022038BD00BF38B5044627
:1018C800CAB212F0800F07D001F07F03C3EBC30345
:1018D80000EB8303303305E0C1EBC10300EB830366
:1018E80003F5EA730120987001F07F051D70D20995
:1018F8005A7094F87823824210D084F878032068CC
:10190800194601F0E7FB2DB92068217C04F55F72C8
:1019180001F0B4FC002084F8780338BD022038BDFB
:1019280010B50446CAB212F0800F07D001F07F0349
:10193800C3EBC30300EB8303303305E0C1EBC10302
:1019480000EB830303F5EA730020987001F07F0130
:101958001970D2095A7094F87823012A0AD0012202
:1019680084F878232068194601F0E0FB002084F809
:10197800780310BD022010BD30B405686B6A19B930
:1019880043EA0243AB6217E0A86A03EB1040002366
:10199800013908E003F1400405EB8404646800EBB6
:1019A80014400133DBB28B42F4DB40EA024001F120
:1019B800400405EB84056860002030BC704700BF18
:1019C800036859620020704770B5044603680F2BFE
:1019D80004D9AC484FF49D7101F0B0FC236813F0B2
:1019E800010F5ED06368012B06D9052B04D0A548EA
:1019F80040F23F1101F0A2FCA34B9B6803F00C03DB
:101A0800042B0AD0A04B9B6803F00C03082B0ED1C3
:101A18009D4B5B6813F4800F09D09B4B1B6813F434
:101A2800003F3ED06368012B40F0EA8139E0002294
:101A3800964B1A70FEF772FC00F59C550835924ECD
:101A480004E0FEF76BFCA84280F0DC81336813F4F5
:101A5800003FF6D122798D4B1A706368012B10D1A3
:101A6800FEF75CFC00F59C550835874E04E0FEF750
:101A780055FCA84280F0C881336813F4003FF6D0C3
:101A88000FE0FEF74BFC00F59C5508357E4E04E050
:101A9800FEF744FCA84280F0B981336813F4003F94
:101AA800F6D1236813F0020F5FD0E368012B04D945
:101AB800744840F27F1101F041FC23691F2B04D9BF
:101AC80070484FF4C07101F039FC6F4B9B6813F0FC
:101AD8000C0F0AD06C4B9B6803F00C03082B0ED13B
:101AE800694B5B6813F4800F09D1674B1B6813F0CF
:101AF800020F3AD0E368012B40F08A8135E0E368B1
:101B08000BB30122624B1A60FEF708FC00F1640671
:101B18005D4D04E0FEF702FCB04280F07B812B684B
:101B280013F0020FF6D0584B1A6822F0F802236916
:101B3800F82191FAA1F1B1FA81F1C9B28B401A43A7
:101B4800514B1A6011E00022514B1A60FEF7E6FB78
:101B580000F164064C4D04E0FEF7E0FBB04280F073
:101B68005B812B6813F0020FF6D1236813F0080F7E
:101B78002ED06369012B04D942484FF4DC7101F07F
:101B8800DDFB636993B10122424B1A60FEF7C6FB85
:101B980000F164063C4D04E0FEF7C0FBB04280F063
:101BA8003D816B6F13F0020FF6D011E00022394B24
:101BB8001A60FEF7B3FB00F16406334D04E0FEF74C
:101BC800ADFBB04280F02C816B6F13F0020FF6D1A1
:101BD800236813F0040F6CD0A368012B06D9052BDA
:101BE80004D028484FF4F17101F0A8FB264B1A6C79
:101BF80042F080521A64A3F5E4331A6842F4807202
:101C08001A60FEF78BFB00F16406234D04E0FEF733
:101C180085FBB04280F006812B6813F4807FF6D0F4
:101C280000221E4B1A70FEF779FB00F59C5508350B
:101C3800154E04E0FEF772FBA84280F0F580336F82
:101C480013F0020FF6D1227A144B1A70A368012BF5
:101C580010D1FEF763FB00F59C5508350A4E04E0E9
:101C6800FEF75CFBA84280F0E180336F13F0020FAF
:101C7800F6D01EE0FEF752FB00F59C550835024EE3
:101C880013E000BFFC76000800380240023802402A
:101C980000004742800E4742007000407038024002
:101CA800FEF73CFBA84280F0C380336F13F0020FAD
:101CB800F6D1A369022B04D9634840F2262101F02A
:101CC8003DFBA369002B00F0B580604A926802F0E2
:101CD8000C02082A00F0B080022B7ED1E3693BB1E8
:101CE800B3F5800F04D0584840F22F2101F026FBAD
:101CF800236A3F2B04D954484FF40C7101F01EFBA2
:101D0800636AC03BF02B04D94F4840F2312101F0FF
:101D180015FBA36A022B0AD0042B08D0062B06D089
:101D2800082B04D0484840F2322101F007FBE36A4F
:101D3800043B0B2B04D9444840F2332101F0FEFA4E
:101D48000022434B1A60FEF7E9FA00F164063F4DA2
:101D580003E0FEF7E3FAB04270D22B6813F0007F7D
:101D6800F7D1236A626A47F6C07191FAA1F1B1FA14
:101D780081F1C9B28A4043EA0201A36A5B085A1E8C
:101D88004FF4403393FAA3F3B3FA83F3DBB29A40E8
:101D98000A43E3691343E16A4FF0706292FAA2F2D0
:101DA800B2FA82F2D2B201FA02F21A4342F00052B7
:101DB800264B5A600122264B1A60FEF7AFFA00F153
:101DC8006405224C03E0FEF7A9FAA84238D223683A
:101DD80013F0007FF7D0002070BD00221C4B1A6062
:101DE800FEF79CFA00F16405184C03E0FEF796FA3A
:101DF800A84227D2236813F0007FF7D1002070BDD6
:101E0800012070BD032070BD032070BD032070BD8C
:101E1800012070BD032070BD032070BD032070BD7C
:101E2800032070BD032070BD032070BD032070BD6A
:101E3800032070BD002070BD012070BD032070BD5F
:101E4800032070BD032070BDFC76000800380240F6
:101E580060004742204B9B6803F00C03042B38D0EA
:101E6800082B01D01D4870471B4B586800F03F00F5
:101E78005A6802F480024FF4800393FAA3F3B3FA8A
:101E880083F3DBB232FA03F314BF154B134BB3FBE6
:101E9800F0F0114B5A6847F6C0731A4093FAA3F34F
:101EA800B3FA83F3DBB222FA03F303FB00F00A4B25
:101EB8005A6802F440324FF4403393FAA3F3B3FA6A
:101EC80083F3DBB222FA03F301335B00B0FBF3F0D8
:101ED80070470348704700BF003802400024F400F0
:101EE80000127A0008B5FFF7B5FF094B9A6802F0AF
:101EF800F002F02393FAA3F3B3FA83F3DBB222FAE6
:101F080003F3044AD35CD840034B186008BD00BFF4
:101F180000380240EC7600080C000020F8B50446B2
:101F28000D460368013B0E2B04D9AC4840F29621BC
:101F380001F004FA072D04D9A84840F2972101F0CE
:101F4800FDF9A74B1B6803F00F03AB4261D2EAB25D
:101F5800A34B1A701B6803F00F03AB4240F02D81AE
:101F6800236813F0010F00F0B4806368022B04D9D2
:101F78009A4840F2AD2101F0E1F96368012B05D1DF
:101F8800984A126812F4003F0ED118E1022B05D1CD
:101F9800944A126812F0007F06D112E1914A126841
:101FA80012F0020F00F00F818E4A916821F00301B0
:101FB8000B439360FEF7B2F900F59C55083563684A
:101FC800012B0CD104E0FEF7A9F9A84201D3FCE0EB
:101FD800844EB36803F00C03042BF4D179E0022B90
:101FE80011D104E0FEF79AF9A84201D3EFE07D4E43
:101FF800B36803F00C03082BF4D16AE0FEF78EF9FE
:10200800A84201D3E5E0774EB36813F00C0FF5D181
:102018005FE0236813F0010F52D06368022B04D9E4
:102028006E4840F2F52101F089F96368012B05D16A
:102038006C4A126812F4003F0ED1CCE0022B05D195
:10204800684A126812F0007F06D1D3E0654A126828
:1020580012F0020F00F0D080624A916821F003016B
:102068000B439360FEF75AF900F59C5608366368EF
:10207800012B0CD104E0FEF751F9B04201D3BDE0C9
:10208800584FBB6803F00C03042BF4D118E0022B63
:1020980011D104E0FEF742F9B04201D3B0E0514F4C
:1020A800BB6803F00C03082BF4D109E0FEF736F9FE
:1020B800B04201D3A6E04B4FBB6813F00C0FF5D12B
:1020C800EAB2474B1A701B6803F00F03AB4240F0AB
:1020D8009B80236813F0020F1DD0A368A3B1802B47
:1020E80012D0902B10D0A02B0ED0B02B0CD0C02B20
:1020F8000AD0D02B08D0E02B06D0F02B04D03748DC
:1021080040F2453101F01AF9364B996821F0F00197
:10211800A2680A439A60236813F0040F19D0E36891
:1021280083B1B3F5805F0DD0B3F5A05F0AD0B3F5E6
:10213800C05F07D0B3F5E05F04D028484FF453716F
:1021480001F0FCF8274B996821F4E051E2680A4352
:102158009A60236813F0080F1AD0236983B1B3F586
:10216800805F0DD0B3F5A05F0AD0B3F5C05F07D08C
:10217800B3F5E05F04D0194840F2533101F0DEF8BE
:10218800184B9A6822F46042216942EAC1029A60B7
:10219800FFF7A8FE144BA3FB00239B09013BB3F1F7
:1021A800807F33D2114A5360F021114B83F82310FA
:1021B8000020906007231360F8BD0120F8BD0120BE
:1021C800F8BD0120F8BD0120F8BD0320F8BD0320AB
:1021D800F8BD0320F8BD0120F8BD00BFFC7600085B
:1021E800003C024000380240D34D621010E000E08D
:1021F80000ED00E00120F8BD0120F8BD0320F8BD86
:102208000320F8BD0320F8BD0120F8BD0020F8BD6B
:1022180008B5FFF767FE084B9A6802F4E0524FF4DE
:10222800E05393FAA3F3B3FA83F3DBB222FA03F38E
:10223800024AD35CD84008BD00380240EC7600085A
:102248002DE9F04105460C4690461E46FEF766F815
:102258008719B8F1000F28D057E0B6F1FF3F24D016
:10226800FEF75CF8B84220D32B685A6822F0E002E7
:102278005A602B681A6822F040021A60AB6AB3F5FC
:10228800005F09D12B681A6822F400521A602B6883
:102298001A6842F400521A60012385F8513000236D
:1022A80085F850300320BDE8F0812B689B682340F7
:1022B800A342D2D10020BDE8F081B6F1FF3F24D07F
:1022C800FEF72CF8B84220D32B685A6822F0E002B7
:1022D8005A602B681A6822F040021A60AB6AB3F59C
:1022E800005F09D12B681A6822F400521A602B6823
:1022F8001A6842F400521A60012385F8513000230D
:1023080085F850300320BDE8F0812B689B68234096
:10231800A342D2D00020BDE8F08100BF2DE9F041F2
:1023280082B004460F4690461E46089D90F851001C
:10233800C0B2012802D0222840F07E81002F00F090
:102348007D81B8F1000F00F07B81002E00F07A81CA
:10235800A36823B199484FF42C7100F0EFFF94F86B
:102368005030012B00F07081012384F8503094F82C
:102378005130DBB2012B04BF322384F851300023E3
:1023880084F85230C4F83880A687E6872763A68683
:10239800E686A364E364A36AB3F5005F09D1236802
:1023A8001A6822F400521A6023681A6842F400522C
:1023B8001A6023681A6812F0400F03D11A6842F0B5
:1023C80040021A60E368B3F5006F76D12368226B88
:1023D8001288DA60236B02332363E38E013B9BB2DE
:1023E800E386002B4ED1A36AB3F5005F04D12368BE
:1023F8001A6842F480521A602046012100222B46B6
:10240800FFF71EFF002840F02181A36B2268D268E5
:102418001A80A36B0233A363E38F013BE387BAE01F
:102428002046394632462B46FFF70AFF002840F07F
:102438000F812368226B1288DA60236B02332363CF
:10244800E38E013B9BB2E38643B9A36AB3F5005F11
:1024580004D123681A6842F480521A602046414623
:1024680032462B46FFF7ECFE002840F0F380A36BC2
:102478002268D2681A80A36B0233A363E38F013BFF
:10248800E38703E0022700264FF00108E38E002BC4
:10249800C6D12046012100222B46FFF7D1FE002895
:1024A80040F0DA80A36B2268D2681A80A36B0233EB
:1024B800A363E38F013BE3876DE02268236B591C1C
:1024C80021631B78D360E38E013B9BB2E386002B2C
:1024D80049D1A36AB3F5005F04D123681A6842F4AE
:1024E80080521A602046012100222B46FFF7A8FEE1
:1024F800002840F0B380A36B2268D2681A70E38F7B
:10250800013BE38747E02046394632462B46FFF732
:1025180097FE002840F0A4802268236B591C216391
:102528001B78D360E38E013B9BB2E38643B9A36A71
:10253800B3F5005F04D123681A6842F480521A6028
:102548002046414632462B46FFF77AFE002840F0E7
:102558008980A36B5A1CA2632268D2681A70E38F21
:10256800013BE38703E0022700264FF00108E38ED2
:10257800002BC8D12046012100222B46FFF760FE20
:10258800002871D1A36B5A1CA2632268D2681A7002
:10259800E38F013BE387A36AB3F5005F15D12046BB
:1025A800012100222B46FFF74BFE48B194F8523028
:1025B80043F0020384F85230032356E02C770008D6
:1025C8002368DB689BB2ADF80630204680210122E3
:1025D8002B46FFF735FE034638B194F8523043F0E6
:1025E800200384F8523003233FE0012284F851206D
:1025F8002268916801F01000A16AB1F5005F17D157
:10260800B0B194F8523043F0020384F85230B1F577
:10261800005F08D1136823F40053136023681A6815
:1026280042F400521A60002384F8503001231CE061
:10263800002284F8502018E0022316E0012314E059
:10264800012312E0012310E002230EE003230CE033
:1026580003230AE0032308E0032306E0032304E03E
:10266800032302E0032300E00323184602B0BDE879
:10267800F08100BF704700BF10B504460368234AC5
:10268800934237D0B3F1804F34D0A2F57C429342C5
:1026980030D002F5806293422CD002F580629342DA
:1026A80028D002F58062934224D002F580629342DA
:1026B80020D002F5704293421CD002F5705293422A
:1026C80018D002F58062934214D002F580629342DA
:1026D80010D0A2F5983293420CD002F58062934252
:1026E80008D002F58062934204D009484FF4AD71D6
:1026F80000F024FE2368DA6842F00102DA602368F9
:102708001A6842F001021A60002010BD0000014062
:102718005C7700080368444A904215D0B0F1804FB6
:1027280014D0A2F57C42904212D002F58062904209
:1027380010D002F5806290420ED002F578429042A5
:1027480014BF0022012208E0012206E0012204E071
:10275800012202E0012200E001221AB123F07003F5
:102768004A681343304A90422DD0B0F1804F2CD0A4
:10277800A2F57C4290422AD002F58062904228D08D
:1027880002F58062904226D002F57842904224D029
:1027980002F57052904222D002F58062904220D019
:1027A80002F5806290421ED0A2F5983290421CD069
:1027B80002F5806290421AD002F58062904214BFFE
:1027C8000022012214E0012212E0012210E001227D
:1027D8000EE001220CE001220AE0012208E00122B9
:1027E80006E0012204E0012202E0012200E00122C9
:1027F8001AB123F44073CA68134303608B68C36239
:102808000B688362084B984206D003F580639842B0
:1028180014BF0023012300E001230BB10B690363FC
:1028280001234361704700BF0000014010B5044612
:10283800002869D00368354A934236D0B3F1804FF7
:1028480033D0A2F57C4293422FD002F580629342A6
:102858002BD002F58062934227D002F58062934222
:1028680023D002F5806293421FD002F57042934252
:102878001BD002F57052934217D002F58062934242
:1028880013D002F5806293420FD0A2F5983293429A
:102898000BD002F58062934207D002F58062934222
:1028A80003D01B48D02100F049FDA3685BB1102B71
:1028B80009D0202B07D0402B05D0602B03D014481B
:1028C800D12100F03BFD23694BB1B3F5807F06D0E1
:1028D800B3F5007F03D00E48D22100F02FFD94F805
:1028E800393013F0FF0F02D12046FFF7C3FE022351
:1028F80084F83930214651F8040BFFF70BFF012308
:1029080084F83930002010BD012010BD00000140BE
:102918005C7700080C4B01E0013B10D00269002AEB
:10292800FADA036943F001030361074B01E0013B55
:1029380007D0026912F0010FF9D100207047032077
:1029480070470320704700BF400D030084B010B5E6
:10295800044603A880E80E00089B012B18D1A36B3E
:1029680023F48033A363E36823F4840323F0400350
:10297800E360E36823F44013E3600D9B012B03D16C
:10298800E36843F48013E3602046FFF7C3FF09E0E0
:10299800E36843F04003E3602046FFF7BBFF4FF4D2
:1029A8008033A363069B012B07D1A36843F00C0374
:1029B800A360A36843F02003A3600020BDE8104093
:1029C80004B07047836843F00103836000207047B8
:1029D800836823F0010383600020704708B5C3684B
:1029E80023F0C043C360012904D1C36843F00053F6
:1029F800C36004E019B9C36843F08043C360322060
:102A0800FDF792FC002008BD490141F02003036155
:102A1800054B01E0013B05D0026912F0200FF9D106
:102A28000020704703207047400D03001023036106
:102A3800054B01E0013B05D0026912F0100FF9D1F6
:102A48000020704703207047400D0300D0F800387D
:102A58001943C0F800180020704700BF84B02DE962
:102A6800F047044609A880E80E00A36B43F400234E
:102A7800A363DDF844A0BAF1000F03D1A36B43F4BC
:102A88000013A3630023C4F8003E04F50065D4F8DE
:102A98000038C4F800380E9B012B0BD10B9B23B9CF
:102AA80020460021FFF7D2FF08E020460121FFF76A
:102AB800CDFF03E020460321FFF7C8FF2046102181
:102AC800FFF7A2FF2046FFF7B1FF00232B616B61E0
:102AD8004FF0FF32AA61EB61099848B304F510631F
:102AE800002294464FF09049FF261F68002FB4BF7C
:102AF800C3F80090C3F800C0C3F810C09E6001324C
:102B080020338242F1D304F53063002216464FF099
:102B180090494FF0FF081F68002FB4BFC3F800901A
:102B28001E601E61C3F80880013220338242F2D150
:102B38002B6923F480732B610C9B012B0ED1184B4E
:102B48002B632B6B43F4803343F003032B632B6B12
:102B58000023A3616FF08043636109E00022A26152
:102B68006FF0804262611BB9A36943F01003A3614F
:102B7800A2690C4B1343A3610F9B1BB1A36943F0DC
:102B88000803A361BAF1010F05D1A36943F080439B
:102B980043F00403A3610020BDE8F04704B0704788
:102BA8000001800000383C80D0F8083800F500604B
:102BB80013F0060F11D0836803F00603022B0ED022
:102BC800836803F00603062B0BD0836803F0060323
:102BD800042B0CBF02200020704700207047032000
:102BE80070470320704700BF30B44B78012B21D1C8
:102BF800D0F81C480A78012505FA02F292B222435D
:102C0800C0F81C280A78530103F510631C5814F403
:102C1800004F2ED11C5844F0805444F400448D6871
:102C2800C5F30A052C43C97844EA814444EA825230
:102C38001A501EE0D0F81C480A784FF4803505FA7F
:102C480002F22243C0F81C280B785B0103F53063BD
:102C58001A5812F4004F0CD11A5842F0805242F41C
:102C680000428C68C4F30A042243CC7842EA8442C6
:102C78001A50002030BC704730B44B78012B1CD15F
:102C8800D0F83C580C78012202FA04F4A4B225EAE0
:102C98000404C0F83C48D0F81C480D78AA4092B209
:102CA80024EA0202C0F81C280B785B0103F51063C4
:102CB8001A5822F400421A5019E0D0F83C580C78FF
:102CC800012202FA04F425EA0444C0F83C48D0F88A
:102CD8001C480D78AA4024EA0242C0F81C280B7848
:102CE8005B0103F530631A5822F400421A500020A1
:102CF80030BC704730B44B78012B69D14B69EBB9C4
:102D08000C7800EB4414D4F8103923F0FF5323F463
:102D1800C013C4F810390B7800EB4313D3F81049EB
:102D280044F40024C3F810490C7800EB4414D4F898
:102D38001039DB0CDB04C4F810392CE00C7800EBFC
:102D48004414D4F81039DB0CDB04C4F810390C78BF
:102D580000EB4414D4F8103923F0FF5323F4C013C4
:102D6800C4F810398B684C699C4288BF4B610B785A
:102D780000EB4313D3F8104944F40024C3F8104976
:102D88000B7800EB4313D3F810594C69C4F31204C1
:102D98002C43C3F81049012A06D10A7800EB4212E5
:102DA8000B69C2F814390AE04B6943B1D0F83448CA
:102DB8000A78012505FA02F22243C0F834280B7874
:102DC8005B0103F51063C25842F00442C2503BE075
:102DD8000C7800EB4414D4F8103BDB0CDB04C4F88B
:102DE800103B0C7800EB4414D4F8103B23F0FF534D
:102DF80023F4C013C4F8103B4B690BB18B684B61CB
:102E08000B7800EB4313D3F8104B44F40024C3F8B9
:102E1800104B0B7800EB4313D3F8105B8C68C4F3AA
:102E280012042C43C3F8104B012A05D10A7800EB91
:102E38004212CB68C2F8143B0B785B0103F5306390
:102E4800C25842F00442C250002030BC704700BF54
:102E580030B49DF8084064B903339B1009D000F5DD
:102E6800805000EB023251F8045B15600134A34234
:102E7800F9D1002030BC7047F0B583B04B78012BF6
:102E880040F0A3804B69EBB90C7800EB4414D4F8FC
:102E9800103923F0FF5323F4C013C4F810390B780A
:102EA80000EB4313D3F8104944F40024C3F8104945
:102EB8000C7800EB4414D4F81039DB0CDB04C4F8AC
:102EC800103944E00C7800EB4414D4F81039DB0CCA
:102ED800DB04C4F810390C7800EB4414D4F810392A
:102EE80023F0FF5323F4C013C4F810390B7800EB18
:102EF8004313D3F810698C684D692544013DB5FB2F
:102F0800F4F4694F07EAC4443443C3F810490B7812
:102F180000EB4313D3F810594C69C4F312042C4343
:102F2800C3F81049CB78012B11D10B7800EB431370
:102F3800D3F8104924F0C044C3F810490B7800EBCB
:102F48004313D3F8104944F00054C3F81049012A38
:102F580006D10C7800EB44140B69C4F814390DE061
:102F6800CB78012B0DD04B69DBB1D0F834580C78F5
:102F7800012606FA04F42C43C0F83448CB78012B18
:102F88000FD1D0F8083813F4807F0B784FEA431339
:102F980003F51063C4580CBF44F0005444F0805447
:102FA800C4500B785B0103F51063C45844F0044423
:102FB800C450CB78012B74D1CD680C788B8A0092E1
:102FC80029462246FFF744FF6BE00C7800EB4414D7
:102FD800D4F8103BDB0CDB04C4F8103B0C7800EB96
:102FE8004414D4F8103B23F0FF5323F4C013C4F85F
:102FF800103B4B69A3B90B7800EB4313D3F8105B74
:103008008C68C4F312042C43C3F8104B0B7800EB04
:103018004313D3F8104B44F40024C3F8104B1DE0BD
:103028008D680C7800EB4414D4F8106B2B44013BEA
:10303800B3FBF5F39BB21C4D05EAC3453543C4F811
:10304800105B0C7800EB4414D4F8106B8D6805FB0A
:1030580003F3C3F312033343C4F8103B012A05D129
:103068000A7800EB4212CB68C2F8143BCB78012BEC
:103078000FD1D0F8083813F4807F0B784FEA431348
:1030880003F53063C2580CBF42F0005242F0805240
:10309800C2500B785B0103F53063C25842F004421A
:1030A800C250002003B0F0BD0000F81F70B4033216
:1030B80095100BD00A46002300F58056346842F874
:1030C800044B01339D42F9D101EB8501084670BCE0
:1030D800704700BF4B78012B13D10B785B0103F5C8
:1030E8001063C258002A03DBC25822F08042C25043
:1030F8000B785B0103F51063C25842F40012C2500A
:1031080012E00B785B0103F53063C258002A03DB39
:10311800C25822F08042C2500B785B0103F530633D
:10312800C25842F40012C250002070474B78012B5D
:1031380015D10B785B0103F51063C25822F4001215
:10314800C250CB78023BDBB2012B1DD80B785B0158
:1031580003F51063C25842F08052C25014E00B7855
:103168005B0103F53063C25822F40012C250CB78D9
:10317800023BDBB2012B07D80B785B0103F5306308
:10318800C25842F08052C25000207047D0F8003830
:1031980023F4FE63C0F80038D0F80038090101F4C0
:1031A800FE610B43C0F800380020704708B5D0F81E
:1031B800043823F00203C0F804380320FDF7B4F8FC
:1031C800002008BD08B5D0F8043843F00203C0F861
:1031D80004380320FDF7A8F8002008BD436980697A
:1031E80018407047D0F8183800F50060C0691840DA
:1031F800000C7047D0F81828D0F81C3802EA0300F1
:1032080080B2704700F5306303EB41118B6800F51D
:10321800006040691840704710B4D0F81028D0F802
:10322800344800EB4110D0F8083924FA01F0C00105
:10323800C0B2104318405DF8044B7047406900F075
:1032480001007047D0F8003923F4FF6323F0070327
:10325800C0F8003900F500639A6802F00602042AF3
:1032680005D1D0F8002942F00302C0F800295A68B5
:1032780042F480725A600020704700BF10B40024E6
:10328800C0F8104BD0F8104B44F40024C0F8104B91
:10329800D0F8104B44F01804C0F8104BD0F8104B7D
:1032A80044F0C044C0F8104B012905D1C0F8142BD4
:1032B8004FF08023C0F8003B00205DF8044B7047B6
:1032C800FEE700BF08B5034800F05EF80120FFF7ED
:1032D800F7FF00BF8C77000808B50D4B1B6813B9C2
:1032E8000C4A0B4B1A600A4B1B68033020F0030092
:1032F8001844094A904206D903F05EFD0C23036086
:103308004FF0FF3008BD024A1060184608BD00BFE4
:1033180000020020040F002000FC012008B502482C
:10332800FDF7DAFF08BD00BF500A00200123036043
:10333800014B0B60704700BF0400002008B503462E
:103348000A460348194600F005F8FFF7BBFF00BF1F
:10335800E07700080FB400B583B004AB53F8042B32
:1033680001930848802104F0F1F8011E03DD0548A7
:1033780000F038F80146084603B05DF804EB04B0E5
:10338800704700BF0802002010B5044603F0DCFDBA
:103398000146204600F026F80248012100F022F8F4
:1033A80010BD00BF0C78000810B400244FF0604234
:1033B80012E0D2F8803E13F0010F04D0D2F8003E9C
:1033C80013F0010F01D1204609E01368002BFCD04F
:1033D80003781370013401308C42EAD308465DF853
:1033E800044B704708B5FFF7DFFF08BD0F4AD2F856
:1033F800883043F47003C2F888300D4B196841F0E7
:103408000101196000209860196821F0847121F485
:103418008031196007495960196821F480211960C1
:10342800D8604FF000639360704700BF00ED00E084
:10343800003802401030002408B5034688B1D0F89F
:10344800140210B10020C3F8140209B1C3F8101215
:10345800012183F8FC111A70184602F04FFC002075
:1034680008BD022008BD00BF19B1C0F81412002021
:1034780070470220704700BF08B502F06FFC0020BB
:1034880008BD00BF08B5D0F8143233B11B6898479F
:1034980000280CBF0020022008BD022008BD00BF84
:1034A80008B5D0F814325B689847002008BD00BF03
:1034B80038B5044600F50275284600F009F90123DD
:1034C800C4F8F431B4F80E32C4F8F83194F808129C
:1034D80001F01F03012B08D013B1022B0AD00EE014
:1034E8002046294600F07EFA0EE02046294600F0E4
:1034F8009DFA09E02046294600F0B4FA04E0204687
:1035080001F0800102F044FC002038BD38B50446C3
:1035180009BBD0F8F431032B26D1D0F80C11D0F820
:10352800103199420AD9C91AC0F80C118B4228BF28
:103538000B4611469AB200F057FB15E0D0F814324A
:103548001B6923B190F8FC21032A00D19847204633
:1035580000F054FB08E0D0F814329B6923B190F8CE
:10356800FC21032A00D19847002038BD38B504460D
:10357800002936D1D0F8F431022B2AD1C169036A67
:10358800994206D9CB1AC36111469AB200F012FBD0
:103598001FE08269B2FBF3F103FB112161B9934289
:1035A8000AD8D0F8F8319A4206D20A4600F002FB4F
:1035B8000023C4F8F8310CE0D4F81432DB682BB1DE
:1035C80094F8FC21032A01D120469847204600F0B0
:1035D80021FB94F80032012B0CD1002384F800322F
:1035E80008E0D0F814325B6923B190F8FC21032A73
:1035F80000D19847002038BD38B5044600210A4656
:10360800402302F0B3FB4025C4F810512046802126
:1036180000222B4602F0AAFB2562012384F8FC3124
:10362800D4F818322BB1D4F814325B6820462179CB
:103638009847002038BD00BF01740020704700BFC4
:1036480090F8FC3180F8FD31042380F8FC3100202B
:10365800704700BF90F8FD3180F8FC3100207047BA
:1036680008B590F8FC31032B04D1D0F81432DB698B
:1036780003B19847002008BD00207047002070471C
:103688000020704708B5012280F8FC21D0F81422E8
:10369800526801799047002008BD00BF034600200A
:1036A80002E00130C0B201331A78002AF9D170471C
:1036B80010B504464B88012B08D1C0F80432D0F865
:1036C80014329B689847204600F098FA10BD00BF56
:1036D8000B7803704B7843708B78CA7803EB02231E
:1036E80043800B794A7903EB022383808B79CA796B
:1036F80003EB0223C380704710B50446802102F013
:1037080047FB2046002102F043FB10BD30B583B0D3
:1037180004460D464A88130A013B062B00F28580B1
:10372800DFE803F0040D238383657300D0F81032BB
:103738001B68007C0DF106019847014679E0037C7F
:103748004BB9D0F814329B6A0DF106009847014630
:10375800022343706DE0D0F81432DB6A0DF10600E5
:10376800984701460223437063E0D2B2052A3AD84B
:10377800DFE802F0030C151E2730D0F810325B6822
:10378800007C0DF106019847014652E0D0F810324E
:103798009B68007C0DF106019847014649E0D0F886
:1037A8001032DB68007C0DF106019847014640E0C5
:1037B800D0F810321B69007C0DF1060198470146CC
:1037C80037E0D0F810325B69007C0DF106019847AC
:1037D80001462EE0D0F810329B69007C0DF10601FD
:1037E8009847014625E02946FFF786FF2EE0037C2F
:1037F8003BB9D0F814325B6B0DF1060098470146CF
:1038080017E02946FFF778FF20E0037C4BB9D0F892
:1038180014321B6B0DF106009847014607234370CD
:1038280007E02946FFF768FF10E02946FFF764FF25
:103838000CE0BDF806304BB1EA883AB1934238BF84
:103848001A46ADF80620204600F0A6F903B030BDB0
:1038580038B504468B88E3B9CB88D3B98D7805F0A1
:103868007F0590F8FC31032B02D1FFF745FF38BDE7
:1038780080F8FE51294602F0ABFA204600F0BEF966
:103888001DB1022384F8FC3138BD012384F8FC31D2
:1038980038BD2046FFF730FF38BD00BF38B50446B5
:1038A8000D468B78264A1370012B02D9FFF724FFA7
:1038B80038BD90F8FC21022A02D0032A16D03BE03A
:1038C8008BB14360032280F8FC211946FFF7DAFD2B
:1038D800022804D120462946FFF70EFF38BD2046AE
:1038E80000F08CF938BD00F089F938BD53B90222CF
:1038F80080F8FC2143601946FFF7D2FD204600F00E
:103908007DF938BD41688B4213D0C9B2FFF7C8FDB5
:103918000B4B197861602046FFF7B4FD022804D1EB
:1039280020462946FFF7E8FE38BD204600F066F934
:1039380038BD00F063F938BDFFF7DEFE38BD00BFC3
:103948008802002008B50346CA88012A02D0FFF77A
:10395800D3FE08BD90F8FC21022A02D0032A08D021
:103968000CE00146002241F8082F012200F014F96A
:1039780008BD191D012200F00FF908BDFFF7BCFEB4
:1039880008BD00BF08B5034690F8FC21023A012A99
:103998000DD80122C260D0F804220AB10322C26005
:1039A800184603F10C01022200F0F6F808BDFFF7F3
:1039B800A3FE08BD10B5044690F8FC31023B012B6C
:1039C8000DD84B88012B0CD10023C0F80432D0F855
:1039D80014329B689847204600F010F910BDFFF795
:1039E8008BFE10BD08B54B78092B1BD8DFE803F018
:1039F80011171A141A08051A0E0BFFF787FE13E0A1
:103A0800FFF726FF10E0FFF749FF0DE0FFF79AFFE9
:103A18000AE0FFF7B7FF07E0FFF74AFE04E0FFF709
:103A2800C9FF01E0FFF768FE002008BD38B504466D
:103A38000D4690F8FC31032B0FD10B79012B09D8D7
:103A4800D0F814329B689847EB8843B9204600F0B9
:103A5800D5F804E0FFF750FE01E0FFF74DFE002027
:103A680038BD00BF38B505460C468A88D1B26378A0
:103A7800012B26D0002B48D0032B6ED190F8FC31B7
:103A8800022B02D0032B07D017E0002965D080292C
:103A980063D002F07DF960E0638823B919B1802909
:103AA80001D002F075F9D5F814329B6828462146F2
:103AB8009847284600F0A2F84FE02146FFF71CFE81
:103AC8004BE090F8FC31022B02D0032B07D018E012
:103AD800002942D0802940D002F05AF93DE063889D
:103AE800002B3AD111F07F0F07D002F059F9D5F821
:103AF80014329B68284621469847284600F07EF8ED
:103B08002BE02146FFF7F8FD27E090F8FC31022B67
:103B180002D0032B06D01DE011F07F0F1DD002F05C
:103B280037F91AE012F0800F01F07F0400EB04145B
:103B380014BF143404F5827402F03AF910B1012369
:103B4800236001E00023236028462146022200F07A
:103B580023F802E02146FFF7CFFD002038BD00BF63
:103B680070B50D4616460446A8B1FFF797FD01301B
:103B780043009BB233802B7003236B700222002119
:103B880006E0501CC0B20134AB54421CD2B22954D6
:103B98002378002BF5D170BD38B50D4613460222A7
:103BA800C0F8F4218361C36100212A4602F018F9A4
:103BB800002038BD10B50C4613460021224602F0FD
:103BC8000FF9002010BD00BF38B50D46134603227B
:103BD800C0F8F421C0F80831C0F80C3100212A4699
:103BE80002F006F9002038BD10B50C461346002136
:103BF800224602F0FDF8002010BD00BF08B50423DE
:103C0800C0F8F43100210A460B4602F0E9F800201A
:103C180008BD00BF08B50523C0F8F43100210A46E5
:103C28000B4602F0E5F8002008BD00BFD0F81832B6
:103C38001BB10020C3F8140270470220704700BF70
:103C480010B5D0F81842D0F81C325BB194F80002D5
:103C5800FF2807D09B68214694F801229847FF2344
:103C680084F80032002010BD4323038000487047C9
:103C7800100000204323038000487047DC00002028
:103C88004323038000487047980000200A230380DC
:103C9800004870478C00002038B50446D0F8185208
:103CA80002F0AEF8C5F80C02D4F818324BB1D4F8CB
:103CB8001C32DB68D5F8040205F50371984700202B
:103CC80038BD022038BD00BF70B505460C46D0F897
:103CD80018620B7803F06002202A22D1CA88CAB180
:103CE80013F0800F0BD0D0F81C329B68487831460F
:103CF800984728463146E288FFF74EFF11E04B7897
:103D080086F80032CB8886F801323146E288FFF720
:103D18005BFF06E0D0F81C329B68487800210A4611
:103D28009847002070BD00BF10B50446812102F0FD
:103D380027F82046012102F023F82046822102F0CC
:103D48001FF8D4F8183253B1D4F81C325B6898477E
:103D5800D4F8180203F03EF80023C4F81832002003
:103D680010BD00BF38B50446037C6BB9812102221F
:103D78004FF4007301F0FAFF2046012102224FF4AC
:103D8800007301F0F3FF0AE081210222402301F0D1
:103D9800EDFF204601210222402301F0E7FF2046E3
:103DA80082210322082301F0E1FF4FF4077003F09A
:103DB80009F80546C4F81802E8B1D4F81C321B68A3
:103DC80098470023C5F81432C5F81832237C4BB93C
:103DD80020460121D5F804224FF4007302F008F8B8
:103DE800002038BD20460121D5F80422402301F0E7
:103DF800FFFF002038BD012038BD00BF19B1C0F851
:103E08001C12002070470220704700BFD0F81832FB
:103E1800C3F80812C3F8102200207047D0F81832EF
:103E2800C3F804120020704708B5D0F8183273B1EF
:103E3800D3F814226AB90122C3F814228121D3F8D5
:103E48000822B3F8103201F0CBFF002008BD022091
:103E580008BD012008BD00BF08B5D0F8183293B1DD
:103E6800027C42B90121D3F804224FF4007301F017
:103E7800BFFF002008BD0121D3F80422402301F030
:103E8800B7FF002008BD022008BD00BF0020704712
:103E9800202802D0212813D021E00B784A7843EA61
:103EA80002228B7842EA0342CB7842EA03620D4B46
:103EB8001A600A791A714A795A718A799A710EE0E8
:103EC800084B1A780A705A784A709A788A70DA78A1
:103ED800CA701A790A715A794A719B798B710020D4
:103EE800704700BF30010020054B0020C3F80002D6
:103EF8000A68C3F80422012283F80822704700BF29
:103F08008C02002008B504480449FFF787FF012206
:103F1800034B1A70002008BD1C0800208C020020EA
:103F28004C0A002038B5144B93F8083203B3124BEF
:103F3800D3F80442D3F80032E41AA142B8BF0C46C1
:103F4800002C17DD0C4DE918224602F04BFFD5F87E
:103F580000322344C5F80032D5F80422934205DB29
:103F6800002285F808220548FFF776FF204638BD6D
:103F7800002038BD002038BD8C0200201C0800201D
:103F8800F8B507460E46B1F5007F10DC14E0351B86
:103F9800B5F5007FA8BF4FF4007538192946FFF71B
:103FA800EFFFA84201D02044F8BD013400E000240E
:103FB800B442ECDB3046F8BD0D4BD3F818429CB147
:103FC800D4F81432002BFBD1094D28463946B2B239
:103FD800FFF71CFF2846FFF727FF38B9D4F814323B
:103FE800002BFBD13046F8BD0020F8BD0020F8BDFD
:103FF8001C0800202DE9F04105460F4614460068CC
:10400800A9880022FCF7E2FB0122234B1A6019461B
:104018000B68002BFCD12CB92869A98A0022FCF76F
:10402800D5FB04E02869A98A0122FCF7CFFB01220D
:10403800194B1A601A461368002BFCD10026B046AB
:10404800154C20E017F0800FA869A98B14BF012236
:104058004246FCF7BBFB7F00FFB2286AA98C4246A8
:10406800FCF7B4FB012323602368002BFCD1286AEA
:10407800A98C0122FCF7AAFB012323602368002BEB
:10408800FCD10136F6B2072EDCD92868A9880122AE
:10409800FCF79CFBBDE8F081E404002070B50646FF
:1040A8002039CDB2002405EB45056D0008E02B1939
:1040B8003046054AD15C0122FFF79CFF0134E4B287
:1040C800052CF4D970BD00BF3C780008F8B5074648
:1040D80000242646012506E0384631462A46FFF7E1
:1040E80089FF0134A4B2B4F5FC7FF5D3F8BD00BF55
:1040F80070B505460C4602EB42025600F6B243F094
:1041080040010022FFF776FF284646F08001002292
:10411800FFF770FF03E02846FFF7C0FF013421785E
:104128000029F8D170BD00BF294B5B6913F0200F3F
:1041380015D02022264B5A6103F548431B6913F01A
:10414800200F07D10122234B1A704FF47A72224BA9
:104158001A6004E000231F4A13701F4A13601C4BA7
:104168005B6913F0800F15D08022194B5A6103F553
:1041780048431B6913F0800F07D10122154B5A7071
:104188004FF47A72144B5A6004E00023114A5370BA
:10419800114A53600E4B5B6913F4807F16D04FF4BD
:1041A80080720B4B5A6103F548431B6913F4807FF7
:1041B80007D10122074B9A704FF47A72064B9A6026
:1041C80070470023034A9370034A9360704700BF07
:1041D800003C0140E0040020D404002008B5294B2D
:1041E8001B68DB6813F0010F4BD0274B1B688BB1A2
:1041F800254B1A68013A1A601B68B3F5167F03D17C
:104208000222224B1A7005E01F4B1B6813B90322C8
:104218001E4B1A701C4B5B688BB11B4B5A68013ADA
:104228005A605B68B3F5167F03D10222174B5A70A8
:1042380005E0154B5B6813B90322144B5A70124BF7
:104248009B688BB1104B9A68013A9A609B68B3F5EA
:10425800167F03D102220D4B9A7005E00A4B9B682A
:1042680013B90322094B9A70094B1B7813F0FF0FFF
:1042780001D000F01DF8034B1B681A6922F00102F7
:104288001A6108BD98040020D4040020E00400202E
:104298000805002008B5054B1B681BB1034B1A68BD
:1042A800013A1A60FCF732F808BD00BFE4040020A8
:1042B80030B583B0414A13780133DBB21370022B57
:1042C80079D1684600F0ECF9BDF800100AB23C4B11
:1042D800B3F900309A4202DD394B198007E00AB27F
:1042E800384BB3F900309A42BCBF364B1980BDF841
:1042F800022010B2344BB3F90030984202DD324B41
:104308001A8007E010B2314BB3F900309842BCBFB5
:104318002E4B1A80BDF804301CB22D48B0F90000AD
:10432800844202DD2A48038007E01CB22948B0F91C
:1043380000008442BCBF274803802748046804FA69
:1043480081F101602548046804FA82F20260244879
:10435800046804FA83F30360224C20780130C0B269
:104368002070142824D109B21F4880FB0154C917B2
:10437800C1EBA414A4B21D490C8012B280FB024107
:10438800D217C2EBA11189B2194A11801BB280FB66
:104398000352DB17C3EBA21292B2164B1A8000230A
:1043A8000D4A13600D4A13600D4A13600D4A1370CD
:1043B8000022024B1A7003B030BD00BFEA0400208F
:1043C800F6040020F4040020F8040020FA04002079
:1043D800FC04002000050020EC040020F00400206C
:1043E80004050020020500201F85EB51FE04002073
:1043F8000A050020E8040020FEE700BF00B587B0EA
:104408008DF80F004FF48052104B1A6010481A466E
:1044180005E01368591E11600BB9FFF7EDFF03683B
:104428009B6813F0020FF4D04FF4805300930848B0
:104438000DF10F010DF117020123FDF76FFF00B118
:10444800FEE79DF8170007B05DF804FB380100206F
:104458000C05002038B540F080050A4C204608219C
:104468000022FCF7B3F92846FFF7C8FF0020FFF742
:10447800C5FF0546204608210122FCF7A7F9284672
:1044880038BD00BF0010024010B504462420FFF7D5
:10449800E1FF00F03800202800F2E480DFE800F0B7
:1044A80011E2E2E2E2E2E2E23BE2E2E2E2E2E2E25C
:1044B80065E2E2E2E2E2E2E28FE2E2E2E2E2E2E2A4
:1044C800B900B4F9003007EE103AB8EEC77ADFED5C
:1044D800667A27EE277ABDEEC77A17EE103A238060
:1044E800B4F9023007EE103AB8EEC77A27EE277A09
:1044F800BDEEC77A17EE103A6380B4F9043007EEC0
:10450800103AB8EEC77A67EE277AFDEEE77A17EE2B
:10451800903AA38010BDB4F9003007EE103AB8EE17
:10452800C77ADFED527A27EE277ABDEEC77A17EE03
:10453800103A2380B4F9023007EE103AB8EEC77A81
:1045480027EE277ABDEEC77A17EE103A6380B4F9E2
:10455800043007EE103AB8EEC77A67EE277AFDEE18
:10456800E77A17EE903AA38010BDB4F9003007EE51
:10457800103AB8EEC77ADFED3E7A27EE277ABDEE1D
:10458800C77A17EE103A2380B4F9023007EE103AD2
:10459800B8EEC77A27EE277ABDEEC77A17EE103A3B
:1045A8006380B4F9043007EE103AB8EEC77A67EEC4
:1045B800277AFDEEE77A17EE903AA38010BDB4F99A
:1045C800003007EE103AB8EEC77ADFED2A7A27EE08
:1045D800277ABDEEC77A17EE103A2380B4F9023075
:1045E80007EE103AB8EEC77A27EE277ABDEEC77AFB
:1045F80017EE103A6380B4F9043007EE103AB8EEBB
:10460800C77A67EE277AFDEEE77A17EE903AA3802D
:1046180010BDB4F9003007EE103AB8EEC77ADFEDF6
:10462800167A27EE277ABDEEC77A17EE103A23805E
:10463800B4F9023007EE103AB8EEC77A27EE277AB7
:10464800BDEEC77A17EE103A6380B4F9043007EE6E
:10465800103AB8EEC77A67EE277AFDEEE77A17EEDA
:10466800903AA38010BD00BF8FC2753D8FC2F53D43
:10467800EC51383E8FC2753E48E13A3F70B5064668
:104688000D46144608E02846FFF7E4FE06F8010B3D
:10469800013CA4B20135EDB2002CF4D170BD00BFCD
:1046A80038B505460023272405E02046FFF7D2FE4B
:1046B80000F00800C3B2002BF7D0284628210622B4
:1046C800FFF7DCFF2B8803F623432B806B88033B23
:1046D8006B80AB88033BAB802846FFF7D5FE38BD1F
:1046E8002DE9F047012840F09E804FF6FF7399426C
:1046F80040F09980544CD0232373A62384F82030AB
:104708000025A582E582258304F1280000F0AEFA91
:1047180004F1500000F036FAEE2384F880300FF2EE
:104728001019D9E90089C4E9228943A7D7E90067A4
:10473800C4E9246742A1D1E90001C4E926014FF088
:10474800010AA4F802A14FF0020CA4F800C104F574
:104758008473C4F80431A4F8B2C0A4F8B0C004F15A
:10476800B803C4F8B430A4F8CAC0A4F8C8C004F1A7
:10477800D003C4F8CC30A4F8F2C0A4F8F0A004F137
:10478800F803C4F8F43000220023C4E92823C4E95C
:104798002A23C4E94423C4E94623C4E94823C4E9D5
:1047A8004A23C4E95489C4E95667C4E95801A4F8FE
:1047B800CAA1A4F8C8C104F5E871C4F8CC11A4F8DA
:1047C8007AC1A4F878C104F5C071C4F87C11A4F8C2
:1047D80092C1A4F890C104F5CC71C4F89411A4F85E
:1047E800BAC1A4F8B8A104F5E071C4F8BC11C4E9D1
:1047F8005A23C4E95C23C4E97623C4E97823C4E9CD
:104808007A23C4E97C230022104BC4E98623C4E937
:104818008823C4E98A23C4E98C2384F8815084F866
:10482800835084F88450BDE8F08700BFAFF3008060
:10483800FCA9F1D24D62503FFA7E6ABC7493683F7E
:10484800333333333333D33FA00500200080664031
:1048580010B50446143000F039F9204600F05EFD2A
:1048680004F1280000F034FB012384F88130074A62
:10487800138801339BB21380C82B05D1012384F818
:1048880082300022014B1A8010BD00BF180800209A
:1048980010B5094BD3F83832DB6813F0010F09D093
:1048A800054C2046FFF7D4FFD4F838321A6922F0B5
:1048B80001021A6110BD00BFA005002010B582B02A
:1048C800044690F88430012B0BD190F88330012BEB
:1048D80009D190F88130DBB2012B14BF00230123EA
:1048E80002E0002300E00023FBB104F114000621DC
:1048F800FFF746FB20460621FFF742FB04F128009C
:104908000621FFF73DFBD4E90C0102F035FA02ABB2
:1049180023F8020D18460221FFF732FB002384F822
:10492800813084F88430122000E0002002B010BDED
:1049380010B50446002100F09BFB04F1140000218F
:1049480000F016F804F12800002100F073FA10BDF9
:1049580008B501204FF6FF71FFF7C2FE08BD00BF82
:1049680008B500204FF6FF71FFF7BAFE08BD00BF7B
:104978002DE9F04F85B0044600294AD00025AA4603
:10498800A946A8462F462E46DFF89CB09BF8003073
:104998005BB10094062301934FF4C8730293214836
:1049A800A62132220123FCF78BFA238832B21BB2EC
:1049B8009A42BCBF2688B6B263883AB21BB29A4202
:1049C800BCBF6788BFB2A3880FFA88F21BB29A42AD
:1049D800BCBFB4F804801FFA88F823880FFA89F25C
:1049E8001BB29A42C4BFB4F800901FFA89F96388D1
:1049F8000FFA8AF21BB29A42C4BFB4F802A01FFA97
:104A08008AFAA3882AB21BB29A42BFDDA588ADB242
:104A1800BCE70223C3800B2303810123438105B034
:104A2800BDE8F08F600500209805002000B587B02C
:104A38000A438DF81720094B1B7863B10DF1170352
:104A48000093012301934FF4C87202920448A621EF
:104A58002C22FCF79DF907B05DF804FB98050020AF
:104A68006005002010B586B0044600238DF8163086
:104A7800144B1B7863B10DF11603009301230193C6
:104A88004FF4C87202921048A6213122FCF780F92F
:104A980008238DF817300B4B1B7863B10DF1170302
:104AA8000093012301934FF4C87202920648A6218D
:104AB8002D22FCF76DF9204610210F22FFF7B6FFD3
:104AC80006B010BD980500206005002010B584B020
:104AD8000446294B1B785BB10090062301934FF4E1
:104AE800C87302932548A62132220123FCF7E8F96E
:104AF800E38822881BB203FA82F39BB223802389BE
:104B080062881BB203FA82F39BB263806389A2882E
:104B18001BB203FA82F39BB2A38023881BB206EE72
:104B2800903AB8EEE67ADFED167A27EE277ABDEEF0
:104B3800C77A17EE103A9BB2238063881BB206EE41
:104B4800903AB8EEE67A27EE277ABDEEC77A17EEE6
:104B5800103A9BB26380A3881BB206EE903AB8EE77
:104B6800E67A67EE277AFDEEE77A17EE903A9BB27F
:104B7800A38004B010BD00BF980500206005002088
:104B88009A997940EE220270014A8262704700BF0A
:104B980000005C4310B58AB0044601782F4B1B789F
:104BA8005BB104AB0093162301934FF4C8730293CF
:104BB8002B48AA220123FCF783F99DF810209DF8C1
:104BC800113003EB0223A3809DF812209DF81330C7
:104BD80003EB0223E3809DF814209DF8153003EBC6
:104BE800022323819DF816209DF8173003EB02233A
:104BF800A3829DF818209DF8193003EB0223E38265
:104C08009DF81A209DF81B3003EB022323839DF89F
:104C18001C209DF81D3003EB022363819DF81E20A4
:104C28009DF81F3003EB0223A3819DF820209DF8F7
:104C3800213003EB0223E3819DF822209DF82330E5
:104C480003EB022323829DF824209DF8253003EBF3
:104C5800022363820123E3700AB010BD9805002087
:104C68006005002008B5FFF795FF08BD3C2380F8D4
:104C78002030704700B587B007291CD8DFE801F05D
:104C880004070A0D10131619174B836113E0174B0D
:104C9800836110E0164B83610DE0164B83610AE0D7
:104CA800154B836107E0154B836104E0144B836166
:104CB80001E0144B836190F820204B018DF81730E8
:104CC800114B1B7863B10DF1170300930123019376
:104CD8004FF4C87102910D4811461A46FCF758F86E
:104CE80007B05DF804FB00BF48E13A3F1F856B3F02
:104CF800F6289C3F5C8FC23FAE4711400AD723403D
:104D080085EB414033338B40980500206005002037
:104D180030B587B004460D4690F8201090F827303B
:104D28008DF81730094B1B785BB10DF11703009311
:104D3800012301934FF4C872029205480222FCF73E
:104D480027F884F8275007B030BD00BF9805002029
:104D58006005002010B586B0044690F82010742332
:104D68008DF817300C4B1B785BB10DF117030093CE
:104D7800012301934FF4C872029208480022FCF7FD
:104D880007F820460121FFF775FF20460121FFF7AC
:104D9800BFFF06B010BD00BF9805002060050020C9
:104DA800F0B587B004460F4616461D4690F8201009
:104DB80000F121021D4B1B7853B100920623019389
:104DC8004FF4C87302931A4803220123FCF778F8BA
:104DD80094F82730012B12D194F820108DF8173051
:104DE800124B1B785BB10DF117030093012301935C
:104DF8004FF4C87202920E480222FBF7C9FF94F8DA
:104E0800212094F8223043EA02233B8094F825209D
:104E180094F8263043EA0223338094F8232094F848
:104E2800243043EA02232B8007B0F0BD9805002008
:104E3800600500202DE9F04F83B00446002935D0E5
:104E48000025AA46A946A8462F462E4600F1020B81
:104E5800031D0193204621465A46019BFFF7A0FFF8
:104E680021880AB233B29A42C8BF0E46628810B28D
:104E78003BB29842C8BF1746A3880FFA83FE0FFAC1
:104E880088F08645C8BF98460FFA89FE08B286455D
:104E9800C8BF89460FFA8AF011B28842C8BF924645
:104EA80029B21AB29142C8BF1D46D3E7CD23038267
:104EB8004FF6A57343824FF683738382024BC36117
:104EC80003B0BDE8F08F00BF8988A840000000004B
:104ED800F8B506460146821C031DFFF761FF3188BD
:104EE800338A19447288738A1A44B088B38A03448F
:104EF800D6ED067A09B207EE101AB8EEC77A27EE91
:104F0800277ABDEEC77A17EE107ABFB2378012B291
:104F180007EE102AB8EEC77A27EE877ABDEEC77A71
:104F280017EE100A80B270801BB206EE903AB8EE07
:104F3800E67A67EE877AFDEEE77A17EE903AB38065
:104F480000B201F0F1FB04460D4638B201F0ECFB6B
:104F580045EC104B41EC110B00F0D8FF51EC100B55
:104F680086ED020B3FA3D3E9002301F043FC04467E
:104F78000D46C6E90245F06901F0E8FB02460B461A
:104F88002046294601F084FA04460D46C6E9024542
:104F98000022002301F0A0FE40B12046294600224D
:104FA8002B4B01F075FAC6E902010EE020462946AE
:104FB8000022274B01F0AEFE38B1204629460022D8
:104FC800234B01F063FAC6E90201D6E902452046FF
:104FD800294600221F4B01F093FEA8B1204629461E
:104FE80000221D4B01F078FE70B12046294614A31B
:104FF800D3E9002301F028FD13A3D3E9002301F02E
:10500800F9FBC6E90201F8BD204629460022124BE9
:1050180001F076FE98B12046294600220E4B01F099
:1050280035FA00220D4B01F00FFD00220C4B01F068
:10503800E1FB00220A4B01F02BFAC6E90201F8BD98
:105048000000000000E06D400000000000606640C5
:10505800008076400000F03F00006E4000005E4097
:105068000080664026CF030DDCA54C40AFF30080DE
:105078002DE9F04F87B0804600293FD179E098F8B4
:105088000C10424A13785BB1059B009306230193E9
:105098004FF4C87302933E481D220123FBF710FF0B
:1050A80098F80D2098F80E3043EA0222A8F800205C
:1050B80098F80F0098F8103043EA0020A8F802008A
:1050C80098F811E098F8123043EA0E2EA8F804E098
:1050D80012B2D3171AEB020A4BEB030B00B2C1173B
:1050E800361847EB01070FFA8EF2D317A41845EBD1
:1050F800030509F101091FFA89F90AE04FF00009CF
:105108000024002526462F46A246AB4600F10D0294
:105118000592B9F57A7FB2D35046594601F03CFB67
:1051280000221C4B01F090FC01F0FEFD1FFA80F9F3
:105138003046394601F030FB0022164B01F084FC62
:1051480001F0F2FD86B22046294601F025FB002237
:10515800104B01F079FC01F0E7FD80B2C9F10009BC
:10516800A8F806907642A8F808604342A8F80A30E2
:1051780008E04FF62863C38040F2171303814FF607
:10518800C373438107B0BDE8F08F00BF98050020C6
:105198006005002000408F4030B587B00C46057B85
:1051A800194B1B7873B30DF11202059263B105AB6D
:1051B8000093012301934FF4C872029213482946C1
:1051C8001622FBF77DFE00E00120D8B1E40004F0D0
:1051D80018049DF8123003F0E7031C438DF81240C1
:1051E8008DF81340084B1B7863B10DF1130300933E
:1051F800012301934FF4C8720292044829461622EB
:10520800FBF7C6FD07B030BD9805002060050020FB
:1052180030B587B00C46057B194B1B786BB30DF185
:105228001202059263B105AB0093012301934FF479
:10523800C8720292134829461622FBF741FE00E085
:105248000120D0B104F007049DF8123003F0F803F0
:105258001C438DF812408DF81340094B1B7863B13D
:105268000DF113030093012301934FF4C8720292C6
:10527800044829461622FBF78BFD07B030BD00BF56
:10528800980500206005002030B587B00C46057BE6
:10529800194B1B786BB30DF11202059263B105AB84
:1052A8000093012301934FF4C872029213482946D0
:1052B8003E22FBF705FE00E00120D0B104F0070410
:1052C8009DF8123003F0F8031C438DF812408DF856
:1052D8001340094B1B7863B10DF1130300930123AD
:1052E80001934FF4C8720292044829463E22FBF704
:1052F8004FFD07B030BD00BF9805002060050020B5
:1053080010B504460321FFF747FF20460121FFF7A8
:10531800BBFF20460021FFF77BFF10BD10B584B00E
:105328000446017B00F10D02234B1B7853B1009218
:10533800062301934FF4C873029320481D220123CA
:10534800FBF7BEFD617BA37B43EA0121E27B237C63
:1053580043EA0222607CA37C43EA0023E0880144FC
:10536800208902446089034409B207EE101AB8EE96
:10537800C77ADFED137A27EE277ABDEEC77A17EEE4
:10538800101A218012B207EE102AB8EEC77A27EE5B
:10539800277ABDEEC77A17EE102A62801BB206EE96
:1053A800903AB8EEE67A67EE277AFDEEE77A17EEDE
:1053B800903AA38004B010BD980500206005002035
:1053C800855F8A3D30B587B00C4B1A6B42F00802F6
:1053D8001A634FF480540194012302930222049229
:1053E8000393074D284601A9FBF72EF828462146C6
:1053F8000022FBF7EBF907B030BD00BF00380240D0
:10540800000C024010B592B0174B1A6C42F0805253
:105418001A64A3F5E4331A6842F440421A6001237F
:1054280001930293022407944FF4800308930823FE
:1054380009934FF4A8730A930B9407230C9301A8BC
:10544800FCF7C2FA0F230D930E9400230F934FF429
:10545800A05310934FF4805311930DA80521FCF726
:105468005DFD12B010BD00BF0038024008B5FDF761
:10547800BDFF064BD3F8882042F47002C3F8882099
:10548800FAF728FFFFF7BEFF08BD00BF00ED00E0F8
:1054980010B592B0174B1A6C42F080521A64A3F5FB
:1054A800E4331A6842F440421A60012306930793D2
:1054B80002240C944FF480030D9308230E934FF4A9
:1054C800A8730F9310940723119306A8FCF77CFA8E
:1054D8000F2301930294002303934FF4A0530493E2
:1054E8004FF48053059301A80521FCF717FD12B06E
:1054F80010BD00BF0038024030B587B004464F4B9E
:1055080003604FF40072828083604FF4807282815E
:10551800036180218182836140238383484B036236
:10552800828403F560531A6B42F001021A631A6B06
:1055380042F004021A630223049301230293002316
:105548000393838806AD45F8143D00682946FAF7A9
:105558007BFFA3890193A0682946FAF775FFA38A00
:10556800019320692946FAF76FFFA38B0193A0697D
:105578002946FAF769FFA38C0193206A2946FAF7AE
:1055880063FF42F210722F4B1A601A461368002B01
:10559800FCD1A068A1890022FBF718F94FF47A72B0
:1055A800284B1A601A461368002BFCD1A068A18901
:1055B8000122FBF70BF92068A1880022FBF706F906
:1055C8004FF47A721F4B1A601A461368002BFCD1ED
:1055D8002068A1880122FBF7F9F84FF47A72194B79
:1055E8001A601A461368002BFCD12046212100229C
:1055F800FEF700FD2046C0210022FEF7FBFC2046F6
:1056080006210022FEF7F6FC204614210022FEF7B0
:10561800F1FC204620210022FEF7ECFC2046FEF794
:1056280055FD20460C210022FEF7E4FC2068A188E5
:105638000022FBF7CBF8204607B030BD0008024037
:1056480000000240E40400202DE9F04794B006462B
:10565800774B0693774B07930027089710230993F6
:105668004FF480420A920B970C930D970E97724C49
:1056780006AD0FCD0FC40FCD0FC40FCD0FC495E8E5
:10568800030084E803006D4B1A6B42F002021A63B0
:105698001223029303974FF00208CDF810800423D9
:1056A80005934FF0400A14AC44F84CAD644D2846BD
:1056B8002146FAF7C9FE4FF40079CDF80490284640
:1056C8002146FAF7C1FE112302930397CDF8108003
:1056D800CDF804A028462146FAF7B6FE02970397AC
:1056E800CDF81080CDF8049028462146FAF7ACFE94
:1056F800544C08E028464021FBF7A8F864232360AF
:105708002368002BFCD128464FF40071FBF724F8DE
:105718000128EFD109E028464021FBF797F86423D8
:1057280023602368002BFCD101E0454D454C2846F9
:105738004FF40071FBF710F80128ECD11223029303
:1057480000230393022304930423059314AC4023FA
:1057580044F84C3D3A4D28462146FAF775FE4FF479
:105768000073019328462146FAF76EFE334B1A6CF4
:1057780042F400121A641A6A42F400121A621A6A8F
:1057880022F400121A622C48FBF710FA8DF8040074
:105798004FF4FA622B4B1A601A68002AFCD10122D6
:1057A800294B1A703046FFF7ABFD06F11400FFF7DE
:1057B80059F906F12800FFF7CDFA06F15000FFF776
:1057C80051FA3046FFF7B4F81C4B1A6C42F002024B
:1057D8001A641E4B1A681E4BA3FB02139B0B013B5A
:1057E8009BB21C4AC6F838220922C6F84422C6F8D9
:1057F8003C320023C6F84832C6F84032C6F84C326C
:1058080006F50E763046FDF711F800B1FEE71D20CB
:1058180004210022FAF7B4FD1D20FAF7F3FD304603
:10582800FCF72AFF00B1FEE714B0BDE8F08700BF1F
:1058380000540040801A060060050020003802402D
:1058480000040240E4040020980500200C00002019
:105858005917B7D100040040F0B593B0FAF73AFDF4
:10586800FFF716FE834C204683490022FDF7E4FD2E
:1058780020468249FDF7F8FD20468149FEF7BEFA29
:105888002046FDF7F9FD7F4B1A687F4BA3FB0212F8
:10589800920C013AB2F1807F0BD27C4B5A60F02116
:1058A8007B4A82F8231000229A6007211960134668
:1058B80000E0012303B1FEE708A8FFF71DFE00275B
:1058C8008DF80870734D6B6C43F480436B646D4BBB
:1058D8001A68714BA3FB02139B0B013B9BB22A6C0A
:1058E80042F001022A646D4C4FF080422260092286
:1058F800E26063602761A76067612046FCF796FF56
:105908001C2039460522FAF73BFD1C20FAF77AFDE0
:105918002046FCF7B1FE2B6B43F002032B63604B70
:105928000493059712AC202344F83C3DA5F5505547
:1059380028462146FAF788FD802303932846214606
:10594800FAF782FD4FF48073039328462146FAF74D
:105958007BFD0620FAF7F6FC172039460422FAF7F1
:105968000FFD1720FAF74EFD08A8FEF7AFFB4D48CC
:10597800FFF76AFE6846FFF725FD4B4D4B4C2B7829
:105988008DF804306B788DF80530AB7803A80121C9
:10599800FEF7C8FA01281BD19DF80C30452B0CD016
:1059A800532B02D0282B13D10EE03E4B012283F853
:1059B8008320002283F884200AE03A4B002283F8EF
:1059C800832083F8842003E00122364B83F8842067
:1059D800344B93F88230DBB2012B03D10022314BD8
:1059E80083F882202F48FEF769FF30B10137BFB234
:1059F80042F210739F4208BF00279DF80430032B22
:105A080005D108A82A4900221346FEF771FB9DF824
:105A18000560012E06D19DF8083013F1FF3318BF39
:105A2800012300E000230BB322484FF480510122E8
:105A3800FAF7CCFE08A8204905221346FEF758FBC2
:105A48001E4B23602368002BFCD11A484FF4805169
:105A58000022FAF7BBFE08A8194905221346FEF7EB
:105A680047FB184B23602368002BFCD18DF8086096
:105A780085E700BF1C0800203C01002054000020DE
:105A8800200100200C00002083DE1B4310E000E012
:105A980000ED00E0003802405917B7D19804002003
:105AA80000003110A0050020E0040020E4040020DC
:105AB800647A0008000C0240747A000840420F0023
:105AC800787A000820A107002DE9F04387B0036821
